{"abi":[{"type":"constructor","inputs":[],"stateMutability":"nonpayable"},{"type":"function","name":"DEFAULT_ADMIN_ROLE","inputs":[],"outputs":[{"name":"","type":"bytes32","internalType":"bytes32"}],"stateMutability":"view"},{"type":"function","name":"MAX_AVATAR_LENGTH","inputs":[],"outputs":[{"name":"","type":"uint256","internalType":"uint256"}],"stateMutability":"view"},{"type":"function","name":"MAX_BIO_LENGTH","inputs":[],"outputs":[{"name":"","type":"uint256","internalType":"uint256"}],"stateMutability":"view"},{"type":"function","name":"MAX_COMMENT_LENGTH","inputs":[],"outputs":[{"name":"","type":"uint256","internalType":"uint256"}],"stateMutability":"view"},{"type":"function","name":"MAX_NICKNAME_LENGTH","inputs":[],"outputs":[{"name":"","type":"uint256","internalType":"uint256"}],"stateMutability":"view"},{"type":"function","name":"MAX_ORIGINAL_AUTHOR_LENGTH","inputs":[],"outputs":[{"name":"","type":"uint256","internalType":"uint256"}],"stateMutability":"view"},{"type":"function","name":"MAX_SUMMARY_LENGTH","inputs":[],"outputs":[{"name":"","type":"uint256","internalType":"uint256"}],"stateMutability":"view"},{"type":"function","name":"MAX_TITLE_LENGTH","inputs":[],"outputs":[{"name":"","type":"uint256","internalType":"uint256"}],"stateMutability":"view"},{"type":"function","name":"PAUSER_ROLE","inputs":[],"outputs":[{"name":"","type":"bytes32","internalType":"bytes32"}],"stateMutability":"view"},{"type":"function","name":"SCORE_DISLIKE","inputs":[],"outputs":[{"name":"","type":"uint8","internalType":"uint8"}],"stateMutability":"view"},{"type":"function","name":"SCORE_LIKE","inputs":[],"outputs":[{"name":"","type":"uint8","internalType":"uint8"}],"stateMutability":"view"},{"type":"function","name":"SCORE_NEUTRAL","inputs":[],"outputs":[{"name":"","type":"uint8","internalType":"uint8"}],"stateMutability":"view"},{"type":"function","name":"UPGRADER_ROLE","inputs":[],"outputs":[{"name":"","type":"bytes32","internalType":"bytes32"}],"stateMutability":"view"},{"type":"function","name":"UPGRADE_INTERFACE_VERSION","inputs":[],"outputs":[{"name":"","type":"string","internalType":"string"}],"stateMutability":"view"},{"type":"function","name":"articles","inputs":[{"name":"","type":"uint256","internalType":"uint256"}],"outputs":[{"name":"author","type":"address","internalType":"address"},{"name":"timestamp","type":"uint64","internalType":"uint64"},{"name":"categoryId","type":"uint16","internalType":"uint16"},{"name":"originality","type":"uint8","internalType":"enum BlogHub.Originality"},{"name":"collectPrice","type":"uint96","internalType":"uint96"},{"name":"maxCollectSupply","type":"uint32","internalType":"uint32"},{"name":"collectCount","type":"uint32","internalType":"uint32"},{"name":"arweaveHash","type":"string","internalType":"string"}],"stateMutability":"view"},{"type":"function","name":"arweaveIdToArticleId","inputs":[{"name":"","type":"string","internalType":"string"}],"outputs":[{"name":"","type":"uint256","internalType":"uint256"}],"stateMutability":"view"},{"type":"function","name":"balanceOf","inputs":[{"name":"account","type":"address","internalType":"address"},{"name":"id","type":"uint256","internalType":"uint256"}],"outputs":[{"name":"","type":"uint256","internalType":"uint256"}],"stateMutability":"view"},{"type":"function","name":"balanceOfBatch","inputs":[{"name":"accounts","type":"address[]","internalType":"address[]"},{"name":"ids","type":"uint256[]","internalType":"uint256[]"}],"outputs":[{"name":"","type":"uint256[]","internalType":"uint256[]"}],"stateMutability":"view"},{"type":"function","name":"collect","inputs":[{"name":"_articleId","type":"uint256","internalType":"uint256"},{"name":"_referrer","type":"address","internalType":"address"}],"outputs":[],"stateMutability":"payable"},{"type":"function","name":"collectWithSessionKey","inputs":[{"name":"owner","type":"address","internalType":"address"},{"name":"sessionKey","type":"address","internalType":"address"},{"name":"_articleId","type":"uint256","internalType":"uint256"},{"name":"_referrer","type":"address","internalType":"address"},{"name":"deadline","type":"uint256","internalType":"uint256"},{"name":"signature","type":"bytes","internalType":"bytes"}],"outputs":[],"stateMutability":"payable"},{"type":"function","name":"editArticle","inputs":[{"name":"params","type":"tuple","internalType":"struct BlogHub.EditArticleParams","components":[{"name":"articleId","type":"uint256","internalType":"uint256"},{"name":"originalAuthor","type":"string","internalType":"string"},{"name":"title","type":"string","internalType":"string"},{"name":"summary","type":"string","internalType":"string"},{"name":"categoryId","type":"uint64","internalType":"uint64"}]}],"outputs":[],"stateMutability":"nonpayable"},{"type":"function","name":"editArticleWithSessionKey","inputs":[{"name":"owner","type":"address","internalType":"address"},{"name":"sessionKey","type":"address","internalType":"address"},{"name":"params","type":"tuple","internalType":"struct BlogHub.EditArticleParams","components":[{"name":"articleId","type":"uint256","internalType":"uint256"},{"name":"originalAuthor","type":"string","internalType":"string"},{"name":"title","type":"string","internalType":"string"},{"name":"summary","type":"string","internalType":"string"},{"name":"categoryId","type":"uint64","internalType":"uint64"}]},{"name":"deadline","type":"uint256","internalType":"uint256"},{"name":"signature","type":"bytes","internalType":"bytes"}],"outputs":[],"stateMutability":"nonpayable"},{"type":"function","name":"evaluate","inputs":[{"name":"_articleId","type":"uint256","internalType":"uint256"},{"name":"_score","type":"uint8","internalType":"uint8"},{"name":"_content","type":"string","internalType":"string"},{"name":"_referrer","type":"address","internalType":"address"},{"name":"_parentCommentId","type":"uint256","internalType":"uint256"}],"outputs":[],"stateMutability":"payable"},{"type":"function","name":"evaluateWithSessionKey","inputs":[{"name":"owner","type":"address","internalType":"address"},{"name":"sessionKey","type":"address","internalType":"address"},{"name":"_articleId","type":"uint256","internalType":"uint256"},{"name":"_score","type":"uint8","internalType":"uint8"},{"name":"_content","type":"string","internalType":"string"},{"name":"_referrer","type":"address","internalType":"address"},{"name":"_parentCommentId","type":"uint256","internalType":"uint256"},{"name":"deadline","type":"uint256","internalType":"uint256"},{"name":"signature","type":"bytes","internalType":"bytes"}],"outputs":[],"stateMutability":"payable"},{"type":"function","name":"follow","inputs":[{"name":"_target","type":"address","internalType":"address"},{"name":"_status","type":"bool","internalType":"bool"}],"outputs":[],"stateMutability":"nonpayable"},{"type":"function","name":"followWithSessionKey","inputs":[{"name":"owner","type":"address","internalType":"address"},{"name":"sessionKey","type":"address","internalType":"address"},{"name":"_target","type":"address","internalType":"address"},{"name":"_status","type":"bool","internalType":"bool"},{"name":"deadline","type":"uint256","internalType":"uint256"},{"name":"signature","type":"bytes","internalType":"bytes"}],"outputs":[],"stateMutability":"nonpayable"},{"type":"function","name":"getArticleByArweaveId","inputs":[{"name":"_arweaveId","type":"string","internalType":"string"}],"outputs":[{"name":"","type":"tuple","internalType":"struct BlogHub.Article","components":[{"name":"author","type":"address","internalType":"address"},{"name":"timestamp","type":"uint64","internalType":"uint64"},{"name":"categoryId","type":"uint16","internalType":"uint16"},{"name":"originality","type":"uint8","internalType":"enum BlogHub.Originality"},{"name":"collectPrice","type":"uint96","internalType":"uint96"},{"name":"maxCollectSupply","type":"uint32","internalType":"uint32"},{"name":"collectCount","type":"uint32","internalType":"uint32"},{"name":"arweaveHash","type":"string","internalType":"string"}]}],"stateMutability":"view"},{"type":"function","name":"getArticleIdByArweaveId","inputs":[{"name":"_arweaveId","type":"string","internalType":"string"}],"outputs":[{"name":"","type":"uint256","internalType":"uint256"}],"stateMutability":"view"},{"type":"function","name":"getRoleAdmin","inputs":[{"name":"role","type":"bytes32","internalType":"bytes32"}],"outputs":[{"name":"","type":"bytes32","internalType":"bytes32"}],"stateMutability":"view"},{"type":"function","name":"grantRole","inputs":[{"name":"role","type":"bytes32","internalType":"bytes32"},{"name":"account","type":"address","internalType":"address"}],"outputs":[],"stateMutability":"nonpayable"},{"type":"function","name":"hasRole","inputs":[{"name":"role","type":"bytes32","internalType":"bytes32"},{"name":"account","type":"address","internalType":"address"}],"outputs":[{"name":"","type":"bool","internalType":"bool"}],"stateMutability":"view"},{"type":"function","name":"initialize","inputs":[{"name":"_initialOwner","type":"address","internalType":"address"},{"name":"_treasury","type":"address","internalType":"address"}],"outputs":[],"stateMutability":"nonpayable"},{"type":"function","name":"isApprovedForAll","inputs":[{"name":"account","type":"address","internalType":"address"},{"name":"operator","type":"address","internalType":"address"}],"outputs":[{"name":"","type":"bool","internalType":"bool"}],"stateMutability":"view"},{"type":"function","name":"likeComment","inputs":[{"name":"_articleId","type":"uint256","internalType":"uint256"},{"name":"_commentId","type":"uint256","internalType":"uint256"},{"name":"_commenter","type":"address","internalType":"address"},{"name":"_referrer","type":"address","internalType":"address"}],"outputs":[],"stateMutability":"payable"},{"type":"function","name":"likeCommentWithSessionKey","inputs":[{"name":"owner","type":"address","internalType":"address"},{"name":"sessionKey","type":"address","internalType":"address"},{"name":"_articleId","type":"uint256","internalType":"uint256"},{"name":"_commentId","type":"uint256","internalType":"uint256"},{"name":"_commenter","type":"address","internalType":"address"},{"name":"_referrer","type":"address","internalType":"address"},{"name":"deadline","type":"uint256","internalType":"uint256"},{"name":"signature","type":"bytes","internalType":"bytes"}],"outputs":[],"stateMutability":"payable"},{"type":"function","name":"minActionValue","inputs":[],"outputs":[{"name":"","type":"uint256","internalType":"uint256"}],"stateMutability":"view"},{"type":"function","name":"multicall","inputs":[{"name":"data","type":"bytes[]","internalType":"bytes[]"}],"outputs":[{"name":"results","type":"bytes[]","internalType":"bytes[]"}],"stateMutability":"nonpayable"},{"type":"function","name":"nextArticleId","inputs":[],"outputs":[{"name":"","type":"uint256","internalType":"uint256"}],"stateMutability":"view"},{"type":"function","name":"pause","inputs":[],"outputs":[],"stateMutability":"nonpayable"},{"type":"function","name":"paused","inputs":[],"outputs":[{"name":"","type":"bool","internalType":"bool"}],"stateMutability":"view"},{"type":"function","name":"platformFeeBps","inputs":[],"outputs":[{"name":"","type":"uint96","internalType":"uint96"}],"stateMutability":"view"},{"type":"function","name":"platformTreasury","inputs":[],"outputs":[{"name":"","type":"address","internalType":"address"}],"stateMutability":"view"},{"type":"function","name":"proxiableUUID","inputs":[],"outputs":[{"name":"","type":"bytes32","internalType":"bytes32"}],"stateMutability":"view"},{"type":"function","name":"publish","inputs":[{"name":"params","type":"tuple","internalType":"struct BlogHub.PublishParams","components":[{"name":"arweaveId","type":"string","internalType":"string"},{"name":"categoryId","type":"uint64","internalType":"uint64"},{"name":"royaltyBps","type":"uint96","internalType":"uint96"},{"name":"originalAuthor","type":"string","internalType":"string"},{"name":"title","type":"string","internalType":"string"},{"name":"summary","type":"string","internalType":"string"},{"name":"trueAuthor","type":"address","internalType":"address"},{"name":"collectPrice","type":"uint256","internalType":"uint256"},{"name":"maxCollectSupply","type":"uint256","internalType":"uint256"},{"name":"originality","type":"uint8","internalType":"enum BlogHub.Originality"}]}],"outputs":[{"name":"","type":"uint256","internalType":"uint256"}],"stateMutability":"nonpayable"},{"type":"function","name":"publishWithSessionKey","inputs":[{"name":"owner","type":"address","internalType":"address"},{"name":"sessionKey","type":"address","internalType":"address"},{"name":"params","type":"tuple","internalType":"struct BlogHub.PublishParams","components":[{"name":"arweaveId","type":"string","internalType":"string"},{"name":"categoryId","type":"uint64","internalType":"uint64"},{"name":"royaltyBps","type":"uint96","internalType":"uint96"},{"name":"originalAuthor","type":"string","internalType":"string"},{"name":"title","type":"string","internalType":"string"},{"name":"summary","type":"string","internalType":"string"},{"name":"trueAuthor","type":"address","internalType":"address"},{"name":"collectPrice","type":"uint256","internalType":"uint256"},{"name":"maxCollectSupply","type":"uint256","internalType":"uint256"},{"name":"originality","type":"uint8","internalType":"enum BlogHub.Originality"}]},{"name":"deadline","type":"uint256","internalType":"uint256"},{"name":"signature","type":"bytes","internalType":"bytes"}],"outputs":[{"name":"","type":"uint256","internalType":"uint256"}],"stateMutability":"nonpayable"},{"type":"function","name":"renounceRole","inputs":[{"name":"role","type":"bytes32","internalType":"bytes32"},{"name":"callerConfirmation","type":"address","internalType":"address"}],"outputs":[],"stateMutability":"nonpayable"},{"type":"function","name":"revokeRole","inputs":[{"name":"role","type":"bytes32","internalType":"bytes32"},{"name":"account","type":"address","internalType":"address"}],"outputs":[],"stateMutability":"nonpayable"},{"type":"function","name":"royaltyInfo","inputs":[{"name":"tokenId","type":"uint256","internalType":"uint256"},{"name":"salePrice","type":"uint256","internalType":"uint256"}],"outputs":[{"name":"receiver","type":"address","internalType":"address"},{"name":"amount","type":"uint256","internalType":"uint256"}],"stateMutability":"view"},{"type":"function","name":"safeBatchTransferFrom","inputs":[{"name":"from","type":"address","internalType":"address"},{"name":"to","type":"address","internalType":"address"},{"name":"ids","type":"uint256[]","internalType":"uint256[]"},{"name":"values","type":"uint256[]","internalType":"uint256[]"},{"name":"data","type":"bytes","internalType":"bytes"}],"outputs":[],"stateMutability":"nonpayable"},{"type":"function","name":"safeTransferFrom","inputs":[{"name":"from","type":"address","internalType":"address"},{"name":"to","type":"address","internalType":"address"},{"name":"id","type":"uint256","internalType":"uint256"},{"name":"value","type":"uint256","internalType":"uint256"},{"name":"data","type":"bytes","internalType":"bytes"}],"outputs":[],"stateMutability":"nonpayable"},{"type":"function","name":"sessionKeyManager","inputs":[],"outputs":[{"name":"","type":"address","internalType":"contract ISessionKeyManager"}],"stateMutability":"view"},{"type":"function","name":"setApprovalForAll","inputs":[{"name":"operator","type":"address","internalType":"address"},{"name":"approved","type":"bool","internalType":"bool"}],"outputs":[],"stateMutability":"nonpayable"},{"type":"function","name":"setMinActionValue","inputs":[{"name":"_minActionValue","type":"uint256","internalType":"uint256"}],"outputs":[],"stateMutability":"nonpayable"},{"type":"function","name":"setPlatformFee","inputs":[{"name":"_feeBps","type":"uint96","internalType":"uint96"}],"outputs":[],"stateMutability":"nonpayable"},{"type":"function","name":"setPlatformTreasury","inputs":[{"name":"_treasury","type":"address","internalType":"address"}],"outputs":[],"stateMutability":"nonpayable"},{"type":"function","name":"setSessionKeyManager","inputs":[{"name":"_sessionKeyManager","type":"address","internalType":"address"}],"outputs":[],"stateMutability":"nonpayable"},{"type":"function","name":"supportsInterface","inputs":[{"name":"interfaceId","type":"bytes4","internalType":"bytes4"}],"outputs":[{"name":"","type":"bool","internalType":"bool"}],"stateMutability":"view"},{"type":"function","name":"unpause","inputs":[],"outputs":[],"stateMutability":"nonpayable"},{"type":"function","name":"updateProfile","inputs":[{"name":"_nickname","type":"string","internalType":"string"},{"name":"_avatar","type":"string","internalType":"string"},{"name":"_bio","type":"string","internalType":"string"}],"outputs":[],"stateMutability":"nonpayable"},{"type":"function","name":"upgradeToAndCall","inputs":[{"name":"newImplementation","type":"address","internalType":"address"},{"name":"data","type":"bytes","internalType":"bytes"}],"outputs":[],"stateMutability":"payable"},{"type":"function","name":"uri","inputs":[{"name":"_id","type":"uint256","internalType":"uint256"}],"outputs":[{"name":"","type":"string","internalType":"string"}],"stateMutability":"view"},{"type":"event","name":"ApprovalForAll","inputs":[{"name":"account","type":"address","indexed":true,"internalType":"address"},{"name":"operator","type":"address","indexed":true,"internalType":"address"},{"name":"approved","type":"bool","indexed":false,"internalType":"bool"}],"anonymous":false},{"type":"event","name":"ArticleCollected","inputs":[{"name":"articleId","type":"uint256","indexed":true,"internalType":"uint256"},{"name":"collector","type":"address","indexed":true,"internalType":"address"},{"name":"amount","type":"uint256","indexed":false,"internalType":"uint256"},{"name":"tokenId","type":"uint256","indexed":false,"internalType":"uint256"}],"anonymous":false},{"type":"event","name":"ArticleEdited","inputs":[{"name":"articleId","type":"uint256","indexed":true,"internalType":"uint256"},{"name":"originalAuthor","type":"string","indexed":false,"internalType":"string"},{"name":"title","type":"string","indexed":false,"internalType":"string"},{"name":"summary","type":"string","indexed":false,"internalType":"string"},{"name":"categoryId","type":"uint64","indexed":false,"internalType":"uint64"}],"anonymous":false},{"type":"event","name":"ArticleEvaluated","inputs":[{"name":"articleId","type":"uint256","indexed":true,"internalType":"uint256"},{"name":"user","type":"address","indexed":true,"internalType":"address"},{"name":"score","type":"uint8","indexed":false,"internalType":"uint8"},{"name":"amountPaid","type":"uint256","indexed":false,"internalType":"uint256"}],"anonymous":false},{"type":"event","name":"ArticlePublished","inputs":[{"name":"articleId","type":"uint256","indexed":true,"internalType":"uint256"},{"name":"author","type":"address","indexed":true,"internalType":"address"},{"name":"categoryId","type":"uint256","indexed":true,"internalType":"uint256"},{"name":"arweaveId","type":"string","indexed":false,"internalType":"string"},{"name":"originalAuthor","type":"string","indexed":false,"internalType":"string"},{"name":"title","type":"string","indexed":false,"internalType":"string"},{"name":"summary","type":"string","indexed":false,"internalType":"string"},{"name":"trueAuthor","type":"address","indexed":false,"internalType":"address"},{"name":"collectPrice","type":"uint256","indexed":false,"internalType":"uint256"},{"name":"maxCollectSupply","type":"uint256","indexed":false,"internalType":"uint256"},{"name":"originality","type":"uint8","indexed":false,"internalType":"enum BlogHub.Originality"}],"anonymous":false},{"type":"event","name":"CommentAdded","inputs":[{"name":"articleId","type":"uint256","indexed":true,"internalType":"uint256"},{"name":"commenter","type":"address","indexed":true,"internalType":"address"},{"name":"content","type":"string","indexed":false,"internalType":"string"},{"name":"parentCommentId","type":"uint256","indexed":false,"internalType":"uint256"},{"name":"score","type":"uint8","indexed":false,"internalType":"uint8"}],"anonymous":false},{"type":"event","name":"CommentLiked","inputs":[{"name":"articleId","type":"uint256","indexed":true,"internalType":"uint256"},{"name":"commentId","type":"uint256","indexed":true,"internalType":"uint256"},{"name":"liker","type":"address","indexed":true,"internalType":"address"},{"name":"commenter","type":"address","indexed":false,"internalType":"address"},{"name":"amountPaid","type":"uint256","indexed":false,"internalType":"uint256"}],"anonymous":false},{"type":"event","name":"FollowStatusChanged","inputs":[{"name":"follower","type":"address","indexed":true,"internalType":"address"},{"name":"target","type":"address","indexed":true,"internalType":"address"},{"name":"isFollowing","type":"bool","indexed":false,"internalType":"bool"}],"anonymous":false},{"type":"event","name":"Initialized","inputs":[{"name":"version","type":"uint64","indexed":false,"internalType":"uint64"}],"anonymous":false},{"type":"event","name":"MinActionValueUpdated","inputs":[{"name":"newValue","type":"uint256","indexed":false,"internalType":"uint256"}],"anonymous":false},{"type":"event","name":"Paused","inputs":[{"name":"account","type":"address","indexed":false,"internalType":"address"}],"anonymous":false},{"type":"event","name":"PlatformFeeUpdated","inputs":[{"name":"newFeeBps","type":"uint96","indexed":false,"internalType":"uint96"}],"anonymous":false},{"type":"event","name":"ReferralPaid","inputs":[{"name":"referrer","type":"address","indexed":true,"internalType":"address"},{"name":"amount","type":"uint256","indexed":false,"internalType":"uint256"}],"anonymous":false},{"type":"event","name":"RoleAdminChanged","inputs":[{"name":"role","type":"bytes32","indexed":true,"internalType":"bytes32"},{"name":"previousAdminRole","type":"bytes32","indexed":true,"internalType":"bytes32"},{"name":"newAdminRole","type":"bytes32","indexed":true,"internalType":"bytes32"}],"anonymous":false},{"type":"event","name":"RoleGranted","inputs":[{"name":"role","type":"bytes32","indexed":true,"internalType":"bytes32"},{"name":"account","type":"address","indexed":true,"internalType":"address"},{"name":"sender","type":"address","indexed":true,"internalType":"address"}],"anonymous":false},{"type":"event","name":"RoleRevoked","inputs":[{"name":"role","type":"bytes32","indexed":true,"internalType":"bytes32"},{"name":"account","type":"address","indexed":true,"internalType":"address"},{"name":"sender","type":"address","indexed":true,"internalType":"address"}],"anonymous":false},{"type":"event","name":"SessionKeyManagerUpdated","inputs":[{"name":"newManager","type":"address","indexed":true,"internalType":"address"}],"anonymous":false},{"type":"event","name":"SessionKeyOperationExecuted","inputs":[{"name":"owner","type":"address","indexed":true,"internalType":"address"},{"name":"sessionKey","type":"address","indexed":true,"internalType":"address"},{"name":"selector","type":"bytes4","indexed":false,"internalType":"bytes4"}],"anonymous":false},{"type":"event","name":"TransferBatch","inputs":[{"name":"operator","type":"address","indexed":true,"internalType":"address"},{"name":"from","type":"address","indexed":true,"internalType":"address"},{"name":"to","type":"address","indexed":true,"internalType":"address"},{"name":"ids","type":"uint256[]","indexed":false,"internalType":"uint256[]"},{"name":"values","type":"uint256[]","indexed":false,"internalType":"uint256[]"}],"anonymous":false},{"type":"event","name":"TransferSingle","inputs":[{"name":"operator","type":"address","indexed":true,"internalType":"address"},{"name":"from","type":"address","indexed":true,"internalType":"address"},{"name":"to","type":"address","indexed":true,"internalType":"address"},{"name":"id","type":"uint256","indexed":false,"internalType":"uint256"},{"name":"value","type":"uint256","indexed":false,"internalType":"uint256"}],"anonymous":false},{"type":"event","name":"TreasuryUpdated","inputs":[{"name":"newTreasury","type":"address","indexed":false,"internalType":"address"}],"anonymous":false},{"type":"event","name":"URI","inputs":[{"name":"value","type":"string","indexed":false,"internalType":"string"},{"name":"id","type":"uint256","indexed":true,"internalType":"uint256"}],"anonymous":false},{"type":"event","name":"Unpaused","inputs":[{"name":"account","type":"address","indexed":false,"internalType":"address"}],"anonymous":false},{"type":"event","name":"Upgraded","inputs":[{"name":"implementation","type":"address","indexed":true,"internalType":"address"}],"anonymous":false},{"type":"event","name":"UserProfileUpdated","inputs":[{"name":"user","type":"address","indexed":true,"internalType":"address"},{"name":"nickname","type":"string","indexed":false,"internalType":"string"},{"name":"avatar","type":"string","indexed":false,"internalType":"string"},{"name":"bio","type":"string","indexed":false,"internalType":"string"}],"anonymous":false},{"type":"error","name":"AccessControlBadConfirmation","inputs":[]},{"type":"error","name":"AccessControlUnauthorizedAccount","inputs":[{"name":"account","type":"address","internalType":"address"},{"name":"neededRole","type":"bytes32","internalType":"bytes32"}]},{"type":"error","name":"AddressEmptyCode","inputs":[{"name":"target","type":"address","internalType":"address"}]},{"type":"error","name":"ArticleNotFound","inputs":[]},{"type":"error","name":"CategoryIdTooHigh","inputs":[]},{"type":"error","name":"CollectNotEnabled","inputs":[]},{"type":"error","name":"CollectPriceTooHigh","inputs":[]},{"type":"error","name":"ContentRequiredForScore","inputs":[]},{"type":"error","name":"ERC1155InsufficientBalance","inputs":[{"name":"sender","type":"address","internalType":"address"},{"name":"balance","type":"uint256","internalType":"uint256"},{"name":"needed","type":"uint256","internalType":"uint256"},{"name":"tokenId","type":"uint256","internalType":"uint256"}]},{"type":"error","name":"ERC1155InvalidApprover","inputs":[{"name":"approver","type":"address","internalType":"address"}]},{"type":"error","name":"ERC1155InvalidArrayLength","inputs":[{"name":"idsLength","type":"uint256","internalType":"uint256"},{"name":"valuesLength","type":"uint256","internalType":"uint256"}]},{"type":"error","name":"ERC1155InvalidOperator","inputs":[{"name":"operator","type":"address","internalType":"address"}]},{"type":"error","name":"ERC1155InvalidReceiver","inputs":[{"name":"receiver","type":"address","internalType":"address"}]},{"type":"error","name":"ERC1155InvalidSender","inputs":[{"name":"sender","type":"address","internalType":"address"}]},{"type":"error","name":"ERC1155MissingApprovalForAll","inputs":[{"name":"operator","type":"address","internalType":"address"},{"name":"owner","type":"address","internalType":"address"}]},{"type":"error","name":"ERC1967InvalidImplementation","inputs":[{"name":"implementation","type":"address","internalType":"address"}]},{"type":"error","name":"ERC1967NonPayable","inputs":[]},{"type":"error","name":"ERC2981InvalidDefaultRoyalty","inputs":[{"name":"numerator","type":"uint256","internalType":"uint256"},{"name":"denominator","type":"uint256","internalType":"uint256"}]},{"type":"error","name":"ERC2981InvalidDefaultRoyaltyReceiver","inputs":[{"name":"receiver","type":"address","internalType":"address"}]},{"type":"error","name":"ERC2981InvalidTokenRoyalty","inputs":[{"name":"tokenId","type":"uint256","internalType":"uint256"},{"name":"numerator","type":"uint256","internalType":"uint256"},{"name":"denominator","type":"uint256","internalType":"uint256"}]},{"type":"error","name":"ERC2981InvalidTokenRoyaltyReceiver","inputs":[{"name":"tokenId","type":"uint256","internalType":"uint256"},{"name":"receiver","type":"address","internalType":"address"}]},{"type":"error","name":"EnforcedPause","inputs":[]},{"type":"error","name":"ExpectedPause","inputs":[]},{"type":"error","name":"FailedCall","inputs":[]},{"type":"error","name":"FeeTooHigh","inputs":[]},{"type":"error","name":"InsufficientPayment","inputs":[]},{"type":"error","name":"InvalidAddress","inputs":[]},{"type":"error","name":"InvalidCommenter","inputs":[]},{"type":"error","name":"InvalidInitialization","inputs":[]},{"type":"error","name":"InvalidLength","inputs":[]},{"type":"error","name":"InvalidScore","inputs":[]},{"type":"error","name":"MaxCollectSupplyTooHigh","inputs":[]},{"type":"error","name":"MaxSupplyReached","inputs":[]},{"type":"error","name":"NotArticleAuthor","inputs":[]},{"type":"error","name":"NotInitializing","inputs":[]},{"type":"error","name":"OriginalAuthorTooLong","inputs":[]},{"type":"error","name":"ReentrancyGuardReentrantCall","inputs":[]},{"type":"error","name":"RoyaltyTooHigh","inputs":[]},{"type":"error","name":"SessionKeyManagerNotSet","inputs":[]},{"type":"error","name":"SessionKeyValidationFailed","inputs":[]},{"type":"error","name":"SpamProtection","inputs":[]},{"type":"error","name":"SummaryTooLong","inputs":[]},{"type":"error","name":"TitleTooLong","inputs":[]},{"type":"error","name":"TransferFailed","inputs":[]},{"type":"error","name":"UUPSUnauthorizedCallContext","inputs":[]},{"type":"error","name":"UUPSUnsupportedProxiableUUID","inputs":[{"name":"slot","type":"bytes32","internalType":"bytes32"}]}],"bytecode":{"object":"0x60a080604052346100e65760017f9b779b17422d0df92223018b32b4d1fa46e071723d6817e2486d003becc55f0055306080525f516020614fb35f395f51905f525460ff8160401c166100d7576002600160401b03196001600160401b03821601610084575b604051614ec890816100eb823960805181818161124601526113ba0152f35b6001600160401b0319166001600160401b039081175f516020614fb35f395f51905f525581527fc7f505b2f371ae2175ee4913f4499e1f2633a7b5936321eed1cdaeb6115181d290602090a15f80610065565b63f92ee8a960e01b5f5260045ffd5b5f80fdfe60806040526004361015610011575f80fd5b5f3560e01c8062fdd58e146103d457806301ffc9a7146103cf578063060d752c146103ca5780630b826190146103c55780630e89341c146103c05780631105a5eb146103bb57806319e94a6e146102df5780631fe9d578146103a257806322dcd13e146103b6578063248a9ca3146103b15780632a55205a146103ac5780632eb2c2d6146103a75780632ef9a160146103a25780632f2ff15d1461039d57806336568abe146103985780633f4ba83a14610393578063473106b21461031b578063485cc9551461038e5780634b65f344146103895780634c0e8045146103845780634e1273f41461037f5780634f1ef2861461037a57806352cbd3be1461037557806352d1902d14610370578063544b5e611461036b5780635780400b146103665780635856e4fa146103615780635c975abb1461035c57806363c3cc161461035757806363c4ea4d14610352578063795146ef1461034d57806379c61f28146103485780637cd86d6014610343578063837fa3fd1461033e5780638456cb591461033957806385c3ab54146103345780638cbd215e1461032f5780638d3c100a1461032a57806391d1485414610325578063989cfb5714610320578063a217fddf1461031b578063a22cb46514610316578063ac9650d814610311578063ad3cb1cc1461030c578063b055d7aa14610307578063b259ecde14610302578063c477d7f7146102fd578063d547741f146102f8578063dffd40f2146102f3578063e138818c146102ee578063e1d90b34146102e9578063e63ab1e9146102e4578063e8f100bf146102df578063e985e9c5146102da578063edcfafe6146102d5578063f242432a146102d0578063f72c0d8b146102cb578063f7714a98146102c6578063f99e5dbb146102c1578063fde84719146102bc5763ff1f090a146102b7575f80fd5b612506565b6124eb565b612466565b6122d4565b61229a565b61219e565b612115565b611fb6565b610882565b611f7c565b611f61565b611f41565b611efb565b611eae565b611e92565b611e51565b611dd5565b611d7c565b611cfc565b611c0b565b610cdc565b611b7f565b611a61565b611a18565b6119fb565b6119df565b61196e565b611902565b611871565b611739565b61163c565b6115aa565b61158a565b611537565b61151b565b611425565b6113ff565b6113a8565b61135c565b611204565b611143565b610ec4565b610eab565b610d1b565b610c5e565b610c16565b610bc4565b61089d565b610b30565b61091d565b6108de565b6108b8565b61077a565b610642565b6105e2565b610552565b610473565b610408565b6001600160a01b038116036103ea57565b5f80fd5b60a435906103fb826103d9565b565b35906103fb826103d9565b346103ea5760403660031901126103ea57602061045860043561042a816103d9565b6024355f525f516020614dd35f395f51905f52835260405f209060018060a01b03165f5260205260405f2090565b54604051908152f35b6001600160e01b03198116036103ea57565b346103ea5760203660031901126103ea5760043561049081610461565b63ffffffff60e01b16637965db0b60e01b81149081156104b9575b506040519015158152602090f35b63152a902d60e11b8114915081156104d3575b505f6104ab565b636cdb3d1360e11b811491508115610505575b81156104f4575b505f6104cc565b6301ffc9a760e01b1490505f6104ed565b6303a24d0760e21b811491506104e6565b90816101409103126103ea5790565b9181601f840112156103ea578235916001600160401b0383116103ea57602083818601950101116103ea57565b346103ea5760a03660031901126103ea5760043561056f816103d9565b6024359061057c826103d9565b6044356001600160401b0381116103ea5761059b903690600401610516565b91608435916064356001600160401b0384116103ea576105de946105c66105ce953690600401610525565b9490936125da565b6040519081529081906020820190565b0390f35b346103ea575f3660031901126103ea576004546040516001600160a01b039091168152602090f35b805180835260209291819084018484015e5f828201840152601f01601f1916010190565b90602061063f92818152019061060a565b90565b346103ea5760203660031901126103ea576004358015801561076f575b610760575f526002602052600260405f20016040517f68747470733a2f2f676174657761792e697279732e78797a2f6d757461626c656020820152602f60f81b60408201525f918054906106b282611fd5565b916001811690811561073957506001146106fd575b680bda5b99195e0b9b5960ba1b84526105de836106f181600988015b03601f198101835282610a1f565b6040519182918261062e565b9092505f5260205f205f905b838210610722575050908101604101906106f1816106c7565b600181602092546041858701015201910190610709565b60ff1916604180860191909152831515909302840190920193506106f191508290506106c7565b63522e582d60e11b5f5260045ffd5b505f5481101561065f565b346103ea5760603660031901126103ea576004356001600160401b0381116103ea576107aa903690600401610525565b906024356001600160401b0381116103ea576107ca903690600401610525565b9190926044356001600160401b0381116103ea576107ec903690600401610525565b6107f7959195613170565b6040831161087357608085116108735761010081116108735761085e61086e927f198eb8de772c5a42c31d10ea779636d74f5a7cd2633012f88632697fae910db496610850604051978897606089526060890191612b6b565b918683036020880152612b6b565b9083820360408501523396612b6b565b0390a2005b63251f56a160e21b5f5260045ffd5b346103ea575f3660031901126103ea57602060405160408152f35b346103ea575f3660031901126103ea57602060405160808152f35b346103ea575f3660031901126103ea5760206001600160601b0360015416604051908152f35b346103ea5760203660031901126103ea5760206109156004355f525f516020614df35f395f51905f52602052600160405f20015490565b604051908152f35b346103ea5760403660031901126103ea576004355f9081527fdaedc9ab023613a7caf35e703657e986ccfad7e3eb0af93a2853f8d65dd86b0160205260409020546001600160a01b038116906024359060a01c82156109b3575b610996916001600160601b0361098e921690612ba3565b612710900490565b604080516001600160a01b03939093168352602083019190915290f35b507fdaedc9ab023613a7caf35e703657e986ccfad7e3eb0af93a2853f8d65dd86b00546001600160a01b038116925060a01c610977565b634e487b7160e01b5f52604160045260245ffd5b61010081019081106001600160401b03821117610a1a57604052565b6109ea565b90601f801991011681019081106001600160401b03821117610a1a57604052565b604051906103fb61010083610a1f565b6001600160401b038111610a1a5760051b60200190565b9080601f830112156103ea578135610a7e81610a50565b92610a8c6040519485610a1f565b81845260208085019260051b8201019283116103ea57602001905b828210610ab45750505090565b8135815260209182019101610aa7565b6001600160401b038111610a1a57601f01601f191660200190565b929192610aeb82610ac4565b91610af96040519384610a1f565b8294818452818301116103ea578281602093845f960137010152565b9080601f830112156103ea5781602061063f93359101610adf565b346103ea5760a03660031901126103ea57600435610b4d816103d9565b60243590610b5a826103d9565b6044356001600160401b0381116103ea57610b79903690600401610a67565b6064356001600160401b0381116103ea57610b98903690600401610a67565b90608435936001600160401b0385116103ea57610bbc610bc2953690600401610b15565b93612bb6565b005b346103ea5760403660031901126103ea57610bc2602435600435610be7826103d9565b610c11610c0c825f525f516020614df35f395f51905f52602052600160405f20015490565b613b7b565b613ddf565b346103ea5760403660031901126103ea57600435602435610c36816103d9565b336001600160a01b03821603610c4f57610bc291613e74565b63334bd91960e11b5f5260045ffd5b346103ea575f3660031901126103ea57610c76613a4e565b5f516020614e135f395f51905f525460ff811615610ccd5760ff19165f516020614e135f395f51905f52557f5db9ee0a495bf2e6ff9c91a7834c1ba4fdd244a5e8aa4e537bd38aeae4b073aa6020604051338152a1005b638dfc202b60e01b5f5260045ffd5b346103ea575f3660031901126103ea5760206040515f8152f35b60409060031901126103ea57600435610d0e816103d9565b9060243561063f816103d9565b346103ea57610d2936610cf6565b5f516020614e535f395f51905f525491906001600160401b03610d5b60ff604086901c1615946001600160401b031690565b1680159081610e75575b6001149081610e6b575b159081610e62575b50610e5357610dba9183610db160016001600160401b03195f516020614e535f395f51905f525416175f516020614e535f395f51905f5255565b610e1957612c07565b610dc057005b610dea60ff60401b195f516020614e535f395f51905f5254165f516020614e535f395f51905f5255565b604051600181527fc7f505b2f371ae2175ee4913f4499e1f2633a7b5936321eed1cdaeb6115181d290602090a1005b610e4e6801000000000000000060ff60401b195f516020614e535f395f51905f525416175f516020614e535f395f51905f5255565b612c07565b63f92ee8a960e01b5f5260045ffd5b9050155f610d77565b303b159150610d6f565b849150610d65565b60206003198201126103ea57600435906001600160401b0382116103ea57610ea791600401610525565b9091565b346103ea576020610458610ebe36610e7d565b90612b52565b346103ea5760203660031901126103ea576004356001600160401b0381116103ea57610ef4903690600401610516565b610efc613170565b6040810190610f40610f0d836127fa565b610f1a6060840184612804565b610f2a6080869493940186612804565b91610f3860a0880188612804565b9590946131bb565b60e0810135916001600160601b0383116110f057602082019061ffff6001600160401b03610f6d84612847565b16116110e1576101008301359363ffffffff85116110d25760c084016001600160a01b03610f9a82612851565b16156110ca57610fa990612851565b925b5f5495610fb78761286f565b5f55610fc38680612804565b919092610fcf90612847565b61ffff16936001600160601b03169063ffffffff1690610ff2610120890161288c565b610ffa610a40565b6001600160a01b0389168152956001600160401b034216602088015261ffff16604087015261102c9060608701612896565b6001600160601b0316608085015263ffffffff1660a0840152600160c0840152369061105792610adf565b60e082015261106e855f52600260205260405f2090565b9061107891612a3c565b836110838480612804565b61108c91612b52565b5583611096611d68565b6110a091336136be565b6110a9906127fa565b6110b490828561385f565b6110bf913384613931565b604051908152602090f35b503392610fab565b6309c1d04f60e01b5f5260045ffd5b630e13ec1760e31b5f5260045ffd5b634264fe7960e01b5f5260045ffd5b90602080835192838152019201905f5b81811061111c5750505090565b825184526020938401939092019160010161110f565b90602061063f9281815201906110ff565b346103ea5760403660031901126103ea576004356001600160401b0381116103ea57366023820112156103ea5780600401359061117f82610a50565b9161118d6040519384610a1f565b8083526024602084019160051b830101913683116103ea57602401905b8282106111ea57836024356001600160401b0381116103ea576105de916111d86111de923690600401610a67565b90612e06565b60405191829182611132565b6020809183356111f9816103d9565b8152019101906111aa565b60403660031901126103ea5760043561121c816103d9565b6024356001600160401b0381116103ea5761123b903690600401610b15565b906001600160a01b037f00000000000000000000000000000000000000000000000000000000000000001630811490811561133a575b5061132b5761127e613abd565b6040516352d1902d60e01b8152916020836004816001600160a01b0386165afa5f93816112fa575b506112c757634c9c8ce360e01b5f526001600160a01b03821660045260245ffd5b905f516020614d935f395f51905f5283036112e657610bc292506148ef565b632a87526960e21b5f52600483905260245ffd5b61131d91945060203d602011611324575b6113158183610a1f565b810190613f87565b925f6112a6565b503d61130b565b63703e46dd60e11b5f5260045ffd5b5f516020614d935f395f51905f52546001600160a01b0316141590505f611271565b346103ea5760203660031901126103ea577ffcae2461302da2a86e3604d10afc558dc160d49eb88bc010c4bca093793857ff602060043561139b613b2c565b80600555604051908152a1005b346103ea575f3660031901126103ea577f00000000000000000000000000000000000000000000000000000000000000006001600160a01b0316300361132b5760206040515f516020614d935f395f51905f528152f35b346103ea575f3660031901126103ea5760206040516102008152f35b801515036103ea57565b346103ea5760c03660031901126103ea57600435611442816103d9565b60243561144e816103d9565b60443561145a816103d9565b6064356114668161141b565b6084359160a4356001600160401b0381116103ea576114e9936114906114e3923690600401610525565b91611499613170565b6114a1613197565b6040516331e1e60b60e11b60208201526001600160a01b038716602482015287151560448083019190915281529089908b906114de606485610a1f565b6133c1565b84613f96565b6040516331e1e60b60e11b81526001600160a01b0391821692909116905f516020614db35f395f51905f5290602090a3005b346103ea575f3660031901126103ea5760206040516104008152f35b346103ea575f3660031901126103ea57602060ff5f516020614e135f395f51905f5254166040519015158152f35b60409060031901126103ea5760043561157d816103d9565b9060243561063f8161141b565b346103ea57610bc261159b36611565565b906115a4613170565b33613f96565b6101203660031901126103ea576004356115c3816103d9565b6024356115cf816103d9565b6044359160643560ff811681036103ea576084356001600160401b0381116103ea576115ff903690600401610525565b6116076103ee565b9060c4359260e4359461010435986001600160401b038a116103ea57611634610bc29a3690600401610525565b999098612e9b565b60c03660031901126103ea57600435611654816103d9565b602435611660816103d9565b60643560443561166f826103d9565b6084359160a4356001600160401b0381116103ea576116f6936116996116ee923690600401610525565b916116a2613fd5565b6116aa613170565b6116b2613197565b60405163469e080560e11b6020820152602481018890526001600160a01b03871660448201526116e581606481016106e3565b898b34936134a6565b349185614248565b60405163469e080560e11b81526001600160a01b0391821692909116905f516020614db35f395f51905f5290602090a360015f516020614e335f395f51905f5255005b6101003660031901126103ea57600435611752816103d9565b60243561175e816103d9565b606435604435608435611770816103d9565b60a4359061177d826103d9565b60e43560c4356001600160401b0382116103ea576117a261180a923690600401610525565b916117ab613fd5565b6117b3613170565b6117bb613197565b604051636ffea07960e11b602082015260248101899052604481018a90526001600160a01b0387811660648301528816608480830191909152815261180160a482610a1f565b8a8c34936135f5565b34156118625761181c933493876143a8565b604051636ffea07960e11b81526001600160a01b0391821692909116905f516020614db35f395f51905f5290602090a3610bc260015f516020614e335f395f51905f5255565b633f7d56c960e11b5f5260045ffd5b346103ea5760203660031901126103ea5760043561188e816103d9565b611896613b2c565b6001600160a01b0381169081156118f3577f7dae230f18360d76a040c81f050aa14eb9d6dc7901b20fc5d855e2a20fe814d1916118ea6020926001600160601b036001549181199060601b16911617600155565b604051908152a1005b63e6c4247b60e01b5f5260045ffd5b346103ea5760203660031901126103ea5760043561191f816103d9565b611927613b2c565b6001600160a01b031680156118f357600480546001600160a01b031916821790557f4d57218e59793e6845c36a961c3af7acfce8c54b13a697da231466fc265fdb615f80a2005b346103ea575f3660031901126103ea57611986613a4e565b61198e613170565b600160ff195f516020614e135f395f51905f525416175f516020614e135f395f51905f52557f62e78cea01bee320cd4e420270b5ea74000d11b0c9f74754ebdbfc544b05a2586020604051338152a1005b346103ea575f3660031901126103ea5760205f54604051908152f35b346103ea575f3660031901126103ea576020600554604051908152f35b60403660031901126103ea57611a4e600435602435611a36816103d9565b611a3e613fd5565b611a46613170565b349133614248565b60015f516020614e335f395f51905f5255005b346103ea5760403660031901126103ea57602060ff611ab3602435600435611a88826103d9565b5f525f516020614df35f395f51905f52845260405f209060018060a01b03165f5260205260405f2090565b54166040519015158152f35b60031115611ac957565b634e487b7160e01b5f52602160045260245ffd5b906003821015611ac95752565b602080825282516001600160a01b0316828201528201516001600160401b031660408083019190915282015161ffff16606082015261063f916101209060e090611b3c60608201516080860190611add565b60808101516001600160601b031660a085015260a081015163ffffffff1660c085015260c081015163ffffffff168483015201519161010080820152019061060a565b346103ea576020611b8f36610e7d565b9190606060e0604051611ba1816109fe565b5f81525f858201525f60408201525f838201525f60808201525f60a08201525f60c082015201528260405193849283378101600381520301902054801561076057611bff611bfa6105de925f52600260205260405f2090565b612f7e565b60405191829182611aea565b346103ea57611c1936611565565b6001600160a01b038216918215611c8b57611c4c90611c373361256e565b9060018060a01b03165f5260205260405f2090565b9015159060ff1981541660ff83161790556040519081527f17307eab39ab6107e8899845ad3d59bd9653f200f220920489ca2b5937696c3160203392a3005b62ced3e160e81b5f525f60045260245ffd5b602081016020825282518091526040820191602060408360051b8301019401925f915b838310611ccf57505050505090565b9091929394602080611ced600193603f19868203018752895161060a565b97019301930191939290611cc0565b346103ea5760203660031901126103ea576004356001600160401b0381116103ea57366023820112156103ea578060040135906001600160401b0382116103ea573660248360051b830101116103ea576105de916024611d5c92016130a0565b60405191829182611c9d565b60405190611d77602083610a1f565b5f8252565b346103ea575f3660031901126103ea576105de604051611d9d604082610a1f565b60058152640352e302e360dc1b602082015260405191829160208352602083019061060a565b805191908290602001825e015f815290565b346103ea5760203660031901126103ea576004356001600160401b0381116103ea57366023820112156103ea57611e2a6020611e1e6105de933690602481600401359101610adf565b60405192838092611dc3565b6003815203019020546040519081529081906020820190565b908160a09103126103ea5790565b346103ea5760203660031901126103ea576004356001600160401b0381116103ea57611e84610bc2913690600401611e43565b611e8c613170565b33614577565b346103ea575f3660031901126103ea5760206040516101008152f35b346103ea5760403660031901126103ea57610bc2602435600435611ed1826103d9565b611ef6610c0c825f525f516020614df35f395f51905f52602052600160405f20015490565b613e74565b60803660031901126103ea57611a4e600435602435604435611f1c816103d9565b60643591611f29836103d9565b611f31613fd5565b611f39613170565b3493336143a8565b346103ea575f3660031901126103ea57602060015460601c604051908152f35b346103ea575f3660031901126103ea57602060405160018152f35b346103ea575f3660031901126103ea5760206040517f65d7a28e3265b37a6474929f336521b332c1681b933f6cb9f3376673440d862a8152f35b346103ea57602060ff611ab3611c37611fce36610cf6565b919061256e565b90600182811c92168015612003575b6020831014611fef57565b634e487b7160e01b5f52602260045260245ffd5b91607f1691611fe4565b9060405191825f82549261202084611fd5565b80845293600181169081156120895750600114612045575b506103fb92500383610a1f565b90505f9291925260205f20905f915b81831061206d5750509060206103fb928201015f612038565b6020919350806001915483858901015201910190918492612054565b9050602092506103fb94915060ff191682840152151560051b8201015f612038565b946001600160601b03906120f663ffffffff9661ffff61063f9c9b976001600160401b038a986101009d9860018060a01b03168d521660208c01521660408a01526060890190611add565b1660808601521660a08401521660c08201528160e0820152019061060a565b346103ea5760203660031901126103ea576004355f52600260205260405f208054906105de61214b60026001840154930161200d565b604051938363ffffffff869560801c16916001600160601b0363ffffffff8360601c1692169060ff8160f01c169061ffff8160e01c16906001600160401b038160a01c169060018060a01b0316896120ab565b346103ea5760a03660031901126103ea576004356121bb816103d9565b6024356121c7816103d9565b60443590606435926084356001600160401b0381116103ea576121ee903690600401610b15565b926001600160a01b0382163381141580612289575b612273576001600160a01b03841615612260571561224e57610bc29461224660405192600184526020840152604083019160018352606084015260808301604052565b9290916146c7565b626a0d4560e21b5f525f60045260245ffd5b632bfa23e760e11b5f525f60045260245ffd5b63711bec9160e11b5f523360045260245260445ffd5b50612294338461315c565b15612203565b346103ea575f3660031901126103ea5760206040517f189ab7a9244df0848122154315af71fe140f3db0fe014031783b0946b8c9d2e38152f35b346103ea5760a03660031901126103ea576004356122f1816103d9565b6024356122fd816103d9565b6044356001600160401b0381116103ea5761231c903690600401611e43565b606435906084356001600160401b0381116103ea5761241892612346612412923690600401610525565b9161234f613170565b612357613197565b87896040519263592cf66f60e11b6020850152602060248501528835604485015261240d846123e36123c48c6123b26123a76123966020840184613228565b60a0606489015260e4880191612b6b565b916040810190613228565b85830360431901608487015290612b6b565b6123d160608e018e613228565b8483036043190160a486015290612b6b565b6001600160401b0360808d01356123f981612836565b1660c483015203601f198101865285610a1f565b61365c565b83614577565b60405163592cf66f60e11b81526001600160a01b0391821692909116905f516020614db35f395f51905f5290602090a3005b6001600160601b038116036103ea57565b35906103fb8261244a565b346103ea5760203660031901126103ea576001600160601b0360043561248b8161244a565b612493613b2c565b16610bb881116124dc576020817f7cb8fa1ce2fc1ff6556e563c0dcba551db7cdeb3f3b0911243692639ac80e94d926001600160601b03196001541617600155604051908152a1005b63cd4e616760e01b5f5260045ffd5b346103ea575f3660031901126103ea57602060405160028152f35b60a03660031901126103ea5760243560043560ff821682036103ea57604435916001600160401b0383116103ea57612545611a4e933690600401610525565b60643591612552836103d9565b6084359361255e613fd5565b612566613170565b349533614062565b6001600160a01b03165f9081527f88be536d5240c274a3b1d3a1be54482fd9caa294f08c62a7cde569f49a3c45016020526040902090565b6125d6915f525f516020614dd35f395f51905f5260205260405f209060018060a01b03165f5260205260405f2090565b5490565b93946126409193956125ea613170565b6125f2613197565b96604085019761262f6126048a6127fa565b6126116060890189612804565b61262160808b949394018b612804565b91610f3860a08d018d612804565b868861263a8861326f565b92613529565b60e0810135936001600160601b0385116110f057602082019061ffff6001600160401b0361266d84612847565b16116110e1576101008301359563ffffffff87116110d25760c084016001600160a01b0361269a82612851565b16156127f2576126a990612851565b925b5f54976126b78961286f565b5f556126c38680612804565b9190926126cf90612847565b61ffff16936001600160601b03169063ffffffff16906126f2610120890161288c565b6126fa610a40565b6001600160a01b0389168152956001600160401b034216602088015261ffff16604087015261272c9060608701612896565b6001600160601b0316608085015263ffffffff1660a0840152600160c0840152369061275792610adf565b60e082015261276e875f52600260205260405f2090565b9061277891612a3c565b856127838480612804565b61278c91612b52565b55612795611d68565b6127a09087876136be565b6127a9906127fa565b6127b490828761385f565b6127bf918486613931565b604051634c0e804560e01b81526001600160a01b0391821692909116905f516020614db35f395f51905f5290602090a390565b5085926126ab565b3561063f8161244a565b903590601e19813603018212156103ea57018035906001600160401b0382116103ea576020019181360383136103ea57565b6001600160401b038116036103ea57565b3561063f81612836565b3561063f816103d9565b634e487b7160e01b5f52601160045260245ffd5b5f19811461287d5760010190565b61285b565b600311156103ea57565b3561063f81612882565b6003821015611ac95752565b906003811015611ac957815460ff60f01b191660f09190911b60ff60f01b16179055565b601f81116128d2575050565b5f516020614e735f395f51905f525f5260205f20906020601f840160051c83019310612918575b601f0160051c01905b81811061290d575050565b5f8155600101612902565b90915081906128f9565b601f821161292f57505050565b5f5260205f20906020601f840160051c83019310612967575b601f0160051c01905b81811061295c575050565b5f8155600101612951565b9091508190612948565b91909182516001600160401b038111610a1a57612998816129928454611fd5565b84612922565b6020601f82116001146129d75781906129c89394955f926129cc575b50508160011b915f199060031b1c19161790565b9055565b015190505f806129b4565b601f198216906129ea845f5260205f2090565b915f5b818110612a2457509583600195969710612a0c575b505050811b019055565b01515f1960f88460031b161c191690555f8080612a02565b9192602060018192868b0151815501940192016129ed565b815181546020840151604085015161ffff60e01b60e091821b166001600160f01b03199093166001600160a01b039094169390931767ffffffffffffffff60a01b60a09290921b91909116171782556103fb9260029190612aaa6060820151612aa481611abf565b856128a2565b612b4960018501612ae9612ac860808501516001600160601b031690565b82546bffffffffffffffffffffffff19166001600160601b03909116178255565b612b1d612afd60a085015163ffffffff1690565b825463ffffffff60601b191660609190911b63ffffffff60601b16178255565b60c083015163ffffffff165b815463ffffffff60801b191660809190911b63ffffffff60801b16179055565b01519101612971565b6020908260405193849283378101600381520301902090565b908060209392818452848401375f828201840152601f01601f1916010190565b906103e88202918083046103e8149015171561287d57565b8181029291811591840414171561287d57565b939291906001600160a01b0385163381141580612bef575b612273576001600160a01b03821615612260571561224e576103fb946146c7565b5060ff612bff33611c378961256e565b541615612bce565b60405192916020612c188186610a1f565b5f8552612c236148c4565b612c2b6148c4565b8451906001600160401b038211610a1a57612c5c82612c575f516020614e735f395f51905f5254611fd5565b6128c6565b602090601f8311600114612d32575081612cfd9392612c9492612d1a97985f926129cc5750508160011b915f199060031b1c19161790565b5f516020614e735f395f51905f52555b612cac6148c4565b612cb46148c4565b612cbc6148c4565b612cc46148c4565b612ccd83613bc1565b50612cd783613c5d565b50612ce183613d1e565b506001600160601b036001549181199060601b16911617600155565b612d1560fa6001600160601b03196001541617600155565b613f14565b612d2360015f55565b6103fb6512309ce54000600555565b5f516020614e735f395f51905f525f52601f198316969091907ff429cb5e2ec84cbb765e76b31964a56ccde03e7a6122d6cc4afb19edc55edeed925f905b898210612dc1575050918391600193612cfd9695612d1a999a10612da9575b505050811b015f516020614e735f395f51905f5255612ca4565b01515f1960f88460031b161c191690555f8080612d8f565b80600185968294968601518155019501930190612d70565b634e487b7160e01b5f52603260045260245ffd5b8051821015612e015760209160051b010190565b612dd9565b91909180518351808203612e86575050805190612e2282610a50565b91612e306040519384610a1f565b808352612e3f601f1991610a50565b013660208401375f5b8151811015612e7f5780612e6e60019260051b60208082870101519189010151906125a6565b612e788286612ded565b5201612e48565b5090925050565b635b05999160e01b5f5260045260245260445ffd5b998199612f35998786612f2d958f612f26899e9d9c9b9a998d8f612f038e612ec1613fd5565b612ec9613170565b612ed1613197565b9960ff6040519a8b97637f8f848560e11b60208a0152602489015216604487015260a0606487015260c4860191612b6b565b6001600160a01b03909216608484015260a483015203601f198101855284610a1f565b349361358b565b349589614062565b604051600162707b7b60e11b031981526001600160a01b0391821692909116905f516020614db35f395f51905f5290602090a36103fb60015f516020614e335f395f51905f5255565b90604051612f8b816109fe565b60e061304760028395612fea612fe1825460018060a01b03811688526001600160401b03808260a01c16166020890152612fd8612fcd8261ffff9060e01c1690565b61ffff1660408a0152565b60f01c60ff1690565b60608701612896565b6130416130346001830154613018613008826001600160601b031690565b6001600160601b031660808a0152565b63ffffffff606082901c1660a089015260801c63ffffffff1690565b63ffffffff1660c0870152565b0161200d565b910152565b9190820391821161287d57565b90821015612e0157610ea79160051b810190612804565b6130926103fb92949360208660405197889583870137840101905f8252611dc3565b03601f198101845283610a1f565b6130a95f610ac4565b6130b66040519182610a1f565b5f8152601f196130c55f610ac4565b013660208301376130d583610a50565b926130e36040519485610a1f565b808452601f196130f282610a50565b015f5b81811061314b5750505f5b81811061310e575050505090565b8061312f61312985613123600195878a613059565b90613070565b306144b6565b6131398288612ded565b526131448187612ded565b5001613100565b8060606020809389010152016130f5565b60ff91611c3761316b9261256e565b541690565b60ff5f516020614e135f395f51905f52541661318857565b63d93c066560e01b5f5260045ffd5b6004546001600160a01b03169081156131ac57565b63022fcd8560e61b5f5260045ffd5b90506001600160601b0391939450612710925016116132195760401061320a576080106131fb57610200106131ec57565b631f5482d760e21b5f5260045ffd5b6324a25c5760e01b5f5260045ffd5b631750ba0360e01b5f5260045ffd5b63c2b03beb60e01b5f5260045ffd5b9035601e19823603018112156103ea5701602081359101916001600160401b0382116103ea5781360383136103ea57565b35906103fb82612836565b35906103fb82612882565b61063f6040518092634c0e804560e01b6020830152602060248301526106e361339661012061335861333961331a6132bd6132aa8880613228565b61014060448c01526101848b0191612b6b565b6132dc6132cc60208a01613259565b6001600160401b031660648b0152565b6132fb6132eb60408a0161245b565b6001600160601b031660848b0152565b6133086060890189613228565b8a83036043190160a48c015290612b6b565b6133276080880188613228565b8983036043190160c48b015290612b6b565b61334660a0870187613228565b8883036043190160e48a015290612b6b565b9361337961336860c083016103fd565b6001600160a01b0316610104880152565b60e081013561012487015261010081013561014487015201613264565b610164840190611add565b908160209103126103ea575161063f8161141b565b6040513d5f823e3d90fd5b60405163027f58e560e61b81526001600160a01b0392831660048201529190921660248201523060448201526331e1e60b60e11b60648201526101006084820152946020948694929385935f938593613440936134239061010487019061060a565b928660a487015260c48601526003198584030160e4860152612b6b565b03926001600160a01b03165af19081156134a1575f91613472575b501561346357565b6309fb5d8760e21b5f5260045ffd5b613494915060203d60201161349a575b61348c8183610a1f565b8101906133a1565b5f61345b565b503d613482565b6133b6565b60405163027f58e560e61b81526001600160a01b03928316600482015291909216602482015230604482015263469e080560e11b60648201526101006084820152956020958795929486945f94869461344094909290919061350d9061010488019061060a565b9360a487015260c48601526003198584030160e4860152612b6b565b60405163027f58e560e61b81526001600160a01b039283166004820152919092166024820152306044820152634c0e804560e01b60648201526101006084820152946020948694929385935f938593613440936134239061010487019061060a565b60405163027f58e560e61b81526001600160a01b039283166004820152919092166024820152306044820152600162707b7b60e11b031960648201526101006084820152956020958795929486945f94869461344094909290919061350d9061010488019061060a565b60405163027f58e560e61b81526001600160a01b039283166004820152919092166024820152306044820152636ffea07960e11b60648201526101006084820152956020958795929486945f94869461344094909290919061350d9061010488019061060a565b60405163027f58e560e61b81526001600160a01b03928316600482015291909216602482015230604482015263592cf66f60e11b60648201526101006084820152946020948694929385935f938593613440936134239061010487019061060a565b9291906001600160a01b038416156122605760016136f960405192600184526020840152604083019160018352606084015260808301604052565b90805182519081810361384a5750506001600160a01b03851693841515935f5b835181101561377e5780868960019360051b602080828a010151918a01015192613747575b50505001613719565b61377491611c3761376c925f525f516020614dd35f395f51905f5260205260405f2090565b918254614b0c565b90555f898161373e565b509390959460018351145f1461380f576020838101518582015160408051928352928201525f9133917fc3d58168c5ae7397731d063d5bbf3d657854427343f4c083240f7aacaa2d0f629190a45b6137d7575b50505050565b80516001036137ff57906020806137f695930151910151915f33614cd4565b5f8080806137d1565b61380a935f33614ba6565b6137f6565b5f6040517f4a39dc06d4c0dbc64b70af90fd698a233a518aa5d07e595d983b8c0526c8f7fb339180613842898983614b19565b0390a46137cc565b635b05999160e01b5f5260045260245260445ffd5b92916001600160601b03166127108111613915576001600160a01b038216156138fe576103fb92936138d6916040519361389a604086610a1f565b60018060a01b0316845260208401525f527fdaedc9ab023613a7caf35e703657e986ccfad7e3eb0af93a2853f8d65dd86b0160205260405f2090565b815160209092015160a01b6001600160a01b0319166001600160a01b03909216919091179055565b83634b4f842960e11b5f526004525f60245260445ffd5b8363dfd1fc1b60e01b5f5260045260245261271060445260645ffd5b909291602081013561394281612836565b61394c8280612804565b9190926060810161395d9082612804565b919061396c6080830183612804565b9061397a60a0850185612804565b91909260e0860135946101008701359661012001359761399989612882565b6040519b8c9b6101008d526101008d01906139b392612b6b565b908b820360208d01526139c592612b6b565b9089820360408b01526139d792612b6b565b9087820360608901526139e992612b6b565b6001600160a01b03909816608086015260a085015260c0840152613a119060e0840190611add565b6001600160401b0316946001600160a01b0316937f595df1c744b2a994baaa3148152fad91a09e150e02d68c83d58f2f11c7291b089291900390a4565b335f9081527f75442b0a96088b5456bc4ed01394c96a4feec0f883c9494257d76b96ab1c9b6b602052604090205460ff1615613a8657565b63e2517d3f60e01b5f52336004527f65d7a28e3265b37a6474929f336521b332c1681b933f6cb9f3376673440d862a60245260445ffd5b335f9081527fab71e3f32666744d246edff3f96e4bdafee2e9867098cdd118a979a7464786a8602052604090205460ff1615613af557565b63e2517d3f60e01b5f52336004527f189ab7a9244df0848122154315af71fe140f3db0fe014031783b0946b8c9d2e360245260445ffd5b335f9081527fb7db2dd08fcb62d0c9e08c51941cae53c267786a0b75803fb7960902fc8ef97d602052604090205460ff1615613b6457565b63e2517d3f60e01b5f52336004525f60245260445ffd5b5f8181525f516020614df35f395f51905f526020908152604080832033845290915290205460ff1615613bab5750565b63e2517d3f60e01b5f523360045260245260445ffd5b6001600160a01b0381165f9081527fb7db2dd08fcb62d0c9e08c51941cae53c267786a0b75803fb7960902fc8ef97d602052604090205460ff16613c58576001600160a01b03165f8181527fb7db2dd08fcb62d0c9e08c51941cae53c267786a0b75803fb7960902fc8ef97d60205260408120805460ff191660011790553391905f516020614d735f395f51905f528180a4600190565b505f90565b6001600160a01b0381165f9081527fab71e3f32666744d246edff3f96e4bdafee2e9867098cdd118a979a7464786a8602052604090205460ff16613c58576001600160a01b0381165f9081527fab71e3f32666744d246edff3f96e4bdafee2e9867098cdd118a979a7464786a860205260409020805460ff1916600117905533906001600160a01b03167f189ab7a9244df0848122154315af71fe140f3db0fe014031783b0946b8c9d2e35f516020614d735f395f51905f525f80a4600190565b6001600160a01b0381165f9081527f75442b0a96088b5456bc4ed01394c96a4feec0f883c9494257d76b96ab1c9b6b602052604090205460ff16613c58576001600160a01b0381165f9081527f75442b0a96088b5456bc4ed01394c96a4feec0f883c9494257d76b96ab1c9b6b60205260409020805460ff1916600117905533906001600160a01b03167f65d7a28e3265b37a6474929f336521b332c1681b933f6cb9f3376673440d862a5f516020614d735f395f51905f525f80a4600190565b5f8181525f516020614df35f395f51905f52602090815260408083206001600160a01b038616845290915290205460ff16613e6e575f8181525f516020614df35f395f51905f52602090815260408083206001600160a01b03861684529091529020805460ff1916600117905533916001600160a01b0316905f516020614d735f395f51905f525f80a4600190565b50505f90565b5f8181525f516020614df35f395f51905f52602090815260408083206001600160a01b038616845290915290205460ff1615613e6e575f8181525f516020614df35f395f51905f52602090815260408083206001600160a01b03861684529091529020805460ff1916905533916001600160a01b0316907ff6391f5c32d9c69d2a47ea670b442974b53935d1edc7fd64eb21e047a839171b5f80a4600190565b6001600160a01b03168015613f745760405190613f32604083610a1f565b8082526101f46020909201919091526001600160a01b0316607d60a21b177fdaedc9ab023613a7caf35e703657e986ccfad7e3eb0af93a2853f8d65dd86b0055565b635b6cc80560e11b5f525f60045260245ffd5b908160209103126103ea575190565b60405192151583526001600160a01b03918216929116907f75a1fc5e2239f53dc8407b3712c878c5893431bc3c349ea3561584869670f7f290602090a3565b60025f516020614e335f395f51905f525414613ffe5760025f516020614e335f395f51905f5255565b633ee5aeb560e01b5f5260045ffd5b3d15614037573d9061401e82610ac4565b9161402c6040519384610a1f565b82523d5f602084013e565b606090565b92949361405660ff92604094606087526060870191612b6b565b95602085015216910152565b929695919490955f548710156107605760ff8616600281116142395761040086116108735785158080614231575b80614229575b61421a571592838061420f575b61186257856140ca6140bd8b5f52600260205260405f2090565b546001600160a01b031690565b928461412c575b50505050506140e3575b505050505050565b7f19a5aae49af5681d63d1a8c6ea9dc7b88af86e08d71ade984e2087fada0d4c4a9361411e9160405194859460018060a01b0316988561403c565b0390a35f80808080806140db565b6002036141c5575050505f8080808461415961414d61414d60015460601c90565b6001600160a01b031690565b5af161416361400d565b50156141b6575b6040805160ff8816815260208101929092526001600160a01b0385169188917fc199635a11ffccf62419a83e03370cef9ba2a2c0a33d65c2fe60542bd560a0a991a35f808085816140d1565b6312171d8360e31b5f5260045ffd5b826141d3916141d993614991565b836149e0565b90816141e7575b505061416a565b5f918291829182916001600160a01b03165af161420261400d565b50156141b6575f806141e0565b5060055483106140a3565b630eb90eff60e01b5f5260045ffd5b508215614096565b508115614090565b631556136560e01b5f5260045ffd5b90915f5483101561076057614265835f52600260205260405f2090565b80546001906001600160a01b0316910180549261428f606085901c63ffffffff1663ffffffff1690565b9384156143995763ffffffff608082901c169485101561438a576142c3906001600160601b03165b6001600160601b031690565b871061437b5782856142ff926142e861430595612b298b99600163ffffffff91011690565b6142fa6142f3611d68565b88846136be565b614991565b866149e0565b9081614350575b50506040805194855260208501919091526001600160a01b0391909116927ff6447f421186fdb05672b6b81ee863f6266ccf87f727fc67ed367774af8600659190a3565b5f9250829182918291906001600160a01b03165af161436d61400d565b50156141b657815f8061430c565b63cd1c886760e01b5f5260045ffd5b63d05cb60960e01b5f5260045ffd5b635874ec2360e01b5f5260045ffd5b9193949092945f54841015610760576001600160a01b03861680156144a7578215611862576143f96143f38886946143eb6140bd8a5f52600260205260405f2090565b958691614ab2565b846149e0565b61440d6144068260011c90565b809261304c565b928161447f575b505081614462575b5050604080516001600160a01b039687168152602081019290925291909416937f37d3451d72bbbc5dc39c5c55aacb3b768d87ef17ab36990c4c60e96e6a0cf1459190a4565b5f80809381935af161447261400d565b50156141b6575f8061441c565b5f918291829182916001600160a01b03165af161449a61400d565b50156141b6575f80614414565b633e510d3960e21b5f5260045ffd5b905f8091602081519101845af48080614516575b156144d957505061063f614af3565b156144fe57639996b31560e01b5f9081526001600160a01b0391909116600452602490fd5b3d15155f036133b65763d6bda27560e01b5f5260045ffd5b503d1515806144ca5750813b15156144ca565b9590614570936001600160401b039561455461456293606099969c9b9c60808c5260808c0191612b6b565b9189830360208b0152612b6b565b918683036040880152612b6b565b9416910152565b813591821580156146bc575b61076057614599835f52600260205260405f2090565b805490926001600160a01b039081169116036146ad576020810160406145bf8284612804565b90501161320a57604082019060806145d78385612804565b9050116131fb5760608301926102006145f08583612804565b9050116131ec57608081019461ffff6001600160401b0361461088612847565b16116110e1578561468b956146936146826146a89661467c61469b966146606146597f033648d1b56f7a8d9c25cf0228b942f10a56da2092f4450e42ed76a0a50ec4159e612847565b61ffff1690565b815461ffff60e01b191660e09190911b61ffff60e01b16179055565b86612804565b98909786612804565b929095612804565b939092612847565b9360405197889788614529565b0390a2565b635e7e205b60e11b5f5260045ffd5b505f54831015614583565b949392909193845182519081810361384a5750506001600160a01b038681169586151595918516801515939192905f5b84518110156147f7578060051b90898988602080868b010151958c0101519261475c575b9360019461472d575b505050016146f7565b61475291611c3761376c925f525f516020614dd35f395f51905f5260205260405f2090565b90555f8981614724565b505090916147828d611c37835f525f516020614dd35f395f51905f5260205260405f2090565b548281106147c0578291898f6147b7600197968f950391611c37855f525f516020614dd35f395f51905f5260205260405f2090565b5590945061471b565b6040516303dee4c560e01b81526001600160a01b038f16600482015260248101919091526044810183905260648101829052608490fd5b5091989593929790965060018851145f1461488a5760208881015186820151604080519283529282015233917fc3d58168c5ae7397731d063d5bbf3d657854427343f4c083240f7aacaa2d0f6291a45b614853575b5050505050565b84516001036148795760208061486f9601519201519233614cd4565b5f8080808061484c565b61488594919233614ba6565b61486f565b6040517f4a39dc06d4c0dbc64b70af90fd698a233a518aa5d07e595d983b8c0526c8f7fb3391806148bc898d83614b19565b0390a4614847565b60ff5f516020614e535f395f51905f525460401c16156148e057565b631afcd79f60e31b5f5260045ffd5b90813b15614970575f516020614d935f395f51905f5280546001600160a01b0319166001600160a01b0384169081179091557fbc7cd75a20ee27fd9adebab32041f755214dbc6bffa90cc0225b39da2e5c2d3b5f80a280511561495857614955916144b6565b50565b50503461496157565b63b398979f60e01b5f5260045ffd5b50634c9c8ce360e01b5f9081526001600160a01b0391909116600452602490fd5b916001600160a01b03831680159290919083156149cd575b5082156149ba575b5050613c585790565b6001600160a01b03161490505f806149b1565b6001600160a01b0316821492505f6149a9565b6001549190614a0361098e6149fd6001600160601b0386166142b7565b83612ba3565b916001600160a01b03168015614aaa5782614a2061098e84612b8b565b945b81614a7e575b505083614a36575b50030390565b5f80808087855af1614a4661400d565b50156141b6576040518481527f6292f4f27d8047af4537a4bd86906de0e2c880c20086f7f58b81eacfeb63912690602090a25f614a30565b5f808093614a9361414d61414d849660601c90565b5af1614a9d61400d565b50156141b657825f614a28565b825f94614a22565b926001600160a01b03841680159390928415614ae0575b5083156149cd575082156149ba575050613c585790565b6001600160a01b0316831493505f614ac9565b604051903d82523d5f602084013e60203d830101604052565b9190820180921161287d57565b9091614b3061063f936040845260408401906110ff565b9160208184039101526110ff565b908160209103126103ea575161063f81610461565b6001600160a01b0391821681529116602082015260a06040820181905261063f9491939192614b989291614b8a91908601906110ff565b9084820360608601526110ff565b91608081840391015261060a565b9091949293853b614bb957505050505050565b602093614bdb91604051968795869563bc197c8160e01b875260048701614b53565b03815f6001600160a01b0387165af15f9181614c6a575b50614c2c5750614c0061400d565b8051919082614c2557632bfa23e760e11b5f526001600160a01b03821660045260245ffd5b6020915001fd5b6001600160e01b0319166343e6837f60e01b01614c4f57505f80808080806140db565b632bfa23e760e11b5f526001600160a01b031660045260245ffd5b614c8d91925060203d602011614c94575b614c858183610a1f565b810190614b3e565b905f614bf2565b503d614c7b565b6001600160a01b039182168152911660208201526040810191909152606081019190915260a06080820181905261063f9291019061060a565b9091949293853b614ce757505050505050565b602093614d0991604051968795869563f23a6e6160e01b875260048701614c9b565b03815f6001600160a01b0387165af15f9181614d51575b50614d2e5750614c0061400d565b6001600160e01b031916630dc5919f60e01b01614c4f57505f80808080806140db565b614d6b91925060203d602011614c9457614c858183610a1f565b905f614d2056fe2f8788117e7eff1d82e926ec794901d17c78024a50270940304540a733656f0d360894a13ba1a3210667c828492db98dca3e2076cc3735a920a3ca505d382bbce915025b6f599b245c9c1c02d463228c896354d64dceb469760c99544153be6d88be536d5240c274a3b1d3a1be54482fd9caa294f08c62a7cde569f49a3c450002dd7bc7dec4dceedda775e58dd541e08a116c6c53815c0bd028192f7b626800cd5ed15c6e187e77e9aee88184c21f4f2182ab5827cb3b7e07fbedcd63f033009b779b17422d0df92223018b32b4d1fa46e071723d6817e2486d003becc55f00f0c57e16840df040f15088dc2f81fe391c3923bec73e23a9662efc9c229c6a0088be536d5240c274a3b1d3a1be54482fd9caa294f08c62a7cde569f49a3c4502a2646970667358221220f445521d662d4aa48df1658a7c06fad2d831d78b874b90d5786a2e85f1a5e16764736f6c634300081e0033f0c57e16840df040f15088dc2f81fe391c3923bec73e23a9662efc9c229c6a00","linkReferences":{}},"methodIdentifiers":{"DEFAULT_ADMIN_ROLE()":"a217fddf","MAX_AVATAR_LENGTH()":"1fe9d578","MAX_BIO_LENGTH()":"c477d7f7","MAX_COMMENT_LENGTH()":"5856e4fa","MAX_NICKNAME_LENGTH()":"e8f100bf","MAX_ORIGINAL_AUTHOR_LENGTH()":"19e94a6e","MAX_SUMMARY_LENGTH()":"544b5e61","MAX_TITLE_LENGTH()":"2ef9a160","PAUSER_ROLE()":"e63ab1e9","SCORE_DISLIKE()":"fde84719","SCORE_LIKE()":"e1d90b34","SCORE_NEUTRAL()":"473106b2","UPGRADER_ROLE()":"f72c0d8b","UPGRADE_INTERFACE_VERSION()":"ad3cb1cc","articles(uint256)":"edcfafe6","arweaveIdToArticleId(string)":"b055d7aa","balanceOf(address,uint256)":"00fdd58e","balanceOfBatch(address[],uint256[])":"4e1273f4","collect(uint256,address)":"8d3c100a","collectWithSessionKey(address,address,uint256,address,uint256,bytes)":"795146ef","editArticle((uint256,string,string,string,uint64))":"b259ecde","editArticleWithSessionKey(address,address,(uint256,string,string,string,uint64),uint256,bytes)":"f7714a98","evaluate(uint256,uint8,string,address,uint256)":"ff1f090a","evaluateWithSessionKey(address,address,uint256,uint8,string,address,uint256,uint256,bytes)":"63c4ea4d","follow(address,bool)":"63c3cc16","followWithSessionKey(address,address,address,bool,uint256,bytes)":"5780400b","getArticleByArweaveId(string)":"989cfb57","getArticleIdByArweaveId(string)":"4b65f344","getRoleAdmin(bytes32)":"248a9ca3","grantRole(bytes32,address)":"2f2ff15d","hasRole(bytes32,address)":"91d14854","initialize(address,address)":"485cc955","isApprovedForAll(address,address)":"e985e9c5","likeComment(uint256,uint256,address,address)":"dffd40f2","likeCommentWithSessionKey(address,address,uint256,uint256,address,address,uint256,bytes)":"79c61f28","minActionValue()":"8cbd215e","multicall(bytes[])":"ac9650d8","nextArticleId()":"85c3ab54","pause()":"8456cb59","paused()":"5c975abb","platformFeeBps()":"22dcd13e","platformTreasury()":"e138818c","proxiableUUID()":"52d1902d","publish((string,uint64,uint96,string,string,string,address,uint256,uint256,uint8))":"4c0e8045","publishWithSessionKey(address,address,(string,uint64,uint96,string,string,string,address,uint256,uint256,uint8),uint256,bytes)":"060d752c","renounceRole(bytes32,address)":"36568abe","revokeRole(bytes32,address)":"d547741f","royaltyInfo(uint256,uint256)":"2a55205a","safeBatchTransferFrom(address,address,uint256[],uint256[],bytes)":"2eb2c2d6","safeTransferFrom(address,address,uint256,uint256,bytes)":"f242432a","sessionKeyManager()":"0b826190","setApprovalForAll(address,bool)":"a22cb465","setMinActionValue(uint256)":"52cbd3be","setPlatformFee(uint96)":"f99e5dbb","setPlatformTreasury(address)":"7cd86d60","setSessionKeyManager(address)":"837fa3fd","supportsInterface(bytes4)":"01ffc9a7","unpause()":"3f4ba83a","updateProfile(string,string,string)":"1105a5eb","upgradeToAndCall(address,bytes)":"4f1ef286","uri(uint256)":"0e89341c"},"id":62}