{"abi":[{"type":"constructor","inputs":[],"stateMutability":"nonpayable"},{"type":"function","name":"DEFAULT_ADMIN_ROLE","inputs":[],"outputs":[{"name":"","type":"bytes32","internalType":"bytes32"}],"stateMutability":"view"},{"type":"function","name":"MAX_COMMENT_LENGTH","inputs":[],"outputs":[{"name":"","type":"uint256","internalType":"uint256"}],"stateMutability":"view"},{"type":"function","name":"MAX_ORIGINAL_AUTHOR_LENGTH","inputs":[],"outputs":[{"name":"","type":"uint256","internalType":"uint256"}],"stateMutability":"view"},{"type":"function","name":"MAX_TITLE_LENGTH","inputs":[],"outputs":[{"name":"","type":"uint256","internalType":"uint256"}],"stateMutability":"view"},{"type":"function","name":"PAUSER_ROLE","inputs":[],"outputs":[{"name":"","type":"bytes32","internalType":"bytes32"}],"stateMutability":"view"},{"type":"function","name":"SCORE_DISLIKE","inputs":[],"outputs":[{"name":"","type":"uint8","internalType":"uint8"}],"stateMutability":"view"},{"type":"function","name":"SCORE_LIKE","inputs":[],"outputs":[{"name":"","type":"uint8","internalType":"uint8"}],"stateMutability":"view"},{"type":"function","name":"SCORE_NEUTRAL","inputs":[],"outputs":[{"name":"","type":"uint8","internalType":"uint8"}],"stateMutability":"view"},{"type":"function","name":"UPGRADER_ROLE","inputs":[],"outputs":[{"name":"","type":"bytes32","internalType":"bytes32"}],"stateMutability":"view"},{"type":"function","name":"UPGRADE_INTERFACE_VERSION","inputs":[],"outputs":[{"name":"","type":"string","internalType":"string"}],"stateMutability":"view"},{"type":"function","name":"articles","inputs":[{"name":"","type":"uint256","internalType":"uint256"}],"outputs":[{"name":"arweaveHash","type":"string","internalType":"string"},{"name":"author","type":"address","internalType":"address"},{"name":"originalAuthor","type":"string","internalType":"string"},{"name":"title","type":"string","internalType":"string"},{"name":"categoryId","type":"uint64","internalType":"uint64"},{"name":"timestamp","type":"uint64","internalType":"uint64"}],"stateMutability":"view"},{"type":"function","name":"balanceOf","inputs":[{"name":"account","type":"address","internalType":"address"},{"name":"id","type":"uint256","internalType":"uint256"}],"outputs":[{"name":"","type":"uint256","internalType":"uint256"}],"stateMutability":"view"},{"type":"function","name":"balanceOfBatch","inputs":[{"name":"accounts","type":"address[]","internalType":"address[]"},{"name":"ids","type":"uint256[]","internalType":"uint256[]"}],"outputs":[{"name":"","type":"uint256[]","internalType":"uint256[]"}],"stateMutability":"view"},{"type":"function","name":"eip712Domain","inputs":[],"outputs":[{"name":"fields","type":"bytes1","internalType":"bytes1"},{"name":"name","type":"string","internalType":"string"},{"name":"version","type":"string","internalType":"string"},{"name":"chainId","type":"uint256","internalType":"uint256"},{"name":"verifyingContract","type":"address","internalType":"address"},{"name":"salt","type":"bytes32","internalType":"bytes32"},{"name":"extensions","type":"uint256[]","internalType":"uint256[]"}],"stateMutability":"view"},{"type":"function","name":"evaluate","inputs":[{"name":"_articleId","type":"uint256","internalType":"uint256"},{"name":"_score","type":"uint8","internalType":"uint8"},{"name":"_content","type":"string","internalType":"string"},{"name":"_referrer","type":"address","internalType":"address"},{"name":"_parentCommentId","type":"uint256","internalType":"uint256"}],"outputs":[],"stateMutability":"payable"},{"type":"function","name":"evaluateWithSessionKey","inputs":[{"name":"owner","type":"address","internalType":"address"},{"name":"sessionKey","type":"address","internalType":"address"},{"name":"_articleId","type":"uint256","internalType":"uint256"},{"name":"_score","type":"uint8","internalType":"uint8"},{"name":"_content","type":"string","internalType":"string"},{"name":"_referrer","type":"address","internalType":"address"},{"name":"_parentCommentId","type":"uint256","internalType":"uint256"},{"name":"deadline","type":"uint256","internalType":"uint256"},{"name":"signature","type":"bytes","internalType":"bytes"}],"outputs":[],"stateMutability":"payable"},{"type":"function","name":"follow","inputs":[{"name":"_target","type":"address","internalType":"address"},{"name":"_status","type":"bool","internalType":"bool"}],"outputs":[],"stateMutability":"nonpayable"},{"type":"function","name":"followWithSessionKey","inputs":[{"name":"owner","type":"address","internalType":"address"},{"name":"sessionKey","type":"address","internalType":"address"},{"name":"_target","type":"address","internalType":"address"},{"name":"_status","type":"bool","internalType":"bool"},{"name":"deadline","type":"uint256","internalType":"uint256"},{"name":"signature","type":"bytes","internalType":"bytes"}],"outputs":[],"stateMutability":"nonpayable"},{"type":"function","name":"getRoleAdmin","inputs":[{"name":"role","type":"bytes32","internalType":"bytes32"}],"outputs":[{"name":"","type":"bytes32","internalType":"bytes32"}],"stateMutability":"view"},{"type":"function","name":"grantRole","inputs":[{"name":"role","type":"bytes32","internalType":"bytes32"},{"name":"account","type":"address","internalType":"address"}],"outputs":[],"stateMutability":"nonpayable"},{"type":"function","name":"hasRole","inputs":[{"name":"role","type":"bytes32","internalType":"bytes32"},{"name":"account","type":"address","internalType":"address"}],"outputs":[{"name":"","type":"bool","internalType":"bool"}],"stateMutability":"view"},{"type":"function","name":"initialize","inputs":[{"name":"_initialOwner","type":"address","internalType":"address"},{"name":"_treasury","type":"address","internalType":"address"}],"outputs":[],"stateMutability":"nonpayable"},{"type":"function","name":"isApprovedForAll","inputs":[{"name":"account","type":"address","internalType":"address"},{"name":"operator","type":"address","internalType":"address"}],"outputs":[{"name":"","type":"bool","internalType":"bool"}],"stateMutability":"view"},{"type":"function","name":"likeComment","inputs":[{"name":"_articleId","type":"uint256","internalType":"uint256"},{"name":"_commentId","type":"uint256","internalType":"uint256"},{"name":"_commenter","type":"address","internalType":"address"},{"name":"_referrer","type":"address","internalType":"address"}],"outputs":[],"stateMutability":"payable"},{"type":"function","name":"likeCommentWithSessionKey","inputs":[{"name":"owner","type":"address","internalType":"address"},{"name":"sessionKey","type":"address","internalType":"address"},{"name":"_articleId","type":"uint256","internalType":"uint256"},{"name":"_commentId","type":"uint256","internalType":"uint256"},{"name":"_commenter","type":"address","internalType":"address"},{"name":"_referrer","type":"address","internalType":"address"},{"name":"deadline","type":"uint256","internalType":"uint256"},{"name":"signature","type":"bytes","internalType":"bytes"}],"outputs":[],"stateMutability":"payable"},{"type":"function","name":"minActionValue","inputs":[],"outputs":[{"name":"","type":"uint256","internalType":"uint256"}],"stateMutability":"view"},{"type":"function","name":"multicall","inputs":[{"name":"data","type":"bytes[]","internalType":"bytes[]"}],"outputs":[{"name":"results","type":"bytes[]","internalType":"bytes[]"}],"stateMutability":"nonpayable"},{"type":"function","name":"nextArticleId","inputs":[],"outputs":[{"name":"","type":"uint256","internalType":"uint256"}],"stateMutability":"view"},{"type":"function","name":"pause","inputs":[],"outputs":[],"stateMutability":"nonpayable"},{"type":"function","name":"paused","inputs":[],"outputs":[{"name":"","type":"bool","internalType":"bool"}],"stateMutability":"view"},{"type":"function","name":"platformFeeBps","inputs":[],"outputs":[{"name":"","type":"uint96","internalType":"uint96"}],"stateMutability":"view"},{"type":"function","name":"platformTreasury","inputs":[],"outputs":[{"name":"","type":"address","internalType":"address"}],"stateMutability":"view"},{"type":"function","name":"proxiableUUID","inputs":[],"outputs":[{"name":"","type":"bytes32","internalType":"bytes32"}],"stateMutability":"view"},{"type":"function","name":"publish","inputs":[{"name":"_arweaveId","type":"string","internalType":"string"},{"name":"_categoryId","type":"uint64","internalType":"uint64"},{"name":"_royaltyBps","type":"uint96","internalType":"uint96"},{"name":"_originalAuthor","type":"string","internalType":"string"},{"name":"_title","type":"string","internalType":"string"}],"outputs":[{"name":"","type":"uint256","internalType":"uint256"}],"stateMutability":"nonpayable"},{"type":"function","name":"publishWithSessionKey","inputs":[{"name":"owner","type":"address","internalType":"address"},{"name":"sessionKey","type":"address","internalType":"address"},{"name":"_arweaveId","type":"string","internalType":"string"},{"name":"_categoryId","type":"uint64","internalType":"uint64"},{"name":"_royaltyBps","type":"uint96","internalType":"uint96"},{"name":"_originalAuthor","type":"string","internalType":"string"},{"name":"_title","type":"string","internalType":"string"},{"name":"deadline","type":"uint256","internalType":"uint256"},{"name":"signature","type":"bytes","internalType":"bytes"}],"outputs":[{"name":"","type":"uint256","internalType":"uint256"}],"stateMutability":"nonpayable"},{"type":"function","name":"renounceRole","inputs":[{"name":"role","type":"bytes32","internalType":"bytes32"},{"name":"callerConfirmation","type":"address","internalType":"address"}],"outputs":[],"stateMutability":"nonpayable"},{"type":"function","name":"revokeRole","inputs":[{"name":"role","type":"bytes32","internalType":"bytes32"},{"name":"account","type":"address","internalType":"address"}],"outputs":[],"stateMutability":"nonpayable"},{"type":"function","name":"royaltyInfo","inputs":[{"name":"tokenId","type":"uint256","internalType":"uint256"},{"name":"salePrice","type":"uint256","internalType":"uint256"}],"outputs":[{"name":"receiver","type":"address","internalType":"address"},{"name":"amount","type":"uint256","internalType":"uint256"}],"stateMutability":"view"},{"type":"function","name":"safeBatchTransferFrom","inputs":[{"name":"from","type":"address","internalType":"address"},{"name":"to","type":"address","internalType":"address"},{"name":"ids","type":"uint256[]","internalType":"uint256[]"},{"name":"values","type":"uint256[]","internalType":"uint256[]"},{"name":"data","type":"bytes","internalType":"bytes"}],"outputs":[],"stateMutability":"nonpayable"},{"type":"function","name":"safeTransferFrom","inputs":[{"name":"from","type":"address","internalType":"address"},{"name":"to","type":"address","internalType":"address"},{"name":"id","type":"uint256","internalType":"uint256"},{"name":"value","type":"uint256","internalType":"uint256"},{"name":"data","type":"bytes","internalType":"bytes"}],"outputs":[],"stateMutability":"nonpayable"},{"type":"function","name":"sessionKeyManager","inputs":[],"outputs":[{"name":"","type":"address","internalType":"contract ISessionKeyManager"}],"stateMutability":"view"},{"type":"function","name":"setApprovalForAll","inputs":[{"name":"operator","type":"address","internalType":"address"},{"name":"approved","type":"bool","internalType":"bool"}],"outputs":[],"stateMutability":"nonpayable"},{"type":"function","name":"setMinActionValue","inputs":[{"name":"_minActionValue","type":"uint256","internalType":"uint256"}],"outputs":[],"stateMutability":"nonpayable"},{"type":"function","name":"setPlatformFee","inputs":[{"name":"_feeBps","type":"uint96","internalType":"uint96"}],"outputs":[],"stateMutability":"nonpayable"},{"type":"function","name":"setPlatformTreasury","inputs":[{"name":"_treasury","type":"address","internalType":"address"}],"outputs":[],"stateMutability":"nonpayable"},{"type":"function","name":"setSessionKeyManager","inputs":[{"name":"_sessionKeyManager","type":"address","internalType":"address"}],"outputs":[],"stateMutability":"nonpayable"},{"type":"function","name":"supportsInterface","inputs":[{"name":"interfaceId","type":"bytes4","internalType":"bytes4"}],"outputs":[{"name":"","type":"bool","internalType":"bool"}],"stateMutability":"view"},{"type":"function","name":"unpause","inputs":[],"outputs":[],"stateMutability":"nonpayable"},{"type":"function","name":"upgradeToAndCall","inputs":[{"name":"newImplementation","type":"address","internalType":"address"},{"name":"data","type":"bytes","internalType":"bytes"}],"outputs":[],"stateMutability":"payable"},{"type":"function","name":"uri","inputs":[{"name":"_id","type":"uint256","internalType":"uint256"}],"outputs":[{"name":"","type":"string","internalType":"string"}],"stateMutability":"view"},{"type":"event","name":"ApprovalForAll","inputs":[{"name":"account","type":"address","indexed":true,"internalType":"address"},{"name":"operator","type":"address","indexed":true,"internalType":"address"},{"name":"approved","type":"bool","indexed":false,"internalType":"bool"}],"anonymous":false},{"type":"event","name":"ArticleEvaluated","inputs":[{"name":"articleId","type":"uint256","indexed":true,"internalType":"uint256"},{"name":"user","type":"address","indexed":true,"internalType":"address"},{"name":"score","type":"uint8","indexed":false,"internalType":"uint8"},{"name":"amountPaid","type":"uint256","indexed":false,"internalType":"uint256"},{"name":"timestamp","type":"uint256","indexed":false,"internalType":"uint256"}],"anonymous":false},{"type":"event","name":"ArticlePublished","inputs":[{"name":"articleId","type":"uint256","indexed":true,"internalType":"uint256"},{"name":"author","type":"address","indexed":true,"internalType":"address"},{"name":"categoryId","type":"uint256","indexed":true,"internalType":"uint256"},{"name":"arweaveId","type":"string","indexed":false,"internalType":"string"},{"name":"originalAuthor","type":"string","indexed":false,"internalType":"string"},{"name":"title","type":"string","indexed":false,"internalType":"string"},{"name":"timestamp","type":"uint256","indexed":false,"internalType":"uint256"}],"anonymous":false},{"type":"event","name":"CommentAdded","inputs":[{"name":"articleId","type":"uint256","indexed":true,"internalType":"uint256"},{"name":"commenter","type":"address","indexed":true,"internalType":"address"},{"name":"content","type":"string","indexed":false,"internalType":"string"},{"name":"parentCommentId","type":"uint256","indexed":false,"internalType":"uint256"},{"name":"score","type":"uint8","indexed":false,"internalType":"uint8"}],"anonymous":false},{"type":"event","name":"CommentLiked","inputs":[{"name":"articleId","type":"uint256","indexed":true,"internalType":"uint256"},{"name":"commentId","type":"uint256","indexed":true,"internalType":"uint256"},{"name":"liker","type":"address","indexed":true,"internalType":"address"},{"name":"commenter","type":"address","indexed":false,"internalType":"address"},{"name":"amountPaid","type":"uint256","indexed":false,"internalType":"uint256"},{"name":"timestamp","type":"uint256","indexed":false,"internalType":"uint256"}],"anonymous":false},{"type":"event","name":"EIP712DomainChanged","inputs":[],"anonymous":false},{"type":"event","name":"FollowStatusChanged","inputs":[{"name":"follower","type":"address","indexed":true,"internalType":"address"},{"name":"target","type":"address","indexed":true,"internalType":"address"},{"name":"isFollowing","type":"bool","indexed":false,"internalType":"bool"}],"anonymous":false},{"type":"event","name":"Initialized","inputs":[{"name":"version","type":"uint64","indexed":false,"internalType":"uint64"}],"anonymous":false},{"type":"event","name":"MinActionValueUpdated","inputs":[{"name":"newValue","type":"uint256","indexed":false,"internalType":"uint256"}],"anonymous":false},{"type":"event","name":"Paused","inputs":[{"name":"account","type":"address","indexed":false,"internalType":"address"}],"anonymous":false},{"type":"event","name":"PlatformFeeUpdated","inputs":[{"name":"newFeeBps","type":"uint96","indexed":false,"internalType":"uint96"}],"anonymous":false},{"type":"event","name":"ReferralPaid","inputs":[{"name":"referrer","type":"address","indexed":true,"internalType":"address"},{"name":"amount","type":"uint256","indexed":false,"internalType":"uint256"}],"anonymous":false},{"type":"event","name":"RoleAdminChanged","inputs":[{"name":"role","type":"bytes32","indexed":true,"internalType":"bytes32"},{"name":"previousAdminRole","type":"bytes32","indexed":true,"internalType":"bytes32"},{"name":"newAdminRole","type":"bytes32","indexed":true,"internalType":"bytes32"}],"anonymous":false},{"type":"event","name":"RoleGranted","inputs":[{"name":"role","type":"bytes32","indexed":true,"internalType":"bytes32"},{"name":"account","type":"address","indexed":true,"internalType":"address"},{"name":"sender","type":"address","indexed":true,"internalType":"address"}],"anonymous":false},{"type":"event","name":"RoleRevoked","inputs":[{"name":"role","type":"bytes32","indexed":true,"internalType":"bytes32"},{"name":"account","type":"address","indexed":true,"internalType":"address"},{"name":"sender","type":"address","indexed":true,"internalType":"address"}],"anonymous":false},{"type":"event","name":"SessionKeyManagerUpdated","inputs":[{"name":"newManager","type":"address","indexed":true,"internalType":"address"}],"anonymous":false},{"type":"event","name":"SessionKeyOperationExecuted","inputs":[{"name":"owner","type":"address","indexed":true,"internalType":"address"},{"name":"sessionKey","type":"address","indexed":true,"internalType":"address"},{"name":"selector","type":"bytes4","indexed":false,"internalType":"bytes4"}],"anonymous":false},{"type":"event","name":"TransferBatch","inputs":[{"name":"operator","type":"address","indexed":true,"internalType":"address"},{"name":"from","type":"address","indexed":true,"internalType":"address"},{"name":"to","type":"address","indexed":true,"internalType":"address"},{"name":"ids","type":"uint256[]","indexed":false,"internalType":"uint256[]"},{"name":"values","type":"uint256[]","indexed":false,"internalType":"uint256[]"}],"anonymous":false},{"type":"event","name":"TransferSingle","inputs":[{"name":"operator","type":"address","indexed":true,"internalType":"address"},{"name":"from","type":"address","indexed":true,"internalType":"address"},{"name":"to","type":"address","indexed":true,"internalType":"address"},{"name":"id","type":"uint256","indexed":false,"internalType":"uint256"},{"name":"value","type":"uint256","indexed":false,"internalType":"uint256"}],"anonymous":false},{"type":"event","name":"TreasuryUpdated","inputs":[{"name":"newTreasury","type":"address","indexed":false,"internalType":"address"}],"anonymous":false},{"type":"event","name":"URI","inputs":[{"name":"value","type":"string","indexed":false,"internalType":"string"},{"name":"id","type":"uint256","indexed":true,"internalType":"uint256"}],"anonymous":false},{"type":"event","name":"Unpaused","inputs":[{"name":"account","type":"address","indexed":false,"internalType":"address"}],"anonymous":false},{"type":"event","name":"Upgraded","inputs":[{"name":"implementation","type":"address","indexed":true,"internalType":"address"}],"anonymous":false},{"type":"error","name":"AccessControlBadConfirmation","inputs":[]},{"type":"error","name":"AccessControlUnauthorizedAccount","inputs":[{"name":"account","type":"address","internalType":"address"},{"name":"neededRole","type":"bytes32","internalType":"bytes32"}]},{"type":"error","name":"AddressEmptyCode","inputs":[{"name":"target","type":"address","internalType":"address"}]},{"type":"error","name":"ArticleNotFound","inputs":[]},{"type":"error","name":"ContentRequiredForScore","inputs":[]},{"type":"error","name":"ERC1155InsufficientBalance","inputs":[{"name":"sender","type":"address","internalType":"address"},{"name":"balance","type":"uint256","internalType":"uint256"},{"name":"needed","type":"uint256","internalType":"uint256"},{"name":"tokenId","type":"uint256","internalType":"uint256"}]},{"type":"error","name":"ERC1155InvalidApprover","inputs":[{"name":"approver","type":"address","internalType":"address"}]},{"type":"error","name":"ERC1155InvalidArrayLength","inputs":[{"name":"idsLength","type":"uint256","internalType":"uint256"},{"name":"valuesLength","type":"uint256","internalType":"uint256"}]},{"type":"error","name":"ERC1155InvalidOperator","inputs":[{"name":"operator","type":"address","internalType":"address"}]},{"type":"error","name":"ERC1155InvalidReceiver","inputs":[{"name":"receiver","type":"address","internalType":"address"}]},{"type":"error","name":"ERC1155InvalidSender","inputs":[{"name":"sender","type":"address","internalType":"address"}]},{"type":"error","name":"ERC1155MissingApprovalForAll","inputs":[{"name":"operator","type":"address","internalType":"address"},{"name":"owner","type":"address","internalType":"address"}]},{"type":"error","name":"ERC1967InvalidImplementation","inputs":[{"name":"implementation","type":"address","internalType":"address"}]},{"type":"error","name":"ERC1967NonPayable","inputs":[]},{"type":"error","name":"ERC2981InvalidDefaultRoyalty","inputs":[{"name":"numerator","type":"uint256","internalType":"uint256"},{"name":"denominator","type":"uint256","internalType":"uint256"}]},{"type":"error","name":"ERC2981InvalidDefaultRoyaltyReceiver","inputs":[{"name":"receiver","type":"address","internalType":"address"}]},{"type":"error","name":"ERC2981InvalidTokenRoyalty","inputs":[{"name":"tokenId","type":"uint256","internalType":"uint256"},{"name":"numerator","type":"uint256","internalType":"uint256"},{"name":"denominator","type":"uint256","internalType":"uint256"}]},{"type":"error","name":"ERC2981InvalidTokenRoyaltyReceiver","inputs":[{"name":"tokenId","type":"uint256","internalType":"uint256"},{"name":"receiver","type":"address","internalType":"address"}]},{"type":"error","name":"EnforcedPause","inputs":[]},{"type":"error","name":"ExpectedPause","inputs":[]},{"type":"error","name":"FailedCall","inputs":[]},{"type":"error","name":"FeeTooHigh","inputs":[]},{"type":"error","name":"InvalidAddress","inputs":[]},{"type":"error","name":"InvalidCommenter","inputs":[]},{"type":"error","name":"InvalidInitialization","inputs":[]},{"type":"error","name":"InvalidLength","inputs":[]},{"type":"error","name":"InvalidScore","inputs":[]},{"type":"error","name":"NotInitializing","inputs":[]},{"type":"error","name":"OriginalAuthorTooLong","inputs":[]},{"type":"error","name":"ReentrancyGuardReentrantCall","inputs":[]},{"type":"error","name":"RoyaltyTooHigh","inputs":[]},{"type":"error","name":"SessionKeyManagerNotSet","inputs":[]},{"type":"error","name":"SessionKeyValidationFailed","inputs":[]},{"type":"error","name":"SpamProtection","inputs":[]},{"type":"error","name":"TitleTooLong","inputs":[]},{"type":"error","name":"TransferFailed","inputs":[]},{"type":"error","name":"UUPSUnauthorizedCallContext","inputs":[]},{"type":"error","name":"UUPSUnsupportedProxiableUUID","inputs":[{"name":"slot","type":"bytes32","internalType":"bytes32"}]},{"type":"error","name":"ZeroAmount","inputs":[]}],"bytecode":{"object":"0x60a080604052346100e65760017f9b779b17422d0df92223018b32b4d1fa46e071723d6817e2486d003becc55f0055306080525f516020614a435f395f51905f525460ff8160401c166100d7576002600160401b03196001600160401b03821601610084575b60405161495890816100eb8239608051818181610d710152610ee50152f35b6001600160401b0319166001600160401b039081175f516020614a435f395f51905f525581527fc7f505b2f371ae2175ee4913f4499e1f2633a7b5936321eed1cdaeb6115181d290602090a15f80610065565b63f92ee8a960e01b5f5260045ffd5b5f80fdfe60806040526004361015610011575f80fd5b5f3560e01c8062fdd58e1461032e57806301ffc9a7146103295780630b826190146103245780630e89341c1461031f57806319e94a6e1461031a57806322dcd13e14610315578063248a9ca3146103105780632a55205a1461030b5780632eb2c2d6146103065780632ef9a160146103015780632f2ff15d146102fc57806336568abe146102f75780633f4ba83a146102f2578063473106b21461028e578063485cc955146102ed5780634e1273f4146102e85780634f1ef286146102e357806352cbd3be146102de57806352d1902d146102d95780635780400b146102d45780635856e4fa146102cf5780635c975abb146102ca57806363c3cc16146102c557806363c4ea4d146102c057806379c61f28146102bb5780637cd86d60146102b6578063837fa3fd146102b15780638456cb59146102ac57806384b0196e146102a757806385c3ab54146102a25780638cbd215e1461029d57806391d1485414610298578063944423f914610293578063a217fddf1461028e578063a22cb46514610289578063ac9650d814610284578063ad3cb1cc1461027f578063c7e76bf01461027a578063d547741f14610275578063dffd40f214610270578063e138818c1461026b578063e1d90b3414610266578063e63ab1e914610261578063e985e9c51461025c578063edcfafe614610257578063f242432a14610252578063f72c0d8b1461024d578063f99e5dbb14610248578063fde84719146102435763ff1f090a1461023e575f80fd5b61210c565b6120f1565b612064565b61202a565b611f36565b611ec0565b611be0565b611ba6565b611b8b565b611b6b565b611b1a565b611ad0565b611a3e565b6119f7565b611977565b61186f565b610aa1565b611793565b6116e0565b6116c3565b6116a7565b6115d7565b611507565b61149f565b611412565b61126c565b6111e2565b611178565b61114a565b61112e565b610f61565b610ed3565b610e87565b610d33565b610c74565b610abb565b610a23565b6109df565b610990565b610975565b6108e9565b6106f1565b6106b2565b61068c565b610671565b610539565b6104d9565b610436565b6103cf565b600435906001600160a01b038216820361034957565b5f80fd5b602435906001600160a01b038216820361034957565b604435906001600160a01b038216820361034957565b60a435906001600160a01b038216820361034957565b608435906001600160a01b038216820361034957565b606435906001600160a01b038216820361034957565b35906001600160a01b038216820361034957565b3461034957604036600319011261034957602061041b6103ed610333565b6024355f525f5160206148635f395f51905f52835260405f209060018060a01b03165f5260205260405f2090565b54604051908152f35b6001600160e01b031981160361034957565b346103495760203660031901126103495760043561045381610424565b63ffffffff60e01b16637965db0b60e01b811490811561047c575b506040519015158152602090f35b63152a902d60e11b811491508115610496575b505f61046e565b636cdb3d1360e11b8114915081156104c8575b81156104b7575b505f61048f565b6301ffc9a760e01b1490505f6104b0565b6303a24d0760e21b811491506104a9565b34610349575f366003190112610349576003546040516001600160a01b039091168152602090f35b805180835260209291819084018484015e5f828201840152601f01601f1916010190565b906020610536928181520190610501565b90565b346103495760203660031901126103495760043580158015610666575b610657575f52600260205260405f206040517f68747470733a2f2f676174657761792e697279732e78797a2f6d757461626c656020820152602f60f81b60408201525f918054906105a682611c11565b916001811690811561063057506001146105f4575b680bda5b99195e0b9b5960ba1b84526105f0836105e4816009880103601f1981018352826107d2565b60405191829182610525565b0390f35b9092505f5260205f205f905b838210610619575050908101604101906105e4816105bb565b600181602092546041858701015201910190610600565b60ff1916604180860191909152831515909302840190920193506105e491508290506105bb565b63522e582d60e11b5f5260045ffd5b505f54811015610556565b34610349575f36600319011261034957602060405160408152f35b34610349575f3660031901126103495760206001600160601b0360015416604051908152f35b346103495760203660031901126103495760206106e96004355f525f5160206148835f395f51905f52602052600160405f20015490565b604051908152f35b34610349576040366003190112610349576004355f9081527fdaedc9ab023613a7caf35e703657e986ccfad7e3eb0af93a2853f8d65dd86b0160205260409020546001600160a01b038116906024359060a01c8215610787575b61076a916001600160601b036107629216906121d9565b612710900490565b604080516001600160a01b03939093168352602083019190915290f35b507fdaedc9ab023613a7caf35e703657e986ccfad7e3eb0af93a2853f8d65dd86b00546001600160a01b038116925060a01c61074b565b634e487b7160e01b5f52604160045260245ffd5b90601f801991011681019081106001600160401b038211176107f357604052565b6107be565b6040519061080760c0836107d2565b565b6001600160401b0381116107f35760051b60200190565b9080601f8301121561034957813561083781610809565b9261084560405194856107d2565b81845260208085019260051b82010192831161034957602001905b82821061086d5750505090565b8135815260209182019101610860565b6001600160401b0381116107f357601f01601f191660200190565b9291926108a48261087d565b916108b260405193846107d2565b829481845281830111610349578281602093845f960137010152565b9080601f830112156103495781602061053693359101610898565b346103495760a036600319011261034957610902610333565b61090a61034d565b906044356001600160401b0381116103495761092a903690600401610820565b6064356001600160401b03811161034957610949903690600401610820565b90608435936001600160401b0385116103495761096d6109739536906004016108ce565b936121ec565b005b34610349575f36600319011261034957602060405160808152f35b34610349576040366003190112610349576109736004356109af61034d565b906109da6109d5825f525f5160206148835f395f51905f52602052600160405f20015490565b613390565b6135f4565b34610349576040366003190112610349576004356109fb61034d565b336001600160a01b03821603610a145761097391613689565b63334bd91960e11b5f5260045ffd5b34610349575f36600319011261034957610a3b613263565b5f5160206148a35f395f51905f525460ff811615610a925760ff19165f5160206148a35f395f51905f52557f5db9ee0a495bf2e6ff9c91a7834c1ba4fdd244a5e8aa4e537bd38aeae4b073aa6020604051338152a1005b638dfc202b60e01b5f5260045ffd5b34610349575f3660031901126103495760206040515f8152f35b3461034957604036600319011261034957610ad4610333565b610adc61034d565b5f5160206148e35f395f51905f525491906001600160401b03610b0e60ff604086901c1615946001600160401b031690565b1680159081610c28575b6001149081610c1e575b159081610c15575b50610c0657610b6d9183610b6460016001600160401b03195f5160206148e35f395f51905f525416175f5160206148e35f395f51905f5255565b610bcc57612281565b610b7357005b610b9d60ff60401b195f5160206148e35f395f51905f5254165f5160206148e35f395f51905f5255565b604051600181527fc7f505b2f371ae2175ee4913f4499e1f2633a7b5936321eed1cdaeb6115181d290602090a1005b610c016801000000000000000060ff60401b195f5160206148e35f395f51905f525416175f5160206148e35f395f51905f5255565b612281565b63f92ee8a960e01b5f5260045ffd5b9050155f610b2a565b303b159150610b22565b849150610b18565b90602080835192838152019201905f5b818110610c4d5750505090565b8251845260209384019390920191600101610c40565b906020610536928181520190610c30565b34610349576040366003190112610349576004356001600160401b038111610349573660238201121561034957806004013590610cb082610809565b91610cbe60405193846107d2565b8083526024602084019160051b8301019136831161034957602401905b828210610d1b57836024356001600160401b038111610349576105f091610d09610d0f923690600401610820565b9061250f565b60405191829182610c63565b60208091610d28846103bb565b815201910190610cdb565b604036600319011261034957610d47610333565b6024356001600160401b03811161034957610d669036906004016108ce565b906001600160a01b037f000000000000000000000000000000000000000000000000000000000000000016308114908115610e65575b50610e5657610da96132d2565b6040516352d1902d60e01b8152916020836004816001600160a01b0386165afa5f9381610e25575b50610df257634c9c8ce360e01b5f526001600160a01b03821660045260245ffd5b905f5160206148235f395f51905f528303610e1157610973925061435e565b632a87526960e21b5f52600483905260245ffd5b610e4891945060203d602011610e4f575b610e4081836107d2565b810190613913565b925f610dd1565b503d610e36565b63703e46dd60e11b5f5260045ffd5b5f5160206148235f395f51905f52546001600160a01b0316141590505f610d9c565b34610349576020366003190112610349577ffcae2461302da2a86e3604d10afc558dc160d49eb88bc010c4bca093793857ff6020600435610ec6613341565b80600455604051908152a1005b34610349575f366003190112610349577f00000000000000000000000000000000000000000000000000000000000000006001600160a01b03163003610e565760206040515f5160206148235f395f51905f528152f35b8015150361034957565b9181601f84011215610349578235916001600160401b038311610349576020838186019501011161034957565b346103495760c036600319011261034957610f7a610333565b610f8261034d565b90610f8b610363565b60643590610f9882610f2a565b60843560a4356001600160401b03811161034957610fba903690600401610f34565b90610fc3613922565b600354610fe0906001600160a01b03165b6001600160a01b031690565b6001600160a01b0381161561111f576040516331e1e60b60e11b6020808301919091526001600160a01b0387166024830152871515604480840191909152825293909288915f918b91611057916110386064896107d2565b60405163027f58e560e61b8152998a98899788963091600489016125db565b03925af190811561111a575f916110eb575b50156110dc5760405191151582526001600160a01b0392831692169082907f75a1fc5e2239f53dc8407b3712c878c5893431bc3c349ea3561584869670f7f290602090a36040516331e1e60b60e11b81526001600160a01b0392909216915f5160206148435f395f51905f5290602090a3005b6309fb5d8760e21b5f5260045ffd5b61110d915060203d602011611113575b61110581836107d2565b8101906125a6565b5f611069565b503d6110fb565b612682565b63022fcd8560e61b5f5260045ffd5b34610349575f3660031901126103495760206040516104008152f35b34610349575f36600319011261034957602060ff5f5160206148a35f395f51905f5254166040519015158152f35b3461034957604036600319011261034957611191610333565b6024359061119e82610f2a565b6111a6613922565b60405191151582526001600160a01b03169033907f75a1fc5e2239f53dc8407b3712c878c5893431bc3c349ea3561584869670f7f290602090a3005b610120366003190112610349576111f7610333565b6111ff61034d565b6044359160643560ff81168103610349576084356001600160401b0381116103495761122f903690600401610f34565b611237610379565b9060c4359260e4359461010435986001600160401b038a11610349576112646109739a3690600401610f34565b99909861268d565b61010036600319011261034957611281610333565b61128961034d565b60643560443561129761038f565b61129f610379565b9060c43560e4356001600160401b038111610349576112c2903690600401610f34565b906112cb613949565b6112d3613922565b6003546112e8906001600160a01b0316610fd4565b6001600160a01b0381161561111f57604051636ffea07960e11b60208281019190915260248201899052604482018a90526001600160a01b03808816606484015288166084830152938a935f918d9161137491906113538660a481015b03601f1981018852876107d2565b60405163027f58e560e61b8152998a98899788963492309160048a016127ec565b03925af190811561111a575f916113f3575b50156110dc5734156113e45761139e93349387613cfb565b604051636ffea07960e11b81526001600160a01b0391821692909116905f5160206148435f395f51905f5290602090a361097360015f5160206148c35f395f51905f5255565b631f2a200560e01b5f5260045ffd5b61140c915060203d6020116111135761110581836107d2565b5f611386565b346103495760203660031901126103495761142b610333565b611433613341565b6001600160a01b038116908115611490577f7dae230f18360d76a040c81f050aa14eb9d6dc7901b20fc5d855e2a20fe814d1916114876020926001600160601b036001549181199060601b16911617600155565b604051908152a1005b63e6c4247b60e01b5f5260045ffd5b34610349576020366003190112610349576114b8610333565b6114c0613341565b6001600160a01b0316801561149057600380546001600160a01b031916821790557f4d57218e59793e6845c36a961c3af7acfce8c54b13a697da231466fc265fdb615f80a2005b34610349575f3660031901126103495761151f613263565b611527613922565b600160ff195f5160206148a35f395f51905f525416175f5160206148a35f395f51905f52557f62e78cea01bee320cd4e420270b5ea74000d11b0c9f74754ebdbfc544b05a2586020604051338152a1005b916115ad9061159f61053697959693600f60f81b865260e0602087015260e0860190610501565b908482036040860152610501565b60608301949094526001600160a01b031660808201525f60a082015280830360c090910152610c30565b34610349575f366003190112610349577fa16a46d94261c7517cc8ff89f61c0ce93598e3c849801011dee649a6a557d10054158061167e575b156116415761161d611c49565b611625611d16565b906105f0611631612478565b6040519384933091469186611578565b60405162461bcd60e51b81526020600482015260156024820152741152540dcc4c8e88155b9a5b9a5d1a585b1a5e9959605a1b6044820152606490fd5b507fa16a46d94261c7517cc8ff89f61c0ce93598e3c849801011dee649a6a557d1015415611610565b34610349575f3660031901126103495760205f54604051908152f35b34610349575f366003190112610349576020600454604051908152f35b3461034957604036600319011261034957602060ff61172f60043561170361034d565b905f525f5160206148835f395f51905f52845260405f209060018060a01b03165f5260205260405f2090565b54166040519015158152f35b606435906001600160401b038216820361034957565b602435906001600160401b038216820361034957565b608435906001600160601b038216820361034957565b604435906001600160601b038216820361034957565b3461034957610120366003190112610349576117ad610333565b6117b561034d565b6044356001600160401b038111610349576117d4903690600401610f34565b9190926117df61173b565b6117e7611767565b60a4356001600160401b03811161034957611806903690600401610f34565b60c4929192356001600160401b03811161034957611828903690600401610f34565b93909260e4359561010435996001600160401b038b11610349576105f09b61185761185f9c3690600401610f34565b9b909a61289b565b6040519081529081906020820190565b3461034957604036600319011261034957611888610333565b60243561189481610f2a565b6001600160a01b038216918215611906576118c7906118b233612170565b9060018060a01b03165f5260205260405f2090565b60ff1981541660ff8315151617905560405190151581527f17307eab39ab6107e8899845ad3d59bd9653f200f220920489ca2b5937696c3160203392a3005b62ced3e160e81b5f525f60045260245ffd5b602081016020825282518091526040820191602060408360051b8301019401925f915b83831061194a57505050505090565b9091929394602080611968600193603f198682030187528951610501565b9701930193019193929061193b565b34610349576020366003190112610349576004356001600160401b0381116103495736602382011215610349578060040135906001600160401b038211610349573660248360051b83010111610349576105f09160246119d7920161307b565b60405191829182611918565b604051906119f26020836107d2565b5f8252565b34610349575f366003190112610349576105f0604051611a186040826107d2565b60058152640352e302e360dc1b6020820152604051918291602083526020830190610501565b346103495760a0366003190112610349576004356001600160401b03811161034957611a6e903690600401610f34565b90611a77611751565b91611a8061177d565b916064356001600160401b03811161034957611aa0903690600401610f34565b90608435946001600160401b038611610349576105f096611ac861185f973690600401610f34565b969095613137565b3461034957604036600319011261034957610973600435611aef61034d565b90611b156109d5825f525f5160206148835f395f51905f52602052600160405f20015490565b613689565b608036600319011261034957611b58600435602435611b37610363565b611b3f6103a5565b91611b48613949565b611b50613922565b349333613cfb565b60015f5160206148c35f395f51905f5255005b34610349575f36600319011261034957602060015460601c604051908152f35b34610349575f36600319011261034957602060405160018152f35b34610349575f3660031901126103495760206040517f65d7a28e3265b37a6474929f336521b332c1681b933f6cb9f3376673440d862a8152f35b3461034957604036600319011261034957602060ff61172f611c00610333565b6118b2611c0b61034d565b91612170565b90600182811c92168015611c3f575b6020831014611c2b57565b634e487b7160e01b5f52602260045260245ffd5b91607f1691611c20565b604051905f825f5160206147e35f395f51905f525491611c6883611c11565b8083529260018116908115611cf75750600114611c8c575b610807925003836107d2565b505f5160206147e35f395f51905f525f90815290917f42ad5d3e1f2e6e70edcf6d991b8a3023d3fca8047a131592f9edb9fd9b89d57d5b818310611cdb57505090602061080792820101611c80565b6020919350806001915483858901015201910190918492611cc3565b6020925061080794915060ff191682840152151560051b820101611c80565b604051905f825f5160206148035f395f51905f525491611d3583611c11565b8083529260018116908115611cf75750600114611d5857610807925003836107d2565b505f5160206148035f395f51905f525f90815290917f5f9ce34815f8e11431c7bb75a8e6886a91478f7ffc1dbb0a98dc240fddd76b755b818310611da757505090602061080792820101611c80565b6020919350806001915483858901015201910190918492611d8f565b9060405191825f825492611dd684611c11565b8084529360018116908115611e3f5750600114611dfb575b50610807925003836107d2565b90505f9291925260205f20905f915b818310611e23575050906020610807928201015f611dee565b6020919350806001915483858901015201910190918492611e0a565b90506020925061080794915060ff191682840152151560051b8201015f611dee565b9496959160a094611ea5611eb3926001600160401b0396611e8b889660c08c5260c08c0190610501565b916001808b1b031660208b015289820360408b0152610501565b908782036060890152610501565b9616608085015216910152565b34610349576020366003190112610349576004355f52600260205260405f20611ee881611dc3565b906105f060018060a01b0360018301541691611f0660028201611dc3565b936004611f1560038401611dc3565b920154916040519586956001600160401b03808660401c1695169387611e61565b346103495760a036600319011261034957611f4f610333565b611f5761034d565b60443590606435926084356001600160401b03811161034957611f7e9036906004016108ce565b926001600160a01b0382163381141580612019575b612003576001600160a01b03841615611ff05715611fde5761097394611fd660405192600184526020840152604083019160018352606084015260808301604052565b929091614136565b626a0d4560e21b5f525f60045260245ffd5b632bfa23e760e11b5f525f60045260245ffd5b63711bec9160e11b5f523360045260245260445ffd5b50612024338461324f565b15611f93565b34610349575f3660031901126103495760206040517f189ab7a9244df0848122154315af71fe140f3db0fe014031783b0946b8c9d2e38152f35b34610349576020366003190112610349576004356001600160601b0381168103610349576001600160601b0390612099613341565b16610bb881116120e2576020817f7cb8fa1ce2fc1ff6556e563c0dcba551db7cdeb3f3b0911243692639ac80e94d926001600160601b03196001541617600155604051908152a1005b63cd4e616760e01b5f5260045ffd5b34610349575f36600319011261034957602060405160028152f35b60a03660031901126103495760243560043560ff8216820361034957604435916001600160401b0383116103495761214b611b58933690600401610f34565b6121536103a5565b9160843593612160613949565b612168613922565b349533613ab2565b6001600160a01b03165f9081527f88be536d5240c274a3b1d3a1be54482fd9caa294f08c62a7cde569f49a3c45016020526040902090565b634e487b7160e01b5f52601160045260245ffd5b906103e88202918083046103e814901517156121d457565b6121a8565b818102929181159184041417156121d457565b939291906001600160a01b0385163381141580612225575b612003576001600160a01b03821615611ff05715611fde5761080794614136565b5060ff612235336118b289612170565b541615612204565b6040519061224c6040836107d2565b6007825266213637b3a43ab160c91b6020830152565b604051906122716040836107d2565b60018252601960f91b6020830152565b6040519291602061229281866107d2565b5f855261229d614333565b6122a5614333565b8451906001600160401b0382116107f3576122d6826122d15f5160206149035f395f51905f5254611c11565b612b51565b602090601f83116001146123d1575081612391939261230f926123ae97985f926123c6575b50508160011b915f199060031b1c19161790565b5f5160206149035f395f51905f52555b612327614333565b61232f614333565b612337614333565b61233f614333565b61235861234a61223d565b612352612262565b90613729565b612361836133d6565b5061236b83613472565b5061237583613533565b506001600160601b036001549181199060601b16911617600155565b6123a960fa6001600160601b03196001541617600155565b6138a0565b6123b760015f55565b6108076512309ce54000600455565b015190505f806122fb565b5f5160206149035f395f51905f525f52601f198316969091907ff429cb5e2ec84cbb765e76b31964a56ccde03e7a6122d6cc4afb19edc55edeed925f905b89821061246057505091839160019361239196956123ae999a10612448575b505050811b015f5160206149035f395f51905f525561231f565b01515f1960f88460031b161c191690555f808061242e565b8060018596829496860151815501950193019061240f565b604051906124876020836107d2565b5f808352366020840137565b9061249d82610809565b6124aa60405191826107d2565b82815280926124bb601f1991610809565b0190602036910137565b634e487b7160e01b5f52603260045260245ffd5b8051156124e65760200190565b6124c5565b8051600110156124e65760400190565b80518210156124e65760209160051b010190565b919091805183518082036125915750506125298151612493565b905f5b815181101561258a578061257860019260051b602080828701015191890101515f525f5160206148635f395f51905f5260205260405f209060018060a01b03165f5260205260405f2090565b5461258382866124fb565b520161252c565b5090925050565b635b05999160e01b5f5260045260245260445ffd5b90816020910312610349575161053681610f2a565b908060209392818452848401375f828201840152601f01601f1916010190565b6001600160a01b039182168152918116602083015290911660408201526331e1e60b60e11b6060820152610100608082018190526105369593949261262291830190610501565b935f60a083015260c082015260e08185039101526125bb565b6001600160a01b03918216815291811660208301529091166040820152630c7e76bf60e41b6060820152610100608082018190526105369593949261262291830190610501565b6040513d5f823e3d90fd5b99909897919695949392976126a0613949565b6126a8613922565b6003546126bd906001600160a01b0316610fd4565b6001600160a01b0381161561111f57895f8d6127236020968f966127028f8f8f908f918f92611345936040519c8d96637f8f848560e11b6020890152602488016127af565b60405163027f58e560e61b8152998a98899788963492309160048a0161284e565b03925af190811561111a575f91612790575b50156110dc5761274795349589613ab2565b604051600162707b7b60e11b031981526001600160a01b0391821692909116905f5160206148435f395f51905f5290602090a361080760015f5160206148c35f395f51905f5255565b6127a9915060203d6020116111135761110581836107d2565b5f612735565b92909360ff6127d89360809699989799865216602085015260a0604085015260a08401916125bb565b6001600160a01b0390951660608201520152565b6001600160a01b03918216815291811660208301529091166040820152636ffea07960e11b6060820152610100608082018190526105369693959394919261283691840190610501565b9460a083015260c082015260e08185039101526125bb565b6001600160a01b03918216815291811660208301529091166040820152600162707b7b60e11b03196060820152610100608082018190526105369693959394919261283691840190610501565b9b909a99919394969598996128ae613922565b6003546128c3906001600160a01b0316610fd4565b916001600160a01b0383161561111f576127106001600160601b038a1611612add5760408811612ace5760808c11612abf578d8d918893878f8f908f8f8f90938e946040519b8c97630c7e76bf60e41b60208a0152602489019761292698612aec565b03601f198101865261293890866107d2565b60405163027f58e560e61b8152968795869561295a953091906004890161263b565b03815a6020945f91f190811561111a575f91612aa0575b50156110dc575f54998a9561298587612b43565b5f5561298f6107f8565b61299a368587610898565b81526001600160a01b03831660208201526129b636888c610898565b60408201526129c6368c8b610898565b60608201526001600160401b03861660808201526001600160401b03421660a08201526129fb885f52600260205260405f2090565b90612a0591612e2a565b612a0d6119e3565b612a18908884613e50565b612a23908288613ff1565b600160a01b6001900316978896604051956001600160401b03879616994294612a4c9688612fb2565b037f9d7e6bdc67866fe0e844bfdb006ad0fb77d1b07f740944fc1d18cbd60db9ac1291a4604051630c7e76bf60e41b81526001600160a01b0392909216915f5160206148435f395f51905f5290602090a390565b612ab9915060203d6020116111135761110581836107d2565b5f612971565b6324a25c5760e01b5f5260045ffd5b631750ba0360e01b5f5260045ffd5b63c2b03beb60e01b5f5260045ffd5b969490612b35946001600160401b03612b1b6001600160601b03936105369c9a9660a08d5260a08d01916125bb565b951660208a015216604088015286830360608801526125bb565b9260808185039101526125bb565b5f1981146121d45760010190565b601f8111612b5d575050565b5f5160206149035f395f51905f525f5260205f20906020601f840160051c83019310612ba3575b601f0160051c01905b818110612b98575050565b5f8155600101612b8d565b9091508190612b84565b601f8111612bb9575050565b5f5160206147e35f395f51905f525f5260205f20906020601f840160051c83019310612bff575b601f0160051c01905b818110612bf4575050565b5f8155600101612be9565b9091508190612be0565b601f8211612c1657505050565b5f5260205f20906020601f840160051c83019310612c4e575b601f0160051c01905b818110612c43575050565b5f8155600101612c38565b9091508190612c2f565b9081516001600160401b0381116107f357612c9781612c845f5160206148035f395f51905f5254611c11565b5f5160206148035f395f51905f52612c09565b602092601f8211600114612cd757612cc6929382915f926123c65750508160011b915f199060031b1c19161790565b5f5160206148035f395f51905f5255565b5f5160206148035f395f51905f525f52601f198216937f5f9ce34815f8e11431c7bb75a8e6886a91478f7ffc1dbb0a98dc240fddd76b75915f5b868110612d535750836001959610612d3b575b505050811b015f5160206148035f395f51905f5255565b01515f1960f88460031b161c191690555f8080612d24565b91926020600181928685015181550194019201612d11565b91909182516001600160401b0381116107f357612d9281612d8c8454611c11565b84612c09565b6020601f8211600114612dc5578190612dc19394955f926123c65750508160011b915f199060031b1c19161790565b9055565b601f19821690612dd8845f5260205f2090565b915f5b818110612e1257509583600195969710612dfa575b505050811b019055565b01515f1960f88460031b161c191690555f8080612df0565b9192602060018192868b015181550194019201612ddb565b919080519283516001600160401b0381116107f357612e4d81612d8c8454611c11565b6020601f8211600114612f3d57612f1692612e878360a094600494610807999a5f926123c65750508160011b915f199060031b1c19161790565b81555b60208501516001820180546001600160a01b0319166001600160a01b03909216919091179055612ec1604086015160028301612d6b565b612ed2606086015160038301612d6b565b0192612f08612eeb60808301516001600160401b031690565b855467ffffffffffffffff19166001600160401b03909116178555565b01516001600160401b031690565b67ffffffffffffffff60401b82549160401b169067ffffffffffffffff60401b1916179055565b601f19821695612f50845f5260205f2090565b965f5b818110612f9a5750836108079798600494612f16979460a09760019510612f82575b505050811b018155612e8a565b01515f1960f88460031b161c191690555f8080612f75565b83830151895560019098019760209384019301612f53565b9796959192612ff094612fd4612fe2936060989660808d5260808d01916125bb565b918a830360208c01526125bb565b9187830360408901526125bb565b930152565b919082039182116121d457565b91908110156124e65760051b81013590601e19813603018212156103495701908135916001600160401b038311610349576020018236038113610349579190565b60208061080793959486604051978895848701378401908282015f8152815193849201905e01015f815203601f1981018452836107d2565b6130845f61087d565b61309160405191826107d2565b5f8152601f196130a05f61087d565b013660208301376130b083610809565b926130be60405194856107d2565b808452601f196130cd82610809565b015f5b8181106131265750505f5b8181106130e9575050505090565b8061310a613104856130fe600195878a613002565b90613043565b306140c3565b61311482886124fb565b5261311f81876124fb565b50016130db565b8060606020809389010152016130d0565b909592939495613145613922565b6127106001600160601b03861611612add5760408711612ace5760808811612abf575f5497889561317587612b43565b5f5561317f6107f8565b61318a368587610898565b815233602082015261319d368b8b610898565b60408201526131ad368489610898565b60608201526001600160401b03861660808201526001600160401b03421660a08201526131e2885f52600260205260405f2090565b906131ec91612e2a565b866131f56119e3565b6131ff9133613e50565b61320a903388613ff1565b604051946001600160401b0386951698339842946132289688612fb2565b037f9d7e6bdc67866fe0e844bfdb006ad0fb77d1b07f740944fc1d18cbd60db9ac1291a490565b60ff916118b261325e92612170565b541690565b335f9081527f75442b0a96088b5456bc4ed01394c96a4feec0f883c9494257d76b96ab1c9b6b602052604090205460ff161561329b57565b63e2517d3f60e01b5f52336004527f65d7a28e3265b37a6474929f336521b332c1681b933f6cb9f3376673440d862a60245260445ffd5b335f9081527fab71e3f32666744d246edff3f96e4bdafee2e9867098cdd118a979a7464786a8602052604090205460ff161561330a57565b63e2517d3f60e01b5f52336004527f189ab7a9244df0848122154315af71fe140f3db0fe014031783b0946b8c9d2e360245260445ffd5b335f9081527fb7db2dd08fcb62d0c9e08c51941cae53c267786a0b75803fb7960902fc8ef97d602052604090205460ff161561337957565b63e2517d3f60e01b5f52336004525f60245260445ffd5b5f8181525f5160206148835f395f51905f526020908152604080832033845290915290205460ff16156133c05750565b63e2517d3f60e01b5f523360045260245260445ffd5b6001600160a01b0381165f9081527fb7db2dd08fcb62d0c9e08c51941cae53c267786a0b75803fb7960902fc8ef97d602052604090205460ff1661346d576001600160a01b03165f8181527fb7db2dd08fcb62d0c9e08c51941cae53c267786a0b75803fb7960902fc8ef97d60205260408120805460ff191660011790553391905f5160206147c35f395f51905f528180a4600190565b505f90565b6001600160a01b0381165f9081527fab71e3f32666744d246edff3f96e4bdafee2e9867098cdd118a979a7464786a8602052604090205460ff1661346d576001600160a01b0381165f9081527fab71e3f32666744d246edff3f96e4bdafee2e9867098cdd118a979a7464786a860205260409020805460ff1916600117905533906001600160a01b03167f189ab7a9244df0848122154315af71fe140f3db0fe014031783b0946b8c9d2e35f5160206147c35f395f51905f525f80a4600190565b6001600160a01b0381165f9081527f75442b0a96088b5456bc4ed01394c96a4feec0f883c9494257d76b96ab1c9b6b602052604090205460ff1661346d576001600160a01b0381165f9081527f75442b0a96088b5456bc4ed01394c96a4feec0f883c9494257d76b96ab1c9b6b60205260409020805460ff1916600117905533906001600160a01b03167f65d7a28e3265b37a6474929f336521b332c1681b933f6cb9f3376673440d862a5f5160206147c35f395f51905f525f80a4600190565b5f8181525f5160206148835f395f51905f52602090815260408083206001600160a01b038616845290915290205460ff16613683575f8181525f5160206148835f395f51905f52602090815260408083206001600160a01b03861684529091529020805460ff1916600117905533916001600160a01b0316905f5160206147c35f395f51905f525f80a4600190565b50505f90565b5f8181525f5160206148835f395f51905f52602090815260408083206001600160a01b038616845290915290205460ff1615613683575f8181525f5160206148835f395f51905f52602090815260408083206001600160a01b03861684529091529020805460ff1916905533916001600160a01b0316907ff6391f5c32d9c69d2a47ea670b442974b53935d1edc7fd64eb21e047a839171b5f80a4600190565b613731614333565b613739614333565b8051906001600160401b0382116107f35761376a826137655f5160206147e35f395f51905f5254611c11565b612bad565b602090601f831160011461380157918061379d926137b195945f926123c65750508160011b915f199060031b1c19161790565b5f5160206147e35f395f51905f5255612c58565b6137d95f7fa16a46d94261c7517cc8ff89f61c0ce93598e3c849801011dee649a6a557d10055565b6108075f7fa16a46d94261c7517cc8ff89f61c0ce93598e3c849801011dee649a6a557d10155565b5f5160206147e35f395f51905f525f52601f19831691907f42ad5d3e1f2e6e70edcf6d991b8a3023d3fca8047a131592f9edb9fd9b89d57d925f5b81811061388857509160019391856137b197969410613870575b505050811b015f5160206147e35f395f51905f5255612c58565b01515f1960f88460031b161c191690555f8080613856565b9293602060018192878601518155019501930161383c565b6001600160a01b0316801561390057604051906138be6040836107d2565b8082526101f46020909201919091526001600160a01b0316607d60a21b177fdaedc9ab023613a7caf35e703657e986ccfad7e3eb0af93a2853f8d65dd86b0055565b635b6cc80560e11b5f525f60045260245ffd5b90816020910312610349575190565b60ff5f5160206148a35f395f51905f52541661393a57565b63d93c066560e01b5f5260045ffd5b60025f5160206148c35f395f51905f5254146139725760025f5160206148c35f395f51905f5255565b633ee5aeb560e01b5f5260045ffd5b9060405160c08101908082106001600160401b038311176107f3576108079160405260a0613a0b600483966139b581611dc3565b8552600180851b0360018201541660208601526139d460028201611dc3565b60408601526139e560038201611dc3565b606086015201546001600160401b03811660808501526001600160401b039060401c1690565b6001600160401b0316910152565b60408051909190613a2a83826107d2565b6001815291601f1901366020840137565b60405160609190613a4c83826107d2565b6002815291601f1901366020840137565b3d15613a87573d90613a6e8261087d565b91613a7c60405193846107d2565b82523d5f602084013e565b606090565b929493613aa660ff926040946060875260608701916125bb565b95602085015216910152565b929695919490955f548710156106575760ff86169160028311613cec576104008611613cdd5785158080613cd5575b80613ccd575b613cbe5715928380613cb3575b613ca457613b12613b0d8a5f52600260205260405f2090565b613981565b9083613b73575b50505050613b2a575b505050505050565b7f19a5aae49af5681d63d1a8c6ea9dc7b88af86e08d71ade984e2087fada0d4c4a93613b659160405194859460018060a01b03169885613a8c565b0390a35f8080808080613b22565b600203613c065750505f80808084613b93610fd4610fd460015460601c90565b5af1613b9d613a5d565b5015613bf7575b6040805160ff88168152602081019290925242908201526001600160a01b0384169087907fa47847c5419013bc5fa344eaa882ed5b33f76d87a7ce6a1a760d5af198afd9e590606090a35f808080613b19565b6312171d8360e31b5f5260045ffd5b613c5c613c6291613c1f613c186119e3565b8c8a613e50565b876020613c2a613a19565b92018051909590613c57906001600160a01b03165b613c48856124d9565b6001600160a01b039091169052565b614400565b83614456565b9081613c70575b5050613ba4565b515f91829182918291613c8d90610fd4906001600160a01b031681565b5af1613c97613a5d565b5015613bf7575f80613c69565b633f7d56c960e11b5f5260045ffd5b506004548310613af4565b630eb90eff60e01b5f5260045ffd5b508215613ae7565b508315613ae1565b63251f56a160e21b5f5260045ffd5b631556136560e01b5f5260045ffd5b91939290925f54841015610657576001600160a01b0382168015613e41578615613ca457613d83613d7d613d3a613b0d885f52600260205260405f2090565b613d4c613d456119e3565b8989613e50565b866020613d57613a3b565b92018051909690613d70906001600160a01b0316613c3f565b613c5788613c48856124eb565b88614456565b613d97613d908260011c90565b8092612ff5565b9281613e0d575b505081613df0575b5050604080516001600160a01b0392831681526020810196909652429086015216927f3e2236223f9ef11dd92492a8d35ef88d2ef5bea632e11697c2565e8a55d2b40190606090a4565b5f80809381935af1613e00613a5d565b5015613bf7575f80613da6565b515f91829182918291613e2a90610fd4906001600160a01b031681565b5af1613e34613a5d565b5015613bf7575f80613d9e565b633e510d3960e21b5f5260045ffd5b9291906001600160a01b03841615611ff0576001613e8b60405192600184526020840152604083019160018352606084015260808301604052565b908051825190818103613fdc5750506001600160a01b03851693841515935f5b8351811015613f105780868960019360051b602080828a010151918a01015192613ed9575b50505001613eab565b613f06916118b2613efe925f525f5160206148635f395f51905f5260205260405f2090565b91825461455c565b90555f8981613ed0565b509390959460018351145f14613fa1576020838101518582015160408051928352928201525f9133917fc3d58168c5ae7397731d063d5bbf3d657854427343f4c083240f7aacaa2d0f629190a45b613f69575b50505050565b8051600103613f915790602080613f8895930151910151915f33614724565b5f808080613f63565b613f9c935f336145f6565b613f88565b5f6040517f4a39dc06d4c0dbc64b70af90fd698a233a518aa5d07e595d983b8c0526c8f7fb339180613fd4898983614569565b0390a4613f5e565b635b05999160e01b5f5260045260245260445ffd5b92916001600160601b031661271081116140a7576001600160a01b03821615614090576108079293614068916040519361402c6040866107d2565b60018060a01b0316845260208401525f527fdaedc9ab023613a7caf35e703657e986ccfad7e3eb0af93a2853f8d65dd86b0160205260405f2090565b815160209092015160a01b6001600160a01b0319166001600160a01b03909216919091179055565b83634b4f842960e11b5f526004525f60245260445ffd5b8363dfd1fc1b60e01b5f5260045260245261271060445260645ffd5b905f8091602081519101845af48080614123575b156140e6575050610536614543565b1561410b57639996b31560e01b5f9081526001600160a01b0391909116600452602490fd5b3d15155f036126825763d6bda27560e01b5f5260045ffd5b503d1515806140d75750813b15156140d7565b9493929091938451825190818103613fdc5750506001600160a01b038681169586151595918516801515939192905f5b8451811015614266578060051b90898988602080868b010151958c010151926141cb575b9360019461419c575b50505001614166565b6141c1916118b2613efe925f525f5160206148635f395f51905f5260205260405f2090565b90555f8981614193565b505090916141f18d6118b2835f525f5160206148635f395f51905f5260205260405f2090565b5482811061422f578291898f614226600197968f9503916118b2855f525f5160206148635f395f51905f5260205260405f2090565b5590945061418a565b6040516303dee4c560e01b81526001600160a01b038f16600482015260248101919091526044810183905260648101829052608490fd5b5091989593929790965060018851145f146142f95760208881015186820151604080519283529282015233917fc3d58168c5ae7397731d063d5bbf3d657854427343f4c083240f7aacaa2d0f6291a45b6142c2575b5050505050565b84516001036142e8576020806142de9601519201519233614724565b5f808080806142bb565b6142f4949192336145f6565b6142de565b6040517f4a39dc06d4c0dbc64b70af90fd698a233a518aa5d07e595d983b8c0526c8f7fb33918061432b898d83614569565b0390a46142b6565b60ff5f5160206148e35f395f51905f525460401c161561434f57565b631afcd79f60e31b5f5260045ffd5b90813b156143df575f5160206148235f395f51905f5280546001600160a01b0319166001600160a01b0384169081179091557fbc7cd75a20ee27fd9adebab32041f755214dbc6bffa90cc0225b39da2e5c2d3b5f80a28051156143c7576143c4916140c3565b50565b5050346143d057565b63b398979f60e01b5f5260045ffd5b50634c9c8ce360e01b5f9081526001600160a01b0391909116600452602490fd5b916001600160a01b038084169216821461444f575f5b8151811015614449576001600160a01b0361443182846124fb565b5116831461444157600101614416565b505050505f90565b50505090565b5050505f90565b60015490916144716107626001600160601b038416856121d9565b906001600160a01b0316801561453b578161448e610762866121bc565b935b8161450f575b5050826144b1575b506144ac9061053693612ff5565b612ff5565b905f80808086865af16144c2613a5d565b5015613bf757610536936144ac927f6292f4f27d8047af4537a4bd86906de0e2c880c20086f7f58b81eacfeb6391266040518061450488829190602083019252565b0390a293509061449e565b5f808093614524610fd4610fd4849660601c90565b5af161452e613a5d565b5015613bf757815f614496565b815f93614490565b604051903d82523d5f602084013e60203d830101604052565b919082018092116121d457565b909161458061053693604084526040840190610c30565b916020818403910152610c30565b90816020910312610349575161053681610424565b6001600160a01b0391821681529116602082015260a06040820181905261053694919391926145e892916145da9190860190610c30565b908482036060860152610c30565b916080818403910152610501565b9091949293853b61460957505050505050565b60209361462b91604051968795869563bc197c8160e01b8752600487016145a3565b03815f6001600160a01b0387165af15f91816146ba575b5061467c5750614650613a5d565b805191908261467557632bfa23e760e11b5f526001600160a01b03821660045260245ffd5b6020915001fd5b6001600160e01b0319166343e6837f60e01b0161469f57505f8080808080613b22565b632bfa23e760e11b5f526001600160a01b031660045260245ffd5b6146dd91925060203d6020116146e4575b6146d581836107d2565b81019061458e565b905f614642565b503d6146cb565b6001600160a01b039182168152911660208201526040810191909152606081019190915260a06080820181905261053692910190610501565b9091949293853b61473757505050505050565b60209361475991604051968795869563f23a6e6160e01b8752600487016146eb565b03815f6001600160a01b0387165af15f91816147a1575b5061477e5750614650613a5d565b6001600160e01b031916630dc5919f60e01b0161469f57505f8080808080613b22565b6147bb91925060203d6020116146e4576146d581836107d2565b905f61477056fe2f8788117e7eff1d82e926ec794901d17c78024a50270940304540a733656f0da16a46d94261c7517cc8ff89f61c0ce93598e3c849801011dee649a6a557d102a16a46d94261c7517cc8ff89f61c0ce93598e3c849801011dee649a6a557d103360894a13ba1a3210667c828492db98dca3e2076cc3735a920a3ca505d382bbce915025b6f599b245c9c1c02d463228c896354d64dceb469760c99544153be6d88be536d5240c274a3b1d3a1be54482fd9caa294f08c62a7cde569f49a3c450002dd7bc7dec4dceedda775e58dd541e08a116c6c53815c0bd028192f7b626800cd5ed15c6e187e77e9aee88184c21f4f2182ab5827cb3b7e07fbedcd63f033009b779b17422d0df92223018b32b4d1fa46e071723d6817e2486d003becc55f00f0c57e16840df040f15088dc2f81fe391c3923bec73e23a9662efc9c229c6a0088be536d5240c274a3b1d3a1be54482fd9caa294f08c62a7cde569f49a3c4502a264697066735822122023dbae93348ee19650dc98172425816d26e6266f1e83332f7a4434705bfd0bfb64736f6c634300081e0033f0c57e16840df040f15088dc2f81fe391c3923bec73e23a9662efc9c229c6a00","linkReferences":{}},"methodIdentifiers":{"DEFAULT_ADMIN_ROLE()":"a217fddf","MAX_COMMENT_LENGTH()":"5856e4fa","MAX_ORIGINAL_AUTHOR_LENGTH()":"19e94a6e","MAX_TITLE_LENGTH()":"2ef9a160","PAUSER_ROLE()":"e63ab1e9","SCORE_DISLIKE()":"fde84719","SCORE_LIKE()":"e1d90b34","SCORE_NEUTRAL()":"473106b2","UPGRADER_ROLE()":"f72c0d8b","UPGRADE_INTERFACE_VERSION()":"ad3cb1cc","articles(uint256)":"edcfafe6","balanceOf(address,uint256)":"00fdd58e","balanceOfBatch(address[],uint256[])":"4e1273f4","eip712Domain()":"84b0196e","evaluate(uint256,uint8,string,address,uint256)":"ff1f090a","evaluateWithSessionKey(address,address,uint256,uint8,string,address,uint256,uint256,bytes)":"63c4ea4d","follow(address,bool)":"63c3cc16","followWithSessionKey(address,address,address,bool,uint256,bytes)":"5780400b","getRoleAdmin(bytes32)":"248a9ca3","grantRole(bytes32,address)":"2f2ff15d","hasRole(bytes32,address)":"91d14854","initialize(address,address)":"485cc955","isApprovedForAll(address,address)":"e985e9c5","likeComment(uint256,uint256,address,address)":"dffd40f2","likeCommentWithSessionKey(address,address,uint256,uint256,address,address,uint256,bytes)":"79c61f28","minActionValue()":"8cbd215e","multicall(bytes[])":"ac9650d8","nextArticleId()":"85c3ab54","pause()":"8456cb59","paused()":"5c975abb","platformFeeBps()":"22dcd13e","platformTreasury()":"e138818c","proxiableUUID()":"52d1902d","publish(string,uint64,uint96,string,string)":"c7e76bf0","publishWithSessionKey(address,address,string,uint64,uint96,string,string,uint256,bytes)":"944423f9","renounceRole(bytes32,address)":"36568abe","revokeRole(bytes32,address)":"d547741f","royaltyInfo(uint256,uint256)":"2a55205a","safeBatchTransferFrom(address,address,uint256[],uint256[],bytes)":"2eb2c2d6","safeTransferFrom(address,address,uint256,uint256,bytes)":"f242432a","sessionKeyManager()":"0b826190","setApprovalForAll(address,bool)":"a22cb465","setMinActionValue(uint256)":"52cbd3be","setPlatformFee(uint96)":"f99e5dbb","setPlatformTreasury(address)":"7cd86d60","setSessionKeyManager(address)":"837fa3fd","supportsInterface(bytes4)":"01ffc9a7","unpause()":"3f4ba83a","upgradeToAndCall(address,bytes)":"4f1ef286","uri(uint256)":"0e89341c"},"id":68}