{"abi":[{"type":"constructor","inputs":[],"stateMutability":"nonpayable"},{"type":"function","name":"DEFAULT_ADMIN_ROLE","inputs":[],"outputs":[{"name":"","type":"bytes32","internalType":"bytes32"}],"stateMutability":"view"},{"type":"function","name":"MAX_COMMENT_LENGTH","inputs":[],"outputs":[{"name":"","type":"uint256","internalType":"uint256"}],"stateMutability":"view"},{"type":"function","name":"MAX_ORIGINAL_AUTHOR_LENGTH","inputs":[],"outputs":[{"name":"","type":"uint256","internalType":"uint256"}],"stateMutability":"view"},{"type":"function","name":"MAX_TITLE_LENGTH","inputs":[],"outputs":[{"name":"","type":"uint256","internalType":"uint256"}],"stateMutability":"view"},{"type":"function","name":"PAUSER_ROLE","inputs":[],"outputs":[{"name":"","type":"bytes32","internalType":"bytes32"}],"stateMutability":"view"},{"type":"function","name":"SCORE_DISLIKE","inputs":[],"outputs":[{"name":"","type":"uint8","internalType":"uint8"}],"stateMutability":"view"},{"type":"function","name":"SCORE_LIKE","inputs":[],"outputs":[{"name":"","type":"uint8","internalType":"uint8"}],"stateMutability":"view"},{"type":"function","name":"SCORE_NEUTRAL","inputs":[],"outputs":[{"name":"","type":"uint8","internalType":"uint8"}],"stateMutability":"view"},{"type":"function","name":"UPGRADER_ROLE","inputs":[],"outputs":[{"name":"","type":"bytes32","internalType":"bytes32"}],"stateMutability":"view"},{"type":"function","name":"UPGRADE_INTERFACE_VERSION","inputs":[],"outputs":[{"name":"","type":"string","internalType":"string"}],"stateMutability":"view"},{"type":"function","name":"articles","inputs":[{"name":"","type":"uint256","internalType":"uint256"}],"outputs":[{"name":"author","type":"address","internalType":"address"},{"name":"timestamp","type":"uint64","internalType":"uint64"},{"name":"categoryId","type":"uint16","internalType":"uint16"},{"name":"originality","type":"uint8","internalType":"enum BlogHub.Originality"},{"name":"collectPrice","type":"uint96","internalType":"uint96"},{"name":"maxCollectSupply","type":"uint32","internalType":"uint32"},{"name":"collectCount","type":"uint32","internalType":"uint32"},{"name":"arweaveHash","type":"string","internalType":"string"}],"stateMutability":"view"},{"type":"function","name":"balanceOf","inputs":[{"name":"account","type":"address","internalType":"address"},{"name":"id","type":"uint256","internalType":"uint256"}],"outputs":[{"name":"","type":"uint256","internalType":"uint256"}],"stateMutability":"view"},{"type":"function","name":"balanceOfBatch","inputs":[{"name":"accounts","type":"address[]","internalType":"address[]"},{"name":"ids","type":"uint256[]","internalType":"uint256[]"}],"outputs":[{"name":"","type":"uint256[]","internalType":"uint256[]"}],"stateMutability":"view"},{"type":"function","name":"collect","inputs":[{"name":"_articleId","type":"uint256","internalType":"uint256"},{"name":"_referrer","type":"address","internalType":"address"}],"outputs":[],"stateMutability":"payable"},{"type":"function","name":"collectWithSessionKey","inputs":[{"name":"owner","type":"address","internalType":"address"},{"name":"sessionKey","type":"address","internalType":"address"},{"name":"_articleId","type":"uint256","internalType":"uint256"},{"name":"_referrer","type":"address","internalType":"address"},{"name":"deadline","type":"uint256","internalType":"uint256"},{"name":"signature","type":"bytes","internalType":"bytes"}],"outputs":[],"stateMutability":"payable"},{"type":"function","name":"evaluate","inputs":[{"name":"_articleId","type":"uint256","internalType":"uint256"},{"name":"_score","type":"uint8","internalType":"uint8"},{"name":"_content","type":"string","internalType":"string"},{"name":"_referrer","type":"address","internalType":"address"},{"name":"_parentCommentId","type":"uint256","internalType":"uint256"}],"outputs":[],"stateMutability":"payable"},{"type":"function","name":"evaluateWithSessionKey","inputs":[{"name":"owner","type":"address","internalType":"address"},{"name":"sessionKey","type":"address","internalType":"address"},{"name":"_articleId","type":"uint256","internalType":"uint256"},{"name":"_score","type":"uint8","internalType":"uint8"},{"name":"_content","type":"string","internalType":"string"},{"name":"_referrer","type":"address","internalType":"address"},{"name":"_parentCommentId","type":"uint256","internalType":"uint256"},{"name":"deadline","type":"uint256","internalType":"uint256"},{"name":"signature","type":"bytes","internalType":"bytes"}],"outputs":[],"stateMutability":"payable"},{"type":"function","name":"follow","inputs":[{"name":"_target","type":"address","internalType":"address"},{"name":"_status","type":"bool","internalType":"bool"}],"outputs":[],"stateMutability":"nonpayable"},{"type":"function","name":"followWithSessionKey","inputs":[{"name":"owner","type":"address","internalType":"address"},{"name":"sessionKey","type":"address","internalType":"address"},{"name":"_target","type":"address","internalType":"address"},{"name":"_status","type":"bool","internalType":"bool"},{"name":"deadline","type":"uint256","internalType":"uint256"},{"name":"signature","type":"bytes","internalType":"bytes"}],"outputs":[],"stateMutability":"nonpayable"},{"type":"function","name":"getRoleAdmin","inputs":[{"name":"role","type":"bytes32","internalType":"bytes32"}],"outputs":[{"name":"","type":"bytes32","internalType":"bytes32"}],"stateMutability":"view"},{"type":"function","name":"grantRole","inputs":[{"name":"role","type":"bytes32","internalType":"bytes32"},{"name":"account","type":"address","internalType":"address"}],"outputs":[],"stateMutability":"nonpayable"},{"type":"function","name":"hasRole","inputs":[{"name":"role","type":"bytes32","internalType":"bytes32"},{"name":"account","type":"address","internalType":"address"}],"outputs":[{"name":"","type":"bool","internalType":"bool"}],"stateMutability":"view"},{"type":"function","name":"initialize","inputs":[{"name":"_initialOwner","type":"address","internalType":"address"},{"name":"_treasury","type":"address","internalType":"address"}],"outputs":[],"stateMutability":"nonpayable"},{"type":"function","name":"isApprovedForAll","inputs":[{"name":"account","type":"address","internalType":"address"},{"name":"operator","type":"address","internalType":"address"}],"outputs":[{"name":"","type":"bool","internalType":"bool"}],"stateMutability":"view"},{"type":"function","name":"likeComment","inputs":[{"name":"_articleId","type":"uint256","internalType":"uint256"},{"name":"_commentId","type":"uint256","internalType":"uint256"},{"name":"_commenter","type":"address","internalType":"address"},{"name":"_referrer","type":"address","internalType":"address"}],"outputs":[],"stateMutability":"payable"},{"type":"function","name":"likeCommentWithSessionKey","inputs":[{"name":"owner","type":"address","internalType":"address"},{"name":"sessionKey","type":"address","internalType":"address"},{"name":"_articleId","type":"uint256","internalType":"uint256"},{"name":"_commentId","type":"uint256","internalType":"uint256"},{"name":"_commenter","type":"address","internalType":"address"},{"name":"_referrer","type":"address","internalType":"address"},{"name":"deadline","type":"uint256","internalType":"uint256"},{"name":"signature","type":"bytes","internalType":"bytes"}],"outputs":[],"stateMutability":"payable"},{"type":"function","name":"minActionValue","inputs":[],"outputs":[{"name":"","type":"uint256","internalType":"uint256"}],"stateMutability":"view"},{"type":"function","name":"multicall","inputs":[{"name":"data","type":"bytes[]","internalType":"bytes[]"}],"outputs":[{"name":"results","type":"bytes[]","internalType":"bytes[]"}],"stateMutability":"nonpayable"},{"type":"function","name":"nextArticleId","inputs":[],"outputs":[{"name":"","type":"uint256","internalType":"uint256"}],"stateMutability":"view"},{"type":"function","name":"pause","inputs":[],"outputs":[],"stateMutability":"nonpayable"},{"type":"function","name":"paused","inputs":[],"outputs":[{"name":"","type":"bool","internalType":"bool"}],"stateMutability":"view"},{"type":"function","name":"platformFeeBps","inputs":[],"outputs":[{"name":"","type":"uint96","internalType":"uint96"}],"stateMutability":"view"},{"type":"function","name":"platformTreasury","inputs":[],"outputs":[{"name":"","type":"address","internalType":"address"}],"stateMutability":"view"},{"type":"function","name":"proxiableUUID","inputs":[],"outputs":[{"name":"","type":"bytes32","internalType":"bytes32"}],"stateMutability":"view"},{"type":"function","name":"publish","inputs":[{"name":"_arweaveId","type":"string","internalType":"string"},{"name":"_categoryId","type":"uint64","internalType":"uint64"},{"name":"_royaltyBps","type":"uint96","internalType":"uint96"},{"name":"_originalAuthor","type":"string","internalType":"string"},{"name":"_title","type":"string","internalType":"string"},{"name":"_trueAuthor","type":"address","internalType":"address"},{"name":"_collectPrice","type":"uint256","internalType":"uint256"},{"name":"_maxCollectSupply","type":"uint256","internalType":"uint256"},{"name":"_originality","type":"uint8","internalType":"enum BlogHub.Originality"}],"outputs":[{"name":"","type":"uint256","internalType":"uint256"}],"stateMutability":"nonpayable"},{"type":"function","name":"publishWithSessionKey","inputs":[{"name":"owner","type":"address","internalType":"address"},{"name":"sessionKey","type":"address","internalType":"address"},{"name":"params","type":"tuple","internalType":"struct BlogHub.PublishParams","components":[{"name":"arweaveId","type":"string","internalType":"string"},{"name":"categoryId","type":"uint64","internalType":"uint64"},{"name":"royaltyBps","type":"uint96","internalType":"uint96"},{"name":"originalAuthor","type":"string","internalType":"string"},{"name":"title","type":"string","internalType":"string"},{"name":"trueAuthor","type":"address","internalType":"address"},{"name":"collectPrice","type":"uint256","internalType":"uint256"},{"name":"maxCollectSupply","type":"uint256","internalType":"uint256"},{"name":"originality","type":"uint8","internalType":"enum BlogHub.Originality"}]},{"name":"deadline","type":"uint256","internalType":"uint256"},{"name":"signature","type":"bytes","internalType":"bytes"}],"outputs":[{"name":"","type":"uint256","internalType":"uint256"}],"stateMutability":"nonpayable"},{"type":"function","name":"renounceRole","inputs":[{"name":"role","type":"bytes32","internalType":"bytes32"},{"name":"callerConfirmation","type":"address","internalType":"address"}],"outputs":[],"stateMutability":"nonpayable"},{"type":"function","name":"revokeRole","inputs":[{"name":"role","type":"bytes32","internalType":"bytes32"},{"name":"account","type":"address","internalType":"address"}],"outputs":[],"stateMutability":"nonpayable"},{"type":"function","name":"royaltyInfo","inputs":[{"name":"tokenId","type":"uint256","internalType":"uint256"},{"name":"salePrice","type":"uint256","internalType":"uint256"}],"outputs":[{"name":"receiver","type":"address","internalType":"address"},{"name":"amount","type":"uint256","internalType":"uint256"}],"stateMutability":"view"},{"type":"function","name":"safeBatchTransferFrom","inputs":[{"name":"from","type":"address","internalType":"address"},{"name":"to","type":"address","internalType":"address"},{"name":"ids","type":"uint256[]","internalType":"uint256[]"},{"name":"values","type":"uint256[]","internalType":"uint256[]"},{"name":"data","type":"bytes","internalType":"bytes"}],"outputs":[],"stateMutability":"nonpayable"},{"type":"function","name":"safeTransferFrom","inputs":[{"name":"from","type":"address","internalType":"address"},{"name":"to","type":"address","internalType":"address"},{"name":"id","type":"uint256","internalType":"uint256"},{"name":"value","type":"uint256","internalType":"uint256"},{"name":"data","type":"bytes","internalType":"bytes"}],"outputs":[],"stateMutability":"nonpayable"},{"type":"function","name":"sessionKeyManager","inputs":[],"outputs":[{"name":"","type":"address","internalType":"contract ISessionKeyManager"}],"stateMutability":"view"},{"type":"function","name":"setApprovalForAll","inputs":[{"name":"operator","type":"address","internalType":"address"},{"name":"approved","type":"bool","internalType":"bool"}],"outputs":[],"stateMutability":"nonpayable"},{"type":"function","name":"setMinActionValue","inputs":[{"name":"_minActionValue","type":"uint256","internalType":"uint256"}],"outputs":[],"stateMutability":"nonpayable"},{"type":"function","name":"setPlatformFee","inputs":[{"name":"_feeBps","type":"uint96","internalType":"uint96"}],"outputs":[],"stateMutability":"nonpayable"},{"type":"function","name":"setPlatformTreasury","inputs":[{"name":"_treasury","type":"address","internalType":"address"}],"outputs":[],"stateMutability":"nonpayable"},{"type":"function","name":"setSessionKeyManager","inputs":[{"name":"_sessionKeyManager","type":"address","internalType":"address"}],"outputs":[],"stateMutability":"nonpayable"},{"type":"function","name":"supportsInterface","inputs":[{"name":"interfaceId","type":"bytes4","internalType":"bytes4"}],"outputs":[{"name":"","type":"bool","internalType":"bool"}],"stateMutability":"view"},{"type":"function","name":"unpause","inputs":[],"outputs":[],"stateMutability":"nonpayable"},{"type":"function","name":"upgradeToAndCall","inputs":[{"name":"newImplementation","type":"address","internalType":"address"},{"name":"data","type":"bytes","internalType":"bytes"}],"outputs":[],"stateMutability":"payable"},{"type":"function","name":"uri","inputs":[{"name":"_id","type":"uint256","internalType":"uint256"}],"outputs":[{"name":"","type":"string","internalType":"string"}],"stateMutability":"view"},{"type":"event","name":"ApprovalForAll","inputs":[{"name":"account","type":"address","indexed":true,"internalType":"address"},{"name":"operator","type":"address","indexed":true,"internalType":"address"},{"name":"approved","type":"bool","indexed":false,"internalType":"bool"}],"anonymous":false},{"type":"event","name":"ArticleCollected","inputs":[{"name":"articleId","type":"uint256","indexed":true,"internalType":"uint256"},{"name":"collector","type":"address","indexed":true,"internalType":"address"},{"name":"amount","type":"uint256","indexed":false,"internalType":"uint256"},{"name":"tokenId","type":"uint256","indexed":false,"internalType":"uint256"},{"name":"timestamp","type":"uint256","indexed":false,"internalType":"uint256"}],"anonymous":false},{"type":"event","name":"ArticleEvaluated","inputs":[{"name":"articleId","type":"uint256","indexed":true,"internalType":"uint256"},{"name":"user","type":"address","indexed":true,"internalType":"address"},{"name":"score","type":"uint8","indexed":false,"internalType":"uint8"},{"name":"amountPaid","type":"uint256","indexed":false,"internalType":"uint256"},{"name":"timestamp","type":"uint256","indexed":false,"internalType":"uint256"}],"anonymous":false},{"type":"event","name":"ArticlePublished","inputs":[{"name":"articleId","type":"uint256","indexed":true,"internalType":"uint256"},{"name":"author","type":"address","indexed":true,"internalType":"address"},{"name":"categoryId","type":"uint256","indexed":true,"internalType":"uint256"},{"name":"arweaveId","type":"string","indexed":false,"internalType":"string"},{"name":"originalAuthor","type":"string","indexed":false,"internalType":"string"},{"name":"title","type":"string","indexed":false,"internalType":"string"},{"name":"timestamp","type":"uint256","indexed":false,"internalType":"uint256"},{"name":"trueAuthor","type":"address","indexed":false,"internalType":"address"},{"name":"collectPrice","type":"uint256","indexed":false,"internalType":"uint256"},{"name":"maxCollectSupply","type":"uint256","indexed":false,"internalType":"uint256"},{"name":"originality","type":"uint8","indexed":false,"internalType":"enum BlogHub.Originality"}],"anonymous":false},{"type":"event","name":"CommentAdded","inputs":[{"name":"articleId","type":"uint256","indexed":true,"internalType":"uint256"},{"name":"commenter","type":"address","indexed":true,"internalType":"address"},{"name":"content","type":"string","indexed":false,"internalType":"string"},{"name":"parentCommentId","type":"uint256","indexed":false,"internalType":"uint256"},{"name":"score","type":"uint8","indexed":false,"internalType":"uint8"}],"anonymous":false},{"type":"event","name":"CommentLiked","inputs":[{"name":"articleId","type":"uint256","indexed":true,"internalType":"uint256"},{"name":"commentId","type":"uint256","indexed":true,"internalType":"uint256"},{"name":"liker","type":"address","indexed":true,"internalType":"address"},{"name":"commenter","type":"address","indexed":false,"internalType":"address"},{"name":"amountPaid","type":"uint256","indexed":false,"internalType":"uint256"},{"name":"timestamp","type":"uint256","indexed":false,"internalType":"uint256"}],"anonymous":false},{"type":"event","name":"FollowStatusChanged","inputs":[{"name":"follower","type":"address","indexed":true,"internalType":"address"},{"name":"target","type":"address","indexed":true,"internalType":"address"},{"name":"isFollowing","type":"bool","indexed":false,"internalType":"bool"}],"anonymous":false},{"type":"event","name":"Initialized","inputs":[{"name":"version","type":"uint64","indexed":false,"internalType":"uint64"}],"anonymous":false},{"type":"event","name":"MinActionValueUpdated","inputs":[{"name":"newValue","type":"uint256","indexed":false,"internalType":"uint256"}],"anonymous":false},{"type":"event","name":"Paused","inputs":[{"name":"account","type":"address","indexed":false,"internalType":"address"}],"anonymous":false},{"type":"event","name":"PlatformFeeUpdated","inputs":[{"name":"newFeeBps","type":"uint96","indexed":false,"internalType":"uint96"}],"anonymous":false},{"type":"event","name":"ReferralPaid","inputs":[{"name":"referrer","type":"address","indexed":true,"internalType":"address"},{"name":"amount","type":"uint256","indexed":false,"internalType":"uint256"}],"anonymous":false},{"type":"event","name":"RoleAdminChanged","inputs":[{"name":"role","type":"bytes32","indexed":true,"internalType":"bytes32"},{"name":"previousAdminRole","type":"bytes32","indexed":true,"internalType":"bytes32"},{"name":"newAdminRole","type":"bytes32","indexed":true,"internalType":"bytes32"}],"anonymous":false},{"type":"event","name":"RoleGranted","inputs":[{"name":"role","type":"bytes32","indexed":true,"internalType":"bytes32"},{"name":"account","type":"address","indexed":true,"internalType":"address"},{"name":"sender","type":"address","indexed":true,"internalType":"address"}],"anonymous":false},{"type":"event","name":"RoleRevoked","inputs":[{"name":"role","type":"bytes32","indexed":true,"internalType":"bytes32"},{"name":"account","type":"address","indexed":true,"internalType":"address"},{"name":"sender","type":"address","indexed":true,"internalType":"address"}],"anonymous":false},{"type":"event","name":"SessionKeyManagerUpdated","inputs":[{"name":"newManager","type":"address","indexed":true,"internalType":"address"}],"anonymous":false},{"type":"event","name":"SessionKeyOperationExecuted","inputs":[{"name":"owner","type":"address","indexed":true,"internalType":"address"},{"name":"sessionKey","type":"address","indexed":true,"internalType":"address"},{"name":"selector","type":"bytes4","indexed":false,"internalType":"bytes4"}],"anonymous":false},{"type":"event","name":"TransferBatch","inputs":[{"name":"operator","type":"address","indexed":true,"internalType":"address"},{"name":"from","type":"address","indexed":true,"internalType":"address"},{"name":"to","type":"address","indexed":true,"internalType":"address"},{"name":"ids","type":"uint256[]","indexed":false,"internalType":"uint256[]"},{"name":"values","type":"uint256[]","indexed":false,"internalType":"uint256[]"}],"anonymous":false},{"type":"event","name":"TransferSingle","inputs":[{"name":"operator","type":"address","indexed":true,"internalType":"address"},{"name":"from","type":"address","indexed":true,"internalType":"address"},{"name":"to","type":"address","indexed":true,"internalType":"address"},{"name":"id","type":"uint256","indexed":false,"internalType":"uint256"},{"name":"value","type":"uint256","indexed":false,"internalType":"uint256"}],"anonymous":false},{"type":"event","name":"TreasuryUpdated","inputs":[{"name":"newTreasury","type":"address","indexed":false,"internalType":"address"}],"anonymous":false},{"type":"event","name":"URI","inputs":[{"name":"value","type":"string","indexed":false,"internalType":"string"},{"name":"id","type":"uint256","indexed":true,"internalType":"uint256"}],"anonymous":false},{"type":"event","name":"Unpaused","inputs":[{"name":"account","type":"address","indexed":false,"internalType":"address"}],"anonymous":false},{"type":"event","name":"Upgraded","inputs":[{"name":"implementation","type":"address","indexed":true,"internalType":"address"}],"anonymous":false},{"type":"error","name":"AccessControlBadConfirmation","inputs":[]},{"type":"error","name":"AccessControlUnauthorizedAccount","inputs":[{"name":"account","type":"address","internalType":"address"},{"name":"neededRole","type":"bytes32","internalType":"bytes32"}]},{"type":"error","name":"AddressEmptyCode","inputs":[{"name":"target","type":"address","internalType":"address"}]},{"type":"error","name":"ArticleNotFound","inputs":[]},{"type":"error","name":"CategoryIdTooHigh","inputs":[]},{"type":"error","name":"CollectNotEnabled","inputs":[]},{"type":"error","name":"CollectPriceTooHigh","inputs":[]},{"type":"error","name":"ContentRequiredForScore","inputs":[]},{"type":"error","name":"ERC1155InsufficientBalance","inputs":[{"name":"sender","type":"address","internalType":"address"},{"name":"balance","type":"uint256","internalType":"uint256"},{"name":"needed","type":"uint256","internalType":"uint256"},{"name":"tokenId","type":"uint256","internalType":"uint256"}]},{"type":"error","name":"ERC1155InvalidApprover","inputs":[{"name":"approver","type":"address","internalType":"address"}]},{"type":"error","name":"ERC1155InvalidArrayLength","inputs":[{"name":"idsLength","type":"uint256","internalType":"uint256"},{"name":"valuesLength","type":"uint256","internalType":"uint256"}]},{"type":"error","name":"ERC1155InvalidOperator","inputs":[{"name":"operator","type":"address","internalType":"address"}]},{"type":"error","name":"ERC1155InvalidReceiver","inputs":[{"name":"receiver","type":"address","internalType":"address"}]},{"type":"error","name":"ERC1155InvalidSender","inputs":[{"name":"sender","type":"address","internalType":"address"}]},{"type":"error","name":"ERC1155MissingApprovalForAll","inputs":[{"name":"operator","type":"address","internalType":"address"},{"name":"owner","type":"address","internalType":"address"}]},{"type":"error","name":"ERC1967InvalidImplementation","inputs":[{"name":"implementation","type":"address","internalType":"address"}]},{"type":"error","name":"ERC1967NonPayable","inputs":[]},{"type":"error","name":"ERC2981InvalidDefaultRoyalty","inputs":[{"name":"numerator","type":"uint256","internalType":"uint256"},{"name":"denominator","type":"uint256","internalType":"uint256"}]},{"type":"error","name":"ERC2981InvalidDefaultRoyaltyReceiver","inputs":[{"name":"receiver","type":"address","internalType":"address"}]},{"type":"error","name":"ERC2981InvalidTokenRoyalty","inputs":[{"name":"tokenId","type":"uint256","internalType":"uint256"},{"name":"numerator","type":"uint256","internalType":"uint256"},{"name":"denominator","type":"uint256","internalType":"uint256"}]},{"type":"error","name":"ERC2981InvalidTokenRoyaltyReceiver","inputs":[{"name":"tokenId","type":"uint256","internalType":"uint256"},{"name":"receiver","type":"address","internalType":"address"}]},{"type":"error","name":"EnforcedPause","inputs":[]},{"type":"error","name":"ExpectedPause","inputs":[]},{"type":"error","name":"FailedCall","inputs":[]},{"type":"error","name":"FeeTooHigh","inputs":[]},{"type":"error","name":"InsufficientPayment","inputs":[]},{"type":"error","name":"InvalidAddress","inputs":[]},{"type":"error","name":"InvalidCommenter","inputs":[]},{"type":"error","name":"InvalidInitialization","inputs":[]},{"type":"error","name":"InvalidLength","inputs":[]},{"type":"error","name":"InvalidScore","inputs":[]},{"type":"error","name":"MaxCollectSupplyTooHigh","inputs":[]},{"type":"error","name":"MaxSupplyReached","inputs":[]},{"type":"error","name":"NotInitializing","inputs":[]},{"type":"error","name":"OriginalAuthorTooLong","inputs":[]},{"type":"error","name":"ReentrancyGuardReentrantCall","inputs":[]},{"type":"error","name":"RoyaltyTooHigh","inputs":[]},{"type":"error","name":"SessionKeyManagerNotSet","inputs":[]},{"type":"error","name":"SessionKeyValidationFailed","inputs":[]},{"type":"error","name":"SpamProtection","inputs":[]},{"type":"error","name":"TitleTooLong","inputs":[]},{"type":"error","name":"TransferFailed","inputs":[]},{"type":"error","name":"UUPSUnauthorizedCallContext","inputs":[]},{"type":"error","name":"UUPSUnsupportedProxiableUUID","inputs":[{"name":"slot","type":"bytes32","internalType":"bytes32"}]}],"bytecode":{"object":"0x60a080604052346100e65760017f9b779b17422d0df92223018b32b4d1fa46e071723d6817e2486d003becc55f0055306080525f51602061469b5f395f51905f525460ff8160401c166100d7576002600160401b03196001600160401b03821601610084575b6040516145b090816100eb8239608051818181610d370152610eab0152f35b6001600160401b0319166001600160401b039081175f51602061469b5f395f51905f525581527fc7f505b2f371ae2175ee4913f4499e1f2633a7b5936321eed1cdaeb6115181d290602090a15f80610065565b63f92ee8a960e01b5f5260045ffd5b5f80fdfe60806040526004361015610011575f80fd5b5f3560e01c8062fdd58e1461033e57806301ffc9a7146103395780630b826190146103345780630e89341c1461032f57806319e94a6e1461032a57806322dcd13e14610325578063248a9ca3146103205780632a55205a1461031b5780632eb2c2d6146103165780632ef9a160146103115780632f2ff15d1461030c57806336568abe146103075780633f4ba83a14610302578063473106b21461029e578063485cc955146102fd5780634e1273f4146102f85780634f1ef286146102f357806352cbd3be146102ee57806352d1902d146102e95780635780400b146102e45780635856e4fa146102df5780635c975abb146102da57806363c3cc16146102d557806363c4ea4d146102d0578063795146ef146102cb57806379c61f28146102c65780637cd86d60146102c1578063837fa3fd146102bc5780638456cb59146102b757806385c3ab54146102b25780638cbd215e146102ad5780638d3c100a146102a857806391d14854146102a3578063a217fddf1461029e578063a22cb46514610299578063ac9650d814610294578063ad3cb1cc1461028f578063d547741f1461028a578063df7f942b14610285578063dffd40f214610280578063e138818c1461027b578063e1d90b3414610276578063e63ab1e914610271578063e7628e4d1461026c578063e985e9c514610267578063edcfafe614610262578063f242432a1461025d578063f72c0d8b14610258578063f99e5dbb14610253578063fde847191461024e5763ff1f090a14610249575f80fd5b611df7565b611ddc565b611d57565b611d1d565b611c21565b611b00565b611a14565b611965565b6118d7565b6118bc565b61189c565b611856565b6117c6565b611779565b611732565b6116b2565b6115c1565b610a4f565b611563565b61151a565b6114fd565b6114e1565b611470565b611404565b611373565b61123b565b61113e565b6110ac565b61108c565b611039565b61101d565b610f27565b610e99565b610e4d565b610cf5565b610c34565b610a8e565b6109d1565b610989565b610937565b61091c565b610888565b610691565b610652565b61062c565b610611565b6104d5565b610475565b6103d2565b610367565b6001600160a01b0381160361035457565b5f80fd5b60a4359061036582610343565b565b346103545760403660031901126103545760206103b760043561038981610343565b6024355f525f5160206144bb5f395f51905f52835260405f209060018060a01b03165f5260205260405f2090565b54604051908152f35b6001600160e01b031981160361035457565b34610354576020366003190112610354576004356103ef816103c0565b63ffffffff60e01b16637965db0b60e01b8114908115610418575b506040519015158152602090f35b63152a902d60e11b811491508115610432575b505f61040a565b636cdb3d1360e11b811491508115610464575b8115610453575b505f61042b565b6301ffc9a760e01b1490505f61044c565b6303a24d0760e21b81149150610445565b34610354575f366003190112610354576003546040516001600160a01b039091168152602090f35b805180835260209291819084018484015e5f828201840152601f01601f1916010190565b9060206104d292818152019061049d565b90565b346103545760203660031901126103545760043580158015610606575b6105f7575f526002602052600260405f20016040517f68747470733a2f2f676174657761792e697279732e78797a2f6d757461626c656020820152602f60f81b60408201525f9180549061054582611a33565b91600181169081156105d05750600114610594575b680bda5b99195e0b9b5960ba1b84526105908361058481600988015b03601f198101835282610772565b604051918291826104c1565b0390f35b9092505f5260205f205f905b8382106105b9575050908101604101906105848161055a565b6001816020925460418587010152019101906105a0565b60ff191660418086019190915283151590930284019092019350610584915082905061055a565b63522e582d60e11b5f5260045ffd5b505f548110156104f2565b34610354575f36600319011261035457602060405160408152f35b34610354575f3660031901126103545760206001600160601b0360015416604051908152f35b346103545760203660031901126103545760206106896004355f525f5160206144db5f395f51905f52602052600160405f20015490565b604051908152f35b34610354576040366003190112610354576004355f9081527fdaedc9ab023613a7caf35e703657e986ccfad7e3eb0af93a2853f8d65dd86b0160205260409020546001600160a01b038116906024359060a01c8215610727575b61070a916001600160601b03610702921690611efc565b612710900490565b604080516001600160a01b03939093168352602083019190915290f35b507fdaedc9ab023613a7caf35e703657e986ccfad7e3eb0af93a2853f8d65dd86b00546001600160a01b038116925060a01c6106eb565b634e487b7160e01b5f52604160045260245ffd5b90601f801991011681019081106001600160401b0382111761079357604052565b61075e565b6040519061036561010083610772565b6001600160401b0381116107935760051b60200190565b9080601f830112156103545781356107d6816107a8565b926107e46040519485610772565b81845260208085019260051b82010192831161035457602001905b82821061080c5750505090565b81358152602091820191016107ff565b6001600160401b03811161079357601f01601f191660200190565b9291926108438261081c565b916108516040519384610772565b829481845281830111610354578281602093845f960137010152565b9080601f83011215610354578160206104d293359101610837565b346103545760a0366003190112610354576004356108a581610343565b602435906108b282610343565b6044356001600160401b038111610354576108d19036906004016107bf565b6064356001600160401b038111610354576108f09036906004016107bf565b90608435936001600160401b0385116103545761091461091a95369060040161086d565b93611f0f565b005b34610354575f36600319011261035457602060405160808152f35b346103545760403660031901126103545761091a60243560043561095a82610343565b61098461097f825f525f5160206144db5f395f51905f52602052600160405f20015490565b612cf3565b612f57565b34610354576040366003190112610354576004356024356109a981610343565b336001600160a01b038216036109c25761091a91612fec565b63334bd91960e11b5f5260045ffd5b34610354575f366003190112610354576109e9612bc6565b5f5160206144fb5f395f51905f525460ff811615610a405760ff19165f5160206144fb5f395f51905f52557f5db9ee0a495bf2e6ff9c91a7834c1ba4fdd244a5e8aa4e537bd38aeae4b073aa6020604051338152a1005b638dfc202b60e01b5f5260045ffd5b34610354575f3660031901126103545760206040515f8152f35b604090600319011261035457600435610a8181610343565b906024356104d281610343565b3461035457610a9c36610a69565b5f51602061453b5f395f51905f525491906001600160401b03610ace60ff604086901c1615946001600160401b031690565b1680159081610be8575b6001149081610bde575b159081610bd5575b50610bc657610b2d9183610b2460016001600160401b03195f51602061453b5f395f51905f525416175f51602061453b5f395f51905f5255565b610b8c57611f60565b610b3357005b610b5d60ff60401b195f51602061453b5f395f51905f5254165f51602061453b5f395f51905f5255565b604051600181527fc7f505b2f371ae2175ee4913f4499e1f2633a7b5936321eed1cdaeb6115181d290602090a1005b610bc16801000000000000000060ff60401b195f51602061453b5f395f51905f525416175f51602061453b5f395f51905f5255565b611f60565b63f92ee8a960e01b5f5260045ffd5b9050155f610aea565b303b159150610ae2565b849150610ad8565b90602080835192838152019201905f5b818110610c0d5750505090565b8251845260209384019390920191600101610c00565b9060206104d2928181520190610bf0565b34610354576040366003190112610354576004356001600160401b038111610354573660238201121561035457806004013590610c70826107a8565b91610c7e6040519384610772565b8083526024602084019160051b8301019136831161035457602401905b828210610cdb57836024356001600160401b0381116103545761059091610cc9610ccf9236906004016107bf565b9061216b565b60405191829182610c23565b602080918335610cea81610343565b815201910190610c9b565b604036600319011261035457600435610d0d81610343565b6024356001600160401b03811161035457610d2c90369060040161086d565b906001600160a01b037f000000000000000000000000000000000000000000000000000000000000000016308114908115610e2b575b50610e1c57610d6f612c35565b6040516352d1902d60e01b8152916020836004816001600160a01b0386165afa5f9381610deb575b50610db857634c9c8ce360e01b5f526001600160a01b03821660045260245ffd5b905f51602061447b5f395f51905f528303610dd75761091a9250613fd7565b632a87526960e21b5f52600483905260245ffd5b610e0e91945060203d602011610e15575b610e068183610772565b8101906130ff565b925f610d97565b503d610dfc565b63703e46dd60e11b5f5260045ffd5b5f51602061447b5f395f51905f52546001600160a01b0316141590505f610d62565b34610354576020366003190112610354577ffcae2461302da2a86e3604d10afc558dc160d49eb88bc010c4bca093793857ff6020600435610e8c612ca4565b80600455604051908152a1005b34610354575f366003190112610354577f00000000000000000000000000000000000000000000000000000000000000006001600160a01b03163003610e1c5760206040515f51602061447b5f395f51905f528152f35b8015150361035457565b9181601f84011215610354578235916001600160401b038311610354576020838186019501011161035457565b346103545760c036600319011261035457600435610f4481610343565b602435610f5081610343565b604435610f5c81610343565b606435610f6881610ef0565b6084359160a4356001600160401b03811161035457610feb93610f92610fe5923690600401610efa565b91610f9b613119565b610fa3613140565b6040516331e1e60b60e11b60208201526001600160a01b038716602482015287151560448083019190915281529089908b90610fe0606485610772565b613179565b84613414565b6040516331e1e60b60e11b81526001600160a01b0391821692909116905f51602061449b5f395f51905f5290602090a3005b34610354575f3660031901126103545760206040516104008152f35b34610354575f36600319011261035457602060ff5f5160206144fb5f395f51905f5254166040519015158152f35b60409060031901126103545760043561107f81610343565b906024356104d281610ef0565b346103545761091a61109d36611067565b906110a6613119565b33613414565b610120366003190112610354576004356110c581610343565b6024356110d181610343565b6044359160643560ff81168103610354576084356001600160401b03811161035457611101903690600401610efa565b611109610358565b9060c4359260e4359461010435986001600160401b038a116103545761113661091a9a3690600401610efa565b999098612200565b60c03660031901126103545760043561115681610343565b60243561116281610343565b60643560443561117182610343565b6084359160a4356001600160401b038111610354576111f89361119b6111f0923690600401610efa565b916111a4613453565b6111ac613119565b6111b4613140565b60405163469e080560e11b6020820152602481018890526001600160a01b03871660448201526111e78160648101610576565b898b349361325e565b3491856136dd565b60405163469e080560e11b81526001600160a01b0391821692909116905f51602061449b5f395f51905f5290602090a360015f51602061451b5f395f51905f5255005b6101003660031901126103545760043561125481610343565b60243561126081610343565b60643560443560843561127281610343565b60a4359061127f82610343565b60e43560c4356001600160401b038211610354576112a461130c923690600401610efa565b916112ad613453565b6112b5613119565b6112bd613140565b604051636ffea07960e11b602082015260248101899052604481018a90526001600160a01b0387811660648301528816608480830191909152815261130360a482610772565b8a8c349361334b565b34156113645761131e93349387613845565b604051636ffea07960e11b81526001600160a01b0391821692909116905f51602061449b5f395f51905f5290602090a361091a60015f51602061451b5f395f51905f5255565b633f7d56c960e11b5f5260045ffd5b346103545760203660031901126103545760043561139081610343565b611398612ca4565b6001600160a01b0381169081156113f5577f7dae230f18360d76a040c81f050aa14eb9d6dc7901b20fc5d855e2a20fe814d1916113ec6020926001600160601b036001549181199060601b16911617600155565b604051908152a1005b63e6c4247b60e01b5f5260045ffd5b346103545760203660031901126103545760043561142181610343565b611429612ca4565b6001600160a01b031680156113f557600380546001600160a01b031916821790557f4d57218e59793e6845c36a961c3af7acfce8c54b13a697da231466fc265fdb615f80a2005b34610354575f36600319011261035457611488612bc6565b611490613119565b600160ff195f5160206144fb5f395f51905f525416175f5160206144fb5f395f51905f52557f62e78cea01bee320cd4e420270b5ea74000d11b0c9f74754ebdbfc544b05a2586020604051338152a1005b34610354575f3660031901126103545760205f54604051908152f35b34610354575f366003190112610354576020600454604051908152f35b60403660031901126103545761155060043560243561153881610343565b611540613453565b611548613119565b3491336136dd565b60015f51602061451b5f395f51905f5255005b3461035457604036600319011261035457602060ff6115b560243560043561158a82610343565b5f525f5160206144db5f395f51905f52845260405f209060018060a01b03165f5260205260405f2090565b54166040519015158152f35b34610354576115cf36611067565b6001600160a01b03821691821561164157611602906115ed33611e5f565b9060018060a01b03165f5260205260405f2090565b9015159060ff1981541660ff83161790556040519081527f17307eab39ab6107e8899845ad3d59bd9653f200f220920489ca2b5937696c3160203392a3005b62ced3e160e81b5f525f60045260245ffd5b602081016020825282518091526040820191602060408360051b8301019401925f915b83831061168557505050505090565b90919293946020806116a3600193603f19868203018752895161049d565b97019301930191939290611676565b34610354576020366003190112610354576004356001600160401b0381116103545736602382011215610354578060040135906001600160401b038211610354573660248360051b83010111610354576105909160246117129201612395565b60405191829182611653565b6040519061172d602083610772565b5f8252565b34610354575f36600319011261035457610590604051611753604082610772565b60058152640352e302e360dc1b602082015260405191829160208352602083019061049d565b346103545760403660031901126103545761091a60243560043561179c82610343565b6117c161097f825f525f5160206144db5f395f51905f52602052600160405f20015490565b612fec565b346103545760a0366003190112610354576004356117e381610343565b6024356117ef81610343565b604435906001600160401b03821161035457610120600319833603011261035457608435916064356001600160401b038411610354576105909461183a611846953690600401610efa565b94909360040191612451565b6040519081529081906020820190565b60803660031901126103545761155060043560243560443561187781610343565b6064359161188483610343565b61188c613453565b611894613119565b349333613845565b34610354575f36600319011261035457602060015460601c604051908152f35b34610354575f36600319011261035457602060405160018152f35b34610354575f3660031901126103545760206040517f65d7a28e3265b37a6474929f336521b332c1681b933f6cb9f3376673440d862a8152f35b6001600160401b0381160361035457565b6024359061036582611911565b6001600160601b0381160361035457565b604435906103658261192f565b6003111561035457565b61010435906103658261194d565b3461035457610120366003190112610354576004356001600160401b03811161035457611996903690600401610efa565b9061199f611922565b906119a8611940565b926064356001600160401b038111610354576119c8903690600401610efa565b939094608435946001600160401b03861161035457610590966119f2611846973690600401610efa565b9290916119fd610358565b9460c4359660e43598611a0e611957565b9a612a5b565b3461035457602060ff6115b56115ed611a2c36610a69565b9190611e5f565b90600182811c92168015611a61575b6020831014611a4d57565b634e487b7160e01b5f52602260045260245ffd5b91607f1691611a42565b60031115611a7557565b634e487b7160e01b5f52602160045260245ffd5b906003821015611a755752565b946001600160601b0390611ae163ffffffff9661ffff6104d29c9b976001600160401b038a986101009d9860018060a01b03168d521660208c01521660408a01526060890190611a89565b1660808601521660a08401521660c08201528160e0820152019061049d565b34610354576020366003190112610354576004355f52600260205260405f20805490600260018201549101604051905f90805490611b3d82611a33565b8085529160018116908115611bfa5750600114611bba575b505090611b6781610590930382610772565b604051938363ffffffff869560801c16916001600160601b0363ffffffff8360601c1692169060ff8160f01c169061ffff8160e01c16906001600160401b038160a01c169060018060a01b031689611a96565b5f90815260208120939250905b808210611be057509091508101602001611b6782611b55565b919260018160209254838588010152019101909291611bc7565b60ff191660208087019190915292151560051b85019092019250611b679150839050611b55565b346103545760a036600319011261035457600435611c3e81610343565b602435611c4a81610343565b60443590606435926084356001600160401b03811161035457611c7190369060040161086d565b926001600160a01b0382163381141580611d0c575b611cf6576001600160a01b03841615611ce35715611cd15761091a94611cc960405192600184526020840152604083019160018352606084015260808301604052565b929091613daf565b626a0d4560e21b5f525f60045260245ffd5b632bfa23e760e11b5f525f60045260245ffd5b63711bec9160e11b5f523360045260245260445ffd5b50611d173384612bb2565b15611c86565b34610354575f3660031901126103545760206040517f189ab7a9244df0848122154315af71fe140f3db0fe014031783b0946b8c9d2e38152f35b34610354576020366003190112610354576001600160601b03600435611d7c8161192f565b611d84612ca4565b16610bb88111611dcd576020817f7cb8fa1ce2fc1ff6556e563c0dcba551db7cdeb3f3b0911243692639ac80e94d926001600160601b03196001541617600155604051908152a1005b63cd4e616760e01b5f5260045ffd5b34610354575f36600319011261035457602060405160028152f35b60a03660031901126103545760243560043560ff8216820361035457604435916001600160401b03831161035457611e36611550933690600401610efa565b60643591611e4383610343565b60843593611e4f613453565b611e57613119565b3495336134e0565b6001600160a01b03165f9081527f88be536d5240c274a3b1d3a1be54482fd9caa294f08c62a7cde569f49a3c45016020526040902090565b611ec7915f525f5160206144bb5f395f51905f5260205260405f209060018060a01b03165f5260205260405f2090565b5490565b634e487b7160e01b5f52601160045260245ffd5b906103e88202918083046103e81490151715611ef757565b611ecb565b81810292918115918404141715611ef757565b939291906001600160a01b0385163381141580611f48575b611cf6576001600160a01b03821615611ce35715611cd15761036594613daf565b5060ff611f58336115ed89611e5f565b541615611f27565b60405192916020611f718186610772565b5f8552611f7c613fac565b611f84613fac565b8451906001600160401b03821161079357611fb582611fb05f51602061455b5f395f51905f5254611a33565b61276d565b602090601f83116001146120975750816120579392611fee9261207497985f9261208c575b50508160011b915f199060031b1c19161790565b5f51602061455b5f395f51905f52555b612006613fac565b61200e613fac565b612016613fac565b61201e613fac565b61202783612d39565b5061203183612dd5565b5061203b83612e96565b506001600160601b036001549181199060601b16911617600155565b61206f60fa6001600160601b03196001541617600155565b61308c565b61207d60015f55565b6103656512309ce54000600455565b015190505f80611fda565b5f51602061455b5f395f51905f525f52601f198316969091907ff429cb5e2ec84cbb765e76b31964a56ccde03e7a6122d6cc4afb19edc55edeed925f905b8982106121265750509183916001936120579695612074999a1061210e575b505050811b015f51602061455b5f395f51905f5255611ffe565b01515f1960f88460031b161c191690555f80806120f4565b806001859682949686015181550195019301906120d5565b634e487b7160e01b5f52603260045260245ffd5b80518210156121665760209160051b010190565b61213e565b919091805183518082036121eb575050805190612187826107a8565b916121956040519384610772565b8083526121a4601f19916107a8565b013660208401375f5b81518110156121e457806121d360019260051b6020808287010151918901015190611e97565b6121dd8286612152565b52016121ad565b5090925050565b635b05999160e01b5f5260045260245260445ffd5b99819961229a998786612292958f61228b899e9d9c9b9a998d8f6122688e612226613453565b61222e613119565b612236613140565b9960ff6040519a8b97637f8f848560e11b60208a0152602489015216604487015260a0606487015260c48601916122e3565b6001600160a01b03909216608484015260a483015203601f198101855284610772565b34936132e1565b3495896134e0565b604051600162707b7b60e11b031981526001600160a01b0391821692909116905f51602061449b5f395f51905f5290602090a361036560015f51602061451b5f395f51905f5255565b908060209392818452848401375f828201840152601f01601f1916010190565b91908203918211611ef757565b903590601e198136030182121561035457018035906001600160401b0382116103545760200191813603831361035457565b90821015612166576123599160051b810190612310565b9091565b60208061036593959486604051978895848701378401908282015f8152815193849201905e01015f815203601f198101845283610772565b61239e5f61081c565b6123ab6040519182610772565b5f8152601f196123ba5f61081c565b013660208301376123ca836107a8565b926123d86040519485610772565b808452601f196123e7826107a8565b015f5b8181106124405750505f5b818110612403575050505090565b8061242461241e85612418600195878a612342565b9061235d565b30613956565b61242e8288612152565b526124398187612152565b50016123f5565b8060606020809389010152016123ea565b926124b661249d96959295612464613119565b61246c613140565b93604086019361247b85612707565b956124a5606089019761248e898b612310565b60808c939293019e8f8d612310565b9390926139c9565b89896124b08a613a1c565b926133b2565b60c0830135956001600160601b0387116126f857602084019661ffff6001600160401b036124e38a612711565b16116126e95760e08501359363ffffffff85116126da5760a086016001600160a01b0361250f8261271b565b16156126d15761251e9061271b565b9687955b5f549a8b9661253088612725565b5f5561253c8a80612310565b999061254784612711565b61ffff169a8c6001600160601b038a1663ffffffff881691610100019d61256d8f612733565b90612576610798565b6001600160a01b0390971687526001600160401b034216602088015261ffff1660408701526125a8906060870161273d565b6001600160601b0316608085015263ffffffff1660a0840152600160c084015236906125d392610837565b60e08201526125ea895f52600260205260405f2090565b906125f4916128d7565b6125fc61171e565b612607908986613b3c565b61261090612707565b61261b908b89613cdd565b61262490612711565b9361262f8980612310565b9a909461263c908b612310565b97612647919b612310565b9b909961265390612733565b94600160a01b60019003169b8c9a604051996001600160401b038b9a169d429461267d9a8c6129ed565b037f596e3673799552097ea0bc75b818086e7a7c177b54ff630efd544c511681d6b191a460405163e7628e4d60e01b81526001600160a01b0392909216915f51602061449b5f395f51905f5290602090a390565b50868795612522565b6309c1d04f60e01b5f5260045ffd5b630e13ec1760e31b5f5260045ffd5b634264fe7960e01b5f5260045ffd5b356104d28161192f565b356104d281611911565b356104d281610343565b5f198114611ef75760010190565b356104d28161194d565b6003821015611a755752565b906003811015611a7557815460ff60f01b191660f09190911b60ff60f01b16179055565b601f8111612779575050565b5f51602061455b5f395f51905f525f5260205f20906020601f840160051c830193106127bf575b601f0160051c01905b8181106127b4575050565b5f81556001016127a9565b90915081906127a0565b601f82116127d657505050565b5f5260205f20906020601f840160051c8301931061280e575b601f0160051c01905b818110612803575050565b5f81556001016127f8565b90915081906127ef565b91909182516001600160401b0381116107935761283f816128398454611a33565b846127c9565b6020601f821160011461287257819061286e9394955f9261208c5750508160011b915f199060031b1c19161790565b9055565b601f19821690612885845f5260205f2090565b915f5b8181106128bf575095836001959697106128a7575b505050811b019055565b01515f1960f88460031b161c191690555f808061289d565b9192602060018192868b015181550194019201612888565b815181546020840151604085015161ffff60e01b60e091821b166001600160f01b03199093166001600160a01b039094169390931767ffffffffffffffff60a01b60a09290921b91909116171782556103659260029190612945606082015161293f81611a6b565b85612749565b6129e46001850161298461296360808501516001600160601b031690565b82546bffffffffffffffffffffffff19166001600160601b03909116178255565b6129b861299860a085015163ffffffff1690565b825463ffffffff60601b191660609190911b63ffffffff60601b16178255565b60c083015163ffffffff165b815463ffffffff60801b191660809190911b63ffffffff60801b16179055565b01519101612818565b969b9a989491612a349360e09995612a186103659d9994612a26946101008d526101008d01916122e3565b918a830360208c01526122e3565b9187830360408901526122e3565b60608501999099526001600160a01b0316608084015260a083015260c08201520190611a89565b94959690612a7b828989879f98809e979d9f98612a76613119565b6139c9565b6001600160601b0383116126f8576001600160401b0389169a61ffff8c116126e95763ffffffff85116126da576001600160a01b03811615612baa57915b5f549c8d9a612ac78c612725565b5f55612ad1610798565b6001600160a01b0386168152906001600160401b034216602083015261ffff166040820152612b03886060830161273d565b6001600160601b038616608082015263ffffffff871660a0820152600160c0820152612b3036858b610837565b60e0820152612b478c5f52600260205260405f2090565b90612b51916128d7565b8a612b5a61171e565b612b649133613b3c565b612b6f90848c613cdd565b604051988998339c4294612b839a8c6129ed565b037f596e3673799552097ea0bc75b818086e7a7c177b54ff630efd544c511681d6b191a490565b503391612ab9565b60ff916115ed612bc192611e5f565b541690565b335f9081527f75442b0a96088b5456bc4ed01394c96a4feec0f883c9494257d76b96ab1c9b6b602052604090205460ff1615612bfe57565b63e2517d3f60e01b5f52336004527f65d7a28e3265b37a6474929f336521b332c1681b933f6cb9f3376673440d862a60245260445ffd5b335f9081527fab71e3f32666744d246edff3f96e4bdafee2e9867098cdd118a979a7464786a8602052604090205460ff1615612c6d57565b63e2517d3f60e01b5f52336004527f189ab7a9244df0848122154315af71fe140f3db0fe014031783b0946b8c9d2e360245260445ffd5b335f9081527fb7db2dd08fcb62d0c9e08c51941cae53c267786a0b75803fb7960902fc8ef97d602052604090205460ff1615612cdc57565b63e2517d3f60e01b5f52336004525f60245260445ffd5b5f8181525f5160206144db5f395f51905f526020908152604080832033845290915290205460ff1615612d235750565b63e2517d3f60e01b5f523360045260245260445ffd5b6001600160a01b0381165f9081527fb7db2dd08fcb62d0c9e08c51941cae53c267786a0b75803fb7960902fc8ef97d602052604090205460ff16612dd0576001600160a01b03165f8181527fb7db2dd08fcb62d0c9e08c51941cae53c267786a0b75803fb7960902fc8ef97d60205260408120805460ff191660011790553391905f51602061445b5f395f51905f528180a4600190565b505f90565b6001600160a01b0381165f9081527fab71e3f32666744d246edff3f96e4bdafee2e9867098cdd118a979a7464786a8602052604090205460ff16612dd0576001600160a01b0381165f9081527fab71e3f32666744d246edff3f96e4bdafee2e9867098cdd118a979a7464786a860205260409020805460ff1916600117905533906001600160a01b03167f189ab7a9244df0848122154315af71fe140f3db0fe014031783b0946b8c9d2e35f51602061445b5f395f51905f525f80a4600190565b6001600160a01b0381165f9081527f75442b0a96088b5456bc4ed01394c96a4feec0f883c9494257d76b96ab1c9b6b602052604090205460ff16612dd0576001600160a01b0381165f9081527f75442b0a96088b5456bc4ed01394c96a4feec0f883c9494257d76b96ab1c9b6b60205260409020805460ff1916600117905533906001600160a01b03167f65d7a28e3265b37a6474929f336521b332c1681b933f6cb9f3376673440d862a5f51602061445b5f395f51905f525f80a4600190565b5f8181525f5160206144db5f395f51905f52602090815260408083206001600160a01b038616845290915290205460ff16612fe6575f8181525f5160206144db5f395f51905f52602090815260408083206001600160a01b03861684529091529020805460ff1916600117905533916001600160a01b0316905f51602061445b5f395f51905f525f80a4600190565b50505f90565b5f8181525f5160206144db5f395f51905f52602090815260408083206001600160a01b038616845290915290205460ff1615612fe6575f8181525f5160206144db5f395f51905f52602090815260408083206001600160a01b03861684529091529020805460ff1916905533916001600160a01b0316907ff6391f5c32d9c69d2a47ea670b442974b53935d1edc7fd64eb21e047a839171b5f80a4600190565b6001600160a01b031680156130ec57604051906130aa604083610772565b8082526101f46020909201919091526001600160a01b0316607d60a21b177fdaedc9ab023613a7caf35e703657e986ccfad7e3eb0af93a2853f8d65dd86b0055565b635b6cc80560e11b5f525f60045260245ffd5b90816020910312610354575190565b6040513d5f823e3d90fd5b60ff5f5160206144fb5f395f51905f52541661313157565b63d93c066560e01b5f5260045ffd5b6003546001600160a01b031690811561315557565b63022fcd8560e61b5f5260045ffd5b9081602091031261035457516104d281610ef0565b60405163027f58e560e61b81526001600160a01b0392831660048201529190921660248201523060448201526331e1e60b60e11b60648201526101006084820152946020948694929385935f9385936131f8936131db9061010487019061049d565b928660a487015260c48601526003198584030160e48601526122e3565b03926001600160a01b03165af1908115613259575f9161322a575b501561321b57565b6309fb5d8760e21b5f5260045ffd5b61324c915060203d602011613252575b6132448183610772565b810190613164565b5f613213565b503d61323a565b61310e565b60405163027f58e560e61b81526001600160a01b03928316600482015291909216602482015230604482015263469e080560e11b60648201526101006084820152956020958795929486945f9486946131f89490929091906132c59061010488019061049d565b9360a487015260c48601526003198584030160e48601526122e3565b60405163027f58e560e61b81526001600160a01b039283166004820152919092166024820152306044820152600162707b7b60e11b031960648201526101006084820152956020958795929486945f9486946131f89490929091906132c59061010488019061049d565b60405163027f58e560e61b81526001600160a01b039283166004820152919092166024820152306044820152636ffea07960e11b60648201526101006084820152956020958795929486945f9486946131f89490929091906132c59061010488019061049d565b60405163027f58e560e61b81526001600160a01b03928316600482015291909216602482015230604482015263e7628e4d60e01b60648201526101006084820152946020948694929385935f9385936131f8936131db9061010487019061049d565b60405192151583526001600160a01b03918216929116907f75a1fc5e2239f53dc8407b3712c878c5893431bc3c349ea3561584869670f7f290602090a3565b60025f51602061451b5f395f51905f52541461347c5760025f51602061451b5f395f51905f5255565b633ee5aeb560e01b5f5260045ffd5b3d156134b5573d9061349c8261081c565b916134aa6040519384610772565b82523d5f602084013e565b606090565b9294936134d460ff926040946060875260608701916122e3565b95602085015216910152565b929695919490955f548710156105f75760ff8616600281116136ce5761040086116136bf57851580806136b7575b806136af575b6136a05715928380613695575b611364578561354861353b8b5f52600260205260405f2090565b546001600160a01b031690565b92846135aa575b5050505050613561575b505050505050565b7f19a5aae49af5681d63d1a8c6ea9dc7b88af86e08d71ade984e2087fada0d4c4a9361359c9160405194859460018060a01b031698856134ba565b0390a35f8080808080613559565b60020361364b575050505f808080846135d76135cb6135cb60015460601c90565b6001600160a01b031690565b5af16135e161348b565b501561363c575b6040805160ff88168152602081019290925242908201526001600160a01b0384169087907fa47847c5419013bc5fa344eaa882ed5b33f76d87a7ce6a1a760d5af198afd9e590606090a35f8080858161354f565b6312171d8360e31b5f5260045ffd5b826136599161365f93614079565b836140c8565b908161366d575b50506135e8565b5f918291829182916001600160a01b03165af161368861348b565b501561363c575f80613666565b506004548310613521565b630eb90eff60e01b5f5260045ffd5b508215613514565b50811561350e565b63251f56a160e21b5f5260045ffd5b631556136560e01b5f5260045ffd5b90915f548310156105f7576136fa835f52600260205260405f2090565b80549091906001906001600160a01b0316920190815461372d6137248263ffffffff9060601c1690565b63ffffffff1690565b9081156138365763ffffffff608082901c169182101561382757613761906001600160601b03165b6001600160601b031690565b8710613818578461379c926137856137a2956129c48895600163ffffffff91011690565b61379761379061171e565b8984613b3c565b614079565b856140c8565b90816137f0575b5050604080519384526020840183905242908401526001600160a01b0316917f24b54eb81304dfe4e560e2b09d1b8651d3de8efdf8fde769f1dbac6e690d81b590606090a3565b5f918291829182916001600160a01b03165af161380b61348b565b501561363c575f806137a9565b63cd1c886760e01b5f5260045ffd5b63d05cb60960e01b5f5260045ffd5b635874ec2360e01b5f5260045ffd5b91939290925f548410156105f7576001600160a01b03821680156139475786156113645761389561388f84869461388761353b8a5f52600260205260405f2090565b95869161419a565b886140c8565b6138a96138a28260011c90565b8092612303565b928161391f575b505081613902575b5050604080516001600160a01b0392831681526020810196909652429086015216927f3e2236223f9ef11dd92492a8d35ef88d2ef5bea632e11697c2565e8a55d2b40190606090a4565b5f80809381935af161391261348b565b501561363c575f806138b8565b5f918291829182916001600160a01b03165af161393a61348b565b501561363c575f806138b0565b633e510d3960e21b5f5260045ffd5b905f8091602081519101845af480806139b6575b156139795750506104d26141db565b1561399e57639996b31560e01b5f9081526001600160a01b0391909116600452602490fd5b3d15155f0361310e5763d6bda27560e01b5f5260045ffd5b503d15158061396a5750813b151561396a565b6127109293506001600160601b0391501611613a0d576040106139fe576080106139ef57565b6324a25c5760e01b5f5260045ffd5b631750ba0360e01b5f5260045ffd5b63c2b03beb60e01b5f5260045ffd5b613a268180612310565b9091602081013590613a3782611911565b604081013590613a468261192f565b613a536060820182612310565b90613a616080840184612310565b909160a085013596613a7288610343565b60c08601359460e087013596610100013597613a8d8961194d565b60405163e7628e4d60e01b602082015261012060248201529b8c9b613ab8916101448e0191906122e3565b926001600160401b031660448c01526001600160601b031660648b01526023198a83030160848b0152613aea926122e3565b906023198883030160a4890152613b00926122e3565b6001600160a01b0390941660c486015260e4850152610104840152613b2a90610124840190611a89565b03601f19810182526104d29082610772565b9291906001600160a01b03841615611ce3576001613b7760405192600184526020840152604083019160018352606084015260808301604052565b908051825190818103613cc85750506001600160a01b03851693841515935f5b8351811015613bfc5780868960019360051b602080828a010151918a01015192613bc5575b50505001613b97565b613bf2916115ed613bea925f525f5160206144bb5f395f51905f5260205260405f2090565b9182546141f4565b90555f8981613bbc565b509390959460018351145f14613c8d576020838101518582015160408051928352928201525f9133917fc3d58168c5ae7397731d063d5bbf3d657854427343f4c083240f7aacaa2d0f629190a45b613c55575b50505050565b8051600103613c7d5790602080613c7495930151910151915f336143bc565b5f808080613c4f565b613c88935f3361428e565b613c74565b5f6040517f4a39dc06d4c0dbc64b70af90fd698a233a518aa5d07e595d983b8c0526c8f7fb339180613cc0898983614201565b0390a4613c4a565b635b05999160e01b5f5260045260245260445ffd5b92916001600160601b03166127108111613d93576001600160a01b03821615613d7c576103659293613d549160405193613d18604086610772565b60018060a01b0316845260208401525f527fdaedc9ab023613a7caf35e703657e986ccfad7e3eb0af93a2853f8d65dd86b0160205260405f2090565b815160209092015160a01b6001600160a01b0319166001600160a01b03909216919091179055565b83634b4f842960e11b5f526004525f60245260445ffd5b8363dfd1fc1b60e01b5f5260045260245261271060445260645ffd5b9493929091938451825190818103613cc85750506001600160a01b038681169586151595918516801515939192905f5b8451811015613edf578060051b90898988602080868b010151958c01015192613e44575b93600194613e15575b50505001613ddf565b613e3a916115ed613bea925f525f5160206144bb5f395f51905f5260205260405f2090565b90555f8981613e0c565b50509091613e6a8d6115ed835f525f5160206144bb5f395f51905f5260205260405f2090565b54828110613ea8578291898f613e9f600197968f9503916115ed855f525f5160206144bb5f395f51905f5260205260405f2090565b55909450613e03565b6040516303dee4c560e01b81526001600160a01b038f16600482015260248101919091526044810183905260648101829052608490fd5b5091989593929790965060018851145f14613f725760208881015186820151604080519283529282015233917fc3d58168c5ae7397731d063d5bbf3d657854427343f4c083240f7aacaa2d0f6291a45b613f3b575b5050505050565b8451600103613f6157602080613f5796015192015192336143bc565b5f80808080613f34565b613f6d9491923361428e565b613f57565b6040517f4a39dc06d4c0dbc64b70af90fd698a233a518aa5d07e595d983b8c0526c8f7fb339180613fa4898d83614201565b0390a4613f2f565b60ff5f51602061453b5f395f51905f525460401c1615613fc857565b631afcd79f60e31b5f5260045ffd5b90813b15614058575f51602061447b5f395f51905f5280546001600160a01b0319166001600160a01b0384169081179091557fbc7cd75a20ee27fd9adebab32041f755214dbc6bffa90cc0225b39da2e5c2d3b5f80a28051156140405761403d91613956565b50565b50503461404957565b63b398979f60e01b5f5260045ffd5b50634c9c8ce360e01b5f9081526001600160a01b0391909116600452602490fd5b916001600160a01b03831680159290919083156140b5575b5082156140a2575b5050612dd05790565b6001600160a01b03161490505f80614099565b6001600160a01b0316821492505f614091565b60015491906140eb6107026140e56001600160601b038616613755565b83611efc565b916001600160a01b03168015614192578261410861070284611edf565b945b81614166575b50508361411e575b50030390565b5f80808087855af161412e61348b565b501561363c576040518481527f6292f4f27d8047af4537a4bd86906de0e2c880c20086f7f58b81eacfeb63912690602090a25f614118565b5f80809361417b6135cb6135cb849660601c90565b5af161418561348b565b501561363c57825f614110565b825f9461410a565b926001600160a01b038416801593909284156141c8575b5083156140b5575082156140a2575050612dd05790565b6001600160a01b0316831493505f6141b1565b604051903d82523d5f602084013e60203d830101604052565b91908201809211611ef757565b90916142186104d293604084526040840190610bf0565b916020818403910152610bf0565b9081602091031261035457516104d2816103c0565b6001600160a01b0391821681529116602082015260a0604082018190526104d2949193919261428092916142729190860190610bf0565b908482036060860152610bf0565b91608081840391015261049d565b9091949293853b6142a157505050505050565b6020936142c391604051968795869563bc197c8160e01b87526004870161423b565b03815f6001600160a01b0387165af15f9181614352575b5061431457506142e861348b565b805191908261430d57632bfa23e760e11b5f526001600160a01b03821660045260245ffd5b6020915001fd5b6001600160e01b0319166343e6837f60e01b0161433757505f8080808080613559565b632bfa23e760e11b5f526001600160a01b031660045260245ffd5b61437591925060203d60201161437c575b61436d8183610772565b810190614226565b905f6142da565b503d614363565b6001600160a01b039182168152911660208201526040810191909152606081019190915260a0608082018190526104d29291019061049d565b9091949293853b6143cf57505050505050565b6020936143f191604051968795869563f23a6e6160e01b875260048701614383565b03815f6001600160a01b0387165af15f9181614439575b5061441657506142e861348b565b6001600160e01b031916630dc5919f60e01b0161433757505f8080808080613559565b61445391925060203d60201161437c5761436d8183610772565b905f61440856fe2f8788117e7eff1d82e926ec794901d17c78024a50270940304540a733656f0d360894a13ba1a3210667c828492db98dca3e2076cc3735a920a3ca505d382bbce915025b6f599b245c9c1c02d463228c896354d64dceb469760c99544153be6d88be536d5240c274a3b1d3a1be54482fd9caa294f08c62a7cde569f49a3c450002dd7bc7dec4dceedda775e58dd541e08a116c6c53815c0bd028192f7b626800cd5ed15c6e187e77e9aee88184c21f4f2182ab5827cb3b7e07fbedcd63f033009b779b17422d0df92223018b32b4d1fa46e071723d6817e2486d003becc55f00f0c57e16840df040f15088dc2f81fe391c3923bec73e23a9662efc9c229c6a0088be536d5240c274a3b1d3a1be54482fd9caa294f08c62a7cde569f49a3c4502a264697066735822122069c3f38100601629f5c2962ab14ca94b47fe1a574b85b6413f9ff464c2764f1264736f6c634300081e0033f0c57e16840df040f15088dc2f81fe391c3923bec73e23a9662efc9c229c6a00","linkReferences":{}},"methodIdentifiers":{"DEFAULT_ADMIN_ROLE()":"a217fddf","MAX_COMMENT_LENGTH()":"5856e4fa","MAX_ORIGINAL_AUTHOR_LENGTH()":"19e94a6e","MAX_TITLE_LENGTH()":"2ef9a160","PAUSER_ROLE()":"e63ab1e9","SCORE_DISLIKE()":"fde84719","SCORE_LIKE()":"e1d90b34","SCORE_NEUTRAL()":"473106b2","UPGRADER_ROLE()":"f72c0d8b","UPGRADE_INTERFACE_VERSION()":"ad3cb1cc","articles(uint256)":"edcfafe6","balanceOf(address,uint256)":"00fdd58e","balanceOfBatch(address[],uint256[])":"4e1273f4","collect(uint256,address)":"8d3c100a","collectWithSessionKey(address,address,uint256,address,uint256,bytes)":"795146ef","evaluate(uint256,uint8,string,address,uint256)":"ff1f090a","evaluateWithSessionKey(address,address,uint256,uint8,string,address,uint256,uint256,bytes)":"63c4ea4d","follow(address,bool)":"63c3cc16","followWithSessionKey(address,address,address,bool,uint256,bytes)":"5780400b","getRoleAdmin(bytes32)":"248a9ca3","grantRole(bytes32,address)":"2f2ff15d","hasRole(bytes32,address)":"91d14854","initialize(address,address)":"485cc955","isApprovedForAll(address,address)":"e985e9c5","likeComment(uint256,uint256,address,address)":"dffd40f2","likeCommentWithSessionKey(address,address,uint256,uint256,address,address,uint256,bytes)":"79c61f28","minActionValue()":"8cbd215e","multicall(bytes[])":"ac9650d8","nextArticleId()":"85c3ab54","pause()":"8456cb59","paused()":"5c975abb","platformFeeBps()":"22dcd13e","platformTreasury()":"e138818c","proxiableUUID()":"52d1902d","publish(string,uint64,uint96,string,string,address,uint256,uint256,uint8)":"e7628e4d","publishWithSessionKey(address,address,(string,uint64,uint96,string,string,address,uint256,uint256,uint8),uint256,bytes)":"df7f942b","renounceRole(bytes32,address)":"36568abe","revokeRole(bytes32,address)":"d547741f","royaltyInfo(uint256,uint256)":"2a55205a","safeBatchTransferFrom(address,address,uint256[],uint256[],bytes)":"2eb2c2d6","safeTransferFrom(address,address,uint256,uint256,bytes)":"f242432a","sessionKeyManager()":"0b826190","setApprovalForAll(address,bool)":"a22cb465","setMinActionValue(uint256)":"52cbd3be","setPlatformFee(uint96)":"f99e5dbb","setPlatformTreasury(address)":"7cd86d60","setSessionKeyManager(address)":"837fa3fd","supportsInterface(bytes4)":"01ffc9a7","unpause()":"3f4ba83a","upgradeToAndCall(address,bytes)":"4f1ef286","uri(uint256)":"0e89341c"},"id":65}