{"abi":[{"type":"constructor","inputs":[],"stateMutability":"nonpayable"},{"type":"function","name":"DEFAULT_ADMIN_ROLE","inputs":[],"outputs":[{"name":"","type":"bytes32","internalType":"bytes32"}],"stateMutability":"view"},{"type":"function","name":"MAX_AVATAR_LENGTH","inputs":[],"outputs":[{"name":"","type":"uint256","internalType":"uint256"}],"stateMutability":"view"},{"type":"function","name":"MAX_BIO_LENGTH","inputs":[],"outputs":[{"name":"","type":"uint256","internalType":"uint256"}],"stateMutability":"view"},{"type":"function","name":"MAX_COMMENT_LENGTH","inputs":[],"outputs":[{"name":"","type":"uint256","internalType":"uint256"}],"stateMutability":"view"},{"type":"function","name":"MAX_KEYWORDS_LENGTH","inputs":[],"outputs":[{"name":"","type":"uint256","internalType":"uint256"}],"stateMutability":"view"},{"type":"function","name":"MAX_NICKNAME_LENGTH","inputs":[],"outputs":[{"name":"","type":"uint256","internalType":"uint256"}],"stateMutability":"view"},{"type":"function","name":"MAX_ORIGINAL_AUTHOR_LENGTH","inputs":[],"outputs":[{"name":"","type":"uint256","internalType":"uint256"}],"stateMutability":"view"},{"type":"function","name":"MAX_SUMMARY_LENGTH","inputs":[],"outputs":[{"name":"","type":"uint256","internalType":"uint256"}],"stateMutability":"view"},{"type":"function","name":"MAX_TITLE_LENGTH","inputs":[],"outputs":[{"name":"","type":"uint256","internalType":"uint256"}],"stateMutability":"view"},{"type":"function","name":"PAUSER_ROLE","inputs":[],"outputs":[{"name":"","type":"bytes32","internalType":"bytes32"}],"stateMutability":"view"},{"type":"function","name":"SCORE_DISLIKE","inputs":[],"outputs":[{"name":"","type":"uint8","internalType":"uint8"}],"stateMutability":"view"},{"type":"function","name":"SCORE_LIKE","inputs":[],"outputs":[{"name":"","type":"uint8","internalType":"uint8"}],"stateMutability":"view"},{"type":"function","name":"SCORE_NEUTRAL","inputs":[],"outputs":[{"name":"","type":"uint8","internalType":"uint8"}],"stateMutability":"view"},{"type":"function","name":"UPGRADER_ROLE","inputs":[],"outputs":[{"name":"","type":"bytes32","internalType":"bytes32"}],"stateMutability":"view"},{"type":"function","name":"UPGRADE_INTERFACE_VERSION","inputs":[],"outputs":[{"name":"","type":"string","internalType":"string"}],"stateMutability":"view"},{"type":"function","name":"articles","inputs":[{"name":"","type":"uint256","internalType":"uint256"}],"outputs":[{"name":"author","type":"address","internalType":"address"},{"name":"timestamp","type":"uint64","internalType":"uint64"},{"name":"categoryId","type":"uint16","internalType":"uint16"},{"name":"originality","type":"uint8","internalType":"enum BlogHub.Originality"},{"name":"collectPrice","type":"uint96","internalType":"uint96"},{"name":"maxCollectSupply","type":"uint32","internalType":"uint32"},{"name":"collectCount","type":"uint32","internalType":"uint32"},{"name":"arweaveHash","type":"string","internalType":"string"}],"stateMutability":"view"},{"type":"function","name":"arweaveIdToArticleId","inputs":[{"name":"","type":"string","internalType":"string"}],"outputs":[{"name":"","type":"uint256","internalType":"uint256"}],"stateMutability":"view"},{"type":"function","name":"balanceOf","inputs":[{"name":"account","type":"address","internalType":"address"},{"name":"id","type":"uint256","internalType":"uint256"}],"outputs":[{"name":"","type":"uint256","internalType":"uint256"}],"stateMutability":"view"},{"type":"function","name":"balanceOfBatch","inputs":[{"name":"accounts","type":"address[]","internalType":"address[]"},{"name":"ids","type":"uint256[]","internalType":"uint256[]"}],"outputs":[{"name":"","type":"uint256[]","internalType":"uint256[]"}],"stateMutability":"view"},{"type":"function","name":"collect","inputs":[{"name":"_articleId","type":"uint256","internalType":"uint256"},{"name":"_referrer","type":"address","internalType":"address"}],"outputs":[],"stateMutability":"payable"},{"type":"function","name":"collectWithSessionKey","inputs":[{"name":"owner","type":"address","internalType":"address"},{"name":"sessionKey","type":"address","internalType":"address"},{"name":"_articleId","type":"uint256","internalType":"uint256"},{"name":"_referrer","type":"address","internalType":"address"},{"name":"deadline","type":"uint256","internalType":"uint256"},{"name":"signature","type":"bytes","internalType":"bytes"}],"outputs":[],"stateMutability":"payable"},{"type":"function","name":"editArticle","inputs":[{"name":"params","type":"tuple","internalType":"struct BlogHub.EditArticleParams","components":[{"name":"articleId","type":"uint256","internalType":"uint256"},{"name":"originalAuthor","type":"string","internalType":"string"},{"name":"title","type":"string","internalType":"string"},{"name":"summary","type":"string","internalType":"string"},{"name":"keywords","type":"string","internalType":"string"},{"name":"categoryId","type":"uint64","internalType":"uint64"}]}],"outputs":[],"stateMutability":"nonpayable"},{"type":"function","name":"editArticleWithSessionKey","inputs":[{"name":"owner","type":"address","internalType":"address"},{"name":"sessionKey","type":"address","internalType":"address"},{"name":"params","type":"tuple","internalType":"struct BlogHub.EditArticleParams","components":[{"name":"articleId","type":"uint256","internalType":"uint256"},{"name":"originalAuthor","type":"string","internalType":"string"},{"name":"title","type":"string","internalType":"string"},{"name":"summary","type":"string","internalType":"string"},{"name":"keywords","type":"string","internalType":"string"},{"name":"categoryId","type":"uint64","internalType":"uint64"}]},{"name":"deadline","type":"uint256","internalType":"uint256"},{"name":"signature","type":"bytes","internalType":"bytes"}],"outputs":[],"stateMutability":"nonpayable"},{"type":"function","name":"evaluate","inputs":[{"name":"_articleId","type":"uint256","internalType":"uint256"},{"name":"_score","type":"uint8","internalType":"uint8"},{"name":"_content","type":"string","internalType":"string"},{"name":"_referrer","type":"address","internalType":"address"},{"name":"_parentCommentId","type":"uint256","internalType":"uint256"}],"outputs":[],"stateMutability":"payable"},{"type":"function","name":"evaluateWithSessionKey","inputs":[{"name":"owner","type":"address","internalType":"address"},{"name":"sessionKey","type":"address","internalType":"address"},{"name":"_articleId","type":"uint256","internalType":"uint256"},{"name":"_score","type":"uint8","internalType":"uint8"},{"name":"_content","type":"string","internalType":"string"},{"name":"_referrer","type":"address","internalType":"address"},{"name":"_parentCommentId","type":"uint256","internalType":"uint256"},{"name":"deadline","type":"uint256","internalType":"uint256"},{"name":"signature","type":"bytes","internalType":"bytes"}],"outputs":[],"stateMutability":"payable"},{"type":"function","name":"follow","inputs":[{"name":"_target","type":"address","internalType":"address"},{"name":"_status","type":"bool","internalType":"bool"}],"outputs":[],"stateMutability":"nonpayable"},{"type":"function","name":"followWithSessionKey","inputs":[{"name":"owner","type":"address","internalType":"address"},{"name":"sessionKey","type":"address","internalType":"address"},{"name":"_target","type":"address","internalType":"address"},{"name":"_status","type":"bool","internalType":"bool"},{"name":"deadline","type":"uint256","internalType":"uint256"},{"name":"signature","type":"bytes","internalType":"bytes"}],"outputs":[],"stateMutability":"nonpayable"},{"type":"function","name":"getArticleByArweaveId","inputs":[{"name":"_arweaveId","type":"string","internalType":"string"}],"outputs":[{"name":"","type":"tuple","internalType":"struct BlogHub.Article","components":[{"name":"author","type":"address","internalType":"address"},{"name":"timestamp","type":"uint64","internalType":"uint64"},{"name":"categoryId","type":"uint16","internalType":"uint16"},{"name":"originality","type":"uint8","internalType":"enum BlogHub.Originality"},{"name":"collectPrice","type":"uint96","internalType":"uint96"},{"name":"maxCollectSupply","type":"uint32","internalType":"uint32"},{"name":"collectCount","type":"uint32","internalType":"uint32"},{"name":"arweaveHash","type":"string","internalType":"string"}]}],"stateMutability":"view"},{"type":"function","name":"getArticleIdByArweaveId","inputs":[{"name":"_arweaveId","type":"string","internalType":"string"}],"outputs":[{"name":"","type":"uint256","internalType":"uint256"}],"stateMutability":"view"},{"type":"function","name":"getRoleAdmin","inputs":[{"name":"role","type":"bytes32","internalType":"bytes32"}],"outputs":[{"name":"","type":"bytes32","internalType":"bytes32"}],"stateMutability":"view"},{"type":"function","name":"grantRole","inputs":[{"name":"role","type":"bytes32","internalType":"bytes32"},{"name":"account","type":"address","internalType":"address"}],"outputs":[],"stateMutability":"nonpayable"},{"type":"function","name":"hasRole","inputs":[{"name":"role","type":"bytes32","internalType":"bytes32"},{"name":"account","type":"address","internalType":"address"}],"outputs":[{"name":"","type":"bool","internalType":"bool"}],"stateMutability":"view"},{"type":"function","name":"initialize","inputs":[{"name":"_initialOwner","type":"address","internalType":"address"},{"name":"_treasury","type":"address","internalType":"address"}],"outputs":[],"stateMutability":"nonpayable"},{"type":"function","name":"isApprovedForAll","inputs":[{"name":"account","type":"address","internalType":"address"},{"name":"operator","type":"address","internalType":"address"}],"outputs":[{"name":"","type":"bool","internalType":"bool"}],"stateMutability":"view"},{"type":"function","name":"likeComment","inputs":[{"name":"_articleId","type":"uint256","internalType":"uint256"},{"name":"_commentId","type":"uint256","internalType":"uint256"},{"name":"_commenter","type":"address","internalType":"address"},{"name":"_referrer","type":"address","internalType":"address"}],"outputs":[],"stateMutability":"payable"},{"type":"function","name":"likeCommentWithSessionKey","inputs":[{"name":"owner","type":"address","internalType":"address"},{"name":"sessionKey","type":"address","internalType":"address"},{"name":"_articleId","type":"uint256","internalType":"uint256"},{"name":"_commentId","type":"uint256","internalType":"uint256"},{"name":"_commenter","type":"address","internalType":"address"},{"name":"_referrer","type":"address","internalType":"address"},{"name":"deadline","type":"uint256","internalType":"uint256"},{"name":"signature","type":"bytes","internalType":"bytes"}],"outputs":[],"stateMutability":"payable"},{"type":"function","name":"minActionValue","inputs":[],"outputs":[{"name":"","type":"uint256","internalType":"uint256"}],"stateMutability":"view"},{"type":"function","name":"multicall","inputs":[{"name":"data","type":"bytes[]","internalType":"bytes[]"}],"outputs":[{"name":"results","type":"bytes[]","internalType":"bytes[]"}],"stateMutability":"nonpayable"},{"type":"function","name":"nextArticleId","inputs":[],"outputs":[{"name":"","type":"uint256","internalType":"uint256"}],"stateMutability":"view"},{"type":"function","name":"pause","inputs":[],"outputs":[],"stateMutability":"nonpayable"},{"type":"function","name":"paused","inputs":[],"outputs":[{"name":"","type":"bool","internalType":"bool"}],"stateMutability":"view"},{"type":"function","name":"platformFeeBps","inputs":[],"outputs":[{"name":"","type":"uint96","internalType":"uint96"}],"stateMutability":"view"},{"type":"function","name":"platformTreasury","inputs":[],"outputs":[{"name":"","type":"address","internalType":"address"}],"stateMutability":"view"},{"type":"function","name":"proxiableUUID","inputs":[],"outputs":[{"name":"","type":"bytes32","internalType":"bytes32"}],"stateMutability":"view"},{"type":"function","name":"publish","inputs":[{"name":"params","type":"tuple","internalType":"struct BlogHub.PublishParams","components":[{"name":"arweaveId","type":"string","internalType":"string"},{"name":"categoryId","type":"uint64","internalType":"uint64"},{"name":"royaltyBps","type":"uint96","internalType":"uint96"},{"name":"originalAuthor","type":"string","internalType":"string"},{"name":"title","type":"string","internalType":"string"},{"name":"summary","type":"string","internalType":"string"},{"name":"keywords","type":"string","internalType":"string"},{"name":"trueAuthor","type":"address","internalType":"address"},{"name":"collectPrice","type":"uint256","internalType":"uint256"},{"name":"maxCollectSupply","type":"uint256","internalType":"uint256"},{"name":"originality","type":"uint8","internalType":"enum BlogHub.Originality"}]}],"outputs":[{"name":"","type":"uint256","internalType":"uint256"}],"stateMutability":"nonpayable"},{"type":"function","name":"publishWithSessionKey","inputs":[{"name":"owner","type":"address","internalType":"address"},{"name":"sessionKey","type":"address","internalType":"address"},{"name":"params","type":"tuple","internalType":"struct BlogHub.PublishParams","components":[{"name":"arweaveId","type":"string","internalType":"string"},{"name":"categoryId","type":"uint64","internalType":"uint64"},{"name":"royaltyBps","type":"uint96","internalType":"uint96"},{"name":"originalAuthor","type":"string","internalType":"string"},{"name":"title","type":"string","internalType":"string"},{"name":"summary","type":"string","internalType":"string"},{"name":"keywords","type":"string","internalType":"string"},{"name":"trueAuthor","type":"address","internalType":"address"},{"name":"collectPrice","type":"uint256","internalType":"uint256"},{"name":"maxCollectSupply","type":"uint256","internalType":"uint256"},{"name":"originality","type":"uint8","internalType":"enum BlogHub.Originality"}]},{"name":"deadline","type":"uint256","internalType":"uint256"},{"name":"signature","type":"bytes","internalType":"bytes"}],"outputs":[{"name":"","type":"uint256","internalType":"uint256"}],"stateMutability":"nonpayable"},{"type":"function","name":"renounceRole","inputs":[{"name":"role","type":"bytes32","internalType":"bytes32"},{"name":"callerConfirmation","type":"address","internalType":"address"}],"outputs":[],"stateMutability":"nonpayable"},{"type":"function","name":"revokeRole","inputs":[{"name":"role","type":"bytes32","internalType":"bytes32"},{"name":"account","type":"address","internalType":"address"}],"outputs":[],"stateMutability":"nonpayable"},{"type":"function","name":"royaltyInfo","inputs":[{"name":"tokenId","type":"uint256","internalType":"uint256"},{"name":"salePrice","type":"uint256","internalType":"uint256"}],"outputs":[{"name":"receiver","type":"address","internalType":"address"},{"name":"amount","type":"uint256","internalType":"uint256"}],"stateMutability":"view"},{"type":"function","name":"safeBatchTransferFrom","inputs":[{"name":"from","type":"address","internalType":"address"},{"name":"to","type":"address","internalType":"address"},{"name":"ids","type":"uint256[]","internalType":"uint256[]"},{"name":"values","type":"uint256[]","internalType":"uint256[]"},{"name":"data","type":"bytes","internalType":"bytes"}],"outputs":[],"stateMutability":"nonpayable"},{"type":"function","name":"safeTransferFrom","inputs":[{"name":"from","type":"address","internalType":"address"},{"name":"to","type":"address","internalType":"address"},{"name":"id","type":"uint256","internalType":"uint256"},{"name":"value","type":"uint256","internalType":"uint256"},{"name":"data","type":"bytes","internalType":"bytes"}],"outputs":[],"stateMutability":"nonpayable"},{"type":"function","name":"sessionKeyManager","inputs":[],"outputs":[{"name":"","type":"address","internalType":"contract ISessionKeyManager"}],"stateMutability":"view"},{"type":"function","name":"setApprovalForAll","inputs":[{"name":"operator","type":"address","internalType":"address"},{"name":"approved","type":"bool","internalType":"bool"}],"outputs":[],"stateMutability":"nonpayable"},{"type":"function","name":"setMinActionValue","inputs":[{"name":"_minActionValue","type":"uint256","internalType":"uint256"}],"outputs":[],"stateMutability":"nonpayable"},{"type":"function","name":"setPlatformFee","inputs":[{"name":"_feeBps","type":"uint96","internalType":"uint96"}],"outputs":[],"stateMutability":"nonpayable"},{"type":"function","name":"setPlatformTreasury","inputs":[{"name":"_treasury","type":"address","internalType":"address"}],"outputs":[],"stateMutability":"nonpayable"},{"type":"function","name":"setSessionKeyManager","inputs":[{"name":"_sessionKeyManager","type":"address","internalType":"address"}],"outputs":[],"stateMutability":"nonpayable"},{"type":"function","name":"supportsInterface","inputs":[{"name":"interfaceId","type":"bytes4","internalType":"bytes4"}],"outputs":[{"name":"","type":"bool","internalType":"bool"}],"stateMutability":"view"},{"type":"function","name":"unpause","inputs":[],"outputs":[],"stateMutability":"nonpayable"},{"type":"function","name":"updateProfile","inputs":[{"name":"_nickname","type":"string","internalType":"string"},{"name":"_avatar","type":"string","internalType":"string"},{"name":"_bio","type":"string","internalType":"string"}],"outputs":[],"stateMutability":"nonpayable"},{"type":"function","name":"upgradeToAndCall","inputs":[{"name":"newImplementation","type":"address","internalType":"address"},{"name":"data","type":"bytes","internalType":"bytes"}],"outputs":[],"stateMutability":"payable"},{"type":"function","name":"uri","inputs":[{"name":"_id","type":"uint256","internalType":"uint256"}],"outputs":[{"name":"","type":"string","internalType":"string"}],"stateMutability":"view"},{"type":"event","name":"ApprovalForAll","inputs":[{"name":"account","type":"address","indexed":true,"internalType":"address"},{"name":"operator","type":"address","indexed":true,"internalType":"address"},{"name":"approved","type":"bool","indexed":false,"internalType":"bool"}],"anonymous":false},{"type":"event","name":"ArticleCollected","inputs":[{"name":"articleId","type":"uint256","indexed":true,"internalType":"uint256"},{"name":"collector","type":"address","indexed":true,"internalType":"address"},{"name":"amount","type":"uint256","indexed":false,"internalType":"uint256"},{"name":"tokenId","type":"uint256","indexed":false,"internalType":"uint256"}],"anonymous":false},{"type":"event","name":"ArticleEdited","inputs":[{"name":"articleId","type":"uint256","indexed":true,"internalType":"uint256"},{"name":"originalAuthor","type":"string","indexed":false,"internalType":"string"},{"name":"title","type":"string","indexed":false,"internalType":"string"},{"name":"summary","type":"string","indexed":false,"internalType":"string"},{"name":"keywords","type":"string","indexed":false,"internalType":"string"},{"name":"categoryId","type":"uint64","indexed":false,"internalType":"uint64"}],"anonymous":false},{"type":"event","name":"ArticleEvaluated","inputs":[{"name":"articleId","type":"uint256","indexed":true,"internalType":"uint256"},{"name":"user","type":"address","indexed":true,"internalType":"address"},{"name":"score","type":"uint8","indexed":false,"internalType":"uint8"},{"name":"amountPaid","type":"uint256","indexed":false,"internalType":"uint256"}],"anonymous":false},{"type":"event","name":"ArticlePublished","inputs":[{"name":"articleId","type":"uint256","indexed":true,"internalType":"uint256"},{"name":"author","type":"address","indexed":true,"internalType":"address"},{"name":"categoryId","type":"uint256","indexed":true,"internalType":"uint256"},{"name":"arweaveId","type":"string","indexed":false,"internalType":"string"},{"name":"originalAuthor","type":"string","indexed":false,"internalType":"string"},{"name":"title","type":"string","indexed":false,"internalType":"string"},{"name":"summary","type":"string","indexed":false,"internalType":"string"},{"name":"keywords","type":"string","indexed":false,"internalType":"string"},{"name":"trueAuthor","type":"address","indexed":false,"internalType":"address"},{"name":"collectPrice","type":"uint256","indexed":false,"internalType":"uint256"},{"name":"maxCollectSupply","type":"uint256","indexed":false,"internalType":"uint256"},{"name":"originality","type":"uint8","indexed":false,"internalType":"enum BlogHub.Originality"}],"anonymous":false},{"type":"event","name":"CommentAdded","inputs":[{"name":"articleId","type":"uint256","indexed":true,"internalType":"uint256"},{"name":"commenter","type":"address","indexed":true,"internalType":"address"},{"name":"content","type":"string","indexed":false,"internalType":"string"},{"name":"parentCommentId","type":"uint256","indexed":false,"internalType":"uint256"},{"name":"score","type":"uint8","indexed":false,"internalType":"uint8"}],"anonymous":false},{"type":"event","name":"CommentLiked","inputs":[{"name":"articleId","type":"uint256","indexed":true,"internalType":"uint256"},{"name":"commentId","type":"uint256","indexed":true,"internalType":"uint256"},{"name":"liker","type":"address","indexed":true,"internalType":"address"},{"name":"commenter","type":"address","indexed":false,"internalType":"address"},{"name":"amountPaid","type":"uint256","indexed":false,"internalType":"uint256"}],"anonymous":false},{"type":"event","name":"FollowStatusChanged","inputs":[{"name":"follower","type":"address","indexed":true,"internalType":"address"},{"name":"target","type":"address","indexed":true,"internalType":"address"},{"name":"isFollowing","type":"bool","indexed":false,"internalType":"bool"}],"anonymous":false},{"type":"event","name":"Initialized","inputs":[{"name":"version","type":"uint64","indexed":false,"internalType":"uint64"}],"anonymous":false},{"type":"event","name":"MinActionValueUpdated","inputs":[{"name":"newValue","type":"uint256","indexed":false,"internalType":"uint256"}],"anonymous":false},{"type":"event","name":"Paused","inputs":[{"name":"account","type":"address","indexed":false,"internalType":"address"}],"anonymous":false},{"type":"event","name":"PlatformFeeUpdated","inputs":[{"name":"newFeeBps","type":"uint96","indexed":false,"internalType":"uint96"}],"anonymous":false},{"type":"event","name":"ReferralPaid","inputs":[{"name":"referrer","type":"address","indexed":true,"internalType":"address"},{"name":"amount","type":"uint256","indexed":false,"internalType":"uint256"}],"anonymous":false},{"type":"event","name":"RoleAdminChanged","inputs":[{"name":"role","type":"bytes32","indexed":true,"internalType":"bytes32"},{"name":"previousAdminRole","type":"bytes32","indexed":true,"internalType":"bytes32"},{"name":"newAdminRole","type":"bytes32","indexed":true,"internalType":"bytes32"}],"anonymous":false},{"type":"event","name":"RoleGranted","inputs":[{"name":"role","type":"bytes32","indexed":true,"internalType":"bytes32"},{"name":"account","type":"address","indexed":true,"internalType":"address"},{"name":"sender","type":"address","indexed":true,"internalType":"address"}],"anonymous":false},{"type":"event","name":"RoleRevoked","inputs":[{"name":"role","type":"bytes32","indexed":true,"internalType":"bytes32"},{"name":"account","type":"address","indexed":true,"internalType":"address"},{"name":"sender","type":"address","indexed":true,"internalType":"address"}],"anonymous":false},{"type":"event","name":"SessionKeyManagerUpdated","inputs":[{"name":"newManager","type":"address","indexed":true,"internalType":"address"}],"anonymous":false},{"type":"event","name":"SessionKeyOperationExecuted","inputs":[{"name":"owner","type":"address","indexed":true,"internalType":"address"},{"name":"sessionKey","type":"address","indexed":true,"internalType":"address"},{"name":"selector","type":"bytes4","indexed":false,"internalType":"bytes4"}],"anonymous":false},{"type":"event","name":"TransferBatch","inputs":[{"name":"operator","type":"address","indexed":true,"internalType":"address"},{"name":"from","type":"address","indexed":true,"internalType":"address"},{"name":"to","type":"address","indexed":true,"internalType":"address"},{"name":"ids","type":"uint256[]","indexed":false,"internalType":"uint256[]"},{"name":"values","type":"uint256[]","indexed":false,"internalType":"uint256[]"}],"anonymous":false},{"type":"event","name":"TransferSingle","inputs":[{"name":"operator","type":"address","indexed":true,"internalType":"address"},{"name":"from","type":"address","indexed":true,"internalType":"address"},{"name":"to","type":"address","indexed":true,"internalType":"address"},{"name":"id","type":"uint256","indexed":false,"internalType":"uint256"},{"name":"value","type":"uint256","indexed":false,"internalType":"uint256"}],"anonymous":false},{"type":"event","name":"TreasuryUpdated","inputs":[{"name":"newTreasury","type":"address","indexed":false,"internalType":"address"}],"anonymous":false},{"type":"event","name":"URI","inputs":[{"name":"value","type":"string","indexed":false,"internalType":"string"},{"name":"id","type":"uint256","indexed":true,"internalType":"uint256"}],"anonymous":false},{"type":"event","name":"Unpaused","inputs":[{"name":"account","type":"address","indexed":false,"internalType":"address"}],"anonymous":false},{"type":"event","name":"Upgraded","inputs":[{"name":"implementation","type":"address","indexed":true,"internalType":"address"}],"anonymous":false},{"type":"event","name":"UserProfileUpdated","inputs":[{"name":"user","type":"address","indexed":true,"internalType":"address"},{"name":"nickname","type":"string","indexed":false,"internalType":"string"},{"name":"avatar","type":"string","indexed":false,"internalType":"string"},{"name":"bio","type":"string","indexed":false,"internalType":"string"}],"anonymous":false},{"type":"error","name":"AccessControlBadConfirmation","inputs":[]},{"type":"error","name":"AccessControlUnauthorizedAccount","inputs":[{"name":"account","type":"address","internalType":"address"},{"name":"neededRole","type":"bytes32","internalType":"bytes32"}]},{"type":"error","name":"AddressEmptyCode","inputs":[{"name":"target","type":"address","internalType":"address"}]},{"type":"error","name":"ArticleNotFound","inputs":[]},{"type":"error","name":"CategoryIdTooHigh","inputs":[]},{"type":"error","name":"CollectNotEnabled","inputs":[]},{"type":"error","name":"CollectPriceTooHigh","inputs":[]},{"type":"error","name":"ContentRequiredForScore","inputs":[]},{"type":"error","name":"ERC1155InsufficientBalance","inputs":[{"name":"sender","type":"address","internalType":"address"},{"name":"balance","type":"uint256","internalType":"uint256"},{"name":"needed","type":"uint256","internalType":"uint256"},{"name":"tokenId","type":"uint256","internalType":"uint256"}]},{"type":"error","name":"ERC1155InvalidApprover","inputs":[{"name":"approver","type":"address","internalType":"address"}]},{"type":"error","name":"ERC1155InvalidArrayLength","inputs":[{"name":"idsLength","type":"uint256","internalType":"uint256"},{"name":"valuesLength","type":"uint256","internalType":"uint256"}]},{"type":"error","name":"ERC1155InvalidOperator","inputs":[{"name":"operator","type":"address","internalType":"address"}]},{"type":"error","name":"ERC1155InvalidReceiver","inputs":[{"name":"receiver","type":"address","internalType":"address"}]},{"type":"error","name":"ERC1155InvalidSender","inputs":[{"name":"sender","type":"address","internalType":"address"}]},{"type":"error","name":"ERC1155MissingApprovalForAll","inputs":[{"name":"operator","type":"address","internalType":"address"},{"name":"owner","type":"address","internalType":"address"}]},{"type":"error","name":"ERC1967InvalidImplementation","inputs":[{"name":"implementation","type":"address","internalType":"address"}]},{"type":"error","name":"ERC1967NonPayable","inputs":[]},{"type":"error","name":"ERC2981InvalidDefaultRoyalty","inputs":[{"name":"numerator","type":"uint256","internalType":"uint256"},{"name":"denominator","type":"uint256","internalType":"uint256"}]},{"type":"error","name":"ERC2981InvalidDefaultRoyaltyReceiver","inputs":[{"name":"receiver","type":"address","internalType":"address"}]},{"type":"error","name":"ERC2981InvalidTokenRoyalty","inputs":[{"name":"tokenId","type":"uint256","internalType":"uint256"},{"name":"numerator","type":"uint256","internalType":"uint256"},{"name":"denominator","type":"uint256","internalType":"uint256"}]},{"type":"error","name":"ERC2981InvalidTokenRoyaltyReceiver","inputs":[{"name":"tokenId","type":"uint256","internalType":"uint256"},{"name":"receiver","type":"address","internalType":"address"}]},{"type":"error","name":"EnforcedPause","inputs":[]},{"type":"error","name":"ExpectedPause","inputs":[]},{"type":"error","name":"FailedCall","inputs":[]},{"type":"error","name":"FeeTooHigh","inputs":[]},{"type":"error","name":"InsufficientPayment","inputs":[]},{"type":"error","name":"InvalidAddress","inputs":[]},{"type":"error","name":"InvalidCommenter","inputs":[]},{"type":"error","name":"InvalidInitialization","inputs":[]},{"type":"error","name":"InvalidLength","inputs":[]},{"type":"error","name":"InvalidScore","inputs":[]},{"type":"error","name":"KeywordsTooLong","inputs":[]},{"type":"error","name":"MaxCollectSupplyTooHigh","inputs":[]},{"type":"error","name":"MaxSupplyReached","inputs":[]},{"type":"error","name":"NotArticleAuthor","inputs":[]},{"type":"error","name":"NotInitializing","inputs":[]},{"type":"error","name":"OriginalAuthorTooLong","inputs":[]},{"type":"error","name":"ReentrancyGuardReentrantCall","inputs":[]},{"type":"error","name":"RoyaltyTooHigh","inputs":[]},{"type":"error","name":"SessionKeyManagerNotSet","inputs":[]},{"type":"error","name":"SessionKeyValidationFailed","inputs":[]},{"type":"error","name":"SpamProtection","inputs":[]},{"type":"error","name":"SummaryTooLong","inputs":[]},{"type":"error","name":"TitleTooLong","inputs":[]},{"type":"error","name":"TransferFailed","inputs":[]},{"type":"error","name":"UUPSUnauthorizedCallContext","inputs":[]},{"type":"error","name":"UUPSUnsupportedProxiableUUID","inputs":[{"name":"slot","type":"bytes32","internalType":"bytes32"}]}],"bytecode":{"object":"0x60a080604052346100e65760017f9b779b17422d0df92223018b32b4d1fa46e071723d6817e2486d003becc55f0055306080525f51602061509a5f395f51905f525460ff8160401c166100d7576002600160401b03196001600160401b03821601610084575b604051614faf90816100eb8239608051818181610fca015261113e0152f35b6001600160401b0319166001600160401b039081175f51602061509a5f395f51905f525581527fc7f505b2f371ae2175ee4913f4499e1f2633a7b5936321eed1cdaeb6115181d290602090a15f80610065565b63f92ee8a960e01b5f5260045ffd5b5f80fdfe60806040526004361015610011575f80fd5b5f3560e01c8062fdd58e146103df57806301ffc9a7146103da5780630b826190146103d55780630e89341c146103d05780631105a5eb146103cb57806319e94a6e146102e55780631fe9d578146103ad57806322dcd13e146103c6578063248a9ca3146103c157806329e59197146103bc5780632a55205a146103b75780632eb2c2d6146103b25780632ef9a160146103ad5780632f2ff15d146103a857806336568abe146103a35780633f4ba83a1461039e578063473106b214610326578063485cc955146103995780634b65f344146103945780634e1273f41461038f5780634f1ef2861461038a57806352cbd3be1461038557806352d1902d14610380578063544b5e611461037b5780635780400b146103765780635856e4fa146103715780635c975abb1461036c57806360f302801461030357806363c3cc161461036757806363c4ea4d14610362578063795146ef1461035d57806379c61f28146103585780637cd86d6014610353578063837fa3fd1461034e5780638456cb591461034957806385c3ab54146103445780638cbd215e1461033f5780638d3c100a1461033a57806391d1485414610335578063989cfb57146103305780639a8016081461032b578063a217fddf14610326578063a22cb46514610321578063a2bd53601461031c578063ac9650d814610317578063ad3cb1cc14610312578063b055d7aa1461030d578063bb9b118114610308578063c477d7f714610303578063d547741f146102fe578063dffd40f2146102f9578063e138818c146102f4578063e1d90b34146102ef578063e63ab1e9146102ea578063e8f100bf146102e5578063e985e9c5146102e0578063edcfafe6146102db578063f242432a146102d6578063f72c0d8b146102d1578063f99e5dbb146102cc578063fde84719146102c75763ff1f090a146102c2575f80fd5b612547565b61252c565b6124a7565b612451565b612355565b6122cc565b61216d565b6107f2565b612133565b612118565b6120f8565b6120b2565b612065565b6112e9565b611fd9565b611f6b565b611f12565b611e92565b611c9a565b611c08565b610c9b565b6119ba565b61191f565b611801565b6117b8565b61179b565b61177f565b61170e565b6116a2565b611611565b6114d9565b6113dc565b61134a565b61132a565b6112bb565b61129f565b6111a9565b611183565b61112c565b6110e0565b610f88565b610ec7565b610e6a565b610cda565b610c1d565b610bd5565b610b83565b61080d565b610af1565b6108de565b61089b565b61084e565b610828565b6106ea565b610581565b610521565b61047e565b610413565b6001600160a01b038116036103f557565b5f80fd5b60a43590610406826103e4565b565b3590610406826103e4565b346103f55760403660031901126103f5576020610463600435610435816103e4565b6024355f525f516020614eba5f395f51905f52835260405f209060018060a01b03165f5260205260405f2090565b54604051908152f35b6001600160e01b03198116036103f557565b346103f55760203660031901126103f55760043561049b8161046c565b63ffffffff60e01b16637965db0b60e01b81149081156104c4575b506040519015158152602090f35b63152a902d60e11b8114915081156104de575b505f6104b6565b636cdb3d1360e11b811491508115610510575b81156104ff575b505f6104d7565b6301ffc9a760e01b1490505f6104f8565b6303a24d0760e21b811491506104f1565b346103f5575f3660031901126103f5576004546040516001600160a01b039091168152602090f35b805180835260209291819084018484015e5f828201840152601f01601f1916010190565b90602061057e928181520190610549565b90565b346103f55760203660031901126103f557600435801580156106b2575b6106a3575f526002602052600260405f20016040517f68747470733a2f2f676174657761792e697279732e78797a2f6d757461626c656020820152602f60f81b60408201525f918054906105f18261218c565b916001811690811561067c5750600114610640575b680bda5b99195e0b9b5960ba1b845261063c8361063081600988015b03601f1981018352826109e0565b6040519182918261056d565b0390f35b9092505f5260205f205f905b8382106106655750509081016041019061063081610606565b60018160209254604185870101520191019061064c565b60ff1916604180860191909152831515909302840190920193506106309150829050610606565b63522e582d60e11b5f5260045ffd5b505f5481101561059e565b9181601f840112156103f5578235916001600160401b0383116103f557602083818601950101116103f557565b346103f55760603660031901126103f5576004356001600160401b0381116103f55761071a9036906004016106bd565b906024356001600160401b0381116103f55761073a9036906004016106bd565b9190926044356001600160401b0381116103f55761075c9036906004016106bd565b6107679591956131c2565b604083116107e357608085116107e35761010081116107e3576107ce6107de927f198eb8de772c5a42c31d10ea779636d74f5a7cd2633012f88632697fae910db4966107c060405197889760608952606089019161261b565b91868303602088015261261b565b908382036040850152339661261b565b0390a2005b63251f56a160e21b5f5260045ffd5b346103f5575f3660031901126103f557602060405160408152f35b346103f5575f3660031901126103f557602060405160808152f35b346103f5575f3660031901126103f55760206001600160601b0360015416604051908152f35b346103f55760203660031901126103f55760206108856004355f525f516020614eda5f395f51905f52602052600160405f20015490565b604051908152f35b908160c09103126103f55790565b346103f55760203660031901126103f5576004356001600160401b0381116103f5576108ce6108dc91369060040161088d565b6108d66131c2565b33613249565b005b346103f55760403660031901126103f5576004355f9081527fdaedc9ab023613a7caf35e703657e986ccfad7e3eb0af93a2853f8d65dd86b0160205260409020546001600160a01b038116906024359060a01c8215610974575b610957916001600160601b0361094f92169061266c565b612710900490565b604080516001600160a01b03939093168352602083019190915290f35b507fdaedc9ab023613a7caf35e703657e986ccfad7e3eb0af93a2853f8d65dd86b00546001600160a01b038116925060a01c610938565b634e487b7160e01b5f52604160045260245ffd5b61010081019081106001600160401b038211176109db57604052565b6109ab565b90601f801991011681019081106001600160401b038211176109db57604052565b60405190610406610100836109e0565b6001600160401b0381116109db5760051b60200190565b9080601f830112156103f5578135610a3f81610a11565b92610a4d60405194856109e0565b81845260208085019260051b8201019283116103f557602001905b828210610a755750505090565b8135815260209182019101610a68565b6001600160401b0381116109db57601f01601f191660200190565b929192610aac82610a85565b91610aba60405193846109e0565b8294818452818301116103f5578281602093845f960137010152565b9080601f830112156103f55781602061057e93359101610aa0565b346103f55760a03660031901126103f557600435610b0e816103e4565b60243590610b1b826103e4565b6044356001600160401b0381116103f557610b3a903690600401610a28565b6064356001600160401b0381116103f557610b59903690600401610a28565b90608435936001600160401b0385116103f557610b7d6108dc953690600401610ad6565b9361267f565b346103f55760403660031901126103f5576108dc602435600435610ba6826103e4565b610bd0610bcb825f525f516020614eda5f395f51905f52602052600160405f20015490565b613526565b61378a565b346103f55760403660031901126103f557600435602435610bf5816103e4565b336001600160a01b03821603610c0e576108dc9161381f565b63334bd91960e11b5f5260045ffd5b346103f5575f3660031901126103f557610c356133f9565b5f516020614efa5f395f51905f525460ff811615610c8c5760ff19165f516020614efa5f395f51905f52557f5db9ee0a495bf2e6ff9c91a7834c1ba4fdd244a5e8aa4e537bd38aeae4b073aa6020604051338152a1005b638dfc202b60e01b5f5260045ffd5b346103f5575f3660031901126103f55760206040515f8152f35b60409060031901126103f557600435610ccd816103e4565b9060243561057e816103e4565b346103f557610ce836610cb5565b5f516020614f3a5f395f51905f525491906001600160401b03610d1a60ff604086901c1615946001600160401b031690565b1680159081610e34575b6001149081610e2a575b159081610e21575b50610e1257610d799183610d7060016001600160401b03195f516020614f3a5f395f51905f525416175f516020614f3a5f395f51905f5255565b610dd8576126d0565b610d7f57005b610da960ff60401b195f516020614f3a5f395f51905f5254165f516020614f3a5f395f51905f5255565b604051600181527fc7f505b2f371ae2175ee4913f4499e1f2633a7b5936321eed1cdaeb6115181d290602090a1005b610e0d6801000000000000000060ff60401b195f516020614f3a5f395f51905f525416175f516020614f3a5f395f51905f5255565b6126d0565b63f92ee8a960e01b5f5260045ffd5b9050155f610d36565b303b159150610d2e565b849150610d24565b60206003198201126103f557600435906001600160401b0382116103f557610e66916004016106bd565b9091565b346103f5576020610463610e7d36610e3c565b906128ae565b90602080835192838152019201905f5b818110610ea05750505090565b8251845260209384019390920191600101610e93565b90602061057e928181520190610e83565b346103f55760403660031901126103f5576004356001600160401b0381116103f557366023820112156103f557806004013590610f0382610a11565b91610f1160405193846109e0565b8083526024602084019160051b830101913683116103f557602401905b828210610f6e57836024356001600160401b0381116103f55761063c91610f5c610f62923690600401610a28565b906128f4565b60405191829182610eb6565b602080918335610f7d816103e4565b815201910190610f2e565b60403660031901126103f557600435610fa0816103e4565b6024356001600160401b0381116103f557610fbf903690600401610ad6565b906001600160a01b037f0000000000000000000000000000000000000000000000000000000000000000163081149081156110be575b506110af57611002613468565b6040516352d1902d60e01b8152916020836004816001600160a01b0386165afa5f938161107e575b5061104b57634c9c8ce360e01b5f526001600160a01b03821660045260245ffd5b905f516020614e7a5f395f51905f52830361106a576108dc92506149d6565b632a87526960e21b5f52600483905260245ffd5b6110a191945060203d6020116110a8575b61109981836109e0565b810190613932565b925f61102a565b503d61108f565b63703e46dd60e11b5f5260045ffd5b5f516020614e7a5f395f51905f52546001600160a01b0316141590505f610ff5565b346103f55760203660031901126103f5577ffcae2461302da2a86e3604d10afc558dc160d49eb88bc010c4bca093793857ff602060043561111f6134d7565b80600555604051908152a1005b346103f5575f3660031901126103f5577f00000000000000000000000000000000000000000000000000000000000000006001600160a01b031630036110af5760206040515f516020614e7a5f395f51905f528152f35b346103f5575f3660031901126103f55760206040516102008152f35b801515036103f557565b346103f55760c03660031901126103f5576004356111c6816103e4565b6024356111d2816103e4565b6044356111de816103e4565b6064356111ea8161119f565b6084359160a4356001600160401b0381116103f55761126d936112146112679236906004016106bd565b9161121d6131c2565b61122561394c565b6040516331e1e60b60e11b60208201526001600160a01b038716602482015287151560448083019190915281529089908b906112626064856109e0565b613985565b84613c82565b6040516331e1e60b60e11b81526001600160a01b0391821692909116905f516020614e9a5f395f51905f5290602090a3005b346103f5575f3660031901126103f55760206040516104008152f35b346103f5575f3660031901126103f557602060ff5f516020614efa5f395f51905f5254166040519015158152f35b346103f5575f3660031901126103f55760206040516101008152f35b60409060031901126103f55760043561131d816103e4565b9060243561057e8161119f565b346103f5576108dc61133b36611305565b906113446131c2565b33613c82565b6101203660031901126103f557600435611363816103e4565b60243561136f816103e4565b6044359160643560ff811681036103f5576084356001600160401b0381116103f55761139f9036906004016106bd565b6113a76103f9565b9060c4359260e4359461010435986001600160401b038a116103f5576113d46108dc9a36906004016106bd565b999098612989565b60c03660031901126103f5576004356113f4816103e4565b602435611400816103e4565b60643560443561140f826103e4565b6084359160a4356001600160401b0381116103f5576114969361143961148e9236906004016106bd565b91611442613cc1565b61144a6131c2565b61145261394c565b60405163469e080560e11b6020820152602481018890526001600160a01b03871660448201526114858160648101610622565b898b3493613a6a565b349185613f34565b60405163469e080560e11b81526001600160a01b0391821692909116905f516020614e9a5f395f51905f5290602090a360015f516020614f1a5f395f51905f5255005b6101003660031901126103f5576004356114f2816103e4565b6024356114fe816103e4565b606435604435608435611510816103e4565b60a4359061151d826103e4565b60e43560c4356001600160401b0382116103f5576115426115aa9236906004016106bd565b9161154b613cc1565b6115536131c2565b61155b61394c565b604051636ffea07960e11b602082015260248101899052604481018a90526001600160a01b038781166064830152881660848083019190915281526115a160a4826109e0565b8a8c3493613b57565b3415611602576115bc93349387614094565b604051636ffea07960e11b81526001600160a01b0391821692909116905f516020614e9a5f395f51905f5290602090a36108dc60015f516020614f1a5f395f51905f5255565b633f7d56c960e11b5f5260045ffd5b346103f55760203660031901126103f55760043561162e816103e4565b6116366134d7565b6001600160a01b038116908115611693577f7dae230f18360d76a040c81f050aa14eb9d6dc7901b20fc5d855e2a20fe814d19161168a6020926001600160601b036001549181199060601b16911617600155565b604051908152a1005b63e6c4247b60e01b5f5260045ffd5b346103f55760203660031901126103f5576004356116bf816103e4565b6116c76134d7565b6001600160a01b0316801561169357600480546001600160a01b031916821790557f4d57218e59793e6845c36a961c3af7acfce8c54b13a697da231466fc265fdb615f80a2005b346103f5575f3660031901126103f5576117266133f9565b61172e6131c2565b600160ff195f516020614efa5f395f51905f525416175f516020614efa5f395f51905f52557f62e78cea01bee320cd4e420270b5ea74000d11b0c9f74754ebdbfc544b05a2586020604051338152a1005b346103f5575f3660031901126103f55760205f54604051908152f35b346103f5575f3660031901126103f5576020600554604051908152f35b60403660031901126103f5576117ee6004356024356117d6816103e4565b6117de613cc1565b6117e66131c2565b349133613f34565b60015f516020614f1a5f395f51905f5255005b346103f55760403660031901126103f557602060ff611853602435600435611828826103e4565b5f525f516020614eda5f395f51905f52845260405f209060018060a01b03165f5260205260405f2090565b54166040519015158152f35b6003111561186957565b634e487b7160e01b5f52602160045260245ffd5b9060038210156118695752565b602080825282516001600160a01b0316828201528201516001600160401b031660408083019190915282015161ffff16606082015261057e916101209060e0906118dc6060820151608086019061187d565b60808101516001600160601b031660a085015260a081015163ffffffff1660c085015260c081015163ffffffff1684830152015191610100808201520190610549565b346103f557602061192f36610e3c565b9190606060e0604051611941816109bf565b5f81525f858201525f60408201525f838201525f60808201525f60a08201525f60c08201520152826040519384928337810160038152030190205480156106a35761199f61199a61063c925f52600260205260405f2090565b612a78565b6040519182918261188a565b90816101609103126103f55790565b346103f55760203660031901126103f5576004356001600160401b0381116103f5576119ea9036906004016119ab565b6119f26131c2565b6040810190611a48611a0383612b46565b611a106060840184612b50565b611a206080869493940186612b50565b611a3060a0889493940188612b50565b939092611a4060c08a018a612b50565b9790966141a2565b610100810135916001600160601b038311611bf957602082019061ffff6001600160401b03611a7684612b93565b1611611bea576101208301359363ffffffff8511611bdb5760e084016001600160a01b03611aa382612b9d565b1615611bd357611ab290612b9d565b925b5f5495611ac087612ba7565b5f55611acc8680612b50565b919092611ad890612b93565b61ffff16936001600160601b03169063ffffffff1690611afb6101408901612bbf565b611b03610a01565b6001600160a01b0389168152956001600160401b034216602088015261ffff166040870152611b359060608701612a6c565b6001600160601b0316608085015263ffffffff1660a0840152600160c08401523690611b6092610aa0565b60e0820152611b77855f52600260205260405f2090565b90611b8191612d57565b83611b8c8480612b50565b611b95916128ae565b5583611b9f611efe565b611ba991336141ec565b611bb290612b46565b611bbd90828561438d565b611bc891338461445f565b604051908152602090f35b503392611ab4565b6309c1d04f60e01b5f5260045ffd5b630e13ec1760e31b5f5260045ffd5b634264fe7960e01b5f5260045ffd5b346103f557611c1636611305565b6001600160a01b038216918215611c8857611c4990611c34336125af565b9060018060a01b03165f5260205260405f2090565b9015159060ff1981541660ff83161790556040519081527f17307eab39ab6107e8899845ad3d59bd9653f200f220920489ca2b5937696c3160203392a3005b62ced3e160e81b5f525f60045260245ffd5b346103f55760a03660031901126103f557600435611cb7816103e4565b602435611cc3816103e4565b6044356001600160401b0381116103f557611ce290369060040161088d565b606435906084356001600160401b0381116103f557611e0192611d0c611dfb9236906004016106bd565b91611d156131c2565b611d1d61394c565b8789604051926329e5919760e01b60208501526020602485015288356044850152611df684611dcc611dad8c611d9b611d90611d71611d5f602085018561459e565b60c060648a015261010489019161261b565b611d7e604085018561459e565b8883036043190160848a01529061261b565b91606081019061459e565b8583036043190160a48701529061261b565b611dba60808e018e61459e565b8483036043190160c48601529061261b565b6001600160401b0360a08d0135611de281612b82565b1660e483015203601f1981018652856109e0565b613bbe565b83613249565b6040516329e5919760e01b81526001600160a01b0391821692909116905f516020614e9a5f395f51905f5290602090a3005b602081016020825282518091526040820191602060408360051b8301019401925f915b838310611e6557505050505090565b9091929394602080611e83600193603f198682030187528951610549565b97019301930191939290611e56565b346103f55760203660031901126103f5576004356001600160401b0381116103f557366023820112156103f5578060040135906001600160401b0382116103f5573660248360051b830101116103f55761063c916024611ef29201612ec1565b60405191829182611e33565b60405190611f0d6020836109e0565b5f8252565b346103f5575f3660031901126103f55761063c604051611f336040826109e0565b60058152640352e302e360dc1b6020820152604051918291602083526020830190610549565b805191908290602001825e015f815290565b346103f55760203660031901126103f5576004356001600160401b0381116103f557366023820112156103f557611fc06020611fb461063c933690602481600401359101610aa0565b60405192838092611f59565b6003815203019020546040519081529081906020820190565b346103f55760a03660031901126103f557600435611ff6816103e4565b60243590612003826103e4565b6044356001600160401b0381116103f5576120229036906004016119ab565b91608435916064356001600160401b0384116103f55761063c9461204d6120559536906004016106bd565b949093612f7d565b6040519081529081906020820190565b346103f55760403660031901126103f5576108dc602435600435612088826103e4565b6120ad610bcb825f525f516020614eda5f395f51905f52602052600160405f20015490565b61381f565b60803660031901126103f5576117ee6004356024356044356120d3816103e4565b606435916120e0836103e4565b6120e8613cc1565b6120f06131c2565b349333614094565b346103f5575f3660031901126103f557602060015460601c604051908152f35b346103f5575f3660031901126103f557602060405160018152f35b346103f5575f3660031901126103f55760206040517f65d7a28e3265b37a6474929f336521b332c1681b933f6cb9f3376673440d862a8152f35b346103f557602060ff611853611c3461218536610cb5565b91906125af565b90600182811c921680156121ba575b60208310146121a657565b634e487b7160e01b5f52602260045260245ffd5b91607f169161219b565b9060405191825f8254926121d78461218c565b808452936001811690811561224057506001146121fc575b50610406925003836109e0565b90505f9291925260205f20905f915b818310612224575050906020610406928201015f6121ef565b602091935080600191548385890101520191019091849261220b565b90506020925061040694915060ff191682840152151560051b8201015f6121ef565b946001600160601b03906122ad63ffffffff9661ffff61057e9c9b976001600160401b038a986101009d9860018060a01b03168d521660208c01521660408a0152606089019061187d565b1660808601521660a08401521660c08201528160e08201520190610549565b346103f55760203660031901126103f5576004355f52600260205260405f2080549061063c6123026002600184015493016121c4565b604051938363ffffffff869560801c16916001600160601b0363ffffffff8360601c1692169060ff8160f01c169061ffff8160e01c16906001600160401b038160a01c169060018060a01b031689612262565b346103f55760a03660031901126103f557600435612372816103e4565b60243561237e816103e4565b60443590606435926084356001600160401b0381116103f5576123a5903690600401610ad6565b926001600160a01b0382163381141580612440575b61242a576001600160a01b038416156124175715612405576108dc946123fd60405192600184526020840152604083019160018352606084015260808301604052565b9290916147ae565b626a0d4560e21b5f525f60045260245ffd5b632bfa23e760e11b5f525f60045260245ffd5b63711bec9160e11b5f523360045260245260445ffd5b5061244b33846131ae565b156123ba565b346103f5575f3660031901126103f55760206040517f189ab7a9244df0848122154315af71fe140f3db0fe014031783b0946b8c9d2e38152f35b6001600160601b038116036103f557565b35906104068261248b565b346103f55760203660031901126103f5576001600160601b036004356124cc8161248b565b6124d46134d7565b16610bb8811161251d576020817f7cb8fa1ce2fc1ff6556e563c0dcba551db7cdeb3f3b0911243692639ac80e94d926001600160601b03196001541617600155604051908152a1005b63cd4e616760e01b5f5260045ffd5b346103f5575f3660031901126103f557602060405160028152f35b60a03660031901126103f55760243560043560ff821682036103f557604435916001600160401b0383116103f5576125866117ee9336906004016106bd565b60643591612593836103e4565b6084359361259f613cc1565b6125a76131c2565b349533613d4e565b6001600160a01b03165f9081527f88be536d5240c274a3b1d3a1be54482fd9caa294f08c62a7cde569f49a3c45016020526040902090565b612617915f525f516020614eba5f395f51905f5260205260405f209060018060a01b03165f5260205260405f2090565b5490565b908060209392818452848401375f828201840152601f01601f1916010190565b634e487b7160e01b5f52601160045260245ffd5b906103e88202918083046103e8149015171561266757565b61263b565b8181029291811591840414171561266757565b939291906001600160a01b03851633811415806126b8575b61242a576001600160a01b03821615612417571561240557610406946147ae565b5060ff6126c833611c34896125af565b541615612697565b604051929160206126e181866109e0565b5f85526126ec6149ab565b6126f46149ab565b8451906001600160401b0382116109db57612725826127205f516020614f5a5f395f51905f525461218c565b612bed565b602090601f83116001146128075750816127c7939261275e926127e497985f926127fc575b50508160011b915f199060031b1c19161790565b5f516020614f5a5f395f51905f52555b6127766149ab565b61277e6149ab565b6127866149ab565b61278e6149ab565b6127978361356c565b506127a183613608565b506127ab836136c9565b506001600160601b036001549181199060601b16911617600155565b6127df60fa6001600160601b03196001541617600155565b6138bf565b6127ed60015f55565b6104066512309ce54000600555565b015190505f8061274a565b5f516020614f5a5f395f51905f525f52601f198316969091907ff429cb5e2ec84cbb765e76b31964a56ccde03e7a6122d6cc4afb19edc55edeed925f905b8982106128965750509183916001936127c796956127e4999a1061287e575b505050811b015f516020614f5a5f395f51905f525561276e565b01515f1960f88460031b161c191690555f8080612864565b80600185968294968601518155019501930190612845565b6020908260405193849283378101600381520301902090565b634e487b7160e01b5f52603260045260245ffd5b80518210156128ef5760209160051b010190565b6128c7565b9190918051835180820361297457505080519061291082610a11565b9161291e60405193846109e0565b80835261292d601f1991610a11565b013660208401375f5b815181101561296d578061295c60019260051b60208082870101519189010151906125e7565b61296682866128db565b5201612936565b5090925050565b635b05999160e01b5f5260045260245260445ffd5b998199612a23998786612a1b958f612a14899e9d9c9b9a998d8f6129f18e6129af613cc1565b6129b76131c2565b6129bf61394c565b9960ff6040519a8b97637f8f848560e11b60208a0152602489015216604487015260a0606487015260c486019161261b565b6001600160a01b03909216608484015260a483015203601f1981018552846109e0565b3493613aed565b349589613d4e565b604051600162707b7b60e11b031981526001600160a01b0391821692909116905f516020614e9a5f395f51905f5290602090a361040660015f516020614f1a5f395f51905f5255565b60038210156118695752565b90604051612a85816109bf565b60e0612b4160028395612ae4612adb825460018060a01b03811688526001600160401b03808260a01c16166020890152612ad2612ac78261ffff9060e01c1690565b61ffff1660408a0152565b60f01c60ff1690565b60608701612a6c565b612b3b612b2e6001830154612b12612b02826001600160601b031690565b6001600160601b031660808a0152565b63ffffffff606082901c1660a089015260801c63ffffffff1690565b63ffffffff1660c0870152565b016121c4565b910152565b3561057e8161248b565b903590601e19813603018212156103f557018035906001600160401b0382116103f5576020019181360383136103f557565b6001600160401b038116036103f557565b3561057e81612b82565b3561057e816103e4565b5f1981146126675760010190565b600311156103f557565b3561057e81612bb5565b90600381101561186957815460ff60f01b191660f09190911b60ff60f01b16179055565b601f8111612bf9575050565b5f516020614f5a5f395f51905f525f5260205f20906020601f840160051c83019310612c3f575b601f0160051c01905b818110612c34575050565b5f8155600101612c29565b9091508190612c20565b601f8211612c5657505050565b5f5260205f20906020601f840160051c83019310612c8e575b601f0160051c01905b818110612c83575050565b5f8155600101612c78565b9091508190612c6f565b91909182516001600160401b0381116109db57612cbf81612cb9845461218c565b84612c49565b6020601f8211600114612cf2578190612cee9394955f926127fc5750508160011b915f199060031b1c19161790565b9055565b601f19821690612d05845f5260205f2090565b915f5b818110612d3f57509583600195969710612d27575b505050811b019055565b01515f1960f88460031b161c191690555f8080612d1d565b9192602060018192868b015181550194019201612d08565b815181546020840151604085015161ffff60e01b60e091821b166001600160f01b03199093166001600160a01b039094169390931767ffffffffffffffff60a01b60a09290921b91909116171782556104069260029190612dc56060820151612dbf8161185f565b85612bc9565b612e6460018501612e04612de360808501516001600160601b031690565b82546bffffffffffffffffffffffff19166001600160601b03909116178255565b612e38612e1860a085015163ffffffff1690565b825463ffffffff60601b191660609190911b63ffffffff60601b16178255565b60c083015163ffffffff165b815463ffffffff60801b191660809190911b63ffffffff60801b16179055565b01519101612c98565b9190820391821161266757565b908210156128ef57610e669160051b810190612b50565b612eb361040692949360208660405197889583870137840101905f8252611f59565b03601f1981018452836109e0565b612eca5f610a85565b612ed760405191826109e0565b5f8152601f19612ee65f610a85565b01366020830137612ef683610a11565b92612f0460405194856109e0565b808452601f19612f1382610a11565b015f5b818110612f6c5750505f5b818110612f2f575050505090565b80612f50612f4a85612f44600195878a612e7a565b90612e91565b306145da565b612f5a82886128db565b52612f6581876128db565b5001612f21565b806060602080938901015201612f16565b9394612ff3919395612f8d6131c2565b612f9561394c565b966040850197612fe286612fa88b612b46565b611a40612fb86060840184612b50565b612fc760808693960183612b50565b91612fd560a0850185612b50565b95909460c0810190612b50565b8688612fed88614658565b92613c20565b610100810135936001600160601b038511611bf957602082019061ffff6001600160401b0361302184612b93565b1611611bea576101208301359563ffffffff8711611bdb5760e084016001600160a01b0361304e82612b9d565b16156131a65761305d90612b9d565b925b5f549761306b89612ba7565b5f556130778680612b50565b91909261308390612b93565b61ffff16936001600160601b03169063ffffffff16906130a66101408901612bbf565b6130ae610a01565b6001600160a01b0389168152956001600160401b034216602088015261ffff1660408701526130e09060608701612a6c565b6001600160601b0316608085015263ffffffff1660a0840152600160c0840152369061310b92610aa0565b60e0820152613122875f52600260205260405f2090565b9061312c91612d57565b856131378480612b50565b613140916128ae565b55613149611efe565b6131549087876141ec565b61315d90612b46565b61316890828761438d565b61317391848661445f565b60405163135002c160e31b81526001600160a01b0391821692909116905f516020614e9a5f395f51905f5290602090a390565b50859261305f565b60ff91611c346131bd926125af565b541690565b60ff5f516020614efa5f395f51905f5254166131da57565b63d93c066560e01b5f5260045ffd5b9792956132266001600160401b03976080999661321861324299959d9e9d6132349760a08f818152019161261b565b8c810360208e01529161261b565b9189830360408b015261261b565b91868303606088015261261b565b9416910152565b813591821580156133ee575b6106a35761326b835f52600260205260405f2090565b805490926001600160a01b039081169116036133df57602081019160406132928484612b50565b9050116133d057604082019060806132aa8385612b50565b9050116133c157606083016102006132c28286612b50565b9050116133b25760808401946101006132db8787612b50565b9050116133a35760a0850161ffff6001600160401b036132fa83612b93565b1611611bea577f56be70a00b3c61237e47a860e2543550d5541e2201d0c73dd3929f7afc592cf4966133789661338161338961336f6133919661336961339e9a61334d6133468a612b93565b61ffff1690565b815461ffff60e01b191660e09190911b61ffff60e01b16179055565b84612b50565b9a909984612b50565b92909784612b50565b949093612b50565b959094612b93565b95604051998a998a6131e9565b0390a2565b635064f3bf60e01b5f5260045ffd5b631f5482d760e21b5f5260045ffd5b6324a25c5760e01b5f5260045ffd5b631750ba0360e01b5f5260045ffd5b635e7e205b60e11b5f5260045ffd5b505f54831015613255565b335f9081527f75442b0a96088b5456bc4ed01394c96a4feec0f883c9494257d76b96ab1c9b6b602052604090205460ff161561343157565b63e2517d3f60e01b5f52336004527f65d7a28e3265b37a6474929f336521b332c1681b933f6cb9f3376673440d862a60245260445ffd5b335f9081527fab71e3f32666744d246edff3f96e4bdafee2e9867098cdd118a979a7464786a8602052604090205460ff16156134a057565b63e2517d3f60e01b5f52336004527f189ab7a9244df0848122154315af71fe140f3db0fe014031783b0946b8c9d2e360245260445ffd5b335f9081527fb7db2dd08fcb62d0c9e08c51941cae53c267786a0b75803fb7960902fc8ef97d602052604090205460ff161561350f57565b63e2517d3f60e01b5f52336004525f60245260445ffd5b5f8181525f516020614eda5f395f51905f526020908152604080832033845290915290205460ff16156135565750565b63e2517d3f60e01b5f523360045260245260445ffd5b6001600160a01b0381165f9081527fb7db2dd08fcb62d0c9e08c51941cae53c267786a0b75803fb7960902fc8ef97d602052604090205460ff16613603576001600160a01b03165f8181527fb7db2dd08fcb62d0c9e08c51941cae53c267786a0b75803fb7960902fc8ef97d60205260408120805460ff191660011790553391905f516020614e5a5f395f51905f528180a4600190565b505f90565b6001600160a01b0381165f9081527fab71e3f32666744d246edff3f96e4bdafee2e9867098cdd118a979a7464786a8602052604090205460ff16613603576001600160a01b0381165f9081527fab71e3f32666744d246edff3f96e4bdafee2e9867098cdd118a979a7464786a860205260409020805460ff1916600117905533906001600160a01b03167f189ab7a9244df0848122154315af71fe140f3db0fe014031783b0946b8c9d2e35f516020614e5a5f395f51905f525f80a4600190565b6001600160a01b0381165f9081527f75442b0a96088b5456bc4ed01394c96a4feec0f883c9494257d76b96ab1c9b6b602052604090205460ff16613603576001600160a01b0381165f9081527f75442b0a96088b5456bc4ed01394c96a4feec0f883c9494257d76b96ab1c9b6b60205260409020805460ff1916600117905533906001600160a01b03167f65d7a28e3265b37a6474929f336521b332c1681b933f6cb9f3376673440d862a5f516020614e5a5f395f51905f525f80a4600190565b5f8181525f516020614eda5f395f51905f52602090815260408083206001600160a01b038616845290915290205460ff16613819575f8181525f516020614eda5f395f51905f52602090815260408083206001600160a01b03861684529091529020805460ff1916600117905533916001600160a01b0316905f516020614e5a5f395f51905f525f80a4600190565b50505f90565b5f8181525f516020614eda5f395f51905f52602090815260408083206001600160a01b038616845290915290205460ff1615613819575f8181525f516020614eda5f395f51905f52602090815260408083206001600160a01b03861684529091529020805460ff1916905533916001600160a01b0316907ff6391f5c32d9c69d2a47ea670b442974b53935d1edc7fd64eb21e047a839171b5f80a4600190565b6001600160a01b0316801561391f57604051906138dd6040836109e0565b8082526101f46020909201919091526001600160a01b0316607d60a21b177fdaedc9ab023613a7caf35e703657e986ccfad7e3eb0af93a2853f8d65dd86b0055565b635b6cc80560e11b5f525f60045260245ffd5b908160209103126103f5575190565b6040513d5f823e3d90fd5b6004546001600160a01b031690811561396157565b63022fcd8560e61b5f5260045ffd5b908160209103126103f5575161057e8161119f565b60405163027f58e560e61b81526001600160a01b0392831660048201529190921660248201523060448201526331e1e60b60e11b60648201526101006084820152946020948694929385935f938593613a04936139e790610104870190610549565b928660a487015260c48601526003198584030160e486015261261b565b03926001600160a01b03165af1908115613a65575f91613a36575b5015613a2757565b6309fb5d8760e21b5f5260045ffd5b613a58915060203d602011613a5e575b613a5081836109e0565b810190613970565b5f613a1f565b503d613a46565b613941565b60405163027f58e560e61b81526001600160a01b03928316600482015291909216602482015230604482015263469e080560e11b60648201526101006084820152956020958795929486945f948694613a04949092909190613ad190610104880190610549565b9360a487015260c48601526003198584030160e486015261261b565b60405163027f58e560e61b81526001600160a01b039283166004820152919092166024820152306044820152600162707b7b60e11b031960648201526101006084820152956020958795929486945f948694613a04949092909190613ad190610104880190610549565b60405163027f58e560e61b81526001600160a01b039283166004820152919092166024820152306044820152636ffea07960e11b60648201526101006084820152956020958795929486945f948694613a04949092909190613ad190610104880190610549565b60405163027f58e560e61b81526001600160a01b0392831660048201529190921660248201523060448201526329e5919760e01b60648201526101006084820152946020948694929385935f938593613a04936139e790610104870190610549565b60405163027f58e560e61b81526001600160a01b03928316600482015291909216602482015230604482015263135002c160e31b60648201526101006084820152946020948694929385935f938593613a04936139e790610104870190610549565b60405192151583526001600160a01b03918216929116907f75a1fc5e2239f53dc8407b3712c878c5893431bc3c349ea3561584869670f7f290602090a3565b60025f516020614f1a5f395f51905f525414613cea5760025f516020614f1a5f395f51905f5255565b633ee5aeb560e01b5f5260045ffd5b3d15613d23573d90613d0a82610a85565b91613d1860405193846109e0565b82523d5f602084013e565b606090565b929493613d4260ff9260409460608752606087019161261b565b95602085015216910152565b929695919490955f548710156106a35760ff861660028111613f255761040086116107e35785158080613f1d575b80613f15575b613f065715928380613efb575b6116025785613db6613da98b5f52600260205260405f2090565b546001600160a01b031690565b9284613e18575b5050505050613dcf575b505050505050565b7f19a5aae49af5681d63d1a8c6ea9dc7b88af86e08d71ade984e2087fada0d4c4a93613e0a9160405194859460018060a01b03169885613d28565b0390a35f8080808080613dc7565b600203613eb1575050505f80808084613e45613e39613e3960015460601c90565b6001600160a01b031690565b5af1613e4f613cf9565b5015613ea2575b6040805160ff8816815260208101929092526001600160a01b0385169188917fc199635a11ffccf62419a83e03370cef9ba2a2c0a33d65c2fe60542bd560a0a991a35f80808581613dbd565b6312171d8360e31b5f5260045ffd5b82613ebf91613ec593614a78565b83614ac7565b9081613ed3575b5050613e56565b5f918291829182916001600160a01b03165af1613eee613cf9565b5015613ea2575f80613ecc565b506005548310613d8f565b630eb90eff60e01b5f5260045ffd5b508215613d82565b508115613d7c565b631556136560e01b5f5260045ffd5b90915f548310156106a357613f51835f52600260205260405f2090565b80546001906001600160a01b03169101805492613f7b606085901c63ffffffff1663ffffffff1690565b9384156140855763ffffffff608082901c169485101561407657613faf906001600160601b03165b6001600160601b031690565b8710614067578285613feb92613fd4613ff195612e448b99600163ffffffff91011690565b613fe6613fdf611efe565b88846141ec565b614a78565b86614ac7565b908161403c575b50506040805194855260208501919091526001600160a01b0391909116927ff6447f421186fdb05672b6b81ee863f6266ccf87f727fc67ed367774af8600659190a3565b5f9250829182918291906001600160a01b03165af1614059613cf9565b5015613ea257815f80613ff8565b63cd1c886760e01b5f5260045ffd5b63d05cb60960e01b5f5260045ffd5b635874ec2360e01b5f5260045ffd5b9193949092945f548410156106a3576001600160a01b0386168015614193578215611602576140e56140df8886946140d7613da98a5f52600260205260405f2090565b958691614b99565b84614ac7565b6140f96140f28260011c90565b8092612e6d565b928161416b575b50508161414e575b5050604080516001600160a01b039687168152602081019290925291909416937f37d3451d72bbbc5dc39c5c55aacb3b768d87ef17ab36990c4c60e96e6a0cf1459190a4565b5f80809381935af161415e613cf9565b5015613ea2575f80614108565b5f918291829182916001600160a01b03165af1614186613cf9565b5015613ea2575f80614100565b633e510d3960e21b5f5260045ffd5b91945050612710929495506001600160601b03915016116141dd576040106133d0576080106133c157610200106133b257610100106133a357565b63c2b03beb60e01b5f5260045ffd5b9291906001600160a01b0384161561241757600161422760405192600184526020840152604083019160018352606084015260808301604052565b9080518251908181036143785750506001600160a01b03851693841515935f5b83518110156142ac5780868960019360051b602080828a010151918a01015192614275575b50505001614247565b6142a291611c3461429a925f525f516020614eba5f395f51905f5260205260405f2090565b918254614bf3565b90555f898161426c565b509390959460018351145f1461433d576020838101518582015160408051928352928201525f9133917fc3d58168c5ae7397731d063d5bbf3d657854427343f4c083240f7aacaa2d0f629190a45b614305575b50505050565b805160010361432d579060208061432495930151910151915f33614dbb565b5f8080806142ff565b614338935f33614c8d565b614324565b5f6040517f4a39dc06d4c0dbc64b70af90fd698a233a518aa5d07e595d983b8c0526c8f7fb339180614370898983614c00565b0390a46142fa565b635b05999160e01b5f5260045260245260445ffd5b92916001600160601b03166127108111614443576001600160a01b0382161561442c57610406929361440491604051936143c86040866109e0565b60018060a01b0316845260208401525f527fdaedc9ab023613a7caf35e703657e986ccfad7e3eb0af93a2853f8d65dd86b0160205260405f2090565b815160209092015160a01b6001600160a01b0319166001600160a01b03909216919091179055565b83634b4f842960e11b5f526004525f60245260445ffd5b8363dfd1fc1b60e01b5f5260045260245261271060445260645ffd5b909291602081013561447081612b82565b61447a8280612b50565b9190926060810161448b9082612b50565b919061449a6080830183612b50565b906144a860a0850185612b50565b6144b560c0870187612b50565b93909461010088013596610120890135986101400135996144d58b612bb5565b6040519d8e9d8e610120815261012001906144ef9261261b565b908d80830390602001526145029261261b565b908b820360408d01526145149261261b565b9089820360608b01526145269261261b565b9087820360808901526145389261261b565b6001600160a01b0390981660a086015260c085015260e08401526145619061010084019061187d565b6001600160401b0316946001600160a01b0316937f95359e54d698b898ab88ef0d801cc726eabf745c6331f52b758c8f732988c6799291900390a4565b9035601e19823603018112156103f55701602081359101916001600160401b0382116103f55781360383136103f557565b359061040682612b82565b905f8091602081519101845af4808061463a575b156145fd57505061057e614bda565b1561462257639996b31560e01b5f9081526001600160a01b0391909116600452602490fd5b3d15155f036139415763d6bda27560e01b5f5260045ffd5b503d1515806145ee5750813b15156145ee565b359061040682612bb5565b61057e604051809263135002c160e31b6020830152602060248301526106226147a36101406147646147446147256147066146a9614696898061459e565b61016060448d01526101a48c019161261b565b6146c86146b860208b016145cf565b6001600160401b031660648c0152565b6146e76146d760408b0161249c565b6001600160601b031660848c0152565b6146f460608a018a61459e565b8b83036043190160a48d01529061261b565b614713608089018961459e565b8a83036043190160c48c01529061261b565b61473260a088018861459e565b8983036043190160e48b01529061261b565b61475160c087018761459e565b888303604319016101048a01529061261b565b9361478561477460e08301610408565b6001600160a01b0316610124880152565b6101008101356101448701526101208101356101648701520161464d565b61018484019061187d565b94939290919384518251908181036143785750506001600160a01b038681169586151595918516801515939192905f5b84518110156148de578060051b90898988602080868b010151958c01015192614843575b93600194614814575b505050016147de565b61483991611c3461429a925f525f516020614eba5f395f51905f5260205260405f2090565b90555f898161480b565b505090916148698d611c34835f525f516020614eba5f395f51905f5260205260405f2090565b548281106148a7578291898f61489e600197968f950391611c34855f525f516020614eba5f395f51905f5260205260405f2090565b55909450614802565b6040516303dee4c560e01b81526001600160a01b038f16600482015260248101919091526044810183905260648101829052608490fd5b5091989593929790965060018851145f146149715760208881015186820151604080519283529282015233917fc3d58168c5ae7397731d063d5bbf3d657854427343f4c083240f7aacaa2d0f6291a45b61493a575b5050505050565b8451600103614960576020806149569601519201519233614dbb565b5f80808080614933565b61496c94919233614c8d565b614956565b6040517f4a39dc06d4c0dbc64b70af90fd698a233a518aa5d07e595d983b8c0526c8f7fb3391806149a3898d83614c00565b0390a461492e565b60ff5f516020614f3a5f395f51905f525460401c16156149c757565b631afcd79f60e31b5f5260045ffd5b90813b15614a57575f516020614e7a5f395f51905f5280546001600160a01b0319166001600160a01b0384169081179091557fbc7cd75a20ee27fd9adebab32041f755214dbc6bffa90cc0225b39da2e5c2d3b5f80a2805115614a3f57614a3c916145da565b50565b505034614a4857565b63b398979f60e01b5f5260045ffd5b50634c9c8ce360e01b5f9081526001600160a01b0391909116600452602490fd5b916001600160a01b0383168015929091908315614ab4575b508215614aa1575b50506136035790565b6001600160a01b03161490505f80614a98565b6001600160a01b0316821492505f614a90565b6001549190614aea61094f614ae46001600160601b038616613fa3565b8361266c565b916001600160a01b03168015614b915782614b0761094f8461264f565b945b81614b65575b505083614b1d575b50030390565b5f80808087855af1614b2d613cf9565b5015613ea2576040518481527f6292f4f27d8047af4537a4bd86906de0e2c880c20086f7f58b81eacfeb63912690602090a25f614b17565b5f808093614b7a613e39613e39849660601c90565b5af1614b84613cf9565b5015613ea257825f614b0f565b825f94614b09565b926001600160a01b03841680159390928415614bc7575b508315614ab457508215614aa15750506136035790565b6001600160a01b0316831493505f614bb0565b604051903d82523d5f602084013e60203d830101604052565b9190820180921161266757565b9091614c1761057e93604084526040840190610e83565b916020818403910152610e83565b908160209103126103f5575161057e8161046c565b6001600160a01b0391821681529116602082015260a06040820181905261057e9491939192614c7f9291614c719190860190610e83565b908482036060860152610e83565b916080818403910152610549565b9091949293853b614ca057505050505050565b602093614cc291604051968795869563bc197c8160e01b875260048701614c3a565b03815f6001600160a01b0387165af15f9181614d51575b50614d135750614ce7613cf9565b8051919082614d0c57632bfa23e760e11b5f526001600160a01b03821660045260245ffd5b6020915001fd5b6001600160e01b0319166343e6837f60e01b01614d3657505f8080808080613dc7565b632bfa23e760e11b5f526001600160a01b031660045260245ffd5b614d7491925060203d602011614d7b575b614d6c81836109e0565b810190614c25565b905f614cd9565b503d614d62565b6001600160a01b039182168152911660208201526040810191909152606081019190915260a06080820181905261057e92910190610549565b9091949293853b614dce57505050505050565b602093614df091604051968795869563f23a6e6160e01b875260048701614d82565b03815f6001600160a01b0387165af15f9181614e38575b50614e155750614ce7613cf9565b6001600160e01b031916630dc5919f60e01b01614d3657505f8080808080613dc7565b614e5291925060203d602011614d7b57614d6c81836109e0565b905f614e0756fe2f8788117e7eff1d82e926ec794901d17c78024a50270940304540a733656f0d360894a13ba1a3210667c828492db98dca3e2076cc3735a920a3ca505d382bbce915025b6f599b245c9c1c02d463228c896354d64dceb469760c99544153be6d88be536d5240c274a3b1d3a1be54482fd9caa294f08c62a7cde569f49a3c450002dd7bc7dec4dceedda775e58dd541e08a116c6c53815c0bd028192f7b626800cd5ed15c6e187e77e9aee88184c21f4f2182ab5827cb3b7e07fbedcd63f033009b779b17422d0df92223018b32b4d1fa46e071723d6817e2486d003becc55f00f0c57e16840df040f15088dc2f81fe391c3923bec73e23a9662efc9c229c6a0088be536d5240c274a3b1d3a1be54482fd9caa294f08c62a7cde569f49a3c4502a2646970667358221220baea54133c8e93c2ef92825ff470eb8bbd9b5caa28a22ff8872db111f15e058464736f6c634300081e0033f0c57e16840df040f15088dc2f81fe391c3923bec73e23a9662efc9c229c6a00","linkReferences":{}},"methodIdentifiers":{"DEFAULT_ADMIN_ROLE()":"a217fddf","MAX_AVATAR_LENGTH()":"1fe9d578","MAX_BIO_LENGTH()":"c477d7f7","MAX_COMMENT_LENGTH()":"5856e4fa","MAX_KEYWORDS_LENGTH()":"60f30280","MAX_NICKNAME_LENGTH()":"e8f100bf","MAX_ORIGINAL_AUTHOR_LENGTH()":"19e94a6e","MAX_SUMMARY_LENGTH()":"544b5e61","MAX_TITLE_LENGTH()":"2ef9a160","PAUSER_ROLE()":"e63ab1e9","SCORE_DISLIKE()":"fde84719","SCORE_LIKE()":"e1d90b34","SCORE_NEUTRAL()":"473106b2","UPGRADER_ROLE()":"f72c0d8b","UPGRADE_INTERFACE_VERSION()":"ad3cb1cc","articles(uint256)":"edcfafe6","arweaveIdToArticleId(string)":"b055d7aa","balanceOf(address,uint256)":"00fdd58e","balanceOfBatch(address[],uint256[])":"4e1273f4","collect(uint256,address)":"8d3c100a","collectWithSessionKey(address,address,uint256,address,uint256,bytes)":"795146ef","editArticle((uint256,string,string,string,string,uint64))":"29e59197","editArticleWithSessionKey(address,address,(uint256,string,string,string,string,uint64),uint256,bytes)":"a2bd5360","evaluate(uint256,uint8,string,address,uint256)":"ff1f090a","evaluateWithSessionKey(address,address,uint256,uint8,string,address,uint256,uint256,bytes)":"63c4ea4d","follow(address,bool)":"63c3cc16","followWithSessionKey(address,address,address,bool,uint256,bytes)":"5780400b","getArticleByArweaveId(string)":"989cfb57","getArticleIdByArweaveId(string)":"4b65f344","getRoleAdmin(bytes32)":"248a9ca3","grantRole(bytes32,address)":"2f2ff15d","hasRole(bytes32,address)":"91d14854","initialize(address,address)":"485cc955","isApprovedForAll(address,address)":"e985e9c5","likeComment(uint256,uint256,address,address)":"dffd40f2","likeCommentWithSessionKey(address,address,uint256,uint256,address,address,uint256,bytes)":"79c61f28","minActionValue()":"8cbd215e","multicall(bytes[])":"ac9650d8","nextArticleId()":"85c3ab54","pause()":"8456cb59","paused()":"5c975abb","platformFeeBps()":"22dcd13e","platformTreasury()":"e138818c","proxiableUUID()":"52d1902d","publish((string,uint64,uint96,string,string,string,string,address,uint256,uint256,uint8))":"9a801608","publishWithSessionKey(address,address,(string,uint64,uint96,string,string,string,string,address,uint256,uint256,uint8),uint256,bytes)":"bb9b1181","renounceRole(bytes32,address)":"36568abe","revokeRole(bytes32,address)":"d547741f","royaltyInfo(uint256,uint256)":"2a55205a","safeBatchTransferFrom(address,address,uint256[],uint256[],bytes)":"2eb2c2d6","safeTransferFrom(address,address,uint256,uint256,bytes)":"f242432a","sessionKeyManager()":"0b826190","setApprovalForAll(address,bool)":"a22cb465","setMinActionValue(uint256)":"52cbd3be","setPlatformFee(uint96)":"f99e5dbb","setPlatformTreasury(address)":"7cd86d60","setSessionKeyManager(address)":"837fa3fd","supportsInterface(bytes4)":"01ffc9a7","unpause()":"3f4ba83a","updateProfile(string,string,string)":"1105a5eb","upgradeToAndCall(address,bytes)":"4f1ef286","uri(uint256)":"0e89341c"},"id":62}