{"abi":[{"type":"constructor","inputs":[],"stateMutability":"nonpayable"},{"type":"function","name":"DEFAULT_ADMIN_ROLE","inputs":[],"outputs":[{"name":"","type":"bytes32","internalType":"bytes32"}],"stateMutability":"view"},{"type":"function","name":"MAX_AVATAR_LENGTH","inputs":[],"outputs":[{"name":"","type":"uint256","internalType":"uint256"}],"stateMutability":"view"},{"type":"function","name":"MAX_BIO_LENGTH","inputs":[],"outputs":[{"name":"","type":"uint256","internalType":"uint256"}],"stateMutability":"view"},{"type":"function","name":"MAX_COMMENT_LENGTH","inputs":[],"outputs":[{"name":"","type":"uint256","internalType":"uint256"}],"stateMutability":"view"},{"type":"function","name":"MAX_NICKNAME_LENGTH","inputs":[],"outputs":[{"name":"","type":"uint256","internalType":"uint256"}],"stateMutability":"view"},{"type":"function","name":"MAX_ORIGINAL_AUTHOR_LENGTH","inputs":[],"outputs":[{"name":"","type":"uint256","internalType":"uint256"}],"stateMutability":"view"},{"type":"function","name":"MAX_SUMMARY_LENGTH","inputs":[],"outputs":[{"name":"","type":"uint256","internalType":"uint256"}],"stateMutability":"view"},{"type":"function","name":"MAX_TITLE_LENGTH","inputs":[],"outputs":[{"name":"","type":"uint256","internalType":"uint256"}],"stateMutability":"view"},{"type":"function","name":"PAUSER_ROLE","inputs":[],"outputs":[{"name":"","type":"bytes32","internalType":"bytes32"}],"stateMutability":"view"},{"type":"function","name":"SCORE_DISLIKE","inputs":[],"outputs":[{"name":"","type":"uint8","internalType":"uint8"}],"stateMutability":"view"},{"type":"function","name":"SCORE_LIKE","inputs":[],"outputs":[{"name":"","type":"uint8","internalType":"uint8"}],"stateMutability":"view"},{"type":"function","name":"SCORE_NEUTRAL","inputs":[],"outputs":[{"name":"","type":"uint8","internalType":"uint8"}],"stateMutability":"view"},{"type":"function","name":"UPGRADER_ROLE","inputs":[],"outputs":[{"name":"","type":"bytes32","internalType":"bytes32"}],"stateMutability":"view"},{"type":"function","name":"UPGRADE_INTERFACE_VERSION","inputs":[],"outputs":[{"name":"","type":"string","internalType":"string"}],"stateMutability":"view"},{"type":"function","name":"articles","inputs":[{"name":"","type":"uint256","internalType":"uint256"}],"outputs":[{"name":"author","type":"address","internalType":"address"},{"name":"timestamp","type":"uint64","internalType":"uint64"},{"name":"categoryId","type":"uint16","internalType":"uint16"},{"name":"originality","type":"uint8","internalType":"enum BlogHub.Originality"},{"name":"collectPrice","type":"uint96","internalType":"uint96"},{"name":"maxCollectSupply","type":"uint32","internalType":"uint32"},{"name":"collectCount","type":"uint32","internalType":"uint32"},{"name":"arweaveHash","type":"string","internalType":"string"}],"stateMutability":"view"},{"type":"function","name":"arweaveIdToArticleId","inputs":[{"name":"","type":"string","internalType":"string"}],"outputs":[{"name":"","type":"uint256","internalType":"uint256"}],"stateMutability":"view"},{"type":"function","name":"balanceOf","inputs":[{"name":"account","type":"address","internalType":"address"},{"name":"id","type":"uint256","internalType":"uint256"}],"outputs":[{"name":"","type":"uint256","internalType":"uint256"}],"stateMutability":"view"},{"type":"function","name":"balanceOfBatch","inputs":[{"name":"accounts","type":"address[]","internalType":"address[]"},{"name":"ids","type":"uint256[]","internalType":"uint256[]"}],"outputs":[{"name":"","type":"uint256[]","internalType":"uint256[]"}],"stateMutability":"view"},{"type":"function","name":"collect","inputs":[{"name":"_articleId","type":"uint256","internalType":"uint256"},{"name":"_referrer","type":"address","internalType":"address"}],"outputs":[],"stateMutability":"payable"},{"type":"function","name":"collectWithSessionKey","inputs":[{"name":"owner","type":"address","internalType":"address"},{"name":"sessionKey","type":"address","internalType":"address"},{"name":"_articleId","type":"uint256","internalType":"uint256"},{"name":"_referrer","type":"address","internalType":"address"},{"name":"deadline","type":"uint256","internalType":"uint256"},{"name":"signature","type":"bytes","internalType":"bytes"}],"outputs":[],"stateMutability":"payable"},{"type":"function","name":"editArticle","inputs":[{"name":"params","type":"tuple","internalType":"struct BlogHub.EditArticleParams","components":[{"name":"articleId","type":"uint256","internalType":"uint256"},{"name":"originalAuthor","type":"string","internalType":"string"},{"name":"title","type":"string","internalType":"string"},{"name":"summary","type":"string","internalType":"string"},{"name":"categoryId","type":"uint64","internalType":"uint64"}]}],"outputs":[],"stateMutability":"nonpayable"},{"type":"function","name":"editArticleWithSessionKey","inputs":[{"name":"owner","type":"address","internalType":"address"},{"name":"sessionKey","type":"address","internalType":"address"},{"name":"params","type":"tuple","internalType":"struct BlogHub.EditArticleParams","components":[{"name":"articleId","type":"uint256","internalType":"uint256"},{"name":"originalAuthor","type":"string","internalType":"string"},{"name":"title","type":"string","internalType":"string"},{"name":"summary","type":"string","internalType":"string"},{"name":"categoryId","type":"uint64","internalType":"uint64"}]},{"name":"deadline","type":"uint256","internalType":"uint256"},{"name":"signature","type":"bytes","internalType":"bytes"}],"outputs":[],"stateMutability":"nonpayable"},{"type":"function","name":"evaluate","inputs":[{"name":"_articleId","type":"uint256","internalType":"uint256"},{"name":"_score","type":"uint8","internalType":"uint8"},{"name":"_content","type":"string","internalType":"string"},{"name":"_referrer","type":"address","internalType":"address"},{"name":"_parentCommentId","type":"uint256","internalType":"uint256"}],"outputs":[],"stateMutability":"payable"},{"type":"function","name":"evaluateWithSessionKey","inputs":[{"name":"owner","type":"address","internalType":"address"},{"name":"sessionKey","type":"address","internalType":"address"},{"name":"_articleId","type":"uint256","internalType":"uint256"},{"name":"_score","type":"uint8","internalType":"uint8"},{"name":"_content","type":"string","internalType":"string"},{"name":"_referrer","type":"address","internalType":"address"},{"name":"_parentCommentId","type":"uint256","internalType":"uint256"},{"name":"deadline","type":"uint256","internalType":"uint256"},{"name":"signature","type":"bytes","internalType":"bytes"}],"outputs":[],"stateMutability":"payable"},{"type":"function","name":"follow","inputs":[{"name":"_target","type":"address","internalType":"address"},{"name":"_status","type":"bool","internalType":"bool"}],"outputs":[],"stateMutability":"nonpayable"},{"type":"function","name":"followWithSessionKey","inputs":[{"name":"owner","type":"address","internalType":"address"},{"name":"sessionKey","type":"address","internalType":"address"},{"name":"_target","type":"address","internalType":"address"},{"name":"_status","type":"bool","internalType":"bool"},{"name":"deadline","type":"uint256","internalType":"uint256"},{"name":"signature","type":"bytes","internalType":"bytes"}],"outputs":[],"stateMutability":"nonpayable"},{"type":"function","name":"getArticleByArweaveId","inputs":[{"name":"_arweaveId","type":"string","internalType":"string"}],"outputs":[{"name":"","type":"tuple","internalType":"struct BlogHub.Article","components":[{"name":"author","type":"address","internalType":"address"},{"name":"timestamp","type":"uint64","internalType":"uint64"},{"name":"categoryId","type":"uint16","internalType":"uint16"},{"name":"originality","type":"uint8","internalType":"enum BlogHub.Originality"},{"name":"collectPrice","type":"uint96","internalType":"uint96"},{"name":"maxCollectSupply","type":"uint32","internalType":"uint32"},{"name":"collectCount","type":"uint32","internalType":"uint32"},{"name":"arweaveHash","type":"string","internalType":"string"}]}],"stateMutability":"view"},{"type":"function","name":"getArticleIdByArweaveId","inputs":[{"name":"_arweaveId","type":"string","internalType":"string"}],"outputs":[{"name":"","type":"uint256","internalType":"uint256"}],"stateMutability":"view"},{"type":"function","name":"getRoleAdmin","inputs":[{"name":"role","type":"bytes32","internalType":"bytes32"}],"outputs":[{"name":"","type":"bytes32","internalType":"bytes32"}],"stateMutability":"view"},{"type":"function","name":"grantRole","inputs":[{"name":"role","type":"bytes32","internalType":"bytes32"},{"name":"account","type":"address","internalType":"address"}],"outputs":[],"stateMutability":"nonpayable"},{"type":"function","name":"hasRole","inputs":[{"name":"role","type":"bytes32","internalType":"bytes32"},{"name":"account","type":"address","internalType":"address"}],"outputs":[{"name":"","type":"bool","internalType":"bool"}],"stateMutability":"view"},{"type":"function","name":"initialize","inputs":[{"name":"_initialOwner","type":"address","internalType":"address"},{"name":"_treasury","type":"address","internalType":"address"}],"outputs":[],"stateMutability":"nonpayable"},{"type":"function","name":"isApprovedForAll","inputs":[{"name":"account","type":"address","internalType":"address"},{"name":"operator","type":"address","internalType":"address"}],"outputs":[{"name":"","type":"bool","internalType":"bool"}],"stateMutability":"view"},{"type":"function","name":"likeComment","inputs":[{"name":"_articleId","type":"uint256","internalType":"uint256"},{"name":"_commentId","type":"uint256","internalType":"uint256"},{"name":"_commenter","type":"address","internalType":"address"},{"name":"_referrer","type":"address","internalType":"address"}],"outputs":[],"stateMutability":"payable"},{"type":"function","name":"likeCommentWithSessionKey","inputs":[{"name":"owner","type":"address","internalType":"address"},{"name":"sessionKey","type":"address","internalType":"address"},{"name":"_articleId","type":"uint256","internalType":"uint256"},{"name":"_commentId","type":"uint256","internalType":"uint256"},{"name":"_commenter","type":"address","internalType":"address"},{"name":"_referrer","type":"address","internalType":"address"},{"name":"deadline","type":"uint256","internalType":"uint256"},{"name":"signature","type":"bytes","internalType":"bytes"}],"outputs":[],"stateMutability":"payable"},{"type":"function","name":"minActionValue","inputs":[],"outputs":[{"name":"","type":"uint256","internalType":"uint256"}],"stateMutability":"view"},{"type":"function","name":"multicall","inputs":[{"name":"data","type":"bytes[]","internalType":"bytes[]"}],"outputs":[{"name":"results","type":"bytes[]","internalType":"bytes[]"}],"stateMutability":"nonpayable"},{"type":"function","name":"nextArticleId","inputs":[],"outputs":[{"name":"","type":"uint256","internalType":"uint256"}],"stateMutability":"view"},{"type":"function","name":"pause","inputs":[],"outputs":[],"stateMutability":"nonpayable"},{"type":"function","name":"paused","inputs":[],"outputs":[{"name":"","type":"bool","internalType":"bool"}],"stateMutability":"view"},{"type":"function","name":"platformFeeBps","inputs":[],"outputs":[{"name":"","type":"uint96","internalType":"uint96"}],"stateMutability":"view"},{"type":"function","name":"platformTreasury","inputs":[],"outputs":[{"name":"","type":"address","internalType":"address"}],"stateMutability":"view"},{"type":"function","name":"proxiableUUID","inputs":[],"outputs":[{"name":"","type":"bytes32","internalType":"bytes32"}],"stateMutability":"view"},{"type":"function","name":"publish","inputs":[{"name":"params","type":"tuple","internalType":"struct BlogHub.PublishParams","components":[{"name":"arweaveId","type":"string","internalType":"string"},{"name":"categoryId","type":"uint64","internalType":"uint64"},{"name":"royaltyBps","type":"uint96","internalType":"uint96"},{"name":"originalAuthor","type":"string","internalType":"string"},{"name":"title","type":"string","internalType":"string"},{"name":"summary","type":"string","internalType":"string"},{"name":"trueAuthor","type":"address","internalType":"address"},{"name":"collectPrice","type":"uint256","internalType":"uint256"},{"name":"maxCollectSupply","type":"uint256","internalType":"uint256"},{"name":"originality","type":"uint8","internalType":"enum BlogHub.Originality"}]}],"outputs":[{"name":"","type":"uint256","internalType":"uint256"}],"stateMutability":"nonpayable"},{"type":"function","name":"publishWithSessionKey","inputs":[{"name":"owner","type":"address","internalType":"address"},{"name":"sessionKey","type":"address","internalType":"address"},{"name":"params","type":"tuple","internalType":"struct BlogHub.PublishParams","components":[{"name":"arweaveId","type":"string","internalType":"string"},{"name":"categoryId","type":"uint64","internalType":"uint64"},{"name":"royaltyBps","type":"uint96","internalType":"uint96"},{"name":"originalAuthor","type":"string","internalType":"string"},{"name":"title","type":"string","internalType":"string"},{"name":"summary","type":"string","internalType":"string"},{"name":"trueAuthor","type":"address","internalType":"address"},{"name":"collectPrice","type":"uint256","internalType":"uint256"},{"name":"maxCollectSupply","type":"uint256","internalType":"uint256"},{"name":"originality","type":"uint8","internalType":"enum BlogHub.Originality"}]},{"name":"deadline","type":"uint256","internalType":"uint256"},{"name":"signature","type":"bytes","internalType":"bytes"}],"outputs":[{"name":"","type":"uint256","internalType":"uint256"}],"stateMutability":"nonpayable"},{"type":"function","name":"renounceRole","inputs":[{"name":"role","type":"bytes32","internalType":"bytes32"},{"name":"callerConfirmation","type":"address","internalType":"address"}],"outputs":[],"stateMutability":"nonpayable"},{"type":"function","name":"revokeRole","inputs":[{"name":"role","type":"bytes32","internalType":"bytes32"},{"name":"account","type":"address","internalType":"address"}],"outputs":[],"stateMutability":"nonpayable"},{"type":"function","name":"royaltyInfo","inputs":[{"name":"tokenId","type":"uint256","internalType":"uint256"},{"name":"salePrice","type":"uint256","internalType":"uint256"}],"outputs":[{"name":"receiver","type":"address","internalType":"address"},{"name":"amount","type":"uint256","internalType":"uint256"}],"stateMutability":"view"},{"type":"function","name":"safeBatchTransferFrom","inputs":[{"name":"from","type":"address","internalType":"address"},{"name":"to","type":"address","internalType":"address"},{"name":"ids","type":"uint256[]","internalType":"uint256[]"},{"name":"values","type":"uint256[]","internalType":"uint256[]"},{"name":"data","type":"bytes","internalType":"bytes"}],"outputs":[],"stateMutability":"nonpayable"},{"type":"function","name":"safeTransferFrom","inputs":[{"name":"from","type":"address","internalType":"address"},{"name":"to","type":"address","internalType":"address"},{"name":"id","type":"uint256","internalType":"uint256"},{"name":"value","type":"uint256","internalType":"uint256"},{"name":"data","type":"bytes","internalType":"bytes"}],"outputs":[],"stateMutability":"nonpayable"},{"type":"function","name":"sessionKeyManager","inputs":[],"outputs":[{"name":"","type":"address","internalType":"contract ISessionKeyManager"}],"stateMutability":"view"},{"type":"function","name":"setApprovalForAll","inputs":[{"name":"operator","type":"address","internalType":"address"},{"name":"approved","type":"bool","internalType":"bool"}],"outputs":[],"stateMutability":"nonpayable"},{"type":"function","name":"setMinActionValue","inputs":[{"name":"_minActionValue","type":"uint256","internalType":"uint256"}],"outputs":[],"stateMutability":"nonpayable"},{"type":"function","name":"setPlatformFee","inputs":[{"name":"_feeBps","type":"uint96","internalType":"uint96"}],"outputs":[],"stateMutability":"nonpayable"},{"type":"function","name":"setPlatformTreasury","inputs":[{"name":"_treasury","type":"address","internalType":"address"}],"outputs":[],"stateMutability":"nonpayable"},{"type":"function","name":"setSessionKeyManager","inputs":[{"name":"_sessionKeyManager","type":"address","internalType":"address"}],"outputs":[],"stateMutability":"nonpayable"},{"type":"function","name":"supportsInterface","inputs":[{"name":"interfaceId","type":"bytes4","internalType":"bytes4"}],"outputs":[{"name":"","type":"bool","internalType":"bool"}],"stateMutability":"view"},{"type":"function","name":"unpause","inputs":[],"outputs":[],"stateMutability":"nonpayable"},{"type":"function","name":"updateProfile","inputs":[{"name":"_nickname","type":"string","internalType":"string"},{"name":"_avatar","type":"string","internalType":"string"},{"name":"_bio","type":"string","internalType":"string"}],"outputs":[],"stateMutability":"nonpayable"},{"type":"function","name":"upgradeToAndCall","inputs":[{"name":"newImplementation","type":"address","internalType":"address"},{"name":"data","type":"bytes","internalType":"bytes"}],"outputs":[],"stateMutability":"payable"},{"type":"function","name":"uri","inputs":[{"name":"_id","type":"uint256","internalType":"uint256"}],"outputs":[{"name":"","type":"string","internalType":"string"}],"stateMutability":"view"},{"type":"event","name":"ApprovalForAll","inputs":[{"name":"account","type":"address","indexed":true,"internalType":"address"},{"name":"operator","type":"address","indexed":true,"internalType":"address"},{"name":"approved","type":"bool","indexed":false,"internalType":"bool"}],"anonymous":false},{"type":"event","name":"ArticleCollected","inputs":[{"name":"articleId","type":"uint256","indexed":true,"internalType":"uint256"},{"name":"collector","type":"address","indexed":true,"internalType":"address"},{"name":"amount","type":"uint256","indexed":false,"internalType":"uint256"},{"name":"tokenId","type":"uint256","indexed":false,"internalType":"uint256"}],"anonymous":false},{"type":"event","name":"ArticleEdited","inputs":[{"name":"articleId","type":"uint256","indexed":true,"internalType":"uint256"},{"name":"originalAuthor","type":"string","indexed":false,"internalType":"string"},{"name":"title","type":"string","indexed":false,"internalType":"string"},{"name":"summary","type":"string","indexed":false,"internalType":"string"},{"name":"categoryId","type":"uint64","indexed":false,"internalType":"uint64"}],"anonymous":false},{"type":"event","name":"ArticleEvaluated","inputs":[{"name":"articleId","type":"uint256","indexed":true,"internalType":"uint256"},{"name":"user","type":"address","indexed":true,"internalType":"address"},{"name":"score","type":"uint8","indexed":false,"internalType":"uint8"},{"name":"amountPaid","type":"uint256","indexed":false,"internalType":"uint256"}],"anonymous":false},{"type":"event","name":"ArticlePublished","inputs":[{"name":"articleId","type":"uint256","indexed":true,"internalType":"uint256"},{"name":"author","type":"address","indexed":true,"internalType":"address"},{"name":"categoryId","type":"uint256","indexed":true,"internalType":"uint256"},{"name":"arweaveId","type":"string","indexed":false,"internalType":"string"},{"name":"originalAuthor","type":"string","indexed":false,"internalType":"string"},{"name":"title","type":"string","indexed":false,"internalType":"string"},{"name":"summary","type":"string","indexed":false,"internalType":"string"},{"name":"collectPrice","type":"uint256","indexed":false,"internalType":"uint256"},{"name":"maxCollectSupply","type":"uint256","indexed":false,"internalType":"uint256"},{"name":"originality","type":"uint8","indexed":false,"internalType":"enum BlogHub.Originality"}],"anonymous":false},{"type":"event","name":"CommentAdded","inputs":[{"name":"articleId","type":"uint256","indexed":true,"internalType":"uint256"},{"name":"commenter","type":"address","indexed":true,"internalType":"address"},{"name":"content","type":"string","indexed":false,"internalType":"string"},{"name":"parentCommentId","type":"uint256","indexed":false,"internalType":"uint256"},{"name":"score","type":"uint8","indexed":false,"internalType":"uint8"}],"anonymous":false},{"type":"event","name":"CommentLiked","inputs":[{"name":"articleId","type":"uint256","indexed":true,"internalType":"uint256"},{"name":"commentId","type":"uint256","indexed":true,"internalType":"uint256"},{"name":"liker","type":"address","indexed":true,"internalType":"address"},{"name":"commenter","type":"address","indexed":false,"internalType":"address"},{"name":"amountPaid","type":"uint256","indexed":false,"internalType":"uint256"}],"anonymous":false},{"type":"event","name":"FollowStatusChanged","inputs":[{"name":"follower","type":"address","indexed":true,"internalType":"address"},{"name":"target","type":"address","indexed":true,"internalType":"address"},{"name":"isFollowing","type":"bool","indexed":false,"internalType":"bool"}],"anonymous":false},{"type":"event","name":"Initialized","inputs":[{"name":"version","type":"uint64","indexed":false,"internalType":"uint64"}],"anonymous":false},{"type":"event","name":"MinActionValueUpdated","inputs":[{"name":"newValue","type":"uint256","indexed":false,"internalType":"uint256"}],"anonymous":false},{"type":"event","name":"Paused","inputs":[{"name":"account","type":"address","indexed":false,"internalType":"address"}],"anonymous":false},{"type":"event","name":"PlatformFeeUpdated","inputs":[{"name":"newFeeBps","type":"uint96","indexed":false,"internalType":"uint96"}],"anonymous":false},{"type":"event","name":"ReferralPaid","inputs":[{"name":"referrer","type":"address","indexed":true,"internalType":"address"},{"name":"amount","type":"uint256","indexed":false,"internalType":"uint256"}],"anonymous":false},{"type":"event","name":"RoleAdminChanged","inputs":[{"name":"role","type":"bytes32","indexed":true,"internalType":"bytes32"},{"name":"previousAdminRole","type":"bytes32","indexed":true,"internalType":"bytes32"},{"name":"newAdminRole","type":"bytes32","indexed":true,"internalType":"bytes32"}],"anonymous":false},{"type":"event","name":"RoleGranted","inputs":[{"name":"role","type":"bytes32","indexed":true,"internalType":"bytes32"},{"name":"account","type":"address","indexed":true,"internalType":"address"},{"name":"sender","type":"address","indexed":true,"internalType":"address"}],"anonymous":false},{"type":"event","name":"RoleRevoked","inputs":[{"name":"role","type":"bytes32","indexed":true,"internalType":"bytes32"},{"name":"account","type":"address","indexed":true,"internalType":"address"},{"name":"sender","type":"address","indexed":true,"internalType":"address"}],"anonymous":false},{"type":"event","name":"SessionKeyManagerUpdated","inputs":[{"name":"newManager","type":"address","indexed":true,"internalType":"address"}],"anonymous":false},{"type":"event","name":"SessionKeyOperationExecuted","inputs":[{"name":"owner","type":"address","indexed":true,"internalType":"address"},{"name":"sessionKey","type":"address","indexed":true,"internalType":"address"},{"name":"selector","type":"bytes4","indexed":false,"internalType":"bytes4"}],"anonymous":false},{"type":"event","name":"TransferBatch","inputs":[{"name":"operator","type":"address","indexed":true,"internalType":"address"},{"name":"from","type":"address","indexed":true,"internalType":"address"},{"name":"to","type":"address","indexed":true,"internalType":"address"},{"name":"ids","type":"uint256[]","indexed":false,"internalType":"uint256[]"},{"name":"values","type":"uint256[]","indexed":false,"internalType":"uint256[]"}],"anonymous":false},{"type":"event","name":"TransferSingle","inputs":[{"name":"operator","type":"address","indexed":true,"internalType":"address"},{"name":"from","type":"address","indexed":true,"internalType":"address"},{"name":"to","type":"address","indexed":true,"internalType":"address"},{"name":"id","type":"uint256","indexed":false,"internalType":"uint256"},{"name":"value","type":"uint256","indexed":false,"internalType":"uint256"}],"anonymous":false},{"type":"event","name":"TreasuryUpdated","inputs":[{"name":"newTreasury","type":"address","indexed":false,"internalType":"address"}],"anonymous":false},{"type":"event","name":"URI","inputs":[{"name":"value","type":"string","indexed":false,"internalType":"string"},{"name":"id","type":"uint256","indexed":true,"internalType":"uint256"}],"anonymous":false},{"type":"event","name":"Unpaused","inputs":[{"name":"account","type":"address","indexed":false,"internalType":"address"}],"anonymous":false},{"type":"event","name":"Upgraded","inputs":[{"name":"implementation","type":"address","indexed":true,"internalType":"address"}],"anonymous":false},{"type":"event","name":"UserProfileUpdated","inputs":[{"name":"user","type":"address","indexed":true,"internalType":"address"},{"name":"nickname","type":"string","indexed":false,"internalType":"string"},{"name":"avatar","type":"string","indexed":false,"internalType":"string"},{"name":"bio","type":"string","indexed":false,"internalType":"string"}],"anonymous":false},{"type":"error","name":"AccessControlBadConfirmation","inputs":[]},{"type":"error","name":"AccessControlUnauthorizedAccount","inputs":[{"name":"account","type":"address","internalType":"address"},{"name":"neededRole","type":"bytes32","internalType":"bytes32"}]},{"type":"error","name":"AddressEmptyCode","inputs":[{"name":"target","type":"address","internalType":"address"}]},{"type":"error","name":"ArticleNotFound","inputs":[]},{"type":"error","name":"CategoryIdTooHigh","inputs":[]},{"type":"error","name":"CollectNotEnabled","inputs":[]},{"type":"error","name":"CollectPriceTooHigh","inputs":[]},{"type":"error","name":"ContentRequiredForScore","inputs":[]},{"type":"error","name":"ERC1155InsufficientBalance","inputs":[{"name":"sender","type":"address","internalType":"address"},{"name":"balance","type":"uint256","internalType":"uint256"},{"name":"needed","type":"uint256","internalType":"uint256"},{"name":"tokenId","type":"uint256","internalType":"uint256"}]},{"type":"error","name":"ERC1155InvalidApprover","inputs":[{"name":"approver","type":"address","internalType":"address"}]},{"type":"error","name":"ERC1155InvalidArrayLength","inputs":[{"name":"idsLength","type":"uint256","internalType":"uint256"},{"name":"valuesLength","type":"uint256","internalType":"uint256"}]},{"type":"error","name":"ERC1155InvalidOperator","inputs":[{"name":"operator","type":"address","internalType":"address"}]},{"type":"error","name":"ERC1155InvalidReceiver","inputs":[{"name":"receiver","type":"address","internalType":"address"}]},{"type":"error","name":"ERC1155InvalidSender","inputs":[{"name":"sender","type":"address","internalType":"address"}]},{"type":"error","name":"ERC1155MissingApprovalForAll","inputs":[{"name":"operator","type":"address","internalType":"address"},{"name":"owner","type":"address","internalType":"address"}]},{"type":"error","name":"ERC1967InvalidImplementation","inputs":[{"name":"implementation","type":"address","internalType":"address"}]},{"type":"error","name":"ERC1967NonPayable","inputs":[]},{"type":"error","name":"ERC2981InvalidDefaultRoyalty","inputs":[{"name":"numerator","type":"uint256","internalType":"uint256"},{"name":"denominator","type":"uint256","internalType":"uint256"}]},{"type":"error","name":"ERC2981InvalidDefaultRoyaltyReceiver","inputs":[{"name":"receiver","type":"address","internalType":"address"}]},{"type":"error","name":"ERC2981InvalidTokenRoyalty","inputs":[{"name":"tokenId","type":"uint256","internalType":"uint256"},{"name":"numerator","type":"uint256","internalType":"uint256"},{"name":"denominator","type":"uint256","internalType":"uint256"}]},{"type":"error","name":"ERC2981InvalidTokenRoyaltyReceiver","inputs":[{"name":"tokenId","type":"uint256","internalType":"uint256"},{"name":"receiver","type":"address","internalType":"address"}]},{"type":"error","name":"EnforcedPause","inputs":[]},{"type":"error","name":"ExpectedPause","inputs":[]},{"type":"error","name":"FailedCall","inputs":[]},{"type":"error","name":"FeeTooHigh","inputs":[]},{"type":"error","name":"InsufficientPayment","inputs":[]},{"type":"error","name":"InvalidAddress","inputs":[]},{"type":"error","name":"InvalidCommenter","inputs":[]},{"type":"error","name":"InvalidInitialization","inputs":[]},{"type":"error","name":"InvalidLength","inputs":[]},{"type":"error","name":"InvalidScore","inputs":[]},{"type":"error","name":"MaxCollectSupplyTooHigh","inputs":[]},{"type":"error","name":"MaxSupplyReached","inputs":[]},{"type":"error","name":"NotArticleAuthor","inputs":[]},{"type":"error","name":"NotInitializing","inputs":[]},{"type":"error","name":"OriginalAuthorTooLong","inputs":[]},{"type":"error","name":"ReentrancyGuardReentrantCall","inputs":[]},{"type":"error","name":"RoyaltyTooHigh","inputs":[]},{"type":"error","name":"SessionKeyManagerNotSet","inputs":[]},{"type":"error","name":"SessionKeyValidationFailed","inputs":[]},{"type":"error","name":"SpamProtection","inputs":[]},{"type":"error","name":"SummaryTooLong","inputs":[]},{"type":"error","name":"TitleTooLong","inputs":[]},{"type":"error","name":"TransferFailed","inputs":[]},{"type":"error","name":"UUPSUnauthorizedCallContext","inputs":[]},{"type":"error","name":"UUPSUnsupportedProxiableUUID","inputs":[{"name":"slot","type":"bytes32","internalType":"bytes32"}]}],"bytecode":{"object":"0x60a080604052346100e65760017f9b779b17422d0df92223018b32b4d1fa46e071723d6817e2486d003becc55f0055306080525f516020614de35f395f51905f525460ff8160401c166100d7576002600160401b03196001600160401b03821601610084575b604051614cf890816100eb823960805181818161109201526112060152f35b6001600160401b0319166001600160401b039081175f516020614de35f395f51905f525581527fc7f505b2f371ae2175ee4913f4499e1f2633a7b5936321eed1cdaeb6115181d290602090a15f80610065565b63f92ee8a960e01b5f5260045ffd5b5f80fdfe60806040526004361015610011575f80fd5b5f3560e01c8062fdd58e146103d457806301ffc9a7146103cf578063060d752c146103ca5780630b826190146103c55780630e89341c146103c05780631105a5eb146103bb57806319e94a6e146102df5780631fe9d578146103a257806322dcd13e146103b6578063248a9ca3146103b15780632a55205a146103ac5780632eb2c2d6146103a75780632ef9a160146103a25780632f2ff15d1461039d57806336568abe146103985780633f4ba83a14610393578063473106b21461031b578063485cc9551461038e5780634b65f344146103895780634c0e8045146103845780634e1273f41461037f5780634f1ef2861461037a57806352cbd3be1461037557806352d1902d14610370578063544b5e611461036b5780635780400b146103665780635856e4fa146103615780635c975abb1461035c57806363c3cc161461035757806363c4ea4d14610352578063795146ef1461034d57806379c61f28146103485780637cd86d6014610343578063837fa3fd1461033e5780638456cb591461033957806385c3ab54146103345780638cbd215e1461032f5780638d3c100a1461032a57806391d1485414610325578063989cfb5714610320578063a217fddf1461031b578063a22cb46514610316578063ac9650d814610311578063ad3cb1cc1461030c578063b055d7aa14610307578063b259ecde14610302578063c477d7f7146102fd578063d547741f146102f8578063dffd40f2146102f3578063e138818c146102ee578063e1d90b34146102e9578063e63ab1e9146102e4578063e8f100bf146102df578063e985e9c5146102da578063edcfafe6146102d5578063f242432a146102d0578063f72c0d8b146102cb578063f7714a98146102c6578063f99e5dbb146102c1578063fde84719146102bc5763ff1f090a146102b7575f80fd5b6123bf565b6123a4565b61231f565b612189565b61214f565b612053565b611fca565b611e6b565b610882565b611e31565b611e16565b611df6565b611db0565b611d63565b611d47565b611d06565b611c8a565b611c31565b611bb1565b611ac0565b610cdc565b611a34565b611916565b6118cd565b6118b0565b611894565b611823565b6117b7565b611726565b6115ea565b6114ed565b61145b565b611408565b6113b5565b611399565b611271565b61124b565b6111f4565b6111a8565b611050565b610f8f565b610ec4565b610eab565b610d1b565b610c5e565b610c16565b610bc4565b61089d565b610b30565b61091d565b6108de565b6108b8565b61077a565b610642565b6105e2565b610552565b610473565b610408565b6001600160a01b038116036103ea57565b5f80fd5b60a435906103fb826103d9565b565b35906103fb826103d9565b346103ea5760403660031901126103ea57602061045860043561042a816103d9565b6024355f525f516020614c035f395f51905f52835260405f209060018060a01b03165f5260205260405f2090565b54604051908152f35b6001600160e01b03198116036103ea57565b346103ea5760203660031901126103ea5760043561049081610461565b63ffffffff60e01b16637965db0b60e01b81149081156104b9575b506040519015158152602090f35b63152a902d60e11b8114915081156104d3575b505f6104ab565b636cdb3d1360e11b811491508115610505575b81156104f4575b505f6104cc565b6301ffc9a760e01b1490505f6104ed565b6303a24d0760e21b811491506104e6565b90816101409103126103ea5790565b9181601f840112156103ea578235916001600160401b0383116103ea57602083818601950101116103ea57565b346103ea5760a03660031901126103ea5760043561056f816103d9565b6024359061057c826103d9565b6044356001600160401b0381116103ea5761059b903690600401610516565b91608435916064356001600160401b0384116103ea576105de946105c66105ce953690600401610525565b949093612493565b6040519081529081906020820190565b0390f35b346103ea575f3660031901126103ea576004546040516001600160a01b039091168152602090f35b805180835260209291819084018484015e5f828201840152601f01601f1916010190565b90602061063f92818152019061060a565b90565b346103ea5760203660031901126103ea576004358015801561076f575b610760575f526002602052600260405f20016040517f68747470733a2f2f676174657761792e697279732e78797a2f6d757461626c656020820152602f60f81b60408201525f918054906106b282611e8a565b916001811690811561073957506001146106fd575b680bda5b99195e0b9b5960ba1b84526105de836106f181600988015b03601f198101835282610a1f565b6040519182918261062e565b9092505f5260205f205f905b838210610722575050908101604101906106f1816106c7565b600181602092546041858701015201910190610709565b60ff1916604180860191909152831515909302840190920193506106f191508290506106c7565b63522e582d60e11b5f5260045ffd5b505f5481101561065f565b346103ea5760603660031901126103ea576004356001600160401b0381116103ea576107aa903690600401610525565b906024356001600160401b0381116103ea576107ca903690600401610525565b9190926044356001600160401b0381116103ea576107ec903690600401610525565b6107f7959195612d46565b6040831161087357608085116108735761010081116108735761085e61086e927f198eb8de772c5a42c31d10ea779636d74f5a7cd2633012f88632697fae910db4966108506040519788976060895260608901916126dd565b9186830360208801526126dd565b90838203604085015233966126dd565b0390a2005b63251f56a160e21b5f5260045ffd5b346103ea575f3660031901126103ea57602060405160408152f35b346103ea575f3660031901126103ea57602060405160808152f35b346103ea575f3660031901126103ea5760206001600160601b0360015416604051908152f35b346103ea5760203660031901126103ea5760206109156004355f525f516020614c235f395f51905f52602052600160405f20015490565b604051908152f35b346103ea5760403660031901126103ea576004355f9081527fdaedc9ab023613a7caf35e703657e986ccfad7e3eb0af93a2853f8d65dd86b0160205260409020546001600160a01b038116906024359060a01c82156109b3575b610996916001600160601b0361098e921690612742565b612710900490565b604080516001600160a01b03939093168352602083019190915290f35b507fdaedc9ab023613a7caf35e703657e986ccfad7e3eb0af93a2853f8d65dd86b00546001600160a01b038116925060a01c610977565b634e487b7160e01b5f52604160045260245ffd5b61010081019081106001600160401b03821117610a1a57604052565b6109ea565b90601f801991011681019081106001600160401b03821117610a1a57604052565b604051906103fb61010083610a1f565b6001600160401b038111610a1a5760051b60200190565b9080601f830112156103ea578135610a7e81610a50565b92610a8c6040519485610a1f565b81845260208085019260051b8201019283116103ea57602001905b828210610ab45750505090565b8135815260209182019101610aa7565b6001600160401b038111610a1a57601f01601f191660200190565b929192610aeb82610ac4565b91610af96040519384610a1f565b8294818452818301116103ea578281602093845f960137010152565b9080601f830112156103ea5781602061063f93359101610adf565b346103ea5760a03660031901126103ea57600435610b4d816103d9565b60243590610b5a826103d9565b6044356001600160401b0381116103ea57610b79903690600401610a67565b6064356001600160401b0381116103ea57610b98903690600401610a67565b90608435936001600160401b0385116103ea57610bbc610bc2953690600401610b15565b9361275a565b005b346103ea5760403660031901126103ea57610bc2602435600435610be7826103d9565b610c11610c0c825f525f516020614c235f395f51905f52602052600160405f20015490565b613795565b6139f9565b346103ea5760403660031901126103ea57600435602435610c36816103d9565b336001600160a01b03821603610c4f57610bc291613a8e565b63334bd91960e11b5f5260045ffd5b346103ea575f3660031901126103ea57610c76613668565b5f516020614c435f395f51905f525460ff811615610ccd5760ff19165f516020614c435f395f51905f52557f5db9ee0a495bf2e6ff9c91a7834c1ba4fdd244a5e8aa4e537bd38aeae4b073aa6020604051338152a1005b638dfc202b60e01b5f5260045ffd5b346103ea575f3660031901126103ea5760206040515f8152f35b60409060031901126103ea57600435610d0e816103d9565b9060243561063f816103d9565b346103ea57610d2936610cf6565b5f516020614c835f395f51905f525491906001600160401b03610d5b60ff604086901c1615946001600160401b031690565b1680159081610e75575b6001149081610e6b575b159081610e62575b50610e5357610dba9183610db160016001600160401b03195f516020614c835f395f51905f525416175f516020614c835f395f51905f5255565b610e19576127ab565b610dc057005b610dea60ff60401b195f516020614c835f395f51905f5254165f516020614c835f395f51905f5255565b604051600181527fc7f505b2f371ae2175ee4913f4499e1f2633a7b5936321eed1cdaeb6115181d290602090a1005b610e4e6801000000000000000060ff60401b195f516020614c835f395f51905f525416175f516020614c835f395f51905f5255565b6127ab565b63f92ee8a960e01b5f5260045ffd5b9050155f610d77565b303b159150610d6f565b849150610d65565b60206003198201126103ea57600435906001600160401b0382116103ea57610ea791600401610525565b9091565b346103ea576020610458610ebe36610e7d565b9061298a565b346103ea5760203660031901126103ea576004356001600160401b0381116103ea57610915610ef96020923690600401610516565b610f01612d46565b610f456040820135610f1281612303565b610f1f606084018461267a565b610f2f608086949394018661267a565b91610f3d60a088018861267a565b959094612d91565b33613417565b90602080835192838152019201905f5b818110610f685750505090565b8251845260209384019390920191600101610f5b565b90602061063f928181520190610f4b565b346103ea5760403660031901126103ea576004356001600160401b0381116103ea57366023820112156103ea57806004013590610fcb82610a50565b91610fd96040519384610a1f565b8083526024602084019160051b830101913683116103ea57602401905b82821061103657836024356001600160401b0381116103ea576105de9161102461102a923690600401610a67565b906129d0565b60405191829182610f7e565b602080918335611045816103d9565b815201910190610ff6565b60403660031901126103ea57600435611068816103d9565b6024356001600160401b0381116103ea57611087903690600401610b15565b906001600160a01b037f000000000000000000000000000000000000000000000000000000000000000016308114908115611186575b50611177576110ca6136d7565b6040516352d1902d60e01b8152916020836004816001600160a01b0386165afa5f9381611146575b5061111357634c9c8ce360e01b5f526001600160a01b03821660045260245ffd5b905f516020614bc35f395f51905f52830361113257610bc292506146a0565b632a87526960e21b5f52600483905260245ffd5b61116991945060203d602011611170575b6111618183610a1f565b810190613ba1565b925f6110f2565b503d611157565b63703e46dd60e11b5f5260045ffd5b5f516020614bc35f395f51905f52546001600160a01b0316141590505f6110bd565b346103ea5760203660031901126103ea577ffcae2461302da2a86e3604d10afc558dc160d49eb88bc010c4bca093793857ff60206004356111e7613746565b80600555604051908152a1005b346103ea575f3660031901126103ea577f00000000000000000000000000000000000000000000000000000000000000006001600160a01b031630036111775760206040515f516020614bc35f395f51905f528152f35b346103ea575f3660031901126103ea5760206040516102008152f35b801515036103ea57565b346103ea5760c03660031901126103ea5760043561128e816103d9565b6024359061129b826103d9565b6044356112a7816103d9565b606435906112b482611267565b60843560a435936001600160401b0385116103ea576113537f75a1fc5e2239f53dc8407b3712c878c5893431bc3c349ea3561584869670f7f2926112fe6020973690600401610525565b91611307612d46565b61130f612d6d565b6040516331e1e60b60e11b8b8201526001600160a01b03909816602489018190529815156044808a01829052895297908b90879061134e606485610a1f565b612de2565b6040519283526001600160a01b0316938492a36040516331e1e60b60e11b81526001600160a01b03909216915f516020614be35f395f51905f529080602081015b0390a3005b346103ea575f3660031901126103ea5760206040516104008152f35b346103ea575f3660031901126103ea57602060ff5f516020614c435f395f51905f5254166040519015158152f35b60409060031901126103ea576004356113fb816103d9565b9060243561063f81611267565b346103ea57611416366113e3565b9061141f612d46565b60405191151582526001600160a01b03169033907f75a1fc5e2239f53dc8407b3712c878c5893431bc3c349ea3561584869670f7f290602090a3005b6101203660031901126103ea57600435611474816103d9565b602435611480816103d9565b6044359160643560ff811681036103ea576084356001600160401b0381116103ea576114b0903690600401610525565b6114b86103ee565b9060c4359260e4359461010435986001600160401b038a116103ea576114e5610bc29a3690600401610525565b999098612a65565b60c03660031901126103ea57600435611505816103d9565b602435611511816103d9565b606435604435611520826103d9565b6084359160a4356001600160401b0381116103ea576115a79361154a61159f923690600401610525565b91611553613bb0565b61155b612d46565b611563612d6d565b60405163469e080560e11b6020820152602481018890526001600160a01b038716604482015261159681606481016106e3565b898b3493612ec7565b349185613dad565b60405163469e080560e11b81526001600160a01b0391821692909116905f516020614be35f395f51905f5290602090a360015f516020614c635f395f51905f5255005b6101003660031901126103ea57600435611603816103d9565b60243561160f816103d9565b606435604435608435611621816103d9565b60a4359061162e826103d9565b60c4359360e4356001600160401b0381116103ea57611651903690600401610525565b61165c969196613bb0565b611664612d46565b3415611717576116d1966116c99261167a612d6d565b604051636ffea07960e11b6020820152602481018a9052604481018790526001600160a01b038881166064830152891660848083019190915281526116c060a482610a1f565b8b8d3493613016565b349387613ed2565b604051636ffea07960e11b81526001600160a01b0391821692909116905f516020614be35f395f51905f5290602090a3610bc260015f516020614c635f395f51905f5255565b633f7d56c960e11b5f5260045ffd5b346103ea5760203660031901126103ea57600435611743816103d9565b61174b613746565b6001600160a01b0381169081156117a8577f7dae230f18360d76a040c81f050aa14eb9d6dc7901b20fc5d855e2a20fe814d19161179f6020926001600160601b036001549181199060601b16911617600155565b604051908152a1005b63e6c4247b60e01b5f5260045ffd5b346103ea5760203660031901126103ea576004356117d4816103d9565b6117dc613746565b6001600160a01b031680156117a857600480546001600160a01b031916821790557f4d57218e59793e6845c36a961c3af7acfce8c54b13a697da231466fc265fdb615f80a2005b346103ea575f3660031901126103ea5761183b613668565b611843612d46565b600160ff195f516020614c435f395f51905f525416175f516020614c435f395f51905f52557f62e78cea01bee320cd4e420270b5ea74000d11b0c9f74754ebdbfc544b05a2586020604051338152a1005b346103ea575f3660031901126103ea5760205f54604051908152f35b346103ea575f3660031901126103ea576020600554604051908152f35b60403660031901126103ea576119036004356024356118eb816103d9565b6118f3613bb0565b6118fb612d46565b349133613dad565b60015f516020614c635f395f51905f5255005b346103ea5760403660031901126103ea57602060ff61196860243560043561193d826103d9565b5f525f516020614c235f395f51905f52845260405f209060018060a01b03165f5260205260405f2090565b54166040519015158152f35b6003111561197e57565b634e487b7160e01b5f52602160045260245ffd5b90600382101561197e5752565b602080825282516001600160a01b0316828201528201516001600160401b031660408083019190915282015161ffff16606082015261063f916101209060e0906119f160608201516080860190611992565b60808101516001600160601b031660a085015260a081015163ffffffff1660c085015260c081015163ffffffff168483015201519161010080820152019061060a565b346103ea576020611a4436610e7d565b9190606060e0604051611a56816109fe565b5f81525f858201525f60408201525f838201525f60808201525f60a08201525f60c082015201528260405193849283378101600381520301902054801561076057611ab4611aaf6105de925f52600260205260405f2090565b612b54565b6040519182918261199f565b346103ea57611ace366113e3565b6001600160a01b038216918215611b4057611b0190611aec33612427565b9060018060a01b03165f5260205260405f2090565b9015159060ff1981541660ff83161790556040519081527f17307eab39ab6107e8899845ad3d59bd9653f200f220920489ca2b5937696c3160203392a3005b62ced3e160e81b5f525f60045260245ffd5b602081016020825282518091526040820191602060408360051b8301019401925f915b838310611b8457505050505090565b9091929394602080611ba2600193603f19868203018752895161060a565b97019301930191939290611b75565b346103ea5760203660031901126103ea576004356001600160401b0381116103ea57366023820112156103ea578060040135906001600160401b0382116103ea573660248360051b830101116103ea576105de916024611c119201612c76565b60405191829182611b52565b60405190611c2c602083610a1f565b5f8252565b346103ea575f3660031901126103ea576105de604051611c52604082610a1f565b60058152640352e302e360dc1b602082015260405191829160208352602083019061060a565b805191908290602001825e015f815290565b346103ea5760203660031901126103ea576004356001600160401b0381116103ea57366023820112156103ea57611cdf6020611cd36105de933690602481600401359101610adf565b60405192838092611c78565b6003815203019020546040519081529081906020820190565b908160a09103126103ea5790565b346103ea5760203660031901126103ea576004356001600160401b0381116103ea57611d39610bc2913690600401611cf8565b611d41612d46565b33614077565b346103ea575f3660031901126103ea5760206040516101008152f35b346103ea5760403660031901126103ea57610bc2602435600435611d86826103d9565b611dab610c0c825f525f516020614c235f395f51905f52602052600160405f20015490565b613a8e565b60803660031901126103ea57611903600435602435604435611dd1816103d9565b60643591611dde836103d9565b611de6613bb0565b611dee612d46565b349333613ed2565b346103ea575f3660031901126103ea57602060015460601c604051908152f35b346103ea575f3660031901126103ea57602060405160018152f35b346103ea575f3660031901126103ea5760206040517f65d7a28e3265b37a6474929f336521b332c1681b933f6cb9f3376673440d862a8152f35b346103ea57602060ff611968611aec611e8336610cf6565b9190612427565b90600182811c92168015611eb8575b6020831014611ea457565b634e487b7160e01b5f52602260045260245ffd5b91607f1691611e99565b9060405191825f825492611ed584611e8a565b8084529360018116908115611f3e5750600114611efa575b506103fb92500383610a1f565b90505f9291925260205f20905f915b818310611f225750509060206103fb928201015f611eed565b6020919350806001915483858901015201910190918492611f09565b9050602092506103fb94915060ff191682840152151560051b8201015f611eed565b946001600160601b0390611fab63ffffffff9661ffff61063f9c9b976001600160401b038a986101009d9860018060a01b03168d521660208c01521660408a01526060890190611992565b1660808601521660a08401521660c08201528160e0820152019061060a565b346103ea5760203660031901126103ea576004355f52600260205260405f208054906105de612000600260018401549301611ec2565b604051938363ffffffff869560801c16916001600160601b0363ffffffff8360601c1692169060ff8160f01c169061ffff8160e01c16906001600160401b038160a01c169060018060a01b031689611f60565b346103ea5760a03660031901126103ea57600435612070816103d9565b60243561207c816103d9565b60443590606435926084356001600160401b0381116103ea576120a3903690600401610b15565b926001600160a01b038216338114158061213e575b612128576001600160a01b03841615612115571561210357610bc2946120fb60405192600184526020840152604083019160018352606084015260808301604052565b929091614478565b626a0d4560e21b5f525f60045260245ffd5b632bfa23e760e11b5f525f60045260245ffd5b63711bec9160e11b5f523360045260245260445ffd5b506121493384612d32565b156120b8565b346103ea575f3660031901126103ea5760206040517f189ab7a9244df0848122154315af71fe140f3db0fe014031783b0946b8c9d2e38152f35b346103ea5760a03660031901126103ea576004356121a6816103d9565b6024356121b2816103d9565b6044356001600160401b0381116103ea576121d1903690600401611cf8565b606435906084356001600160401b0381116103ea576122cd926121fb6122c7923690600401610525565b91612204612d46565b61220c612d6d565b87896040519263592cf66f60e11b602085015260206024850152883560448501526122c2846122986122798c61226761225c61224b60208401846126ac565b60a0606489015260e48801916126dd565b9160408101906126ac565b858303604319016084870152906126dd565b61228660608e018e6126ac565b8483036043190160a4860152906126dd565b6001600160401b0360808d01356122ae816126fd565b1660c483015203601f198101865285610a1f565b61307d565b83614077565b60405163592cf66f60e11b81526001600160a01b0391821692909116905f516020614be35f395f51905f52908060208101611394565b6001600160601b038116036103ea57565b35906103fb82612303565b346103ea5760203660031901126103ea576001600160601b0360043561234481612303565b61234c613746565b16610bb88111612395576020817f7cb8fa1ce2fc1ff6556e563c0dcba551db7cdeb3f3b0911243692639ac80e94d926001600160601b03196001541617600155604051908152a1005b63cd4e616760e01b5f5260045ffd5b346103ea575f3660031901126103ea57602060405160028152f35b60a03660031901126103ea5760243560043560ff821682036103ea57604435916001600160401b0383116103ea576123fe611903933690600401610525565b6064359161240b836103d9565b60843593612417613bb0565b61241f612d46565b349533613c0e565b6001600160a01b03165f9081527f88be536d5240c274a3b1d3a1be54482fd9caa294f08c62a7cde569f49a3c45016020526040902090565b61248f915f525f516020614c035f395f51905f5260205260405f209060018060a01b03165f5260205260405f2090565b5490565b939490949291926124a2612d46565b6124aa612d6d565b926040850187878235926124bd84612303565b8860608101946124cd868361267a565b9060808401926124dd848661267a565b9060a0870196876124ed9161267a565b946124f9969194612d91565b8a604051968794634c0e804560e01b6020870152602486016020905261251f83806126ac565b604488016101409052610184880190612537926126dd565b926020016125449061270e565b6001600160401b0316606487015261255b90612314565b6001600160601b03166084860152612573908d6126ac565b8583036043190160a487015261258992916126dd565b90612594908c6126ac565b8483036043190160c48601526125aa92916126dd565b906125b5908b6126ac565b8383036043190160e48501526125cb92916126dd565b6125d760c08b016103fd565b6001600160a01b031661010483015260e08a01356101248301526101008a013561014483015261260a6101208b01612723565b610164830161261891611992565b03601f198101845261262a9084610a1f565b61263396612f4a565b61263d9082613417565b604051634c0e804560e01b815290926001600160a01b039081169216905f516020614be35f395f51905f5290602090a390565b3561063f81612303565b903590601e19813603018212156103ea57018035906001600160401b0382116103ea576020019181360383136103ea57565b9035601e19823603018112156103ea5701602081359101916001600160401b0382116103ea5781360383136103ea57565b908060209392818452848401375f828201840152601f01601f1916010190565b6001600160401b038116036103ea57565b35906103fb826126fd565b600311156103ea57565b35906103fb82612719565b634e487b7160e01b5f52601160045260245ffd5b8181029291811591840414171561275557565b61272e565b939291906001600160a01b0385163381141580612793575b612128576001600160a01b038216156121155715612103576103fb94614478565b5060ff6127a333611aec89612427565b541615612772565b604051929160206127bc8186610a1f565b5f85526127c7614675565b6127cf614675565b8451906001600160401b038211610a1a57612800826127fb5f516020614ca35f395f51905f5254611e8a565b61312f565b602090601f83116001146128e35750816128a29392612839926128c097985f926128d8575b50508160011b915f199060031b1c19161790565b5f516020614ca35f395f51905f52555b612851614675565b612859614675565b612861614675565b612869614675565b612872836137db565b5061287c83613877565b5061288683613938565b506001600160601b036001549181199060601b16911617600155565b6128bb6103e86001600160601b03196001541617600155565b613b2e565b6128c960015f55565b6103fb6512309ce54000600555565b015190505f80612825565b5f516020614ca35f395f51905f525f52601f198316969091907ff429cb5e2ec84cbb765e76b31964a56ccde03e7a6122d6cc4afb19edc55edeed925f905b8982106129725750509183916001936128a296956128c0999a1061295a575b505050811b015f516020614ca35f395f51905f5255612849565b01515f1960f88460031b161c191690555f8080612940565b80600185968294968601518155019501930190612921565b6020908260405193849283378101600381520301902090565b634e487b7160e01b5f52603260045260245ffd5b80518210156129cb5760209160051b010190565b6129a3565b91909180518351808203612a505750508051906129ec82610a50565b916129fa6040519384610a1f565b808352612a09601f1991610a50565b013660208401375f5b8151811015612a495780612a3860019260051b602080828701015191890101519061245f565b612a4282866129b7565b5201612a12565b5090925050565b635b05999160e01b5f5260045260245260445ffd5b998199612aff998786612af7958f612af0899e9d9c9b9a998d8f612acd8e612a8b613bb0565b612a93612d46565b612a9b612d6d565b9960ff6040519a8b97637f8f848560e11b60208a0152602489015216604487015260a0606487015260c48601916126dd565b6001600160a01b03909216608484015260a483015203601f198101855284610a1f565b3493612fac565b349589613c0e565b604051600162707b7b60e11b031981526001600160a01b0391821692909116905f516020614be35f395f51905f5290602090a36103fb60015f516020614c635f395f51905f5255565b600382101561197e5752565b90604051612b61816109fe565b60e0612c1d60028395612bc0612bb7825460018060a01b03811688526001600160401b03808260a01c16166020890152612bae612ba38261ffff9060e01c1690565b61ffff1660408a0152565b60f01c60ff1690565b60608701612b48565b612c17612c0a6001830154612bee612bde826001600160601b031690565b6001600160601b031660808a0152565b63ffffffff606082901c1660a089015260801c63ffffffff1690565b63ffffffff1660c0870152565b01611ec2565b910152565b9190820391821161275557565b908210156129cb57610ea79160051b81019061267a565b612c686103fb92949360208660405197889583870137840101905f8252611c78565b03601f198101845283610a1f565b612c7f5f610ac4565b612c8c6040519182610a1f565b5f8152601f19612c9b5f610ac4565b01366020830137612cab83610a50565b92612cb96040519485610a1f565b808452601f19612cc882610a50565b015f5b818110612d215750505f5b818110612ce4575050505090565b80612d05612cff85612cf9600195878a612c2f565b90612c46565b30613fb6565b612d0f82886129b7565b52612d1a81876129b7565b5001612cd6565b806060602080938901015201612ccb565b60ff91611aec612d4192612427565b541690565b60ff5f516020614c435f395f51905f525416612d5e57565b63d93c066560e01b5f5260045ffd5b6004546001600160a01b0316908115612d8257565b63022fcd8560e61b5f5260045ffd5b6001600160601b0361271091979695949392971611612db3576103fb956141ba565b63c2b03beb60e01b5f5260045ffd5b908160209103126103ea575161063f81611267565b6040513d5f823e3d90fd5b60405163027f58e560e61b81526001600160a01b0392831660048201529190921660248201523060448201526331e1e60b60e11b60648201526101006084820152946020948694929385935f938593612e6193612e449061010487019061060a565b928660a487015260c48601526003198584030160e48601526126dd565b03926001600160a01b03165af1908115612ec2575f91612e93575b5015612e8457565b6309fb5d8760e21b5f5260045ffd5b612eb5915060203d602011612ebb575b612ead8183610a1f565b810190612dc2565b5f612e7c565b503d612ea3565b612dd7565b60405163027f58e560e61b81526001600160a01b03928316600482015291909216602482015230604482015263469e080560e11b60648201526101006084820152956020958795929486945f948694612e61949092909190612f2e9061010488019061060a565b9360a487015260c48601526003198584030160e48601526126dd565b60405163027f58e560e61b81526001600160a01b039283166004820152919092166024820152306044820152634c0e804560e01b60648201526101006084820152946020948694929385935f938593612e6193612e449061010487019061060a565b60405163027f58e560e61b81526001600160a01b039283166004820152919092166024820152306044820152600162707b7b60e11b031960648201526101006084820152956020958795929486945f948694612e61949092909190612f2e9061010488019061060a565b60405163027f58e560e61b81526001600160a01b039283166004820152919092166024820152306044820152636ffea07960e11b60648201526101006084820152956020958795929486945f948694612e61949092909190612f2e9061010488019061060a565b60405163027f58e560e61b81526001600160a01b03928316600482015291909216602482015230604482015263592cf66f60e11b60648201526101006084820152946020948694929385935f938593612e6193612e449061010487019061060a565b3561063f816126fd565b3561063f816103d9565b5f1981146127555760010190565b3561063f81612719565b90600381101561197e57815460ff60f01b191660f09190911b60ff60f01b16179055565b601f811161313b575050565b5f516020614ca35f395f51905f525f5260205f20906020601f840160051c83019310613181575b601f0160051c01905b818110613176575050565b5f815560010161316b565b9091508190613162565b601f821161319857505050565b5f5260205f20906020601f840160051c830193106131d0575b601f0160051c01905b8181106131c5575050565b5f81556001016131ba565b90915081906131b1565b91909182516001600160401b038111610a1a57613201816131fb8454611e8a565b8461318b565b6020601f82116001146132345781906132309394955f926128d85750508160011b915f199060031b1c19161790565b9055565b601f19821690613247845f5260205f2090565b915f5b81811061328157509583600195969710613269575b505050811b019055565b01515f1960f88460031b161c191690555f808061325f565b9192602060018192868b01518155019401920161324a565b815181546020840151604085015161ffff60e01b60e091821b166001600160f01b03199093166001600160a01b039094169390931767ffffffffffffffff60a01b60a09290921b91909116171782556103fb9260029190613307606082015161330181611974565b8561310b565b6133a66001850161334661332560808501516001600160601b031690565b82546bffffffffffffffffffffffff19166001600160601b03909116178255565b61337a61335a60a085015163ffffffff1690565b825463ffffffff60601b191660609190911b63ffffffff60601b16178255565b60c083015163ffffffff165b815463ffffffff60801b191660809190911b63ffffffff60801b16179055565b015191016131da565b9693956133e960c099946103fb9c989b9e9d9b6133db61340599956133f79760e08e81815201916126dd565b918b830360208d01526126dd565b9188830360408a01526126dd565b9185830360608701526126dd565b96608083015260a08201520190611992565b919060e0810135926001600160601b03841161365957602082019361ffff6001600160401b03613446876130df565b161161364a576101008301359163ffffffff831161363b5760c084016001600160a01b03613473826130e9565b16156136335761348391506130e9565b80935b5f5492613492846130f3565b5f5583976134a0838061267a565b94906134ab836130df565b61ffff16956001600160601b03851663ffffffff8a16906101208801986134d18a613101565b906134da610a40565b6001600160a01b0390971687526001600160401b034216602088015261ffff16604087015261350c9060608701612b48565b6001600160601b0316608085015263ffffffff1660a0840152600160c0840152369061353792610adf565b60e082015261354e865f52600260205260405f2090565b9061355891613299565b84613563848061267a565b61356c9161298a565b55613575611c1d565b613580908689614205565b61358c60408401612670565b6135979088876143a6565b6135a0906130df565b916135ab818061267a565b9690926135bb606084018461267a565b939096608082016135cc908361267a565b909260a081016135db9161267a565b9390926135e790613101565b966040519a6001600160401b038c9b169e600160a01b60019003169d61360d9a8c6133af565b037f8c0eba9177e26954a6456c3131a11edebe1f0d2a7b8d84ce847aaafe5859bdfd91a4565b508093613486565b6309c1d04f60e01b5f5260045ffd5b630e13ec1760e31b5f5260045ffd5b634264fe7960e01b5f5260045ffd5b335f9081527f75442b0a96088b5456bc4ed01394c96a4feec0f883c9494257d76b96ab1c9b6b602052604090205460ff16156136a057565b63e2517d3f60e01b5f52336004527f65d7a28e3265b37a6474929f336521b332c1681b933f6cb9f3376673440d862a60245260445ffd5b335f9081527fab71e3f32666744d246edff3f96e4bdafee2e9867098cdd118a979a7464786a8602052604090205460ff161561370f57565b63e2517d3f60e01b5f52336004527f189ab7a9244df0848122154315af71fe140f3db0fe014031783b0946b8c9d2e360245260445ffd5b335f9081527fb7db2dd08fcb62d0c9e08c51941cae53c267786a0b75803fb7960902fc8ef97d602052604090205460ff161561377e57565b63e2517d3f60e01b5f52336004525f60245260445ffd5b5f8181525f516020614c235f395f51905f526020908152604080832033845290915290205460ff16156137c55750565b63e2517d3f60e01b5f523360045260245260445ffd5b6001600160a01b0381165f9081527fb7db2dd08fcb62d0c9e08c51941cae53c267786a0b75803fb7960902fc8ef97d602052604090205460ff16613872576001600160a01b03165f8181527fb7db2dd08fcb62d0c9e08c51941cae53c267786a0b75803fb7960902fc8ef97d60205260408120805460ff191660011790553391905f516020614ba35f395f51905f528180a4600190565b505f90565b6001600160a01b0381165f9081527fab71e3f32666744d246edff3f96e4bdafee2e9867098cdd118a979a7464786a8602052604090205460ff16613872576001600160a01b0381165f9081527fab71e3f32666744d246edff3f96e4bdafee2e9867098cdd118a979a7464786a860205260409020805460ff1916600117905533906001600160a01b03167f189ab7a9244df0848122154315af71fe140f3db0fe014031783b0946b8c9d2e35f516020614ba35f395f51905f525f80a4600190565b6001600160a01b0381165f9081527f75442b0a96088b5456bc4ed01394c96a4feec0f883c9494257d76b96ab1c9b6b602052604090205460ff16613872576001600160a01b0381165f9081527f75442b0a96088b5456bc4ed01394c96a4feec0f883c9494257d76b96ab1c9b6b60205260409020805460ff1916600117905533906001600160a01b03167f65d7a28e3265b37a6474929f336521b332c1681b933f6cb9f3376673440d862a5f516020614ba35f395f51905f525f80a4600190565b5f8181525f516020614c235f395f51905f52602090815260408083206001600160a01b038616845290915290205460ff16613a88575f8181525f516020614c235f395f51905f52602090815260408083206001600160a01b03861684529091529020805460ff1916600117905533916001600160a01b0316905f516020614ba35f395f51905f525f80a4600190565b50505f90565b5f8181525f516020614c235f395f51905f52602090815260408083206001600160a01b038616845290915290205460ff1615613a88575f8181525f516020614c235f395f51905f52602090815260408083206001600160a01b03861684529091529020805460ff1916905533916001600160a01b0316907ff6391f5c32d9c69d2a47ea670b442974b53935d1edc7fd64eb21e047a839171b5f80a4600190565b6001600160a01b03168015613b8e5760405190613b4c604083610a1f565b8082526101f46020909201919091526001600160a01b0316607d60a21b177fdaedc9ab023613a7caf35e703657e986ccfad7e3eb0af93a2853f8d65dd86b0055565b635b6cc80560e11b5f525f60045260245ffd5b908160209103126103ea575190565b60025f516020614c635f395f51905f525414613bd95760025f516020614c635f395f51905f5255565b633ee5aeb560e01b5f5260045ffd5b929493613c0260ff926040946060875260608701916126dd565b95602085015216910152565b929695919490955f548710156107605760ff861660028111613d9e5761040086116108735785158080613d96575b80613d8e575b613d7f5715928380613d74575b6117175785613c76613c698b5f52600260205260405f2090565b546001600160a01b031690565b9284613cd8575b5050505050613c8f575b505050505050565b7f19a5aae49af5681d63d1a8c6ea9dc7b88af86e08d71ade984e2087fada0d4c4a93613cca9160405194859460018060a01b03169885613be8565b0390a35f8080808080613c87565b600203613d4357505050613cf781613cf260015460601c90565b6148f1565b6040805160ff8816815260208101929092526001600160a01b0385169188917fc199635a11ffccf62419a83e03370cef9ba2a2c0a33d65c2fe60542bd560a0a991a35f80808581613c7d565b82613d5191613d5793614742565b8361480a565b80613d64575b5050613cf7565b613d6d916148f1565b5f80613d5d565b506005548310613c4f565b630eb90eff60e01b5f5260045ffd5b508215613c42565b508115613c3c565b631556136560e01b5f5260045ffd5b9190915f5483101561076057613dcb835f52600260205260405f2090565b80546001909101805492916001600160a01b03169063ffffffff606085901c16938415613ec35763ffffffff608082901c1694851015613eb4576001600160601b03168710613ea557613e6b82847ff6447f421186fdb05672b6b81ee863f6266ccf87f727fc67ed367774af86006597613e54613e71956133868c9a600163ffffffff91011690565b613e66613e5f611c1d565b8984614205565b614742565b8761480a565b80613e95575b50506040805195865260208601929092526001600160a01b031693a3565b613e9e916148f1565b5f80613e77565b63cd1c886760e01b5f5260045ffd5b63d05cb60960e01b5f5260045ffd5b635874ec2360e01b5f5260045ffd5b949092949391935f54841015610760576001600160a01b03861615613fa757811561171757613f6081613f47613f41897f37d3451d72bbbc5dc39c5c55aacb3b768d87ef17ab36990c4c60e96e6a0cf14597613f39613c698b5f52600260205260405f2090565b9485916147a1565b8561480a565b613f518160011c90565b918280613f97575b5050612c22565b80613f87575b50604080516001600160a01b039788168152602081019390935295169490a4565b613f9190876148f1565b5f613f66565b613fa0916148f1565b5f82613f59565b633e510d3960e21b5f5260045ffd5b905f8091602081519101845af48080614016575b15613fd957505061063f614923565b15613ffe57639996b31560e01b5f9081526001600160a01b0391909116600452602490fd5b3d15155f03612dd75763d6bda27560e01b5f5260045ffd5b503d151580613fca5750813b1515613fca565b9590614070936001600160401b039561405461406293606099969c9b9c60808c5260808c01916126dd565b9189830360208b01526126dd565b9186830360408801526126dd565b9416910152565b813591821580156141af575b61076057614099835f52600260205260405f2090565b805490926001600160a01b039081169116036141a057602081016140bd818361267a565b9190926140ea60408201936140d2858461267a565b6060850197916140e2898761267a565b9490936141ba565b608081019461ffff6001600160401b03614103886130df565b161161364a578561417e9561418661417561419b9661416f61418e9661415361414c7f033648d1b56f7a8d9c25cf0228b942f10a56da2092f4450e42ed76a0a50ec4159e6130df565b61ffff1690565b815461ffff60e01b191660e09190911b61ffff60e01b16179055565b8661267a565b9890978661267a565b92909561267a565b9390926130df565b9360405197889788614029565b0390a2565b635e7e205b60e11b5f5260045ffd5b505f54831015614083565b5090506040919250116141f6576080106141e757610200106141d857565b631f5482d760e21b5f5260045ffd5b6324a25c5760e01b5f5260045ffd5b631750ba0360e01b5f5260045ffd5b9291906001600160a01b0384161561211557600161424060405192600184526020840152604083019160018352606084015260808301604052565b9080518251908181036143915750506001600160a01b03851693841515935f5b83518110156142c55780868960019360051b602080828a010151918a0101519261428e575b50505001614260565b6142bb91611aec6142b3925f525f516020614c035f395f51905f5260205260405f2090565b91825461493c565b90555f8981614285565b509390959460018351145f14614356576020838101518582015160408051928352928201525f9133917fc3d58168c5ae7397731d063d5bbf3d657854427343f4c083240f7aacaa2d0f629190a45b61431e575b50505050565b8051600103614346579060208061433d95930151910151915f33614b04565b5f808080614318565b614351935f336149d6565b61433d565b5f6040517f4a39dc06d4c0dbc64b70af90fd698a233a518aa5d07e595d983b8c0526c8f7fb339180614389898983614949565b0390a4614313565b635b05999160e01b5f5260045260245260445ffd5b92916001600160601b0316612710811161445c576001600160a01b03821615614445576103fb929361441d91604051936143e1604086610a1f565b60018060a01b0316845260208401525f527fdaedc9ab023613a7caf35e703657e986ccfad7e3eb0af93a2853f8d65dd86b0160205260405f2090565b815160209092015160a01b6001600160a01b0319166001600160a01b03909216919091179055565b83634b4f842960e11b5f526004525f60245260445ffd5b8363dfd1fc1b60e01b5f5260045260245261271060445260645ffd5b94939290919384518251908181036143915750506001600160a01b038681169586151595918516801515939192905f5b84518110156145a8578060051b90898988602080868b010151958c0101519261450d575b936001946144de575b505050016144a8565b61450391611aec6142b3925f525f516020614c035f395f51905f5260205260405f2090565b90555f89816144d5565b505090916145338d611aec835f525f516020614c035f395f51905f5260205260405f2090565b54828110614571578291898f614568600197968f950391611aec855f525f516020614c035f395f51905f5260205260405f2090565b559094506144cc565b6040516303dee4c560e01b81526001600160a01b038f16600482015260248101919091526044810183905260648101829052608490fd5b5091989593929790965060018851145f1461463b5760208881015186820151604080519283529282015233917fc3d58168c5ae7397731d063d5bbf3d657854427343f4c083240f7aacaa2d0f6291a45b614604575b5050505050565b845160010361462a576020806146209601519201519233614b04565b5f808080806145fd565b614636949192336149d6565b614620565b6040517f4a39dc06d4c0dbc64b70af90fd698a233a518aa5d07e595d983b8c0526c8f7fb33918061466d898d83614949565b0390a46145f8565b60ff5f516020614c835f395f51905f525460401c161561469157565b631afcd79f60e31b5f5260045ffd5b90813b15614721575f516020614bc35f395f51905f5280546001600160a01b0319166001600160a01b0384169081179091557fbc7cd75a20ee27fd9adebab32041f755214dbc6bffa90cc0225b39da2e5c2d3b5f80a28051156147095761470691613fb6565b50565b50503461471257565b63b398979f60e01b5f5260045ffd5b50634c9c8ce360e01b5f9081526001600160a01b0391909116600452602490fd5b916001600160a01b038316801592839290831561478e575b50831561477b575b50508115614773575b506138725790565b90505f61476b565b6001600160a01b03161491505f80614762565b6001600160a01b0316821493505f61475a565b926001600160a01b038416801593909284156147f7575b5083156147e4575b5082156147d1575b50506138725790565b6001600160a01b03161490505f806147c8565b6001600160a01b0316821492505f6147c0565b6001600160a01b0316831493505f6147b8565b90600154916127106148256001600160601b03851683612742565b04916001600160a01b0381169081156148bb576103e883028381046103e81484151715612755576127109004945b84806148a8575b5050848061486b575b505050030390565b614874916148f1565b6040518481527f6292f4f27d8047af4537a4bd86906de0e2c880c20086f7f58b81eacfeb63912690602090a25f8084614863565b6148b49160601c6148f1565b5f8461485a565b5f94614853565b3d156148ec573d906148d382610ac4565b916148e16040519384610a1f565b82523d5f602084013e565b606090565b5f918291829182916001600160a01b03165af161490c6148c2565b501561491457565b6312171d8360e31b5f5260045ffd5b604051903d82523d5f602084013e60203d830101604052565b9190820180921161275557565b909161496061063f93604084526040840190610f4b565b916020818403910152610f4b565b908160209103126103ea575161063f81610461565b6001600160a01b0391821681529116602082015260a06040820181905261063f94919391926149c892916149ba9190860190610f4b565b908482036060860152610f4b565b91608081840391015261060a565b9091949293853b6149e957505050505050565b602093614a0b91604051968795869563bc197c8160e01b875260048701614983565b03815f6001600160a01b0387165af15f9181614a9a575b50614a5c5750614a306148c2565b8051919082614a5557632bfa23e760e11b5f526001600160a01b03821660045260245ffd5b6020915001fd5b6001600160e01b0319166343e6837f60e01b01614a7f57505f8080808080613c87565b632bfa23e760e11b5f526001600160a01b031660045260245ffd5b614abd91925060203d602011614ac4575b614ab58183610a1f565b81019061496e565b905f614a22565b503d614aab565b6001600160a01b039182168152911660208201526040810191909152606081019190915260a06080820181905261063f9291019061060a565b9091949293853b614b1757505050505050565b602093614b3991604051968795869563f23a6e6160e01b875260048701614acb565b03815f6001600160a01b0387165af15f9181614b81575b50614b5e5750614a306148c2565b6001600160e01b031916630dc5919f60e01b01614a7f57505f8080808080613c87565b614b9b91925060203d602011614ac457614ab58183610a1f565b905f614b5056fe2f8788117e7eff1d82e926ec794901d17c78024a50270940304540a733656f0d360894a13ba1a3210667c828492db98dca3e2076cc3735a920a3ca505d382bbce915025b6f599b245c9c1c02d463228c896354d64dceb469760c99544153be6d88be536d5240c274a3b1d3a1be54482fd9caa294f08c62a7cde569f49a3c450002dd7bc7dec4dceedda775e58dd541e08a116c6c53815c0bd028192f7b626800cd5ed15c6e187e77e9aee88184c21f4f2182ab5827cb3b7e07fbedcd63f033009b779b17422d0df92223018b32b4d1fa46e071723d6817e2486d003becc55f00f0c57e16840df040f15088dc2f81fe391c3923bec73e23a9662efc9c229c6a0088be536d5240c274a3b1d3a1be54482fd9caa294f08c62a7cde569f49a3c4502a264697066735822122043ee22d953d47177b5d1ef44177bb8a445782ba097b5a8512d053185f06409ef64736f6c634300081e0033f0c57e16840df040f15088dc2f81fe391c3923bec73e23a9662efc9c229c6a00","linkReferences":{}},"methodIdentifiers":{"DEFAULT_ADMIN_ROLE()":"a217fddf","MAX_AVATAR_LENGTH()":"1fe9d578","MAX_BIO_LENGTH()":"c477d7f7","MAX_COMMENT_LENGTH()":"5856e4fa","MAX_NICKNAME_LENGTH()":"e8f100bf","MAX_ORIGINAL_AUTHOR_LENGTH()":"19e94a6e","MAX_SUMMARY_LENGTH()":"544b5e61","MAX_TITLE_LENGTH()":"2ef9a160","PAUSER_ROLE()":"e63ab1e9","SCORE_DISLIKE()":"fde84719","SCORE_LIKE()":"e1d90b34","SCORE_NEUTRAL()":"473106b2","UPGRADER_ROLE()":"f72c0d8b","UPGRADE_INTERFACE_VERSION()":"ad3cb1cc","articles(uint256)":"edcfafe6","arweaveIdToArticleId(string)":"b055d7aa","balanceOf(address,uint256)":"00fdd58e","balanceOfBatch(address[],uint256[])":"4e1273f4","collect(uint256,address)":"8d3c100a","collectWithSessionKey(address,address,uint256,address,uint256,bytes)":"795146ef","editArticle((uint256,string,string,string,uint64))":"b259ecde","editArticleWithSessionKey(address,address,(uint256,string,string,string,uint64),uint256,bytes)":"f7714a98","evaluate(uint256,uint8,string,address,uint256)":"ff1f090a","evaluateWithSessionKey(address,address,uint256,uint8,string,address,uint256,uint256,bytes)":"63c4ea4d","follow(address,bool)":"63c3cc16","followWithSessionKey(address,address,address,bool,uint256,bytes)":"5780400b","getArticleByArweaveId(string)":"989cfb57","getArticleIdByArweaveId(string)":"4b65f344","getRoleAdmin(bytes32)":"248a9ca3","grantRole(bytes32,address)":"2f2ff15d","hasRole(bytes32,address)":"91d14854","initialize(address,address)":"485cc955","isApprovedForAll(address,address)":"e985e9c5","likeComment(uint256,uint256,address,address)":"dffd40f2","likeCommentWithSessionKey(address,address,uint256,uint256,address,address,uint256,bytes)":"79c61f28","minActionValue()":"8cbd215e","multicall(bytes[])":"ac9650d8","nextArticleId()":"85c3ab54","pause()":"8456cb59","paused()":"5c975abb","platformFeeBps()":"22dcd13e","platformTreasury()":"e138818c","proxiableUUID()":"52d1902d","publish((string,uint64,uint96,string,string,string,address,uint256,uint256,uint8))":"4c0e8045","publishWithSessionKey(address,address,(string,uint64,uint96,string,string,string,address,uint256,uint256,uint8),uint256,bytes)":"060d752c","renounceRole(bytes32,address)":"36568abe","revokeRole(bytes32,address)":"d547741f","royaltyInfo(uint256,uint256)":"2a55205a","safeBatchTransferFrom(address,address,uint256[],uint256[],bytes)":"2eb2c2d6","safeTransferFrom(address,address,uint256,uint256,bytes)":"f242432a","sessionKeyManager()":"0b826190","setApprovalForAll(address,bool)":"a22cb465","setMinActionValue(uint256)":"52cbd3be","setPlatformFee(uint96)":"f99e5dbb","setPlatformTreasury(address)":"7cd86d60","setSessionKeyManager(address)":"837fa3fd","supportsInterface(bytes4)":"01ffc9a7","unpause()":"3f4ba83a","updateProfile(string,string,string)":"1105a5eb","upgradeToAndCall(address,bytes)":"4f1ef286","uri(uint256)":"0e89341c"},"id":62}