{"abi":[{"type":"constructor","inputs":[],"stateMutability":"nonpayable"},{"type":"function","name":"DEFAULT_ADMIN_ROLE","inputs":[],"outputs":[{"name":"","type":"bytes32","internalType":"bytes32"}],"stateMutability":"view"},{"type":"function","name":"MAX_AVATAR_LENGTH","inputs":[],"outputs":[{"name":"","type":"uint256","internalType":"uint256"}],"stateMutability":"view"},{"type":"function","name":"MAX_BIO_LENGTH","inputs":[],"outputs":[{"name":"","type":"uint256","internalType":"uint256"}],"stateMutability":"view"},{"type":"function","name":"MAX_COMMENT_LENGTH","inputs":[],"outputs":[{"name":"","type":"uint256","internalType":"uint256"}],"stateMutability":"view"},{"type":"function","name":"MAX_NICKNAME_LENGTH","inputs":[],"outputs":[{"name":"","type":"uint256","internalType":"uint256"}],"stateMutability":"view"},{"type":"function","name":"MAX_ORIGINAL_AUTHOR_LENGTH","inputs":[],"outputs":[{"name":"","type":"uint256","internalType":"uint256"}],"stateMutability":"view"},{"type":"function","name":"MAX_TITLE_LENGTH","inputs":[],"outputs":[{"name":"","type":"uint256","internalType":"uint256"}],"stateMutability":"view"},{"type":"function","name":"PAUSER_ROLE","inputs":[],"outputs":[{"name":"","type":"bytes32","internalType":"bytes32"}],"stateMutability":"view"},{"type":"function","name":"SCORE_DISLIKE","inputs":[],"outputs":[{"name":"","type":"uint8","internalType":"uint8"}],"stateMutability":"view"},{"type":"function","name":"SCORE_LIKE","inputs":[],"outputs":[{"name":"","type":"uint8","internalType":"uint8"}],"stateMutability":"view"},{"type":"function","name":"SCORE_NEUTRAL","inputs":[],"outputs":[{"name":"","type":"uint8","internalType":"uint8"}],"stateMutability":"view"},{"type":"function","name":"UPGRADER_ROLE","inputs":[],"outputs":[{"name":"","type":"bytes32","internalType":"bytes32"}],"stateMutability":"view"},{"type":"function","name":"UPGRADE_INTERFACE_VERSION","inputs":[],"outputs":[{"name":"","type":"string","internalType":"string"}],"stateMutability":"view"},{"type":"function","name":"articles","inputs":[{"name":"","type":"uint256","internalType":"uint256"}],"outputs":[{"name":"author","type":"address","internalType":"address"},{"name":"timestamp","type":"uint64","internalType":"uint64"},{"name":"categoryId","type":"uint16","internalType":"uint16"},{"name":"originality","type":"uint8","internalType":"enum BlogHub.Originality"},{"name":"collectPrice","type":"uint96","internalType":"uint96"},{"name":"maxCollectSupply","type":"uint32","internalType":"uint32"},{"name":"collectCount","type":"uint32","internalType":"uint32"},{"name":"arweaveHash","type":"string","internalType":"string"}],"stateMutability":"view"},{"type":"function","name":"balanceOf","inputs":[{"name":"account","type":"address","internalType":"address"},{"name":"id","type":"uint256","internalType":"uint256"}],"outputs":[{"name":"","type":"uint256","internalType":"uint256"}],"stateMutability":"view"},{"type":"function","name":"balanceOfBatch","inputs":[{"name":"accounts","type":"address[]","internalType":"address[]"},{"name":"ids","type":"uint256[]","internalType":"uint256[]"}],"outputs":[{"name":"","type":"uint256[]","internalType":"uint256[]"}],"stateMutability":"view"},{"type":"function","name":"collect","inputs":[{"name":"_articleId","type":"uint256","internalType":"uint256"},{"name":"_referrer","type":"address","internalType":"address"}],"outputs":[],"stateMutability":"payable"},{"type":"function","name":"collectWithSessionKey","inputs":[{"name":"owner","type":"address","internalType":"address"},{"name":"sessionKey","type":"address","internalType":"address"},{"name":"_articleId","type":"uint256","internalType":"uint256"},{"name":"_referrer","type":"address","internalType":"address"},{"name":"deadline","type":"uint256","internalType":"uint256"},{"name":"signature","type":"bytes","internalType":"bytes"}],"outputs":[],"stateMutability":"payable"},{"type":"function","name":"evaluate","inputs":[{"name":"_articleId","type":"uint256","internalType":"uint256"},{"name":"_score","type":"uint8","internalType":"uint8"},{"name":"_content","type":"string","internalType":"string"},{"name":"_referrer","type":"address","internalType":"address"},{"name":"_parentCommentId","type":"uint256","internalType":"uint256"}],"outputs":[],"stateMutability":"payable"},{"type":"function","name":"evaluateWithSessionKey","inputs":[{"name":"owner","type":"address","internalType":"address"},{"name":"sessionKey","type":"address","internalType":"address"},{"name":"_articleId","type":"uint256","internalType":"uint256"},{"name":"_score","type":"uint8","internalType":"uint8"},{"name":"_content","type":"string","internalType":"string"},{"name":"_referrer","type":"address","internalType":"address"},{"name":"_parentCommentId","type":"uint256","internalType":"uint256"},{"name":"deadline","type":"uint256","internalType":"uint256"},{"name":"signature","type":"bytes","internalType":"bytes"}],"outputs":[],"stateMutability":"payable"},{"type":"function","name":"follow","inputs":[{"name":"_target","type":"address","internalType":"address"},{"name":"_status","type":"bool","internalType":"bool"}],"outputs":[],"stateMutability":"nonpayable"},{"type":"function","name":"followWithSessionKey","inputs":[{"name":"owner","type":"address","internalType":"address"},{"name":"sessionKey","type":"address","internalType":"address"},{"name":"_target","type":"address","internalType":"address"},{"name":"_status","type":"bool","internalType":"bool"},{"name":"deadline","type":"uint256","internalType":"uint256"},{"name":"signature","type":"bytes","internalType":"bytes"}],"outputs":[],"stateMutability":"nonpayable"},{"type":"function","name":"getRoleAdmin","inputs":[{"name":"role","type":"bytes32","internalType":"bytes32"}],"outputs":[{"name":"","type":"bytes32","internalType":"bytes32"}],"stateMutability":"view"},{"type":"function","name":"grantRole","inputs":[{"name":"role","type":"bytes32","internalType":"bytes32"},{"name":"account","type":"address","internalType":"address"}],"outputs":[],"stateMutability":"nonpayable"},{"type":"function","name":"hasRole","inputs":[{"name":"role","type":"bytes32","internalType":"bytes32"},{"name":"account","type":"address","internalType":"address"}],"outputs":[{"name":"","type":"bool","internalType":"bool"}],"stateMutability":"view"},{"type":"function","name":"initialize","inputs":[{"name":"_initialOwner","type":"address","internalType":"address"},{"name":"_treasury","type":"address","internalType":"address"}],"outputs":[],"stateMutability":"nonpayable"},{"type":"function","name":"isApprovedForAll","inputs":[{"name":"account","type":"address","internalType":"address"},{"name":"operator","type":"address","internalType":"address"}],"outputs":[{"name":"","type":"bool","internalType":"bool"}],"stateMutability":"view"},{"type":"function","name":"likeComment","inputs":[{"name":"_articleId","type":"uint256","internalType":"uint256"},{"name":"_commentId","type":"uint256","internalType":"uint256"},{"name":"_commenter","type":"address","internalType":"address"},{"name":"_referrer","type":"address","internalType":"address"}],"outputs":[],"stateMutability":"payable"},{"type":"function","name":"likeCommentWithSessionKey","inputs":[{"name":"owner","type":"address","internalType":"address"},{"name":"sessionKey","type":"address","internalType":"address"},{"name":"_articleId","type":"uint256","internalType":"uint256"},{"name":"_commentId","type":"uint256","internalType":"uint256"},{"name":"_commenter","type":"address","internalType":"address"},{"name":"_referrer","type":"address","internalType":"address"},{"name":"deadline","type":"uint256","internalType":"uint256"},{"name":"signature","type":"bytes","internalType":"bytes"}],"outputs":[],"stateMutability":"payable"},{"type":"function","name":"minActionValue","inputs":[],"outputs":[{"name":"","type":"uint256","internalType":"uint256"}],"stateMutability":"view"},{"type":"function","name":"multicall","inputs":[{"name":"data","type":"bytes[]","internalType":"bytes[]"}],"outputs":[{"name":"results","type":"bytes[]","internalType":"bytes[]"}],"stateMutability":"nonpayable"},{"type":"function","name":"nextArticleId","inputs":[],"outputs":[{"name":"","type":"uint256","internalType":"uint256"}],"stateMutability":"view"},{"type":"function","name":"pause","inputs":[],"outputs":[],"stateMutability":"nonpayable"},{"type":"function","name":"paused","inputs":[],"outputs":[{"name":"","type":"bool","internalType":"bool"}],"stateMutability":"view"},{"type":"function","name":"platformFeeBps","inputs":[],"outputs":[{"name":"","type":"uint96","internalType":"uint96"}],"stateMutability":"view"},{"type":"function","name":"platformTreasury","inputs":[],"outputs":[{"name":"","type":"address","internalType":"address"}],"stateMutability":"view"},{"type":"function","name":"proxiableUUID","inputs":[],"outputs":[{"name":"","type":"bytes32","internalType":"bytes32"}],"stateMutability":"view"},{"type":"function","name":"publish","inputs":[{"name":"_arweaveId","type":"string","internalType":"string"},{"name":"_categoryId","type":"uint64","internalType":"uint64"},{"name":"_royaltyBps","type":"uint96","internalType":"uint96"},{"name":"_originalAuthor","type":"string","internalType":"string"},{"name":"_title","type":"string","internalType":"string"},{"name":"_trueAuthor","type":"address","internalType":"address"},{"name":"_collectPrice","type":"uint256","internalType":"uint256"},{"name":"_maxCollectSupply","type":"uint256","internalType":"uint256"},{"name":"_originality","type":"uint8","internalType":"enum BlogHub.Originality"}],"outputs":[{"name":"","type":"uint256","internalType":"uint256"}],"stateMutability":"nonpayable"},{"type":"function","name":"publishWithSessionKey","inputs":[{"name":"owner","type":"address","internalType":"address"},{"name":"sessionKey","type":"address","internalType":"address"},{"name":"params","type":"tuple","internalType":"struct BlogHub.PublishParams","components":[{"name":"arweaveId","type":"string","internalType":"string"},{"name":"categoryId","type":"uint64","internalType":"uint64"},{"name":"royaltyBps","type":"uint96","internalType":"uint96"},{"name":"originalAuthor","type":"string","internalType":"string"},{"name":"title","type":"string","internalType":"string"},{"name":"trueAuthor","type":"address","internalType":"address"},{"name":"collectPrice","type":"uint256","internalType":"uint256"},{"name":"maxCollectSupply","type":"uint256","internalType":"uint256"},{"name":"originality","type":"uint8","internalType":"enum BlogHub.Originality"}]},{"name":"deadline","type":"uint256","internalType":"uint256"},{"name":"signature","type":"bytes","internalType":"bytes"}],"outputs":[{"name":"","type":"uint256","internalType":"uint256"}],"stateMutability":"nonpayable"},{"type":"function","name":"renounceRole","inputs":[{"name":"role","type":"bytes32","internalType":"bytes32"},{"name":"callerConfirmation","type":"address","internalType":"address"}],"outputs":[],"stateMutability":"nonpayable"},{"type":"function","name":"revokeRole","inputs":[{"name":"role","type":"bytes32","internalType":"bytes32"},{"name":"account","type":"address","internalType":"address"}],"outputs":[],"stateMutability":"nonpayable"},{"type":"function","name":"royaltyInfo","inputs":[{"name":"tokenId","type":"uint256","internalType":"uint256"},{"name":"salePrice","type":"uint256","internalType":"uint256"}],"outputs":[{"name":"receiver","type":"address","internalType":"address"},{"name":"amount","type":"uint256","internalType":"uint256"}],"stateMutability":"view"},{"type":"function","name":"safeBatchTransferFrom","inputs":[{"name":"from","type":"address","internalType":"address"},{"name":"to","type":"address","internalType":"address"},{"name":"ids","type":"uint256[]","internalType":"uint256[]"},{"name":"values","type":"uint256[]","internalType":"uint256[]"},{"name":"data","type":"bytes","internalType":"bytes"}],"outputs":[],"stateMutability":"nonpayable"},{"type":"function","name":"safeTransferFrom","inputs":[{"name":"from","type":"address","internalType":"address"},{"name":"to","type":"address","internalType":"address"},{"name":"id","type":"uint256","internalType":"uint256"},{"name":"value","type":"uint256","internalType":"uint256"},{"name":"data","type":"bytes","internalType":"bytes"}],"outputs":[],"stateMutability":"nonpayable"},{"type":"function","name":"sessionKeyManager","inputs":[],"outputs":[{"name":"","type":"address","internalType":"contract ISessionKeyManager"}],"stateMutability":"view"},{"type":"function","name":"setApprovalForAll","inputs":[{"name":"operator","type":"address","internalType":"address"},{"name":"approved","type":"bool","internalType":"bool"}],"outputs":[],"stateMutability":"nonpayable"},{"type":"function","name":"setMinActionValue","inputs":[{"name":"_minActionValue","type":"uint256","internalType":"uint256"}],"outputs":[],"stateMutability":"nonpayable"},{"type":"function","name":"setPlatformFee","inputs":[{"name":"_feeBps","type":"uint96","internalType":"uint96"}],"outputs":[],"stateMutability":"nonpayable"},{"type":"function","name":"setPlatformTreasury","inputs":[{"name":"_treasury","type":"address","internalType":"address"}],"outputs":[],"stateMutability":"nonpayable"},{"type":"function","name":"setSessionKeyManager","inputs":[{"name":"_sessionKeyManager","type":"address","internalType":"address"}],"outputs":[],"stateMutability":"nonpayable"},{"type":"function","name":"supportsInterface","inputs":[{"name":"interfaceId","type":"bytes4","internalType":"bytes4"}],"outputs":[{"name":"","type":"bool","internalType":"bool"}],"stateMutability":"view"},{"type":"function","name":"unpause","inputs":[],"outputs":[],"stateMutability":"nonpayable"},{"type":"function","name":"updateProfile","inputs":[{"name":"_nickname","type":"string","internalType":"string"},{"name":"_avatar","type":"string","internalType":"string"},{"name":"_bio","type":"string","internalType":"string"}],"outputs":[],"stateMutability":"nonpayable"},{"type":"function","name":"upgradeToAndCall","inputs":[{"name":"newImplementation","type":"address","internalType":"address"},{"name":"data","type":"bytes","internalType":"bytes"}],"outputs":[],"stateMutability":"payable"},{"type":"function","name":"uri","inputs":[{"name":"_id","type":"uint256","internalType":"uint256"}],"outputs":[{"name":"","type":"string","internalType":"string"}],"stateMutability":"view"},{"type":"event","name":"ApprovalForAll","inputs":[{"name":"account","type":"address","indexed":true,"internalType":"address"},{"name":"operator","type":"address","indexed":true,"internalType":"address"},{"name":"approved","type":"bool","indexed":false,"internalType":"bool"}],"anonymous":false},{"type":"event","name":"ArticleCollected","inputs":[{"name":"articleId","type":"uint256","indexed":true,"internalType":"uint256"},{"name":"collector","type":"address","indexed":true,"internalType":"address"},{"name":"amount","type":"uint256","indexed":false,"internalType":"uint256"},{"name":"tokenId","type":"uint256","indexed":false,"internalType":"uint256"}],"anonymous":false},{"type":"event","name":"ArticleEvaluated","inputs":[{"name":"articleId","type":"uint256","indexed":true,"internalType":"uint256"},{"name":"user","type":"address","indexed":true,"internalType":"address"},{"name":"score","type":"uint8","indexed":false,"internalType":"uint8"},{"name":"amountPaid","type":"uint256","indexed":false,"internalType":"uint256"}],"anonymous":false},{"type":"event","name":"ArticlePublished","inputs":[{"name":"articleId","type":"uint256","indexed":true,"internalType":"uint256"},{"name":"author","type":"address","indexed":true,"internalType":"address"},{"name":"categoryId","type":"uint256","indexed":true,"internalType":"uint256"},{"name":"arweaveId","type":"string","indexed":false,"internalType":"string"},{"name":"originalAuthor","type":"string","indexed":false,"internalType":"string"},{"name":"title","type":"string","indexed":false,"internalType":"string"},{"name":"trueAuthor","type":"address","indexed":false,"internalType":"address"},{"name":"collectPrice","type":"uint256","indexed":false,"internalType":"uint256"},{"name":"maxCollectSupply","type":"uint256","indexed":false,"internalType":"uint256"},{"name":"originality","type":"uint8","indexed":false,"internalType":"enum BlogHub.Originality"}],"anonymous":false},{"type":"event","name":"CommentAdded","inputs":[{"name":"articleId","type":"uint256","indexed":true,"internalType":"uint256"},{"name":"commenter","type":"address","indexed":true,"internalType":"address"},{"name":"content","type":"string","indexed":false,"internalType":"string"},{"name":"parentCommentId","type":"uint256","indexed":false,"internalType":"uint256"},{"name":"score","type":"uint8","indexed":false,"internalType":"uint8"}],"anonymous":false},{"type":"event","name":"CommentLiked","inputs":[{"name":"articleId","type":"uint256","indexed":true,"internalType":"uint256"},{"name":"commentId","type":"uint256","indexed":true,"internalType":"uint256"},{"name":"liker","type":"address","indexed":true,"internalType":"address"},{"name":"commenter","type":"address","indexed":false,"internalType":"address"},{"name":"amountPaid","type":"uint256","indexed":false,"internalType":"uint256"}],"anonymous":false},{"type":"event","name":"FollowStatusChanged","inputs":[{"name":"follower","type":"address","indexed":true,"internalType":"address"},{"name":"target","type":"address","indexed":true,"internalType":"address"},{"name":"isFollowing","type":"bool","indexed":false,"internalType":"bool"}],"anonymous":false},{"type":"event","name":"Initialized","inputs":[{"name":"version","type":"uint64","indexed":false,"internalType":"uint64"}],"anonymous":false},{"type":"event","name":"MinActionValueUpdated","inputs":[{"name":"newValue","type":"uint256","indexed":false,"internalType":"uint256"}],"anonymous":false},{"type":"event","name":"Paused","inputs":[{"name":"account","type":"address","indexed":false,"internalType":"address"}],"anonymous":false},{"type":"event","name":"PlatformFeeUpdated","inputs":[{"name":"newFeeBps","type":"uint96","indexed":false,"internalType":"uint96"}],"anonymous":false},{"type":"event","name":"ReferralPaid","inputs":[{"name":"referrer","type":"address","indexed":true,"internalType":"address"},{"name":"amount","type":"uint256","indexed":false,"internalType":"uint256"}],"anonymous":false},{"type":"event","name":"RoleAdminChanged","inputs":[{"name":"role","type":"bytes32","indexed":true,"internalType":"bytes32"},{"name":"previousAdminRole","type":"bytes32","indexed":true,"internalType":"bytes32"},{"name":"newAdminRole","type":"bytes32","indexed":true,"internalType":"bytes32"}],"anonymous":false},{"type":"event","name":"RoleGranted","inputs":[{"name":"role","type":"bytes32","indexed":true,"internalType":"bytes32"},{"name":"account","type":"address","indexed":true,"internalType":"address"},{"name":"sender","type":"address","indexed":true,"internalType":"address"}],"anonymous":false},{"type":"event","name":"RoleRevoked","inputs":[{"name":"role","type":"bytes32","indexed":true,"internalType":"bytes32"},{"name":"account","type":"address","indexed":true,"internalType":"address"},{"name":"sender","type":"address","indexed":true,"internalType":"address"}],"anonymous":false},{"type":"event","name":"SessionKeyManagerUpdated","inputs":[{"name":"newManager","type":"address","indexed":true,"internalType":"address"}],"anonymous":false},{"type":"event","name":"SessionKeyOperationExecuted","inputs":[{"name":"owner","type":"address","indexed":true,"internalType":"address"},{"name":"sessionKey","type":"address","indexed":true,"internalType":"address"},{"name":"selector","type":"bytes4","indexed":false,"internalType":"bytes4"}],"anonymous":false},{"type":"event","name":"TransferBatch","inputs":[{"name":"operator","type":"address","indexed":true,"internalType":"address"},{"name":"from","type":"address","indexed":true,"internalType":"address"},{"name":"to","type":"address","indexed":true,"internalType":"address"},{"name":"ids","type":"uint256[]","indexed":false,"internalType":"uint256[]"},{"name":"values","type":"uint256[]","indexed":false,"internalType":"uint256[]"}],"anonymous":false},{"type":"event","name":"TransferSingle","inputs":[{"name":"operator","type":"address","indexed":true,"internalType":"address"},{"name":"from","type":"address","indexed":true,"internalType":"address"},{"name":"to","type":"address","indexed":true,"internalType":"address"},{"name":"id","type":"uint256","indexed":false,"internalType":"uint256"},{"name":"value","type":"uint256","indexed":false,"internalType":"uint256"}],"anonymous":false},{"type":"event","name":"TreasuryUpdated","inputs":[{"name":"newTreasury","type":"address","indexed":false,"internalType":"address"}],"anonymous":false},{"type":"event","name":"URI","inputs":[{"name":"value","type":"string","indexed":false,"internalType":"string"},{"name":"id","type":"uint256","indexed":true,"internalType":"uint256"}],"anonymous":false},{"type":"event","name":"Unpaused","inputs":[{"name":"account","type":"address","indexed":false,"internalType":"address"}],"anonymous":false},{"type":"event","name":"Upgraded","inputs":[{"name":"implementation","type":"address","indexed":true,"internalType":"address"}],"anonymous":false},{"type":"event","name":"UserProfileUpdated","inputs":[{"name":"user","type":"address","indexed":true,"internalType":"address"},{"name":"nickname","type":"string","indexed":false,"internalType":"string"},{"name":"avatar","type":"string","indexed":false,"internalType":"string"},{"name":"bio","type":"string","indexed":false,"internalType":"string"}],"anonymous":false},{"type":"error","name":"AccessControlBadConfirmation","inputs":[]},{"type":"error","name":"AccessControlUnauthorizedAccount","inputs":[{"name":"account","type":"address","internalType":"address"},{"name":"neededRole","type":"bytes32","internalType":"bytes32"}]},{"type":"error","name":"AddressEmptyCode","inputs":[{"name":"target","type":"address","internalType":"address"}]},{"type":"error","name":"ArticleNotFound","inputs":[]},{"type":"error","name":"CategoryIdTooHigh","inputs":[]},{"type":"error","name":"CollectNotEnabled","inputs":[]},{"type":"error","name":"CollectPriceTooHigh","inputs":[]},{"type":"error","name":"ContentRequiredForScore","inputs":[]},{"type":"error","name":"ERC1155InsufficientBalance","inputs":[{"name":"sender","type":"address","internalType":"address"},{"name":"balance","type":"uint256","internalType":"uint256"},{"name":"needed","type":"uint256","internalType":"uint256"},{"name":"tokenId","type":"uint256","internalType":"uint256"}]},{"type":"error","name":"ERC1155InvalidApprover","inputs":[{"name":"approver","type":"address","internalType":"address"}]},{"type":"error","name":"ERC1155InvalidArrayLength","inputs":[{"name":"idsLength","type":"uint256","internalType":"uint256"},{"name":"valuesLength","type":"uint256","internalType":"uint256"}]},{"type":"error","name":"ERC1155InvalidOperator","inputs":[{"name":"operator","type":"address","internalType":"address"}]},{"type":"error","name":"ERC1155InvalidReceiver","inputs":[{"name":"receiver","type":"address","internalType":"address"}]},{"type":"error","name":"ERC1155InvalidSender","inputs":[{"name":"sender","type":"address","internalType":"address"}]},{"type":"error","name":"ERC1155MissingApprovalForAll","inputs":[{"name":"operator","type":"address","internalType":"address"},{"name":"owner","type":"address","internalType":"address"}]},{"type":"error","name":"ERC1967InvalidImplementation","inputs":[{"name":"implementation","type":"address","internalType":"address"}]},{"type":"error","name":"ERC1967NonPayable","inputs":[]},{"type":"error","name":"ERC2981InvalidDefaultRoyalty","inputs":[{"name":"numerator","type":"uint256","internalType":"uint256"},{"name":"denominator","type":"uint256","internalType":"uint256"}]},{"type":"error","name":"ERC2981InvalidDefaultRoyaltyReceiver","inputs":[{"name":"receiver","type":"address","internalType":"address"}]},{"type":"error","name":"ERC2981InvalidTokenRoyalty","inputs":[{"name":"tokenId","type":"uint256","internalType":"uint256"},{"name":"numerator","type":"uint256","internalType":"uint256"},{"name":"denominator","type":"uint256","internalType":"uint256"}]},{"type":"error","name":"ERC2981InvalidTokenRoyaltyReceiver","inputs":[{"name":"tokenId","type":"uint256","internalType":"uint256"},{"name":"receiver","type":"address","internalType":"address"}]},{"type":"error","name":"EnforcedPause","inputs":[]},{"type":"error","name":"ExpectedPause","inputs":[]},{"type":"error","name":"FailedCall","inputs":[]},{"type":"error","name":"FeeTooHigh","inputs":[]},{"type":"error","name":"InsufficientPayment","inputs":[]},{"type":"error","name":"InvalidAddress","inputs":[]},{"type":"error","name":"InvalidCommenter","inputs":[]},{"type":"error","name":"InvalidInitialization","inputs":[]},{"type":"error","name":"InvalidLength","inputs":[]},{"type":"error","name":"InvalidScore","inputs":[]},{"type":"error","name":"MaxCollectSupplyTooHigh","inputs":[]},{"type":"error","name":"MaxSupplyReached","inputs":[]},{"type":"error","name":"NotInitializing","inputs":[]},{"type":"error","name":"OriginalAuthorTooLong","inputs":[]},{"type":"error","name":"ReentrancyGuardReentrantCall","inputs":[]},{"type":"error","name":"RoyaltyTooHigh","inputs":[]},{"type":"error","name":"SessionKeyManagerNotSet","inputs":[]},{"type":"error","name":"SessionKeyValidationFailed","inputs":[]},{"type":"error","name":"SpamProtection","inputs":[]},{"type":"error","name":"TitleTooLong","inputs":[]},{"type":"error","name":"TransferFailed","inputs":[]},{"type":"error","name":"UUPSUnauthorizedCallContext","inputs":[]},{"type":"error","name":"UUPSUnsupportedProxiableUUID","inputs":[{"name":"slot","type":"bytes32","internalType":"bytes32"}]}],"bytecode":{"object":"0x60a080604052346100e65760017f9b779b17422d0df92223018b32b4d1fa46e071723d6817e2486d003becc55f0055306080525f5160206147c85f395f51905f525460ff8160401c166100d7576002600160401b03196001600160401b03821601610084575b6040516146dd90816100eb8239608051818181610ea201526110160152f35b6001600160401b0319166001600160401b039081175f5160206147c85f395f51905f525581527fc7f505b2f371ae2175ee4913f4499e1f2633a7b5936321eed1cdaeb6115181d290602090a15f80610065565b63f92ee8a960e01b5f5260045ffd5b5f80fdfe60806040526004361015610011575f80fd5b5f3560e01c8062fdd58e1461037457806301ffc9a71461036f5780630b8261901461036a5780630e89341c146103655780631105a5eb1461036057806319e94a6e146102985780631fe9d5781461034757806322dcd13e1461035b578063248a9ca3146103565780632a55205a146103515780632eb2c2d61461034c5780632ef9a160146103475780632f2ff15d1461034257806336568abe1461033d5780633f4ba83a14610338578063473106b2146102d4578063485cc955146103335780634e1273f41461032e5780634f1ef2861461032957806352cbd3be1461032457806352d1902d1461031f5780635780400b1461031a5780635856e4fa146103155780635c975abb1461031057806363c3cc161461030b57806363c4ea4d14610306578063795146ef1461030157806379c61f28146102fc5780637cd86d60146102f7578063837fa3fd146102f25780638456cb59146102ed57806385c3ab54146102e85780638cbd215e146102e35780638d3c100a146102de57806391d14854146102d9578063a217fddf146102d4578063a22cb465146102cf578063ac9650d8146102ca578063ad3cb1cc146102c5578063c477d7f7146102c0578063d547741f146102bb578063df7f942b146102b6578063dffd40f2146102b1578063e138818c146102ac578063e1d90b34146102a7578063e63ab1e9146102a2578063e7628e4d1461029d578063e8f100bf14610298578063e985e9c514610293578063edcfafe61461028e578063f242432a14610289578063f72c0d8b14610284578063f99e5dbb1461027f578063fde847191461027a5763ff1f090a14610275575f80fd5b611f51565b611f36565b611eb1565b611e77565b611d7b565b611c5a565b611b6e565b61077c565b611abf565b611a31565b611a16565b6119f6565b6119b0565b611920565b6118d3565b6118b7565b611870565b6117f0565b6116ff565b610bba565b6116a1565b611658565b61163b565b61161f565b6115ae565b611542565b6114b1565b611379565b61127c565b6111ea565b6111ca565b611177565b61115b565b611065565b611004565b610fb8565b610e60565b610d9f565b610bf9565b610b3c565b610af4565b610aa2565b610797565b610a0e565b610817565b6107d8565b6107b2565b610674565b61050b565b6104ab565b610408565b61039d565b6001600160a01b0381160361038a57565b5f80fd5b60a4359061039b82610379565b565b3461038a57604036600319011261038a5760206103ed6004356103bf81610379565b6024355f525f5160206145e85f395f51905f52835260405f209060018060a01b03165f5260205260405f2090565b54604051908152f35b6001600160e01b031981160361038a57565b3461038a57602036600319011261038a57600435610425816103f6565b63ffffffff60e01b16637965db0b60e01b811490811561044e575b506040519015158152602090f35b63152a902d60e11b811491508115610468575b505f610440565b636cdb3d1360e11b81149150811561049a575b8115610489575b505f610461565b6301ffc9a760e01b1490505f610482565b6303a24d0760e21b8114915061047b565b3461038a575f36600319011261038a576003546040516001600160a01b039091168152602090f35b805180835260209291819084018484015e5f828201840152601f01601f1916010190565b9060206105089281815201906104d3565b90565b3461038a57602036600319011261038a576004358015801561063c575b61062d575f526002602052600260405f20016040517f68747470733a2f2f676174657761792e697279732e78797a2f6d757461626c656020820152602f60f81b60408201525f9180549061057b82611b8d565b916001811690811561060657506001146105ca575b680bda5b99195e0b9b5960ba1b84526105c6836105ba81600988015b03601f1981018352826108f8565b604051918291826104f7565b0390f35b9092505f5260205f205f905b8382106105ef575050908101604101906105ba81610590565b6001816020925460418587010152019101906105d6565b60ff1916604180860191909152831515909302840190920193506105ba9150829050610590565b63522e582d60e11b5f5260045ffd5b505f54811015610528565b9181601f8401121561038a578235916001600160401b03831161038a576020838186019501011161038a57565b3461038a57606036600319011261038a576004356001600160401b03811161038a576106a4903690600401610647565b906024356001600160401b03811161038a576106c4903690600401610647565b9190926044356001600160401b03811161038a576106e6903690600401610647565b6106f1959195612d15565b6040831161076d576080851161076d57610100811161076d57610758610768927f198eb8de772c5a42c31d10ea779636d74f5a7cd2633012f88632697fae910db49661074a604051978897606089526060890191612025565b918683036020880152612025565b9083820360408501523396612025565b0390a2005b63251f56a160e21b5f5260045ffd5b3461038a575f36600319011261038a57602060405160408152f35b3461038a575f36600319011261038a57602060405160808152f35b3461038a575f36600319011261038a5760206001600160601b0360015416604051908152f35b3461038a57602036600319011261038a57602061080f6004355f525f5160206146085f395f51905f52602052600160405f20015490565b604051908152f35b3461038a57604036600319011261038a576004355f9081527fdaedc9ab023613a7caf35e703657e986ccfad7e3eb0af93a2853f8d65dd86b0160205260409020546001600160a01b038116906024359060a01c82156108ad575b610890916001600160601b03610888921690612076565b612710900490565b604080516001600160a01b03939093168352602083019190915290f35b507fdaedc9ab023613a7caf35e703657e986ccfad7e3eb0af93a2853f8d65dd86b00546001600160a01b038116925060a01c610871565b634e487b7160e01b5f52604160045260245ffd5b90601f801991011681019081106001600160401b0382111761091957604052565b6108e4565b6040519061039b610100836108f8565b6001600160401b0381116109195760051b60200190565b9080601f8301121561038a57813561095c8161092e565b9261096a60405194856108f8565b81845260208085019260051b82010192831161038a57602001905b8282106109925750505090565b8135815260209182019101610985565b6001600160401b03811161091957601f01601f191660200190565b9291926109c9826109a2565b916109d760405193846108f8565b82948184528183011161038a578281602093845f960137010152565b9080601f8301121561038a57816020610508933591016109bd565b3461038a5760a036600319011261038a57600435610a2b81610379565b60243590610a3882610379565b6044356001600160401b03811161038a57610a57903690600401610945565b6064356001600160401b03811161038a57610a76903690600401610945565b90608435936001600160401b03851161038a57610a9a610aa09536906004016109f3565b93612089565b005b3461038a57604036600319011261038a57610aa0602435600435610ac582610379565b610aef610aea825f525f5160206146085f395f51905f52602052600160405f20015490565b612e69565b6130cd565b3461038a57604036600319011261038a57600435602435610b1481610379565b336001600160a01b03821603610b2d57610aa091613162565b63334bd91960e11b5f5260045ffd5b3461038a575f36600319011261038a57610b54612d3c565b5f5160206146285f395f51905f525460ff811615610bab5760ff19165f5160206146285f395f51905f52557f5db9ee0a495bf2e6ff9c91a7834c1ba4fdd244a5e8aa4e537bd38aeae4b073aa6020604051338152a1005b638dfc202b60e01b5f5260045ffd5b3461038a575f36600319011261038a5760206040515f8152f35b604090600319011261038a57600435610bec81610379565b9060243561050881610379565b3461038a57610c0736610bd4565b5f5160206146685f395f51905f525491906001600160401b03610c3960ff604086901c1615946001600160401b031690565b1680159081610d53575b6001149081610d49575b159081610d40575b50610d3157610c989183610c8f60016001600160401b03195f5160206146685f395f51905f525416175f5160206146685f395f51905f5255565b610cf7576120da565b610c9e57005b610cc860ff60401b195f5160206146685f395f51905f5254165f5160206146685f395f51905f5255565b604051600181527fc7f505b2f371ae2175ee4913f4499e1f2633a7b5936321eed1cdaeb6115181d290602090a1005b610d2c6801000000000000000060ff60401b195f5160206146685f395f51905f525416175f5160206146685f395f51905f5255565b6120da565b63f92ee8a960e01b5f5260045ffd5b9050155f610c55565b303b159150610c4d565b849150610c43565b90602080835192838152019201905f5b818110610d785750505090565b8251845260209384019390920191600101610d6b565b906020610508928181520190610d5b565b3461038a57604036600319011261038a576004356001600160401b03811161038a573660238201121561038a57806004013590610ddb8261092e565b91610de960405193846108f8565b8083526024602084019160051b8301019136831161038a57602401905b828210610e4657836024356001600160401b03811161038a576105c691610e34610e3a923690600401610945565b906122e5565b60405191829182610d8e565b602080918335610e5581610379565b815201910190610e06565b604036600319011261038a57600435610e7881610379565b6024356001600160401b03811161038a57610e979036906004016109f3565b906001600160a01b037f000000000000000000000000000000000000000000000000000000000000000016308114908115610f96575b50610f8757610eda612dab565b6040516352d1902d60e01b8152916020836004816001600160a01b0386165afa5f9381610f56575b50610f2357634c9c8ce360e01b5f526001600160a01b03821660045260245ffd5b905f5160206145a85f395f51905f528303610f4257610aa09250614104565b632a87526960e21b5f52600483905260245ffd5b610f7991945060203d602011610f80575b610f7181836108f8565b810190613275565b925f610f02565b503d610f67565b63703e46dd60e11b5f5260045ffd5b5f5160206145a85f395f51905f52546001600160a01b0316141590505f610ecd565b3461038a57602036600319011261038a577ffcae2461302da2a86e3604d10afc558dc160d49eb88bc010c4bca093793857ff6020600435610ff7612e1a565b80600455604051908152a1005b3461038a575f36600319011261038a577f00000000000000000000000000000000000000000000000000000000000000006001600160a01b03163003610f875760206040515f5160206145a85f395f51905f528152f35b8015150361038a57565b3461038a5760c036600319011261038a5760043561108281610379565b60243561108e81610379565b60443561109a81610379565b6064356110a68161105b565b6084359160a4356001600160401b03811161038a57611129936110d0611123923690600401610647565b916110d9612d15565b6110e161328f565b6040516331e1e60b60e11b60208201526001600160a01b038716602482015287151560448083019190915281529089908b9061111e6064856108f8565b6132c8565b84613563565b6040516331e1e60b60e11b81526001600160a01b0391821692909116905f5160206145c85f395f51905f5290602090a3005b3461038a575f36600319011261038a5760206040516104008152f35b3461038a575f36600319011261038a57602060ff5f5160206146285f395f51905f5254166040519015158152f35b604090600319011261038a576004356111bd81610379565b906024356105088161105b565b3461038a57610aa06111db366111a5565b906111e4612d15565b33613563565b61012036600319011261038a5760043561120381610379565b60243561120f81610379565b6044359160643560ff8116810361038a576084356001600160401b03811161038a5761123f903690600401610647565b61124761038e565b9060c4359260e4359461010435986001600160401b038a1161038a57611274610aa09a3690600401610647565b99909861237a565b60c036600319011261038a5760043561129481610379565b6024356112a081610379565b6064356044356112af82610379565b6084359160a4356001600160401b03811161038a57611336936112d961132e923690600401610647565b916112e26135a2565b6112ea612d15565b6112f261328f565b60405163469e080560e11b6020820152602481018890526001600160a01b038716604482015261132581606481016105ac565b898b34936133ad565b349185613815565b60405163469e080560e11b81526001600160a01b0391821692909116905f5160206145c85f395f51905f5290602090a360015f5160206146485f395f51905f5255005b61010036600319011261038a5760043561139281610379565b60243561139e81610379565b6064356044356084356113b081610379565b60a435906113bd82610379565b60e43560c4356001600160401b03821161038a576113e261144a923690600401610647565b916113eb6135a2565b6113f3612d15565b6113fb61328f565b604051636ffea07960e11b602082015260248101899052604481018a90526001600160a01b0387811660648301528816608480830191909152815261144160a4826108f8565b8a8c349361349a565b34156114a25761145c93349387613975565b604051636ffea07960e11b81526001600160a01b0391821692909116905f5160206145c85f395f51905f5290602090a3610aa060015f5160206146485f395f51905f5255565b633f7d56c960e11b5f5260045ffd5b3461038a57602036600319011261038a576004356114ce81610379565b6114d6612e1a565b6001600160a01b038116908115611533577f7dae230f18360d76a040c81f050aa14eb9d6dc7901b20fc5d855e2a20fe814d19161152a6020926001600160601b036001549181199060601b16911617600155565b604051908152a1005b63e6c4247b60e01b5f5260045ffd5b3461038a57602036600319011261038a5760043561155f81610379565b611567612e1a565b6001600160a01b0316801561153357600380546001600160a01b031916821790557f4d57218e59793e6845c36a961c3af7acfce8c54b13a697da231466fc265fdb615f80a2005b3461038a575f36600319011261038a576115c6612d3c565b6115ce612d15565b600160ff195f5160206146285f395f51905f525416175f5160206146285f395f51905f52557f62e78cea01bee320cd4e420270b5ea74000d11b0c9f74754ebdbfc544b05a2586020604051338152a1005b3461038a575f36600319011261038a5760205f54604051908152f35b3461038a575f36600319011261038a576020600454604051908152f35b604036600319011261038a5761168e60043560243561167681610379565b61167e6135a2565b611686612d15565b349133613815565b60015f5160206146485f395f51905f5255005b3461038a57604036600319011261038a57602060ff6116f36024356004356116c882610379565b5f525f5160206146085f395f51905f52845260405f209060018060a01b03165f5260205260405f2090565b54166040519015158152f35b3461038a5761170d366111a5565b6001600160a01b03821691821561177f576117409061172b33611fb9565b9060018060a01b03165f5260205260405f2090565b9015159060ff1981541660ff83161790556040519081527f17307eab39ab6107e8899845ad3d59bd9653f200f220920489ca2b5937696c3160203392a3005b62ced3e160e81b5f525f60045260245ffd5b602081016020825282518091526040820191602060408360051b8301019401925f915b8383106117c357505050505090565b90919293946020806117e1600193603f1986820301875289516104d3565b970193019301919392906117b4565b3461038a57602036600319011261038a576004356001600160401b03811161038a573660238201121561038a578060040135906001600160401b03821161038a573660248360051b8301011161038a576105c691602461185092016124ef565b60405191829182611791565b6040519061186b6020836108f8565b5f8252565b3461038a575f36600319011261038a576105c66040516118916040826108f8565b60058152640352e302e360dc1b60208201526040519182916020835260208301906104d3565b3461038a575f36600319011261038a5760206040516101008152f35b3461038a57604036600319011261038a57610aa06024356004356118f682610379565b61191b610aea825f525f5160206146085f395f51905f52602052600160405f20015490565b613162565b3461038a5760a036600319011261038a5760043561193d81610379565b60243561194981610379565b604435906001600160401b03821161038a57610120600319833603011261038a57608435916064356001600160401b03841161038a576105c6946119946119a0953690600401610647565b949093600401916125ab565b6040519081529081906020820190565b608036600319011261038a5761168e6004356024356044356119d181610379565b606435916119de83610379565b6119e66135a2565b6119ee612d15565b349333613975565b3461038a575f36600319011261038a57602060015460601c604051908152f35b3461038a575f36600319011261038a57602060405160018152f35b3461038a575f36600319011261038a5760206040517f65d7a28e3265b37a6474929f336521b332c1681b933f6cb9f3376673440d862a8152f35b6001600160401b0381160361038a57565b6024359061039b82611a6b565b6001600160601b0381160361038a57565b6044359061039b82611a89565b6003111561038a57565b610104359061039b82611aa7565b3461038a5761012036600319011261038a576004356001600160401b03811161038a57611af0903690600401610647565b90611af9611a7c565b90611b02611a9a565b926064356001600160401b03811161038a57611b22903690600401610647565b939094608435946001600160401b03861161038a576105c696611b4c6119a0973690600401610647565b929091611b5761038e565b9460c4359660e43598611b68611ab1565b9a612bac565b3461038a57602060ff6116f361172b611b8636610bd4565b9190611fb9565b90600182811c92168015611bbb575b6020831014611ba757565b634e487b7160e01b5f52602260045260245ffd5b91607f1691611b9c565b60031115611bcf57565b634e487b7160e01b5f52602160045260245ffd5b906003821015611bcf5752565b946001600160601b0390611c3b63ffffffff9661ffff6105089c9b976001600160401b038a986101009d9860018060a01b03168d521660208c01521660408a01526060890190611be3565b1660808601521660a08401521660c08201528160e082015201906104d3565b3461038a57602036600319011261038a576004355f52600260205260405f20805490600260018201549101604051905f90805490611c9782611b8d565b8085529160018116908115611d545750600114611d14575b505090611cc1816105c69303826108f8565b604051938363ffffffff869560801c16916001600160601b0363ffffffff8360601c1692169060ff8160f01c169061ffff8160e01c16906001600160401b038160a01c169060018060a01b031689611bf0565b5f90815260208120939250905b808210611d3a57509091508101602001611cc182611caf565b919260018160209254838588010152019101909291611d21565b60ff191660208087019190915292151560051b85019092019250611cc19150839050611caf565b3461038a5760a036600319011261038a57600435611d9881610379565b602435611da481610379565b60443590606435926084356001600160401b03811161038a57611dcb9036906004016109f3565b926001600160a01b0382163381141580611e66575b611e50576001600160a01b03841615611e3d5715611e2b57610aa094611e2360405192600184526020840152604083019160018352606084015260808301604052565b929091613edc565b626a0d4560e21b5f525f60045260245ffd5b632bfa23e760e11b5f525f60045260245ffd5b63711bec9160e11b5f523360045260245260445ffd5b50611e713384612d01565b15611de0565b3461038a575f36600319011261038a5760206040517f189ab7a9244df0848122154315af71fe140f3db0fe014031783b0946b8c9d2e38152f35b3461038a57602036600319011261038a576001600160601b03600435611ed681611a89565b611ede612e1a565b16610bb88111611f27576020817f7cb8fa1ce2fc1ff6556e563c0dcba551db7cdeb3f3b0911243692639ac80e94d926001600160601b03196001541617600155604051908152a1005b63cd4e616760e01b5f5260045ffd5b3461038a575f36600319011261038a57602060405160028152f35b60a036600319011261038a5760243560043560ff8216820361038a57604435916001600160401b03831161038a57611f9061168e933690600401610647565b60643591611f9d83610379565b60843593611fa96135a2565b611fb1612d15565b34953361362f565b6001600160a01b03165f9081527f88be536d5240c274a3b1d3a1be54482fd9caa294f08c62a7cde569f49a3c45016020526040902090565b612021915f525f5160206145e85f395f51905f5260205260405f209060018060a01b03165f5260205260405f2090565b5490565b908060209392818452848401375f828201840152601f01601f1916010190565b634e487b7160e01b5f52601160045260245ffd5b906103e88202918083046103e8149015171561207157565b612045565b8181029291811591840414171561207157565b939291906001600160a01b03851633811415806120c2575b611e50576001600160a01b03821615611e3d5715611e2b5761039b94613edc565b5060ff6120d23361172b89611fb9565b5416156120a1565b604051929160206120eb81866108f8565b5f85526120f66140d9565b6120fe6140d9565b8451906001600160401b0382116109195761212f8261212a5f5160206146885f395f51905f5254611b8d565b6128c7565b602090601f83116001146122115750816121d19392612168926121ee97985f92612206575b50508160011b915f199060031b1c19161790565b5f5160206146885f395f51905f52555b6121806140d9565b6121886140d9565b6121906140d9565b6121986140d9565b6121a183612eaf565b506121ab83612f4b565b506121b58361300c565b506001600160601b036001549181199060601b16911617600155565b6121e960fa6001600160601b03196001541617600155565b613202565b6121f760015f55565b61039b6512309ce54000600455565b015190505f80612154565b5f5160206146885f395f51905f525f52601f198316969091907ff429cb5e2ec84cbb765e76b31964a56ccde03e7a6122d6cc4afb19edc55edeed925f905b8982106122a05750509183916001936121d196956121ee999a10612288575b505050811b015f5160206146885f395f51905f5255612178565b01515f1960f88460031b161c191690555f808061226e565b8060018596829496860151815501950193019061224f565b634e487b7160e01b5f52603260045260245ffd5b80518210156122e05760209160051b010190565b6122b8565b919091805183518082036123655750508051906123018261092e565b9161230f60405193846108f8565b80835261231e601f199161092e565b013660208401375f5b815181101561235e578061234d60019260051b6020808287010151918901015190611ff1565b61235782866122cc565b5201612327565b5090925050565b635b05999160e01b5f5260045260245260445ffd5b99819961241499878661240c958f612405899e9d9c9b9a998d8f6123e28e6123a06135a2565b6123a8612d15565b6123b061328f565b9960ff6040519a8b97637f8f848560e11b60208a0152602489015216604487015260a0606487015260c4860191612025565b6001600160a01b03909216608484015260a483015203601f1981018552846108f8565b3493613430565b34958961362f565b604051600162707b7b60e11b031981526001600160a01b0391821692909116905f5160206145c85f395f51905f5290602090a361039b60015f5160206146485f395f51905f5255565b9190820391821161207157565b903590601e198136030182121561038a57018035906001600160401b03821161038a5760200191813603831361038a57565b908210156122e0576124b39160051b81019061246a565b9091565b60208061039b93959486604051978895848701378401908282015f8152815193849201905e01015f815203601f1981018452836108f8565b6124f85f6109a2565b61250560405191826108f8565b5f8152601f196125145f6109a2565b013660208301376125248361092e565b9261253260405194856108f8565b808452601f196125418261092e565b015f5b81811061259a5750505f5b81811061255d575050505090565b8061257e61257885612572600195878a61249c565b906124b7565b30613a83565b61258882886122cc565b5261259381876122cc565b500161254f565b806060602080938901015201612544565b919290939461260f906125bc612d15565b6125c461328f565b9660408601936125d385612861565b986125fe606089019a6125e68c8b61246a565b6125f660808d949394018d61246a565b939092613af6565b88876126098a613b49565b92613501565b60c0830135906001600160601b0382116128525761ffff6001600160401b0361263a6020870161286b565b16116128435760e08401359263ffffffff84116128345760a085016001600160a01b0361266682612875565b161561282d5761267590612875565b905b5f549788936126858561287f565b5f55612691888061246a565b9061269e60208b0161286b565b61ffff169163ffffffff8a166001600160601b038a166126c16101008e0161288d565b6126c961091e565b6001600160a01b038b168152956001600160401b034216602088015261ffff1660408701526126fb9060608701612897565b6001600160601b0316608085015263ffffffff1660a0840152600160c08401523690612726926109bd565b60e082015261273d865f52600260205260405f2090565b9061274791612a31565b61274f61185c565b61275a908685613c69565b61276390612861565b61276e908486613e0a565b61277a6020880161286b565b91612785888061246a565b979092612792908a61246a565b9790956127a260808c018c61246a565b909b610100016127b19061288d565b94600160a01b60019003169b8c9a604051996001600160401b038b9a169d6127d9998b612b47565b037f20f06ccd8e783fa38422d2d4d0de66669fed0f0b45f372d88ff723d8063eb4ab91a460405163e7628e4d60e01b81526001600160a01b0392909216915f5160206145c85f395f51905f5290602090a390565b5080612677565b6309c1d04f60e01b5f5260045ffd5b630e13ec1760e31b5f5260045ffd5b634264fe7960e01b5f5260045ffd5b3561050881611a89565b3561050881611a6b565b3561050881610379565b5f1981146120715760010190565b3561050881611aa7565b6003821015611bcf5752565b906003811015611bcf57815460ff60f01b191660f09190911b60ff60f01b16179055565b601f81116128d3575050565b5f5160206146885f395f51905f525f5260205f20906020601f840160051c83019310612919575b601f0160051c01905b81811061290e575050565b5f8155600101612903565b90915081906128fa565b601f821161293057505050565b5f5260205f20906020601f840160051c83019310612968575b601f0160051c01905b81811061295d575050565b5f8155600101612952565b9091508190612949565b91909182516001600160401b03811161091957612999816129938454611b8d565b84612923565b6020601f82116001146129cc5781906129c89394955f926122065750508160011b915f199060031b1c19161790565b9055565b601f198216906129df845f5260205f2090565b915f5b818110612a1957509583600195969710612a01575b505050811b019055565b01515f1960f88460031b161c191690555f80806129f7565b9192602060018192868b0151815501940192016129e2565b815181546020840151604085015161ffff60e01b60e091821b166001600160f01b03199093166001600160a01b039094169390931767ffffffffffffffff60a01b60a09290921b919091161717825561039b9260029190612a9f6060820151612a9981611bc5565b856128a3565b612b3e60018501612ade612abd60808501516001600160601b031690565b82546bffffffffffffffffffffffff19166001600160601b03909116178255565b612b12612af260a085015163ffffffff1690565b825463ffffffff60601b191660609190911b63ffffffff60601b16178255565b60c083015163ffffffff165b815463ffffffff60801b191660809190911b63ffffffff60801b16179055565b01519101612972565b9590612b8b9360c0989c9b9995612b6f612b7d9361039b9d999660e08c5260e08c0191612025565b9189830360208b0152612025565b918683036040880152612025565b6001600160a01b039098166060840152608083015260a08201520190611be3565b9496612bcc81888a879f98809b969e979d9f98612bc7612d15565b613af6565b6001600160601b038311612852576001600160401b0389169a61ffff8c116128435763ffffffff8511612834576001600160a01b03811615612cf957915b5f549c8d9a612c188c61287f565b5f55612c2261091e565b6001600160a01b0386168152906001600160401b034216602083015261ffff166040820152612c548860608301612897565b6001600160601b038616608082015263ffffffff871660a0820152600160c0820152612c81368e8b6109bd565b60e0820152612c988c5f52600260205260405f2090565b90612ca291612a31565b8a612cab61185c565b612cb59133613c69565b612cc090848c613e0a565b604051988998339c612cd2998b612b47565b037f20f06ccd8e783fa38422d2d4d0de66669fed0f0b45f372d88ff723d8063eb4ab91a490565b503391612c0a565b60ff9161172b612d1092611fb9565b541690565b60ff5f5160206146285f395f51905f525416612d2d57565b63d93c066560e01b5f5260045ffd5b335f9081527f75442b0a96088b5456bc4ed01394c96a4feec0f883c9494257d76b96ab1c9b6b602052604090205460ff1615612d7457565b63e2517d3f60e01b5f52336004527f65d7a28e3265b37a6474929f336521b332c1681b933f6cb9f3376673440d862a60245260445ffd5b335f9081527fab71e3f32666744d246edff3f96e4bdafee2e9867098cdd118a979a7464786a8602052604090205460ff1615612de357565b63e2517d3f60e01b5f52336004527f189ab7a9244df0848122154315af71fe140f3db0fe014031783b0946b8c9d2e360245260445ffd5b335f9081527fb7db2dd08fcb62d0c9e08c51941cae53c267786a0b75803fb7960902fc8ef97d602052604090205460ff1615612e5257565b63e2517d3f60e01b5f52336004525f60245260445ffd5b5f8181525f5160206146085f395f51905f526020908152604080832033845290915290205460ff1615612e995750565b63e2517d3f60e01b5f523360045260245260445ffd5b6001600160a01b0381165f9081527fb7db2dd08fcb62d0c9e08c51941cae53c267786a0b75803fb7960902fc8ef97d602052604090205460ff16612f46576001600160a01b03165f8181527fb7db2dd08fcb62d0c9e08c51941cae53c267786a0b75803fb7960902fc8ef97d60205260408120805460ff191660011790553391905f5160206145885f395f51905f528180a4600190565b505f90565b6001600160a01b0381165f9081527fab71e3f32666744d246edff3f96e4bdafee2e9867098cdd118a979a7464786a8602052604090205460ff16612f46576001600160a01b0381165f9081527fab71e3f32666744d246edff3f96e4bdafee2e9867098cdd118a979a7464786a860205260409020805460ff1916600117905533906001600160a01b03167f189ab7a9244df0848122154315af71fe140f3db0fe014031783b0946b8c9d2e35f5160206145885f395f51905f525f80a4600190565b6001600160a01b0381165f9081527f75442b0a96088b5456bc4ed01394c96a4feec0f883c9494257d76b96ab1c9b6b602052604090205460ff16612f46576001600160a01b0381165f9081527f75442b0a96088b5456bc4ed01394c96a4feec0f883c9494257d76b96ab1c9b6b60205260409020805460ff1916600117905533906001600160a01b03167f65d7a28e3265b37a6474929f336521b332c1681b933f6cb9f3376673440d862a5f5160206145885f395f51905f525f80a4600190565b5f8181525f5160206146085f395f51905f52602090815260408083206001600160a01b038616845290915290205460ff1661315c575f8181525f5160206146085f395f51905f52602090815260408083206001600160a01b03861684529091529020805460ff1916600117905533916001600160a01b0316905f5160206145885f395f51905f525f80a4600190565b50505f90565b5f8181525f5160206146085f395f51905f52602090815260408083206001600160a01b038616845290915290205460ff161561315c575f8181525f5160206146085f395f51905f52602090815260408083206001600160a01b03861684529091529020805460ff1916905533916001600160a01b0316907ff6391f5c32d9c69d2a47ea670b442974b53935d1edc7fd64eb21e047a839171b5f80a4600190565b6001600160a01b0316801561326257604051906132206040836108f8565b8082526101f46020909201919091526001600160a01b0316607d60a21b177fdaedc9ab023613a7caf35e703657e986ccfad7e3eb0af93a2853f8d65dd86b0055565b635b6cc80560e11b5f525f60045260245ffd5b9081602091031261038a575190565b6040513d5f823e3d90fd5b6003546001600160a01b03169081156132a457565b63022fcd8560e61b5f5260045ffd5b9081602091031261038a57516105088161105b565b60405163027f58e560e61b81526001600160a01b0392831660048201529190921660248201523060448201526331e1e60b60e11b60648201526101006084820152946020948694929385935f9385936133479361332a906101048701906104d3565b928660a487015260c48601526003198584030160e4860152612025565b03926001600160a01b03165af19081156133a8575f91613379575b501561336a57565b6309fb5d8760e21b5f5260045ffd5b61339b915060203d6020116133a1575b61339381836108f8565b8101906132b3565b5f613362565b503d613389565b613284565b60405163027f58e560e61b81526001600160a01b03928316600482015291909216602482015230604482015263469e080560e11b60648201526101006084820152956020958795929486945f948694613347949092909190613414906101048801906104d3565b9360a487015260c48601526003198584030160e4860152612025565b60405163027f58e560e61b81526001600160a01b039283166004820152919092166024820152306044820152600162707b7b60e11b031960648201526101006084820152956020958795929486945f948694613347949092909190613414906101048801906104d3565b60405163027f58e560e61b81526001600160a01b039283166004820152919092166024820152306044820152636ffea07960e11b60648201526101006084820152956020958795929486945f948694613347949092909190613414906101048801906104d3565b60405163027f58e560e61b81526001600160a01b03928316600482015291909216602482015230604482015263e7628e4d60e01b60648201526101006084820152946020948694929385935f9385936133479361332a906101048701906104d3565b60405192151583526001600160a01b03918216929116907f75a1fc5e2239f53dc8407b3712c878c5893431bc3c349ea3561584869670f7f290602090a3565b60025f5160206146485f395f51905f5254146135cb5760025f5160206146485f395f51905f5255565b633ee5aeb560e01b5f5260045ffd5b3d15613604573d906135eb826109a2565b916135f960405193846108f8565b82523d5f602084013e565b606090565b92949361362360ff92604094606087526060870191612025565b95602085015216910152565b929695919490955f5487101561062d5760ff86166002811161380657610400861161076d57851580806137fe575b806137f6575b6137e757159283806137dc575b6114a2578561369761368a8b5f52600260205260405f2090565b546001600160a01b031690565b92846136f9575b50505050506136b0575b505050505050565b7f19a5aae49af5681d63d1a8c6ea9dc7b88af86e08d71ade984e2087fada0d4c4a936136eb9160405194859460018060a01b03169885613609565b0390a35f80808080806136a8565b600203613792575050505f8080808461372661371a61371a60015460601c90565b6001600160a01b031690565b5af16137306135da565b5015613783575b6040805160ff8816815260208101929092526001600160a01b0385169188917fc199635a11ffccf62419a83e03370cef9ba2a2c0a33d65c2fe60542bd560a0a991a35f8080858161369e565b6312171d8360e31b5f5260045ffd5b826137a0916137a6936141a6565b836141f5565b90816137b4575b5050613737565b5f918291829182916001600160a01b03165af16137cf6135da565b5015613783575f806137ad565b506004548310613670565b630eb90eff60e01b5f5260045ffd5b508215613663565b50811561365d565b631556136560e01b5f5260045ffd5b90915f5483101561062d57613832835f52600260205260405f2090565b80546001906001600160a01b0316910180549261385c606085901c63ffffffff1663ffffffff1690565b9384156139665763ffffffff608082901c169485101561395757613890906001600160601b03165b6001600160601b031690565b87106139485782856138cc926138b56138d295612b1e8b99600163ffffffff91011690565b6138c76138c061185c565b8884613c69565b6141a6565b866141f5565b908161391d575b50506040805194855260208501919091526001600160a01b0391909116927ff6447f421186fdb05672b6b81ee863f6266ccf87f727fc67ed367774af8600659190a3565b5f9250829182918291906001600160a01b03165af161393a6135da565b501561378357815f806138d9565b63cd1c886760e01b5f5260045ffd5b63d05cb60960e01b5f5260045ffd5b635874ec2360e01b5f5260045ffd5b9193949092945f5484101561062d576001600160a01b0386168015613a745782156114a2576139c66139c08886946139b861368a8a5f52600260205260405f2090565b9586916142c7565b846141f5565b6139da6139d38260011c90565b809261245d565b9281613a4c575b505081613a2f575b5050604080516001600160a01b039687168152602081019290925291909416937f37d3451d72bbbc5dc39c5c55aacb3b768d87ef17ab36990c4c60e96e6a0cf1459190a4565b5f80809381935af1613a3f6135da565b5015613783575f806139e9565b5f918291829182916001600160a01b03165af1613a676135da565b5015613783575f806139e1565b633e510d3960e21b5f5260045ffd5b905f8091602081519101845af48080613ae3575b15613aa6575050610508614308565b15613acb57639996b31560e01b5f9081526001600160a01b0391909116600452602490fd5b3d15155f036132845763d6bda27560e01b5f5260045ffd5b503d151580613a975750813b1515613a97565b6127109293506001600160601b0391501611613b3a57604010613b2b57608010613b1c57565b6324a25c5760e01b5f5260045ffd5b631750ba0360e01b5f5260045ffd5b63c2b03beb60e01b5f5260045ffd5b613b53818061246a565b9091602081013590613b6482611a6b565b604081013590613b7382611a89565b613b80606082018261246a565b90613b8e608084018461246a565b909160a085013596613b9f88610379565b60c08601359460e087013596610100013597613bba89611aa7565b60405163e7628e4d60e01b602082015261012060248201529b8c9b613be5916101448e019190612025565b926001600160401b031660448c01526001600160601b031660648b01526023198a83030160848b0152613c1792612025565b906023198883030160a4890152613c2d92612025565b6001600160a01b0390941660c486015260e4850152610104840152613c5790610124840190611be3565b03601f198101825261050890826108f8565b9291906001600160a01b03841615611e3d576001613ca460405192600184526020840152604083019160018352606084015260808301604052565b908051825190818103613df55750506001600160a01b03851693841515935f5b8351811015613d295780868960019360051b602080828a010151918a01015192613cf2575b50505001613cc4565b613d1f9161172b613d17925f525f5160206145e85f395f51905f5260205260405f2090565b918254614321565b90555f8981613ce9565b509390959460018351145f14613dba576020838101518582015160408051928352928201525f9133917fc3d58168c5ae7397731d063d5bbf3d657854427343f4c083240f7aacaa2d0f629190a45b613d82575b50505050565b8051600103613daa5790602080613da195930151910151915f336144e9565b5f808080613d7c565b613db5935f336143bb565b613da1565b5f6040517f4a39dc06d4c0dbc64b70af90fd698a233a518aa5d07e595d983b8c0526c8f7fb339180613ded89898361432e565b0390a4613d77565b635b05999160e01b5f5260045260245260445ffd5b92916001600160601b03166127108111613ec0576001600160a01b03821615613ea95761039b9293613e819160405193613e456040866108f8565b60018060a01b0316845260208401525f527fdaedc9ab023613a7caf35e703657e986ccfad7e3eb0af93a2853f8d65dd86b0160205260405f2090565b815160209092015160a01b6001600160a01b0319166001600160a01b03909216919091179055565b83634b4f842960e11b5f526004525f60245260445ffd5b8363dfd1fc1b60e01b5f5260045260245261271060445260645ffd5b9493929091938451825190818103613df55750506001600160a01b038681169586151595918516801515939192905f5b845181101561400c578060051b90898988602080868b010151958c01015192613f71575b93600194613f42575b50505001613f0c565b613f679161172b613d17925f525f5160206145e85f395f51905f5260205260405f2090565b90555f8981613f39565b50509091613f978d61172b835f525f5160206145e85f395f51905f5260205260405f2090565b54828110613fd5578291898f613fcc600197968f95039161172b855f525f5160206145e85f395f51905f5260205260405f2090565b55909450613f30565b6040516303dee4c560e01b81526001600160a01b038f16600482015260248101919091526044810183905260648101829052608490fd5b5091989593929790965060018851145f1461409f5760208881015186820151604080519283529282015233917fc3d58168c5ae7397731d063d5bbf3d657854427343f4c083240f7aacaa2d0f6291a45b614068575b5050505050565b845160010361408e5760208061408496015192015192336144e9565b5f80808080614061565b61409a949192336143bb565b614084565b6040517f4a39dc06d4c0dbc64b70af90fd698a233a518aa5d07e595d983b8c0526c8f7fb3391806140d1898d8361432e565b0390a461405c565b60ff5f5160206146685f395f51905f525460401c16156140f557565b631afcd79f60e31b5f5260045ffd5b90813b15614185575f5160206145a85f395f51905f5280546001600160a01b0319166001600160a01b0384169081179091557fbc7cd75a20ee27fd9adebab32041f755214dbc6bffa90cc0225b39da2e5c2d3b5f80a280511561416d5761416a91613a83565b50565b50503461417657565b63b398979f60e01b5f5260045ffd5b50634c9c8ce360e01b5f9081526001600160a01b0391909116600452602490fd5b916001600160a01b03831680159290919083156141e2575b5082156141cf575b5050612f465790565b6001600160a01b03161490505f806141c6565b6001600160a01b0316821492505f6141be565b60015491906142186108886142126001600160601b038616613884565b83612076565b916001600160a01b031680156142bf578261423561088884612059565b945b81614293575b50508361424b575b50030390565b5f80808087855af161425b6135da565b5015613783576040518481527f6292f4f27d8047af4537a4bd86906de0e2c880c20086f7f58b81eacfeb63912690602090a25f614245565b5f8080936142a861371a61371a849660601c90565b5af16142b26135da565b501561378357825f61423d565b825f94614237565b926001600160a01b038416801593909284156142f5575b5083156141e2575082156141cf575050612f465790565b6001600160a01b0316831493505f6142de565b604051903d82523d5f602084013e60203d830101604052565b9190820180921161207157565b909161434561050893604084526040840190610d5b565b916020818403910152610d5b565b9081602091031261038a5751610508816103f6565b6001600160a01b0391821681529116602082015260a06040820181905261050894919391926143ad929161439f9190860190610d5b565b908482036060860152610d5b565b9160808184039101526104d3565b9091949293853b6143ce57505050505050565b6020936143f091604051968795869563bc197c8160e01b875260048701614368565b03815f6001600160a01b0387165af15f918161447f575b5061444157506144156135da565b805191908261443a57632bfa23e760e11b5f526001600160a01b03821660045260245ffd5b6020915001fd5b6001600160e01b0319166343e6837f60e01b0161446457505f80808080806136a8565b632bfa23e760e11b5f526001600160a01b031660045260245ffd5b6144a291925060203d6020116144a9575b61449a81836108f8565b810190614353565b905f614407565b503d614490565b6001600160a01b039182168152911660208201526040810191909152606081019190915260a060808201819052610508929101906104d3565b9091949293853b6144fc57505050505050565b60209361451e91604051968795869563f23a6e6160e01b8752600487016144b0565b03815f6001600160a01b0387165af15f9181614566575b5061454357506144156135da565b6001600160e01b031916630dc5919f60e01b0161446457505f80808080806136a8565b61458091925060203d6020116144a95761449a81836108f8565b905f61453556fe2f8788117e7eff1d82e926ec794901d17c78024a50270940304540a733656f0d360894a13ba1a3210667c828492db98dca3e2076cc3735a920a3ca505d382bbce915025b6f599b245c9c1c02d463228c896354d64dceb469760c99544153be6d88be536d5240c274a3b1d3a1be54482fd9caa294f08c62a7cde569f49a3c450002dd7bc7dec4dceedda775e58dd541e08a116c6c53815c0bd028192f7b626800cd5ed15c6e187e77e9aee88184c21f4f2182ab5827cb3b7e07fbedcd63f033009b779b17422d0df92223018b32b4d1fa46e071723d6817e2486d003becc55f00f0c57e16840df040f15088dc2f81fe391c3923bec73e23a9662efc9c229c6a0088be536d5240c274a3b1d3a1be54482fd9caa294f08c62a7cde569f49a3c4502a2646970667358221220743ec74b094062513d85a8eefa4efc6e6597c108ac9c680737910881ca62396d64736f6c634300081e0033f0c57e16840df040f15088dc2f81fe391c3923bec73e23a9662efc9c229c6a00","linkReferences":{}},"methodIdentifiers":{"DEFAULT_ADMIN_ROLE()":"a217fddf","MAX_AVATAR_LENGTH()":"1fe9d578","MAX_BIO_LENGTH()":"c477d7f7","MAX_COMMENT_LENGTH()":"5856e4fa","MAX_NICKNAME_LENGTH()":"e8f100bf","MAX_ORIGINAL_AUTHOR_LENGTH()":"19e94a6e","MAX_TITLE_LENGTH()":"2ef9a160","PAUSER_ROLE()":"e63ab1e9","SCORE_DISLIKE()":"fde84719","SCORE_LIKE()":"e1d90b34","SCORE_NEUTRAL()":"473106b2","UPGRADER_ROLE()":"f72c0d8b","UPGRADE_INTERFACE_VERSION()":"ad3cb1cc","articles(uint256)":"edcfafe6","balanceOf(address,uint256)":"00fdd58e","balanceOfBatch(address[],uint256[])":"4e1273f4","collect(uint256,address)":"8d3c100a","collectWithSessionKey(address,address,uint256,address,uint256,bytes)":"795146ef","evaluate(uint256,uint8,string,address,uint256)":"ff1f090a","evaluateWithSessionKey(address,address,uint256,uint8,string,address,uint256,uint256,bytes)":"63c4ea4d","follow(address,bool)":"63c3cc16","followWithSessionKey(address,address,address,bool,uint256,bytes)":"5780400b","getRoleAdmin(bytes32)":"248a9ca3","grantRole(bytes32,address)":"2f2ff15d","hasRole(bytes32,address)":"91d14854","initialize(address,address)":"485cc955","isApprovedForAll(address,address)":"e985e9c5","likeComment(uint256,uint256,address,address)":"dffd40f2","likeCommentWithSessionKey(address,address,uint256,uint256,address,address,uint256,bytes)":"79c61f28","minActionValue()":"8cbd215e","multicall(bytes[])":"ac9650d8","nextArticleId()":"85c3ab54","pause()":"8456cb59","paused()":"5c975abb","platformFeeBps()":"22dcd13e","platformTreasury()":"e138818c","proxiableUUID()":"52d1902d","publish(string,uint64,uint96,string,string,address,uint256,uint256,uint8)":"e7628e4d","publishWithSessionKey(address,address,(string,uint64,uint96,string,string,address,uint256,uint256,uint8),uint256,bytes)":"df7f942b","renounceRole(bytes32,address)":"36568abe","revokeRole(bytes32,address)":"d547741f","royaltyInfo(uint256,uint256)":"2a55205a","safeBatchTransferFrom(address,address,uint256[],uint256[],bytes)":"2eb2c2d6","safeTransferFrom(address,address,uint256,uint256,bytes)":"f242432a","sessionKeyManager()":"0b826190","setApprovalForAll(address,bool)":"a22cb465","setMinActionValue(uint256)":"52cbd3be","setPlatformFee(uint96)":"f99e5dbb","setPlatformTreasury(address)":"7cd86d60","setSessionKeyManager(address)":"837fa3fd","supportsInterface(bytes4)":"01ffc9a7","unpause()":"3f4ba83a","updateProfile(string,string,string)":"1105a5eb","upgradeToAndCall(address,bytes)":"4f1ef286","uri(uint256)":"0e89341c"},"id":67}